{
  "contracts/Mocks.sol": {
    "MockNativeAssets": {
      "abi": [
        {
          "inputs": [
            {
              "internalType": "address",
              "name": "",
              "type": "address"
            }
          ],
          "name": "balanceOf",
          "outputs": [
            {
              "internalType": "uint256",
              "name": "",
              "type": "uint256"
            }
          ],
          "stateMutability": "view",
          "type": "function"
        },
        {
          "inputs": [
            {
              "internalType": "address",
              "name": "to",
              "type": "address"
            },
            {
              "internalType": "uint256",
              "name": "amount",
              "type": "uint256"
            }
          ],
          "name": "transfer",
          "outputs": [
            {
              "internalType": "bool",
              "name": "",
              "type": "bool"
            }
          ],
          "stateMutability": "nonpayable",
          "type": "function"
        },
        {
          "stateMutability": "payable",
          "type": "receive"
        }
      ],
      "evm": {
        "assembly": "// RO data = 0/0 bytes\n// RW data = 0/65584 bytes\n// Stack size = 32768 bytes\n\n// Instructions = 493\n// Code size = 1512 bytes\n\n      : @0 (gas: 2)\n     0: a1 = i32 [0x20008]\n     5: jump @22 if a1 == 0\n      : @1 (gas: 4)\n     9: a0 = 0x30030\n    14: i32 a0 = a0 + 0\n    16: ecalli 5 // 'set_immutable_data'\n    18: jump @22\n      : @2 [@dyn 1] (gas: 100)\n    21: a1 = u8 [a0 + 0x1]\n    24: a2 = u8 [a0]\n    26: a3 = u8 [a0 + 0x2]\n    29: a4 = u8 [a0 + 0x3]\n    32: a1 = a1 << 0x8\n    35: a1 = a1 | a2\n    38: a3 = a3 << 0x10\n    41: a4 = a4 << 0x18\n    44: a3 = a3 | a4\n    47: a1 = a1 | a3\n    50: a2 = u8 [a0 + 0x5]\n    53: a3 = u8 [a0 + 0x4]\n    56: a4 = u8 [a0 + 0x6]\n    59: a5 = u8 [a0 + 0x7]\n    62: a2 = a2 << 0x8\n    65: a2 = a2 | a3\n    68: a4 = a4 << 0x10\n    71: a5 = a5 << 0x18\n    74: a4 = a4 | a5\n    77: a2 = a2 | a4\n    80: a2 = a2 << 0x20\n    83: t0 = a2 | a1\n    86: a2 = u8 [a0 + 0x9]\n    89: a3 = u8 [a0 + 0x8]\n    92: a4 = u8 [a0 + 0xa]\n    95: a5 = u8 [a0 + 0xb]\n    98: a2 = a2 << 0x8\n   101: a2 = a2 | a3\n   104: a4 = a4 << 0x10\n   107: a5 = a5 << 0x18\n   110: a4 = a4 | a5\n   113: a2 = a2 | a4\n   116: a3 = u8 [a0 + 0xd]\n   119: a4 = u8 [a0 + 0xc]\n   122: a5 = u8 [a0 + 0xe]\n   125: a1 = u8 [a0 + 0xf]\n   128: a3 = a3 << 0x8\n   131: a3 = a3 | a4\n   134: a5 = a5 << 0x10\n   137: a1 = a1 << 0x18\n   140: a1 = a1 | a5\n   143: a1 = a1 | a3\n   146: a1 = a1 << 0x20\n   149: t1 = a1 | a2\n   152: a1 = u8 [a0 + 0x11]\n   155: a3 = u8 [a0 + 0x10]\n   158: a4 = u8 [a0 + 0x12]\n   161: a5 = u8 [a0 + 0x13]\n   164: a1 = a1 << 0x8\n   167: a1 = a1 | a3\n   170: a4 = a4 << 0x10\n   173: a5 = a5 << 0x18\n   176: a4 = a4 | a5\n   179: a1 = a1 | a4\n   182: a3 = u8 [a0 + 0x15]\n   185: a4 = u8 [a0 + 0x14]\n   188: a5 = u8 [a0 + 0x16]\n   191: a2 = u8 [a0 + 0x17]\n   194: a3 = a3 << 0x8\n   197: a3 = a3 | a4\n   200: a5 = a5 << 0x10\n   203: a2 = a2 << 0x18\n   206: a2 = a2 | a5\n   209: a2 = a2 | a3\n   212: a2 = a2 << 0x20\n   215: a3 = a2 | a1\n   218: a1 = u8 [a0 + 0x19]\n   221: a2 = u8 [a0 + 0x18]\n   224: a4 = u8 [a0 + 0x1a]\n   227: a5 = u8 [a0 + 0x1b]\n   230: a1 = a1 << 0x8\n   233: a1 = a1 | a2\n   236: a4 = a4 << 0x10\n   239: a5 = a5 << 0x18\n   242: a4 = a4 | a5\n   245: a1 = a1 | a4\n   248: a2 = u8 [a0 + 0x1d]\n   251: a4 = u8 [a0 + 0x1c]\n   254: a5 = u8 [a0 + 0x1e]\n   257: a0 = u8 [a0 + 0x1f]\n   260: a2 = a2 << 0x8\n   263: a2 = a2 | a4\n   266: a5 = a5 << 0x10\n   269: a0 = a0 << 0x18\n   272: a0 = a0 | a5\n   275: a0 = a0 | a2\n   278: a0 = a0 << 0x20\n   281: a0 = a0 | a1\n   284: a0 = reverse a0\n   286: a1 = reverse a3\n   288: a2 = reverse t1\n   290: a3 = reverse t0\n   292: u64 [s0 + 0x18] = a3\n   295: u64 [s0 + 0x10] = a2\n   298: u64 [s0 + 0x8] = a1\n   301: u64 [s0] = a0\n   303: ra = u64 [sp + 0x8]\n   306: s0 = u64 [sp]\n   308: sp = sp + 0x10\n   311: ret\n      : @3 (gas: 12)\n   313: sp = sp + 0xffffffffffffffd8\n   316: u64 [sp + 0x20] = ra\n   319: u64 [sp + 0x18] = s0\n   322: u64 [sp + 0x10] = s1\n   325: a2 = u64 [a1]\n   327: u64 [sp + 0x8] = a2\n   330: a2 = u64 [a1 + 0x8]\n   333: u64 [sp] = a2\n   335: s0 = u64 [a1 + 0x10]\n   338: s1 = u64 [a1 + 0x18]\n   341: a1 = 0x20\n   344: ra = 4, jump @5\n      : @4 [@dyn 2] (gas: 71)\n   349: a1 = reverse s1\n   351: a2 = reverse s0\n   353: a3 = u64 [sp]\n   355: a3 = reverse a3\n   357: a4 = u64 [sp + 0x8]\n   360: a4 = reverse a4\n   362: u8 [a0 + 0x18] = a4\n   365: u8 [a0 + 0x10] = a3\n   368: u8 [a0 + 0x8] = a2\n   371: u8 [a0] = a1\n   373: a5 = a4 >> 0x38\n   376: u8 [a0 + 0x1f] = a5\n   379: a5 = a4 >> 0x30\n   382: u8 [a0 + 0x1e] = a5\n   385: a5 = a4 >> 0x28\n   388: u8 [a0 + 0x1d] = a5\n   391: a5 = a4 >> 0x20\n   394: u8 [a0 + 0x1c] = a5\n   397: a5 = a4 >> 0x18\n   400: u8 [a0 + 0x1b] = a5\n   403: a5 = a4 >> 0x10\n   406: u8 [a0 + 0x1a] = a5\n   409: a4 = a4 >> 0x8\n   412: u8 [a0 + 0x19] = a4\n   415: a4 = a3 >> 0x38\n   418: u8 [a0 + 0x17] = a4\n   421: a4 = a3 >> 0x30\n   424: u8 [a0 + 0x16] = a4\n   427: a4 = a3 >> 0x28\n   430: u8 [a0 + 0x15] = a4\n   433: a4 = a3 >> 0x20\n   436: u8 [a0 + 0x14] = a4\n   439: a4 = a3 >> 0x18\n   442: u8 [a0 + 0x13] = a4\n   445: a4 = a3 >> 0x10\n   448: u8 [a0 + 0x12] = a4\n   451: a3 = a3 >> 0x8\n   454: u8 [a0 + 0x11] = a3\n   457: a3 = a2 >> 0x38\n   460: u8 [a0 + 0xf] = a3\n   463: a3 = a2 >> 0x30\n   466: u8 [a0 + 0xe] = a3\n   469: a3 = a2 >> 0x28\n   472: u8 [a0 + 0xd] = a3\n   475: a3 = a2 >> 0x20\n   478: u8 [a0 + 0xc] = a3\n   481: a3 = a2 >> 0x18\n   484: u8 [a0 + 0xb] = a3\n   487: a3 = a2 >> 0x10\n   490: u8 [a0 + 0xa] = a3\n   493: a2 = a2 >> 0x8\n   496: u8 [a0 + 0x9] = a2\n   499: a2 = a1 >> 0x38\n   502: u8 [a0 + 0x7] = a2\n   505: a2 = a1 >> 0x30\n   508: u8 [a0 + 0x6] = a2\n   511: a2 = a1 >> 0x28\n   514: u8 [a0 + 0x5] = a2\n   517: a2 = a1 >> 0x20\n   520: u8 [a0 + 0x4] = a2\n   523: a2 = a1 >> 0x18\n   526: u8 [a0 + 0x3] = a2\n   529: a2 = a1 >> 0x10\n   532: u8 [a0 + 0x2] = a2\n   535: a1 = a1 >> 0x8\n   538: u8 [a0 + 0x1] = a1\n   541: ra = u64 [sp + 0x20]\n   544: s0 = u64 [sp + 0x18]\n   547: s1 = u64 [sp + 0x10]\n   550: sp = sp + 0x28\n   553: ret\n      : @5 (gas: 2)\n   555: i32 a2 = a0 >> 0x10\n   558: jump @10 if a2 != 0\n      : @6 (gas: 4)\n   561: a1 = a1 + a0\n   564: i32 a1 = a1 + 0x1f\n   567: a1 = a1 & 0xffffffffffffffe0\n   570: jump @10 if a1 >u 65536\n      : @7 (gas: 3)\n   576: a2 = 0x20004\n   581: a3 = i32 [0x20004]\n   586: jump @9 if a3 >=u a1\n      : @8 (gas: 2)\n   589: u32 [0x20004] = a1\n   594: fallthrough\n      : @9 (gas: 4)\n   595: a1 = 0x20010\n   600: i32 a0 = a0 + 0\n   602: a0 = a0 + a1\n   605: ret\n      : @10 (gas: 1)\n   607: trap\n      : @11 (gas: 6)\n   608: sp = sp + 0xfffffffffffffff0\n   611: u64 [sp + 0x8] = ra\n   614: u64 [sp] = s0\n   616: s0 = a0 & 0x1\n   619: ecalli 3 // 'call_data_size'\n   621: fallthrough\n      : @12 (gas: 2)\n   622: u32 [0x20000] = a0\n   627: jump @14 if s0 == 0\n      : @13 (gas: 1)\n   630: ra = 6, jump @15\n      : @14 [@dyn 3] (gas: 1)\n   634: ra = 8, jump @24\n      : @15 [@dyn 4] (gas: 12)\n   639: sp = sp + 0xffffffffffffffa0\n   642: u64 [sp + 0x58] = ra\n   645: u64 [sp + 0x50] = s0\n   648: s0 = sp + 0x60\n   651: sp = sp & 0xffffffffffffffe0\n   654: u64 [sp + 24] = 0\n   657: u64 [sp + 16] = 0\n   660: u64 [sp + 0] = 0x80\n   664: a0 = 0x40\n   667: a1 = sp\n   669: u64 [sp + 8] = 0\n   672: ra = 10, jump @3\n      : @16 [@dyn 5] (gas: 7)\n   677: u64 [sp + 56] = 0\n   680: u64 [sp + 48] = 0\n   683: u64 [sp + 40] = 0\n   686: u64 [sp + 32] = 0\n   689: i32 a0 = sp + 0x20\n   692: ecalli 6 // 'value_transferred'\n   694: fallthrough\n      : @17 (gas: 8)\n   695: a0 = u64 [sp + 0x30]\n   698: a1 = u64 [sp + 0x38]\n   701: a2 = u64 [sp + 0x28]\n   704: a3 = u64 [sp + 0x20]\n   707: a1 = a1 | a2\n   710: a0 = a0 | a3\n   713: a0 = a0 | a1\n   716: jump @19 if a0 == 0\n      : @18 (gas: 7)\n   719: a1 = 0x20010\n   724: i32 a1 = a1 + 0\n   726: a0 = 0x1\n   729: a2 = 0\n   731: ra = 0xe\n   734: ecalli 4 // 'seal_return'\n   736: jump @24\n      : @19 (gas: 2)\n   738: a1 = i32 [0x20004]\n   743: jump @21 if a1 >u 127\n      : @20 (gas: 2)\n   747: u32 [0x20004] = 0x80\n   754: fallthrough\n      : @21 (gas: 6)\n   755: a0 = 0x20010\n   760: i32 a0 = a0 + 0x80\n   764: a1 = 0\n   766: a2 = 0\n   768: ecalli 1 // 'call_data_copy'\n   770: jump @0\n      : @22 (gas: 3)\n   773: a0 = 0x80\n   777: a1 = 0\n   779: ra = 12, jump @5\n      : @23 [@dyn 6] (gas: 6)\n   784: i32 a1 = a0 + 0\n   786: a0 = 0\n   788: a2 = 0\n   790: ra = 0xe\n   793: ecalli 4 // 'seal_return'\n   795: fallthrough\n      : @24 [@dyn 7] (gas: 13)\n   796: sp = sp + 0xfffffffffffffea0\n   800: u64 [sp + 0x158] = ra\n   804: u64 [sp + 0x150] = s0\n   808: u64 [sp + 0x148] = s1\n   812: s0 = sp + 0x160\n   816: sp = sp & 0xffffffffffffffe0\n   819: u64 [sp + 184] = 0\n   823: u64 [sp + 176] = 0\n   827: u64 [sp + 160] = 0x80\n   833: a0 = 0x40\n   836: a1 = sp + 0xa0\n   840: u64 [sp + 168] = 0\n   844: ra = 16, jump @3\n      : @25 [@dyn 8] (gas: 3)\n   849: s1 = 0x20000\n   854: a0 = i32 [0x20000]\n   859: jump @46 if a0 <u 4\n      : @26 (gas: 4)\n   864: i32 a0 = sp + 0xc0\n   868: a1 = 0\n   870: ecalli 2 // 'call_data_load'\n   872: fallthrough\n      : @27 (gas: 2)\n   873: a0 = i32 [sp + 0xdc]\n   877: jump @35 if a0 != 2835717307\n      : @28 (gas: 7)\n   885: u64 [sp + 312] = 0\n   889: u64 [sp + 304] = 0\n   893: u64 [sp + 296] = 0\n   897: u64 [sp + 288] = 0\n   901: i32 a0 = sp + 0x120\n   905: ecalli 6 // 'value_transferred'\n   907: fallthrough\n      : @29 (gas: 8)\n   908: a0 = u64 [sp + 0x130]\n   912: a1 = u64 [sp + 0x138]\n   916: a2 = u64 [sp + 0x128]\n   920: a3 = u64 [sp + 0x120]\n   924: a1 = a1 | a2\n   927: a0 = a0 | a3\n   930: a0 = a0 | a1\n   933: jump @39 if a0 != 0\n      : @30 (gas: 2)\n   937: a0 = i32 [0x20000]\n   942: jump @40 if a0 <=u 67\n      : @31 (gas: 2)\n   947: a0 = sp + 0x80\n   951: ra = 18, jump @56\n      : @32 [@dyn 9] (gas: 12)\n   956: a0 = sp + 0x60\n   959: a1 = 0x40\n   962: ra = 0x14\n   965: sp = sp + 0xfffffffffffffff0\n   968: u64 [sp + 0x8] = ra\n   971: u64 [sp] = s0\n   973: a2 = a1\n   975: s0 = a0\n   977: a1 = 0x20\n   980: a0 = a2\n   982: ra = 0x2\n   985: jump @5\n      : @33 [@dyn 10] (gas: 12)\n   988: a0 = u64 [sp + 0x78]\n   991: a1 = u64 [sp + 0x70]\n   994: a2 = u64 [sp + 0x68]\n   997: s1 = u64 [sp + 0x60]\n  1000: a0 = a0 | a2\n  1003: a2 = s1 | a1\n  1006: a2 = a2 | a0\n  1009: a2 = a2 >> 0x20\n  1012: a0 = a0 | a1\n  1015: a0 = a0 << 0x20\n  1018: a0 = a0 | a2\n  1021: jump @41 if a0 == 0\n      : @34 (gas: 1)\n  1024: trap\n      : @35 (gas: 1)\n  1025: jump @45 if a0 != 1889567281\n      : @36 (gas: 7)\n  1033: u64 [sp + 248] = 0\n  1037: u64 [sp + 240] = 0\n  1041: u64 [sp + 232] = 0\n  1045: u64 [sp + 224] = 0\n  1049: i32 a0 = sp + 0xe0\n  1053: ecalli 6 // 'value_transferred'\n  1055: fallthrough\n      : @37 (gas: 8)\n  1056: a0 = u64 [sp + 0xf0]\n  1060: a1 = u64 [sp + 0xf8]\n  1064: a2 = u64 [sp + 0xe8]\n  1068: a3 = u64 [sp + 0xe0]\n  1072: a1 = a1 | a2\n  1075: a0 = a0 | a3\n  1078: a0 = a0 | a1\n  1081: jump @49 if a0 == 0\n      : @38 (gas: 6)\n  1085: a1 = 0x20010\n  1090: i32 a1 = a1 + 0\n  1092: a0 = 0x1\n  1095: a2 = 0\n  1097: ecalli 4 // 'seal_return'\n  1099: jump @48\n      : @39 (gas: 6)\n  1101: a1 = 0x20010\n  1106: i32 a1 = a1 + 0\n  1108: a0 = 0x1\n  1111: a2 = 0\n  1113: ecalli 4 // 'seal_return'\n  1115: jump @48\n      : @40 (gas: 6)\n  1117: a1 = 0x20010\n  1122: i32 a1 = a1 + 0\n  1124: a0 = 0x1\n  1127: a2 = 0\n  1129: ecalli 4 // 'seal_return'\n  1131: jump @48\n      : @41 (gas: 7)\n  1133: u64 [sp + 88] = 0\n  1136: u64 [sp + 80] = 0\n  1139: u64 [sp + 72] = 0\n  1142: a1 = sp + 0x40\n  1145: u64 [sp + 64] = 0x1\n  1149: a0 = s1\n  1151: ra = 22, jump @3\n      : @42 [@dyn 11] (gas: 3)\n  1156: a1 = 0x20\n  1159: a0 = s1\n  1161: ra = 24, jump @5\n      : @43 [@dyn 12] (gas: 2)\n  1166: i32 a1 = a0 + 0\n  1168: fallthrough\n      : @44 (gas: 5)\n  1169: a2 = 0x20\n  1172: a0 = 0\n  1174: ecalli 4 // 'seal_return'\n  1176: a0 = i32 [s1]\n  1178: jump @46\n      : @45 (gas: 2)\n  1180: a0 = i32 [0x20000]\n  1185: fallthrough\n      : @46 (gas: 1)\n  1186: jump @48 if a0 == 0\n      : @47 (gas: 6)\n  1189: a1 = 0x20010\n  1194: i32 a1 = a1 + 0\n  1196: a0 = 0x1\n  1199: a2 = 0\n  1201: ecalli 4 // 'seal_return'\n  1203: fallthrough\n      : @48 (gas: 6)\n  1204: a1 = 0x20010\n  1209: i32 a1 = a1 + 0\n  1211: a0 = 0\n  1213: a2 = 0\n  1215: ecalli 4 // 'seal_return'\n  1217: jump @48\n      : @49 (gas: 2)\n  1219: a0 = i32 [0x20000]\n  1224: jump @51 if a0 >u 35\n      : @50 (gas: 6)\n  1228: a1 = 0x20010\n  1233: i32 a1 = a1 + 0\n  1235: a0 = 0x1\n  1238: a2 = 0\n  1240: ecalli 4 // 'seal_return'\n  1242: jump @48\n      : @51 (gas: 2)\n  1244: a0 = sp + 0x20\n  1247: ra = 26, jump @56\n      : @52 [@dyn 13] (gas: 13)\n  1251: i32 a0 = sp + 0x100\n  1255: ecalli 0 // 'balance'\n  1256: a2 = u64 [sp + 0x100]\n  1260: a0 = u64 [sp + 0x108]\n  1264: a1 = u64 [sp + 0x110]\n  1268: a3 = u64 [sp + 0x118]\n  1272: u64 [sp + 0x18] = a3\n  1275: u64 [sp + 0x10] = a1\n  1278: u64 [sp + 0x8] = a0\n  1281: a0 = 0x80\n  1285: a1 = sp\n  1287: u64 [sp] = a2\n  1289: ra = 28, jump @3\n      : @53 [@dyn 14] (gas: 2)\n  1294: a1 = i32 [0x20004]\n  1299: jump @55 if a1 >u 159\n      : @54 (gas: 4)\n  1304: u32 [0x20004] = 0xa0\n  1311: a0 = 0x20010\n  1316: i32 a1 = a0 + 0x80\n  1320: jump @44\n      : @55 (gas: 3)\n  1323: a0 = 0x20010\n  1328: i32 a1 = a0 + 0x80\n  1332: jump @44\n      : @56 (gas: 11)\n  1335: sp = sp + 0xffffffffffffffc0\n  1338: u64 [sp + 0x38] = ra\n  1341: u64 [sp + 0x30] = s0\n  1344: u64 [sp + 0x28] = s1\n  1347: s0 = sp + 0x40\n  1350: sp = sp & 0xffffffffffffffe0\n  1353: s1 = a0\n  1355: i32 a0 = sp + 0\n  1357: a1 = 0x4\n  1360: ecalli 2 // 'call_data_load'\n  1362: fallthrough\n      : @57 (gas: 10)\n  1363: a0 = u64 [sp + 0x10]\n  1366: a1 = u64 [sp + 0x18]\n  1369: a2 = 0x100000000\n  1379: a2 = a2 ^ a0\n  1382: a2 = a2 | a1\n  1385: a3 = a0 >> 0x20\n  1388: a3 = a3 <u 0x1\n  1391: a3 = 0 if a1 != 0\n  1393: a3 = 0 if a2 == 0\n  1395: jump @59 if a3 == 0\n      : @58 (gas: 12)\n  1398: a2 = u64 [sp]\n  1400: a3 = u64 [sp + 0x8]\n  1403: u64 [s1] = a2\n  1405: u64 [s1 + 0x8] = a3\n  1408: u64 [s1 + 0x10] = a0\n  1411: u64 [s1 + 0x18] = a1\n  1414: sp = s0 + 0xffffffffffffffc0\n  1417: ra = u64 [sp + 0x38]\n  1420: s0 = u64 [sp + 0x30]\n  1423: s1 = u64 [sp + 0x28]\n  1426: sp = sp + 0x40\n  1429: ret\n      : @59 (gas: 8)\n  1431: a1 = 0x20010\n  1436: i32 a1 = a1 + 0\n  1438: a0 = 0x1\n  1441: a2 = 0\n  1443: ecalli 4 // 'seal_return'\n  1445: a0 = 0\n  1447: ra = 0x1e\n  1450: jump @11\n      : @60 [export #0: 'call'] (gas: 2)\n  1453: a0 = 0\n  1455: ra = 30, jump @11\n      : @61 [@dyn 15] [export #1: 'deploy'] (gas: 2)\n  1460: a0 = 0x1\n  1463: ra = 32, jump @11\n      : @62 [@dyn 16] (gas: 16)\n  1468: a4 = u64 [a3]\n  1470: u64 [sp + 0x18] = a4\n  1473: a4 = u64 [a3 + 0x8]\n  1476: u64 [sp + 0x20] = a4\n  1479: a4 = u64 [a3 + 0x10]\n  1482: u64 [sp + 0x28] = a4\n  1485: a3 = u64 [a3 + 0x18]\n  1488: u64 [sp + 0x30] = a3\n  1491: s1 = u64 [a2]\n  1493: a3 = u64 [a2 + 0x8]\n  1496: u64 [sp] = a3\n  1498: a3 = u64 [a2 + 0x10]\n  1501: u64 [sp + 0x8] = a3\n  1504: a2 = u64 [a2 + 0x18]\n  1507: u64 [sp + 0x10] = a2\n  1510: jump [t0]\n",
        "bytecode": {
          "linkReferences": {},
          "object": "50564d00007407000000000000010700c13000c00080047c0700000000070000001500000023000000310000003c0000004e00000062616c616e636563616c6c5f646174615f636f707963616c6c5f646174615f6c6f616463616c6c5f646174615f73697a657365616c5f72657475726e7365745f696d6d757461626c655f6461746176616c75655f7472616e7366657272656405110285ad0463616c6c85b4066465706c6f790686c9100285e815005d017a027f02a50210031c035103bc03dc0384048e04e3040e05b405bc05390808000251080003330730000383770a0528f3027c78017c797c7a027c7b03978808d4980897aa1097bb18d4ba0ad4a8087c79057c7a047c7b067c7c07979908d4a90997bb1097cc18d4cb0bd4b909979920d489027c79097c7a087c7b0a7c7c0b979908d4a90997bb1097cc18d4cb0bd4b9097c7a0d7c7b0c7c7c0e7c780f97aa08d4ba0a97cc10978818d4c808d4a808978820d498037c78117c7a107c7b127c7c13978808d4a80897bb1097cc18d4cb0bd4b8087c7a157c7b147c7c167c791797aa08d4ba0a97cc10979918d4c909d4a909979920d4890a7c78197c79187c7b1a7c7c1b978808d4980897bb1097cc18d4cb0bd4b8087c791d7c7b1c7c7c1e7c771f979908d4b90997cc10977718d4c707d49707977720d487076f776fa86f396f2a7b5a187b59107b58087b57821008821595111032009511d87b10207b15187b161082897b19088289087b19828510828618330820501004d3006f686f59821a6faa821b086fbb787b18787a10787908787898bc38787c1f98bc30787c1e98bc28787c1d98bc20787c1c98bc18787c1b98bc10787c1a98bb08787b1998ab38787b1798ab30787b1698ab28787b1598ab20787b1498ab18787b1398ab10787b1298aa08787a11989a38787a0f989a30787a0e989a28787a0d989a20787a0c989a18787a0b989a10787a0a98990878790998893878790798893078790698892878790598892078790498891878790398891078790298880878780182102082151882161095112832008b7910520931c8780883881f8488e05638000001253309040002390a040002ae8a093d080400020133081000028377c887073200009511f07b10087b158475010a03013d0700000251050750100609501008a2009511a07b10587b15509515608411e049111849111049018000330740641849110850100a99fe4911384911304911284911208317200a0601821730821838821928821a20d49808d4a707d4870751071633081000028388330701330933000e0a04283c390804000256187f0c2003040002800001330710000283778000330833090a0128fefc33078000330850100c20ff83783307330933000e0a04019511a0fe7b1058017b1550017b164801951560018411e04921b8004921b0004921a00080003307409518a0004921a800501010edfd3306000002390700000253170447018317c00033080a02018117dc005247bb9c05a9940049213801492130014921280149212001831720010a0601821730018218380182192801821a2001d49808d4a707d487075207a8003907000002541743af009517800050101280019517603308403300149511f07b10087b156489647533082064973300022852fe821778821870821968821660d49707d48609d47909989920d48707977720d497075107700052473182a0709b004921f8004921f0004921e8004921e0008317e0000a06018217f0008218f8008219e800821ae000d49808d4a707d4870751078a003308100002838833070133090a0428693308100002838833070133090a0428593308100002838833070133090a042849491158491150491148951840491140016467501016bafc3308206467501018a2fd83780133092033070a04816728083907000002015107123308100002838833070133090a040133081000028388330733090a0428f33907000002561723143308100002838833070133090a0428da95172050101a58831700010a821900018217080182181001821a18017b1a187b18107b17083307800064187b1950101c30fc390804000256289f00182003040002a0003307100002837880002869ff330710000283788000285dff9511c07b10387b15307b16289515408411e0647683173308040a020182171082181814090000000001000000d37909d48909987a2088aa01948a939a510a248219821a087b697b6a087b67107b68189551c082103882153082162895114032003308100002838833070133090a04330733001e28b6fc330750101eb1fc330701501020a9fc82ab7b1b1882ab087b1b2082ab107b1b2882aa187b1a308296829a087b1a829a107b1a088299187b1910320221422525499224499224499224499224499224499224499224499224499224499224495295a49492a4a424a12a2529499224499224499224499224499224499224499224494a920421240ca549694884244912292149d2244992504a85080c51250a551a111189081211420851232022221a11912442889024a9529224499224032222a211114922942a942a942a49a29042531526941aaa0a114a9588111149a242088110099124492a4d0248924a294992a450aaa49050922429254900",
          "opcodes": ""
        },
        "methodIdentifiers": {
          "balanceOf(address)": "70a08231",
          "transfer(address,uint256)": "a9059cbb"
        }
      },
      "hash": "3ac37168f2d46908c8fa13f1fab294f50eda35df7bf0b7422b36dcad994e8c4a",
      "factoryDependencies": {}
    }
  }
}