{
  "contracts/DotVault.sol": {
    "DotVault": {
      "abi": [
        {
          "inputs": [],
          "stateMutability": "nonpayable",
          "type": "constructor"
        },
        {
          "inputs": [],
          "name": "InsufficientShares",
          "type": "error"
        },
        {
          "inputs": [],
          "name": "NotOwner",
          "type": "error"
        },
        {
          "inputs": [],
          "name": "StakingFailed",
          "type": "error"
        },
        {
          "inputs": [],
          "name": "XCMFailed",
          "type": "error"
        },
        {
          "inputs": [],
          "name": "ZeroAmount",
          "type": "error"
        },
        {
          "anonymous": false,
          "inputs": [
            {
              "indexed": true,
              "internalType": "uint32",
              "name": "paraId",
              "type": "uint32"
            },
            {
              "indexed": true,
              "internalType": "address",
              "name": "recipient",
              "type": "address"
            },
            {
              "indexed": false,
              "internalType": "uint256",
              "name": "amount",
              "type": "uint256"
            }
          ],
          "name": "CrossChainTransfer",
          "type": "event"
        },
        {
          "anonymous": false,
          "inputs": [
            {
              "indexed": true,
              "internalType": "address",
              "name": "depositor",
              "type": "address"
            },
            {
              "indexed": false,
              "internalType": "uint256",
              "name": "assets",
              "type": "uint256"
            },
            {
              "indexed": false,
              "internalType": "uint256",
              "name": "shares",
              "type": "uint256"
            }
          ],
          "name": "Deposited",
          "type": "event"
        },
        {
          "anonymous": false,
          "inputs": [
            {
              "indexed": true,
              "internalType": "address",
              "name": "withdrawer",
              "type": "address"
            },
            {
              "indexed": false,
              "internalType": "uint256",
              "name": "shares",
              "type": "uint256"
            },
            {
              "indexed": false,
              "internalType": "uint256",
              "name": "assets",
              "type": "uint256"
            }
          ],
          "name": "Withdrawn",
          "type": "event"
        },
        {
          "anonymous": false,
          "inputs": [
            {
              "indexed": true,
              "internalType": "uint32",
              "name": "era",
              "type": "uint32"
            },
            {
              "indexed": false,
              "internalType": "uint256",
              "name": "yield",
              "type": "uint256"
            }
          ],
          "name": "YieldHarvested",
          "type": "event"
        },
        {
          "inputs": [],
          "name": "NATIVE_ASSETS",
          "outputs": [
            {
              "internalType": "contract INativeAssets",
              "name": "",
              "type": "address"
            }
          ],
          "stateMutability": "view",
          "type": "function"
        },
        {
          "inputs": [],
          "name": "STAKING",
          "outputs": [
            {
              "internalType": "contract IStaking",
              "name": "",
              "type": "address"
            }
          ],
          "stateMutability": "view",
          "type": "function"
        },
        {
          "inputs": [],
          "name": "XCM_PRECOMPILE",
          "outputs": [
            {
              "internalType": "contract IXCM",
              "name": "",
              "type": "address"
            }
          ],
          "stateMutability": "view",
          "type": "function"
        },
        {
          "inputs": [
            {
              "internalType": "address",
              "name": "account",
              "type": "address"
            }
          ],
          "name": "balanceOf",
          "outputs": [
            {
              "internalType": "uint256",
              "name": "",
              "type": "uint256"
            }
          ],
          "stateMutability": "view",
          "type": "function"
        },
        {
          "inputs": [
            {
              "internalType": "uint32",
              "name": "paraId",
              "type": "uint32"
            },
            {
              "internalType": "address",
              "name": "recipient",
              "type": "address"
            },
            {
              "internalType": "uint256",
              "name": "amount",
              "type": "uint256"
            }
          ],
          "name": "bridgeYieldToParachain",
          "outputs": [],
          "stateMutability": "nonpayable",
          "type": "function"
        },
        {
          "inputs": [],
          "name": "deposit",
          "outputs": [],
          "stateMutability": "payable",
          "type": "function"
        },
        {
          "inputs": [],
          "name": "depositorCount",
          "outputs": [
            {
              "internalType": "uint256",
              "name": "count",
              "type": "uint256"
            }
          ],
          "stateMutability": "view",
          "type": "function"
        },
        {
          "inputs": [],
          "name": "estimatedAPY",
          "outputs": [
            {
              "internalType": "uint256",
              "name": "apy",
              "type": "uint256"
            }
          ],
          "stateMutability": "view",
          "type": "function"
        },
        {
          "inputs": [
            {
              "internalType": "uint32",
              "name": "paraId",
              "type": "uint32"
            },
            {
              "internalType": "uint256",
              "name": "amount",
              "type": "uint256"
            },
            {
              "internalType": "uint64",
              "name": "weight",
              "type": "uint64"
            }
          ],
          "name": "harvestYield",
          "outputs": [],
          "stateMutability": "nonpayable",
          "type": "function"
        },
        {
          "inputs": [],
          "name": "owner",
          "outputs": [
            {
              "internalType": "address",
              "name": "",
              "type": "address"
            }
          ],
          "stateMutability": "view",
          "type": "function"
        },
        {
          "inputs": [],
          "name": "sharePrice",
          "outputs": [
            {
              "internalType": "uint256",
              "name": "price",
              "type": "uint256"
            }
          ],
          "stateMutability": "view",
          "type": "function"
        },
        {
          "inputs": [],
          "name": "totalDeposited",
          "outputs": [
            {
              "internalType": "uint256",
              "name": "",
              "type": "uint256"
            }
          ],
          "stateMutability": "view",
          "type": "function"
        },
        {
          "inputs": [],
          "name": "totalShares",
          "outputs": [
            {
              "internalType": "uint256",
              "name": "",
              "type": "uint256"
            }
          ],
          "stateMutability": "view",
          "type": "function"
        },
        {
          "inputs": [
            {
              "internalType": "uint256",
              "name": "shares",
              "type": "uint256"
            }
          ],
          "name": "withdraw",
          "outputs": [],
          "stateMutability": "nonpayable",
          "type": "function"
        },
        {
          "stateMutability": "payable",
          "type": "receive"
        }
      ],
      "evm": {
        "assembly": "// RO data = 0/0 bytes\n// RW data = 132/65744 bytes\n// Stack size = 32768 bytes\n\n// Instructions = 6068\n// Code size = 20830 bytes\n\n      : @0 (gas: 7)\n     0: sp = sp + 0xffffffffffffffe8\n     3: u64 [sp + 0x10] = ra\n     6: u64 [sp + 0x8] = s0\n     9: u64 [sp] = s1\n    11: s1 = 0x20080\n    16: s0 = i32 [0x20080]\n    21: jump @3 if s0 == 0\n      : @1 (gas: 5)\n    24: a0 = 0x300b0\n    29: i32 a0 = a0 + 0\n    31: i32 a1 = s1 + 0\n    33: ecalli 7 // 'get_immutable_data'\n    35: fallthrough\n      : @2 (gas: 3)\n    36: a0 = i32 [0x20080]\n    41: u32 [0x20080] = 0\n    46: jump @4 if a0 <u s0\n      : @3 (gas: 5)\n    49: ra = u64 [sp + 0x10]\n    52: s0 = u64 [sp + 0x8]\n    55: s1 = u64 [sp]\n    57: sp = sp + 0x18\n    60: ret\n      : @4 (gas: 1)\n    62: trap\n      : @5 (gas: 2)\n    63: a1 = i32 [0x20080]\n    68: jump @40 if a1 == 0\n      : @6 (gas: 4)\n    72: a0 = 0x300b0\n    77: i32 a0 = a0 + 0\n    79: ecalli 14 // 'set_immutable_data'\n    81: jump @40\n      : @7 (gas: 8)\n    84: sp = sp + 0xfffffffffffffff0\n    87: u64 [sp + 0x8] = ra\n    90: u64 [sp] = s0\n    92: a2 = a1\n    94: s0 = a0\n    96: a1 = 0x20\n    99: a0 = a2\n   101: ra = 2, jump @19\n      : @8 [@dyn 1] (gas: 100)\n   106: a1 = u8 [a0 + 0x1]\n   109: a2 = u8 [a0]\n   111: a3 = u8 [a0 + 0x2]\n   114: a4 = u8 [a0 + 0x3]\n   117: a1 = a1 << 0x8\n   120: a1 = a1 | a2\n   123: a3 = a3 << 0x10\n   126: a4 = a4 << 0x18\n   129: a3 = a3 | a4\n   132: a1 = a1 | a3\n   135: a2 = u8 [a0 + 0x5]\n   138: a3 = u8 [a0 + 0x4]\n   141: a4 = u8 [a0 + 0x6]\n   144: a5 = u8 [a0 + 0x7]\n   147: a2 = a2 << 0x8\n   150: a2 = a2 | a3\n   153: a4 = a4 << 0x10\n   156: a5 = a5 << 0x18\n   159: a4 = a4 | a5\n   162: a2 = a2 | a4\n   165: a2 = a2 << 0x20\n   168: t0 = a2 | a1\n   171: a2 = u8 [a0 + 0x9]\n   174: a3 = u8 [a0 + 0x8]\n   177: a4 = u8 [a0 + 0xa]\n   180: a5 = u8 [a0 + 0xb]\n   183: a2 = a2 << 0x8\n   186: a2 = a2 | a3\n   189: a4 = a4 << 0x10\n   192: a5 = a5 << 0x18\n   195: a4 = a4 | a5\n   198: a2 = a2 | a4\n   201: a3 = u8 [a0 + 0xd]\n   204: a4 = u8 [a0 + 0xc]\n   207: a5 = u8 [a0 + 0xe]\n   210: a1 = u8 [a0 + 0xf]\n   213: a3 = a3 << 0x8\n   216: a3 = a3 | a4\n   219: a5 = a5 << 0x10\n   222: a1 = a1 << 0x18\n   225: a1 = a1 | a5\n   228: a1 = a1 | a3\n   231: a1 = a1 << 0x20\n   234: t1 = a1 | a2\n   237: a1 = u8 [a0 + 0x11]\n   240: a3 = u8 [a0 + 0x10]\n   243: a4 = u8 [a0 + 0x12]\n   246: a5 = u8 [a0 + 0x13]\n   249: a1 = a1 << 0x8\n   252: a1 = a1 | a3\n   255: a4 = a4 << 0x10\n   258: a5 = a5 << 0x18\n   261: a4 = a4 | a5\n   264: a1 = a1 | a4\n   267: a3 = u8 [a0 + 0x15]\n   270: a4 = u8 [a0 + 0x14]\n   273: a5 = u8 [a0 + 0x16]\n   276: a2 = u8 [a0 + 0x17]\n   279: a3 = a3 << 0x8\n   282: a3 = a3 | a4\n   285: a5 = a5 << 0x10\n   288: a2 = a2 << 0x18\n   291: a2 = a2 | a5\n   294: a2 = a2 | a3\n   297: a2 = a2 << 0x20\n   300: a3 = a2 | a1\n   303: a1 = u8 [a0 + 0x19]\n   306: a2 = u8 [a0 + 0x18]\n   309: a4 = u8 [a0 + 0x1a]\n   312: a5 = u8 [a0 + 0x1b]\n   315: a1 = a1 << 0x8\n   318: a1 = a1 | a2\n   321: a4 = a4 << 0x10\n   324: a5 = a5 << 0x18\n   327: a4 = a4 | a5\n   330: a1 = a1 | a4\n   333: a2 = u8 [a0 + 0x1d]\n   336: a4 = u8 [a0 + 0x1c]\n   339: a5 = u8 [a0 + 0x1e]\n   342: a0 = u8 [a0 + 0x1f]\n   345: a2 = a2 << 0x8\n   348: a2 = a2 | a4\n   351: a5 = a5 << 0x10\n   354: a0 = a0 << 0x18\n   357: a0 = a0 | a5\n   360: a0 = a0 | a2\n   363: a0 = a0 << 0x20\n   366: a0 = a0 | a1\n   369: a0 = reverse a0\n   371: a1 = reverse a3\n   373: a2 = reverse t1\n   375: a3 = reverse t0\n   377: u64 [s0 + 0x18] = a3\n   380: u64 [s0 + 0x10] = a2\n   383: u64 [s0 + 0x8] = a1\n   386: u64 [s0] = a0\n   388: ra = u64 [sp + 0x8]\n   391: s0 = u64 [sp]\n   393: sp = sp + 0x10\n   396: ret\n      : @9 (gas: 12)\n   398: sp = sp + 0xffffffffffffffd8\n   401: u64 [sp + 0x20] = ra\n   404: u64 [sp + 0x18] = s0\n   407: u64 [sp + 0x10] = s1\n   410: a2 = u64 [a1]\n   412: u64 [sp + 0x8] = a2\n   415: a2 = u64 [a1 + 0x8]\n   418: u64 [sp] = a2\n   420: s0 = u64 [a1 + 0x10]\n   423: s1 = u64 [a1 + 0x18]\n   426: a1 = 0x20\n   429: ra = 4, jump @19\n      : @10 [@dyn 2] (gas: 71)\n   434: a1 = reverse s1\n   436: a2 = reverse s0\n   438: a3 = u64 [sp]\n   440: a3 = reverse a3\n   442: a4 = u64 [sp + 0x8]\n   445: a4 = reverse a4\n   447: u8 [a0 + 0x18] = a4\n   450: u8 [a0 + 0x10] = a3\n   453: u8 [a0 + 0x8] = a2\n   456: u8 [a0] = a1\n   458: a5 = a4 >> 0x38\n   461: u8 [a0 + 0x1f] = a5\n   464: a5 = a4 >> 0x30\n   467: u8 [a0 + 0x1e] = a5\n   470: a5 = a4 >> 0x28\n   473: u8 [a0 + 0x1d] = a5\n   476: a5 = a4 >> 0x20\n   479: u8 [a0 + 0x1c] = a5\n   482: a5 = a4 >> 0x18\n   485: u8 [a0 + 0x1b] = a5\n   488: a5 = a4 >> 0x10\n   491: u8 [a0 + 0x1a] = a5\n   494: a4 = a4 >> 0x8\n   497: u8 [a0 + 0x19] = a4\n   500: a4 = a3 >> 0x38\n   503: u8 [a0 + 0x17] = a4\n   506: a4 = a3 >> 0x30\n   509: u8 [a0 + 0x16] = a4\n   512: a4 = a3 >> 0x28\n   515: u8 [a0 + 0x15] = a4\n   518: a4 = a3 >> 0x20\n   521: u8 [a0 + 0x14] = a4\n   524: a4 = a3 >> 0x18\n   527: u8 [a0 + 0x13] = a4\n   530: a4 = a3 >> 0x10\n   533: u8 [a0 + 0x12] = a4\n   536: a3 = a3 >> 0x8\n   539: u8 [a0 + 0x11] = a3\n   542: a3 = a2 >> 0x38\n   545: u8 [a0 + 0xf] = a3\n   548: a3 = a2 >> 0x30\n   551: u8 [a0 + 0xe] = a3\n   554: a3 = a2 >> 0x28\n   557: u8 [a0 + 0xd] = a3\n   560: a3 = a2 >> 0x20\n   563: u8 [a0 + 0xc] = a3\n   566: a3 = a2 >> 0x18\n   569: u8 [a0 + 0xb] = a3\n   572: a3 = a2 >> 0x10\n   575: u8 [a0 + 0xa] = a3\n   578: a2 = a2 >> 0x8\n   581: u8 [a0 + 0x9] = a2\n   584: a2 = a1 >> 0x38\n   587: u8 [a0 + 0x7] = a2\n   590: a2 = a1 >> 0x30\n   593: u8 [a0 + 0x6] = a2\n   596: a2 = a1 >> 0x28\n   599: u8 [a0 + 0x5] = a2\n   602: a2 = a1 >> 0x20\n   605: u8 [a0 + 0x4] = a2\n   608: a2 = a1 >> 0x18\n   611: u8 [a0 + 0x3] = a2\n   614: a2 = a1 >> 0x10\n   617: u8 [a0 + 0x2] = a2\n   620: a1 = a1 >> 0x8\n   623: u8 [a0 + 0x1] = a1\n   626: ra = u64 [sp + 0x20]\n   629: s0 = u64 [sp + 0x18]\n   632: s1 = u64 [sp + 0x10]\n   635: sp = sp + 0x28\n   638: ret\n      : @11 (gas: 32)\n   640: sp = sp + 0xffffffffffffffa0\n   643: u64 [sp + 0x58] = ra\n   646: u64 [sp + 0x50] = s0\n   649: u64 [sp + 0x48] = s1\n   652: s0 = sp + 0x60\n   655: sp = sp & 0xffffffffffffffe0\n   658: s1 = a0\n   660: a0 = u64 [a1 + 0x18]\n   663: a2 = u64 [a1 + 0x10]\n   666: a3 = u64 [a1 + 0x8]\n   669: a1 = u64 [a1]\n   671: a0 = reverse a0\n   673: a2 = reverse a2\n   675: a3 = reverse a3\n   677: a1 = reverse a1\n   679: u64 [sp + 0x18] = a1\n   682: u64 [sp + 0x10] = a3\n   685: u64 [sp + 0x8] = a2\n   688: u64 [sp] = a0\n   690: u64 [sp + 56] = 0\n   693: u64 [sp + 48] = 0\n   696: u64 [sp + 40] = 0\n   699: u64 [sp + 32] = 0\n   702: u32 [sp + 64] = 0x20\n   706: i32 a1 = sp + 0\n   708: i32 a3 = sp + 0x20\n   711: i32 a4 = sp + 0x40\n   714: a2 = 0xffffffffffffffff\n   717: a0 = 0\n   719: ra = 0x6\n   722: ecalli 8 // 'get_storage'\n   724: fallthrough\n      : @12 [@dyn 3] (gas: 5)\n   725: a0 = u64 [sp + 0x38]\n   728: a1 = u64 [sp + 0x30]\n   731: a2 = u64 [sp + 0x28]\n   734: a3 = u64 [sp + 0x20]\n   737: t0 = 8, jump @698\n      : @13 [@dyn 4] (gas: 10)\n   742: u64 [s1 + 0x18] = a3\n   745: u64 [s1 + 0x10] = a2\n   748: u64 [s1 + 0x8] = a1\n   751: u64 [s1] = a0\n   753: sp = s0 + 0xffffffffffffffa0\n   756: ra = u64 [sp + 0x58]\n   759: s0 = u64 [sp + 0x50]\n   762: s1 = u64 [sp + 0x48]\n   765: sp = sp + 0x60\n   768: ret\n      : @14 (gas: 40)\n   770: sp = sp + 0xffffffffffffffa0\n   773: u64 [sp + 0x58] = ra\n   776: u64 [sp + 0x50] = s0\n   779: s0 = sp + 0x60\n   782: sp = sp & 0xffffffffffffffe0\n   785: t0 = u64 [a0]\n   787: a3 = u64 [a0 + 0x8]\n   790: a4 = u64 [a0 + 0x10]\n   793: a0 = u64 [a0 + 0x18]\n   796: t1 = u64 [a1]\n   798: a2 = u64 [a1 + 0x8]\n   801: a5 = u64 [a1 + 0x10]\n   804: a1 = u64 [a1 + 0x18]\n   807: t2 = reverse a0\n   809: a4 = reverse a4\n   811: a3 = reverse a3\n   813: a0 = reverse t0\n   815: t0 = reverse a1\n   817: a5 = reverse a5\n   819: a2 = reverse a2\n   821: a1 = reverse t1\n   823: u64 [sp + 0x18] = a0\n   826: u64 [sp + 0x10] = a3\n   829: u64 [sp + 0x8] = a4\n   832: u64 [sp] = t2\n   834: u64 [sp + 0x38] = a1\n   837: u64 [sp + 0x30] = a2\n   840: u64 [sp + 0x28] = a5\n   843: u64 [sp + 0x20] = t0\n   846: i32 a1 = sp + 0\n   848: i32 a3 = sp + 0x20\n   851: a2 = 0xffffffffffffffff\n   854: a4 = 0x20\n   857: a0 = 0\n   859: ecalli 15 // 'set_storage'\n   861: sp = s0 + 0xffffffffffffffa0\n   864: ra = u64 [sp + 0x58]\n   867: s0 = u64 [sp + 0x50]\n   870: sp = sp + 0x60\n   873: ret\n      : @15 (gas: 24)\n   875: sp = sp + 0xffffffffffffff60\n   879: u64 [sp + 0x98] = ra\n   883: u64 [sp + 0x90] = s0\n   887: u64 [sp + 0x88] = s1\n   891: s0 = sp + 0xa0\n   895: sp = sp & 0xffffffffffffffe0\n   898: a4 = u64 [a3]\n   900: u64 [sp + 0x38] = a4\n   903: a4 = u64 [a3 + 0x8]\n   906: u64 [sp + 0x30] = a4\n   909: a4 = u64 [a3 + 0x10]\n   912: u64 [sp + 0x28] = a4\n   915: a3 = u64 [a3 + 0x18]\n   918: u64 [sp + 0x20] = a3\n   921: a3 = u64 [a2]\n   923: u64 [sp + 0x18] = a3\n   926: a3 = u64 [a2 + 0x8]\n   929: u64 [sp + 0x10] = a3\n   932: a3 = u64 [a2 + 0x10]\n   935: u64 [sp + 0x8] = a3\n   938: a2 = u64 [a2 + 0x18]\n   941: u64 [sp] = a2\n   943: s1 = a1\n   945: ra = 10, jump @19\n      : @16 [@dyn 5] (gas: 35)\n   950: a1 = u64 [sp]\n   952: a1 = reverse a1\n   954: a2 = u64 [sp + 0x8]\n   957: a2 = reverse a2\n   959: a3 = u64 [sp + 0x10]\n   962: a3 = reverse a3\n   964: a4 = u64 [sp + 0x18]\n   967: a4 = reverse a4\n   969: u64 [sp + 0x58] = a4\n   972: u64 [sp + 0x50] = a3\n   975: u64 [sp + 0x48] = a2\n   978: u64 [sp + 0x40] = a1\n   981: a1 = u64 [sp + 0x20]\n   984: a1 = reverse a1\n   986: a2 = u64 [sp + 0x28]\n   989: a2 = reverse a2\n   991: a3 = u64 [sp + 0x30]\n   994: a3 = reverse a3\n   996: a4 = u64 [sp + 0x38]\n   999: a4 = reverse a4\n  1001: u64 [sp + 0x78] = a4\n  1004: u64 [sp + 0x70] = a3\n  1007: u64 [sp + 0x68] = a2\n  1010: u64 [sp + 0x60] = a1\n  1013: i32 a2 = a0 + 0\n  1015: i32 a3 = s1 + 0\n  1017: i32 a0 = sp + 0x40\n  1020: a1 = 0x2\n  1023: ecalli 6 // 'deposit_event'\n  1025: sp = s0 + 0xffffffffffffff60\n  1029: ra = u64 [sp + 0x98]\n  1033: s0 = u64 [sp + 0x90]\n  1037: s1 = u64 [sp + 0x88]\n  1041: sp = sp + 0xa0\n  1045: ret\n      : @17 [@dyn 6] (gas: 2)\n  1047: u64 [sp + 0x38] = a1\n  1050: ra = 14, jump @19\n      : @18 [@dyn 7] (gas: 46)\n  1055: a1 = reverse s1\n  1057: u64 [sp + 0x78] = a1\n  1060: a1 = u64 [sp]\n  1062: a1 = reverse a1\n  1064: u64 [sp + 0x70] = a1\n  1067: a1 = u64 [sp + 0x8]\n  1070: a1 = reverse a1\n  1072: u64 [sp + 0x68] = a1\n  1075: a1 = u64 [sp + 0x10]\n  1078: a1 = reverse a1\n  1080: u64 [sp + 0x60] = a1\n  1083: a1 = u64 [sp + 0x18]\n  1086: a1 = reverse a1\n  1088: u64 [sp + 0x98] = a1\n  1092: a1 = u64 [sp + 0x20]\n  1095: a1 = reverse a1\n  1097: u64 [sp + 0x90] = a1\n  1101: a1 = u64 [sp + 0x28]\n  1104: a1 = reverse a1\n  1106: u64 [sp + 0x88] = a1\n  1110: a1 = u64 [sp + 0x30]\n  1113: a1 = reverse a1\n  1115: u64 [sp + 0x80] = a1\n  1119: a1 = u64 [sp + 0x40]\n  1122: a1 = reverse a1\n  1124: u64 [sp + 0xb8] = a1\n  1128: a1 = u64 [sp + 0x48]\n  1131: a1 = reverse a1\n  1133: u64 [sp + 0xb0] = a1\n  1137: a1 = u64 [sp + 0x50]\n  1140: a1 = reverse a1\n  1142: u64 [sp + 0xa8] = a1\n  1146: a1 = u64 [sp + 0x58]\n  1149: a1 = reverse a1\n  1151: u64 [sp + 0xa0] = a1\n  1155: i32 a2 = a0 + 0\n  1157: a3 = i32 [sp + 0x38]\n  1160: i32 a0 = sp + 0x60\n  1163: a1 = 0x3\n  1166: ecalli 6 // 'deposit_event'\n  1168: sp = s0 + 0xffffffffffffff20\n  1172: ra = u64 [sp + 0xd8]\n  1176: s0 = u64 [sp + 0xd0]\n  1180: s1 = u64 [sp + 0xc8]\n  1184: sp = sp + 0xe0\n  1188: ret\n      : @19 (gas: 2)\n  1190: i32 a2 = a0 >> 0x10\n  1193: jump @24 if a2 != 0\n      : @20 (gas: 4)\n  1196: a1 = a1 + a0\n  1199: i32 a1 = a1 + 0x1f\n  1202: a1 = a1 & 0xffffffffffffffe0\n  1205: jump @24 if a1 >u 65536\n      : @21 (gas: 3)\n  1211: a2 = 0x20088\n  1216: a3 = i32 [0x20088]\n  1221: jump @23 if a3 >=u a1\n      : @22 (gas: 2)\n  1224: u32 [0x20088] = a1\n  1229: fallthrough\n      : @23 (gas: 4)\n  1230: a1 = 0x20090\n  1235: i32 a0 = a0 + 0\n  1237: a0 = a0 + a1\n  1240: ret\n      : @24 (gas: 1)\n  1242: trap\n      : @25 (gas: 6)\n  1243: sp = sp + 0xfffffffffffffff0\n  1246: u64 [sp + 0x8] = ra\n  1249: u64 [sp] = s0\n  1251: s0 = a0 & 0x1\n  1254: ecalli 3 // 'call_data_size'\n  1256: fallthrough\n      : @26 (gas: 2)\n  1257: u32 [0x20084] = a0\n  1262: jump @28 if s0 == 0\n      : @27 (gas: 1)\n  1265: ra = 16, jump @29\n      : @28 [@dyn 8] (gas: 1)\n  1269: ra = 18, jump @42\n      : @29 [@dyn 9] (gas: 13)\n  1274: sp = sp + 0xffffffffffffff60\n  1278: u64 [sp + 0x98] = ra\n  1282: u64 [sp + 0x90] = s0\n  1286: u64 [sp + 0x88] = s1\n  1290: s0 = sp + 0xa0\n  1294: sp = sp & 0xffffffffffffffe0\n  1297: u64 [sp + 88] = 0\n  1300: u64 [sp + 80] = 0\n  1303: u64 [sp + 64] = 0xa0\n  1308: a0 = 0x40\n  1311: a1 = sp + a0\n  1314: u64 [sp + 72] = 0\n  1317: ra = 20, jump @9\n      : @30 [@dyn 10] (gas: 7)\n  1322: u64 [sp + 120] = 0\n  1325: u64 [sp + 112] = 0\n  1328: u64 [sp + 104] = 0\n  1331: u64 [sp + 96] = 0\n  1334: i32 a0 = sp + 0x60\n  1337: ecalli 16 // 'value_transferred'\n  1339: fallthrough\n      : @31 (gas: 8)\n  1340: a0 = u64 [sp + 0x70]\n  1343: a1 = u64 [sp + 0x78]\n  1346: a2 = u64 [sp + 0x68]\n  1349: a3 = u64 [sp + 0x60]\n  1352: a1 = a1 | a2\n  1355: a0 = a0 | a3\n  1358: a0 = a0 | a1\n  1361: jump @33 if a0 == 0\n      : @32 (gas: 7)\n  1364: a1 = 0x20090\n  1369: i32 a1 = a1 + 0\n  1371: a0 = 0x1\n  1374: a2 = 0\n  1376: ra = 0x20\n  1379: ecalli 13 // 'seal_return'\n  1381: jump @42\n      : @33 (gas: 5)\n  1384: s1 = 0x30090\n  1389: i32 a0 = s1 + 0\n  1391: ra = 0x16\n  1394: ecalli 4 // 'caller'\n  1396: fallthrough\n      : @34 [@dyn 11] (gas: 4)\n  1397: a0 = u64 [s1 + 0x8]\n  1400: a1 = i32 [s1 + 0x10]\n  1403: a2 = u64 [s1]\n  1405: t0 = 24, jump @691\n      : @35 [@dyn 12] (gas: 7)\n  1410: u64 [sp + 56] = 0\n  1413: u64 [sp + 0x30] = a1\n  1416: u64 [sp + 0x28] = a0\n  1419: a0 = 0x80\n  1423: a1 = sp + 0x20\n  1426: u64 [sp + 0x20] = a3\n  1429: ra = 26, jump @9\n      : @36 [@dyn 13] (gas: 2)\n  1434: a1 = i32 [0x20088]\n  1439: jump @38 if a1 >u 159\n      : @37 (gas: 2)\n  1444: u32 [0x20088] = 0xa0\n  1451: fallthrough\n      : @38 (gas: 8)\n  1452: a0 = 0x20090\n  1457: i32 a0 = a0 + 0xa0\n  1461: a1 = 0\n  1463: a2 = 0\n  1465: ecalli 1 // 'call_data_copy'\n  1467: a0 = sp\n  1469: a1 = 0x80\n  1473: ra = 28, jump @7\n      : @39 [@dyn 14] (gas: 9)\n  1478: a0 = u64 [sp + 0x18]\n  1481: a2 = u64 [sp + 0x10]\n  1484: a3 = u64 [sp + 0x8]\n  1487: a4 = u64 [sp]\n  1489: u64 [0x300c8] = a0\n  1494: u64 [0x300c0] = a2\n  1499: u64 [0x300b8] = a3\n  1504: u64 [0x300b0] = a4\n  1509: jump @5\n      : @40 (gas: 3)\n  1512: a0 = 0xa0\n  1516: a1 = 0\n  1518: ra = 30, jump @19\n      : @41 [@dyn 15] (gas: 6)\n  1523: i32 a1 = a0 + 0\n  1525: a0 = 0\n  1527: a2 = 0\n  1529: ra = 0x20\n  1532: ecalli 13 // 'seal_return'\n  1534: fallthrough\n      : @42 [@dyn 16] (gas: 16)\n  1535: sp = sp + 0xfffffffffffffe10\n  1539: u64 [sp + 0x1e8] = ra\n  1543: u64 [sp + 0x1e0] = s0\n  1547: u64 [sp + 0x1d8] = s1\n  1551: s0 = sp + 0x1f0\n  1555: sp = sp + 0xffffffffffffe590\n  1559: sp = sp & 0xffffffffffffffe0\n  1562: s1 = sp\n  1564: a2 = s1 + 0x1018\n  1568: u64 [a2 + 960] = 0\n  1572: u64 [a2 + 952] = 0\n  1576: u64 [a2 + 936] = 0x80\n  1582: a0 = 0x40\n  1585: a1 = s1 + 0x13c0\n  1589: u64 [a2 + 944] = 0\n  1593: ra = 34, jump @9\n      : @43 [@dyn 17] (gas: 4)\n  1598: a0 = 0x20084\n  1603: u64 [s1 + 0x98] = a0\n  1607: a0 = i32 [0x20084]\n  1612: jump @45 if a0 >=u 4\n      : @44 (gas: 1)\n  1616: jump @481\n      : @45 (gas: 14)\n  1619: a0 = sp + 0xffffffffffffffe0\n  1622: a0 = a0 & 0xffffffffffffffe0\n  1625: sp = a0\n  1627: u64 [a0 + 24] = 0\n  1630: u64 [a0 + 16] = 0\n  1633: u64 [a0 + 8] = 0\n  1636: u64 [s1 + 0x90] = a0\n  1640: u64 [a0 + 0] = 0\n  1642: a0 = s1 + 0x1000\n  1646: i32 a0 = a0 + 0x3e0\n  1650: a1 = 0\n  1652: ra = 0x24\n  1655: ecalli 2 // 'call_data_load'\n  1657: fallthrough\n      : @46 [@dyn 18] (gas: 3)\n  1658: a2 = s1 + 0x1018\n  1662: a0 = i32 [a2 + 0x3e4]\n  1666: jump @48 if a0 != 2193786616\n      : @47 (gas: 1)\n  1673: jump @282\n      : @48 (gas: 1)\n  1676: jump @154 if a0 == 2267453225\n      : @49 (gas: 2)\n  1684: a3 = s1 + 0x1838\n  1688: jump @51 if a0 != 2376452955\n      : @50 (gas: 1)\n  1695: jump @322\n      : @51 (gas: 1)\n  1698: jump @53 if a0 != 2539720496\n      : @52 (gas: 1)\n  1705: jump @303\n      : @53 (gas: 1)\n  1708: jump @99 if a0 == 3077821430\n      : @54 (gas: 1)\n  1716: jump @56 if a0 != 3504541104\n      : @55 (gas: 1)\n  1723: jump @312\n      : @56 (gas: 1)\n  1726: jump @165 if a0 == 4053373911\n      : @57 (gas: 1)\n  1734: jump @59 if a0 != 4283476956\n      : @58 (gas: 1)\n  1741: jump @291\n      : @59 (gas: 1)\n  1744: jump @144 if a0 == 662609192\n      : @60 (gas: 1)\n  1752: jump @176 if a0 == 773487949\n      : @61 (gas: 1)\n  1760: jump @63 if a0 != 983101241\n      : @62 (gas: 1)\n  1767: jump @271\n      : @63 (gas: 1)\n  1770: jump @65 if a0 == 1686143249\n      : @64 (gas: 1)\n  1777: jump @333\n      : @65 (gas: 8)\n  1780: u64 [a2 + 1792] = 0\n  1784: u64 [a2 + 1784] = 0\n  1788: u64 [a2 + 1776] = 0\n  1792: u64 [a2 + 1768] = 0\n  1796: a0 = s1 + 0x1000\n  1800: i32 a0 = a0 + 0x700\n  1804: ecalli 16 // 'value_transferred'\n  1806: fallthrough\n      : @66 (gas: 10)\n  1807: a3 = s1 + 0x1018\n  1811: a4 = a3 + 0x600\n  1815: a0 = u64 [a4 + 0xf8]\n  1819: a1 = u64 [a3 + 0x700]\n  1823: a2 = u64 [a4 + 0xf0]\n  1827: a3 = u64 [a4 + 0xe8]\n  1831: a1 = a1 | a2\n  1834: a0 = a0 | a3\n  1837: a0 = a0 | a1\n  1840: jump @68 if a0 == 0\n      : @67 (gas: 1)\n  1843: jump @453\n      : @68 (gas: 3)\n  1846: a0 = u64 [s1 + 0x98]\n  1850: a0 = i32 [a0]\n  1852: jump @70 if a0 >u 99\n      : @69 (gas: 1)\n  1856: jump @453\n      : @70 (gas: 3)\n  1859: a0 = s1 + 0x7ff\n  1863: a0 = a0 + 0x2c1\n  1867: ra = 38, jump @499\n      : @71 [@dyn 19] (gas: 5)\n  1872: a0 = s1 + 0x1000\n  1876: i32 a0 = a0 + 0x720\n  1880: a1 = 0x44\n  1883: ecalli 2 // 'call_data_load'\n  1885: fallthrough\n      : @72 (gas: 9)\n  1886: a2 = s1 + 0x1018\n  1890: a3 = a2 + 0x700\n  1894: a0 = u64 [a3 + 0x20]\n  1897: a1 = u64 [a3 + 0x18]\n  1900: a2 = u64 [a3 + 0x10]\n  1903: a0 = a0 | a1\n  1906: a1 = a2 <u 0x1\n  1909: a1 = 0 if a0 != 0\n  1911: jump @74 if a1 != 0\n      : @73 (gas: 1)\n  1914: jump @456\n      : @74 (gas: 1)\n  1917: ra = 40, jump @0\n      : @75 [@dyn 20] (gas: 13)\n  1922: a1 = u64 [0x300b8]\n  1927: u64 [s1 + 0x88] = a1\n  1931: a1 = u64 [0x300b0]\n  1936: u64 [s1 + 0x80] = a1\n  1940: a0 = u32 [0x300c0]\n  1945: u64 [s1 + 0x78] = a0\n  1948: a0 = 0x30090\n  1953: u64 [s1 + 0x98] = a0\n  1957: i32 a0 = a0 + 0\n  1959: ra = 0x2a\n  1962: ecalli 4 // 'caller'\n  1964: t0 = 0x2c\n  1967: jump @692\n      : @76 [@dyn 21] (gas: 1)\n  1970: t0 = 44, jump @692\n      : @77 [@dyn 22] (gas: 9)\n  1975: a2 = u64 [s1 + 0x78]\n  1978: a1 = a1 ^ a2\n  1981: a2 = u64 [s1 + 0x80]\n  1985: a0 = a0 ^ a2\n  1988: a0 = a0 | a1\n  1991: a1 = u64 [s1 + 0x88]\n  1995: a1 = a1 ^ a3\n  1998: a0 = a0 | a1\n  2001: jump @79 if a0 == 0\n      : @78 (gas: 1)\n  2004: jump @457\n      : @79 (gas: 5)\n  2007: a0 = s1 + 0x1000\n  2011: i32 a0 = a0 + 0x740\n  2015: a1 = 0x24\n  2018: ecalli 2 // 'call_data_load'\n  2020: fallthrough\n      : @80 (gas: 10)\n  2021: a3 = s1 + 0x1018\n  2025: a4 = a3 + 0x700\n  2029: a0 = u64 [a4 + 0x38]\n  2032: a1 = u64 [a4 + 0x40]\n  2035: a2 = u64 [a4 + 0x30]\n  2038: a3 = u64 [a4 + 0x28]\n  2041: a1 = a1 | a2\n  2044: a0 = a0 | a3\n  2047: a0 = a0 | a1\n  2050: jump @82 if a0 != 0\n      : @81 (gas: 1)\n  2053: jump @458\n      : @82 (gas: 4)\n  2056: a0 = s1 + 0x7ff\n  2060: a0 = a0 + 0x281\n  2064: a1 = 0x40\n  2067: ra = 46, jump @7\n      : @83 [@dyn 23] (gas: 15)\n  2072: a2 = s1 + 0x7ff\n  2076: a2 = a2 + 0x19\n  2079: t0 = u64 [a2 + 0x280]\n  2083: a1 = a2 + 0x200\n  2087: a5 = u64 [a1 + 0x78]\n  2090: a4 = u64 [a1 + 0x70]\n  2093: a0 = u64 [a1 + 0x68]\n  2096: a3 = a4 | t0\n  2099: a1 = a0 | a5\n  2102: a1 = a1 | a3\n  2105: a1 = a1 >> 0x20\n  2108: a3 = a3 | a5\n  2111: a3 = a3 << 0x20\n  2114: a1 = a1 | a3\n  2117: jump @85 if a1 == 0\n      : @84 (gas: 1)\n  2120: jump @452\n      : @85 (gas: 12)\n  2123: u64 [s1 + 0x70] = t0\n  2126: u64 [s1 + 0x78] = a5\n  2129: u64 [s1 + 0x80] = a4\n  2133: u64 [a2 + 600] = 0\n  2137: u64 [a2 + 592] = 0\n  2141: u64 [a2 + 584] = 0\n  2145: a3 = 0xc2f192cb00000000\n  2155: a1 = s1 + 0x7ff\n  2159: a1 = a1 + 0x261\n  2163: u64 [a2 + 0x260] = a3\n  2167: u64 [s1 + 0x88] = a0\n  2171: ra = 48, jump @9\n      : @86 [@dyn 24] (gas: 13)\n  2176: ecalli 10 // 'ref_time_left'\n  2178: a1 = u64 [s1 + 0x98]\n  2182: u64 [a1 + 8] = 0\n  2185: u64 [a1 + 0] = 0\n  2187: u32 [a1 + 16] = 0x80000\n  2193: a0 = s1 + 0x1018\n  2197: u64 [a0 + 1888] = 0\n  2201: u64 [a0 + 1880] = 0\n  2205: u64 [a0 + 1872] = 0\n  2209: u64 [a0 + 1864] = 0\n  2213: a1 = 0x4\n  2216: a0 = u64 [s1 + 0x88]\n  2220: ra = 50, jump @19\n      : @87 [@dyn 25] (gas: 4)\n  2225: u64 [s1 + 0x68] = a0\n  2228: a1 = 0x20\n  2231: a0 = u64 [s1 + 0x88]\n  2235: ra = 52, jump @19\n      : @88 [@dyn 26] (gas: 33)\n  2240: a1 = s1 + 0x1018\n  2244: u32 [a1 + 1896] = 0x20\n  2249: u64 [a1 + 1952] = 0\n  2253: u64 [a1 + 1944] = 0\n  2257: u64 [a1 + 1936] = 0\n  2261: u64 [a1 + 1928] = 0\n  2265: a1 = u64 [s1 + 0x98]\n  2269: a1 = a1 << 0x20\n  2272: a1 = a1 >> 0x20\n  2275: a2 = 0x1800000000\n  2285: t0 = a1 | a2\n  2288: a1 = s1 + 0x1760\n  2292: a1 = a1 << 0x20\n  2295: a1 = a1 >> 0x20\n  2298: a2 = s1 + 0x17a0\n  2302: a2 = a2 << 0x20\n  2305: a3 = a2 | a1\n  2308: a1 = u64 [s1 + 0x68]\n  2311: a1 = a1 << 0x20\n  2314: a1 = a1 >> 0x20\n  2317: a2 = 0x400000000\n  2327: a4 = a1 | a2\n  2330: a0 = a0 << 0x20\n  2333: a0 = a0 >> 0x20\n  2336: a1 = s1 + 0x1780\n  2340: a1 = a1 << 0x20\n  2343: a5 = a1 | a0\n  2346: a1 = 0xffffffffffffffff\n  2349: a2 = 0xffffffffffffffff\n  2352: u64 [s1 + 0x68] = t0\n  2355: a0 = t0\n  2357: ecalli 0 // 'call'\n  2358: fallthrough\n      : @89 (gas: 1)\n  2359: jump @91 if a0 == 0\n      : @90 (gas: 1)\n  2362: jump @398\n      : @91 (gas: 2)\n  2365: ecalli 12 // 'return_data_size'\n  2367: fallthrough\n      : @92 (gas: 2)\n  2368: a1 = 0x20\n  2371: jump @94 if a0 >=u a1\n      : @93 (gas: 3)\n  2374: ecalli 12 // 'return_data_size'\n  2376: a1 = a0\n  2378: fallthrough\n      : @94 (gas: 21)\n  2379: a2 = s1 + 0x7ff\n  2383: a2 = a2 + 0x19\n  2386: t0 = u64 [s1 + 0x88]\n  2390: a4 = u64 [s1 + 0x80]\n  2394: a5 = u64 [s1 + 0x78]\n  2397: a3 = u64 [s1 + 0x70]\n  2400: u64 [s1 + 0x58] = a1\n  2403: u64 [s1 + 96] = 0\n  2406: u64 [a2 + 0x1e8] = a1\n  2410: u64 [a2 + 0x208] = t0\n  2414: u64 [a2 + 496] = 0\n  2418: u64 [a2 + 0x210] = a4\n  2422: u64 [a2 + 504] = 0\n  2426: u64 [a2 + 0x218] = a5\n  2430: u64 [a2 + 512] = 0\n  2434: a0 = s1 + 0x7ff\n  2438: a0 = a0 + 0x221\n  2442: a1 = s1 + 0x7ff\n  2446: a1 = a1 + 0x201\n  2450: u64 [a2 + 0x220] = a3\n  2454: ra = 54, jump @546\n      : @95 [@dyn 27] (gas: 51)\n  2459: t0 = u64 [s1 + 0x88]\n  2463: a1 = u64 [s1 + 0x58]\n  2466: a0 = a1 + t0\n  2469: a1 = a0 <u a1\n  2472: t1 = u64 [s1 + 0x80]\n  2476: a5 = u64 [s1 + 0x60]\n  2479: a2 = a5 + t1\n  2482: a2 = a2 + a1\n  2485: a3 = a2 ^ a5\n  2488: a4 = a2 <u a5\n  2491: a4 = a1 if a3 == 0\n  2494: ra = u64 [s1 + 0x78]\n  2497: a1 = a5 + ra\n  2500: a4 = a4 + a1\n  2503: t2 = a4 <u a1\n  2506: a1 = a1 <u a5\n  2509: a3 = u64 [s1 + 0x70]\n  2512: a5 = a5 + a3\n  2515: a1 = a1 + a5\n  2518: t2 = t2 + a1\n  2521: a1 = s1 + 0x7ff\n  2525: a1 = a1 + 0x19\n  2528: u64 [a1 + 0x198] = a4\n  2532: a1 = s1 + 0x7ff\n  2536: a1 = a1 + 0x19\n  2539: u64 [a1 + 0x190] = a2\n  2543: a1 = s1 + 0x7ff\n  2547: a1 = a1 + 0x19\n  2550: u64 [a1 + 0x188] = a0\n  2554: a0 = s1 + 0x7ff\n  2558: a0 = a0 + 0x19\n  2561: u64 [a0 + 0x1c0] = a3\n  2565: a0 = s1 + 0x7ff\n  2569: a0 = a0 + 0x19\n  2572: u64 [a0 + 0x1b8] = ra\n  2576: a0 = s1 + 0x7ff\n  2580: a0 = a0 + 0x19\n  2583: u64 [a0 + 0x1b0] = t1\n  2587: a0 = s1 + 0x7ff\n  2591: a0 = a0 + 0x19\n  2594: u64 [a0 + 0x1a8] = t0\n  2598: a0 = s1 + 0x7ff\n  2602: a0 = a0 + 0x1e1\n  2606: a1 = s1 + 0x7ff\n  2610: a1 = a1 + 0x1c1\n  2614: a2 = s1 + 0x7ff\n  2618: a2 = a2 + 0x1a1\n  2622: a4 = s1 + 0x7ff\n  2626: a4 = a4 + 0x19\n  2629: u64 [a4 + 0x1a0] = t2\n  2633: ra = 56, jump @556\n      : @96 [@dyn 28] (gas: 5)\n  2638: a3 = s1 + 0x7ff\n  2642: a3 = a3 + 0x19\n  2645: a0 = u64 [a3 + 0x1c8]\n  2649: i32 a1 = a0 + 0\n  2651: jump @98 if a1 == 0\n      : @97 (gas: 1)\n  2654: jump @410\n      : @98 (gas: 5)\n  2657: u64 [s1 + 128] = 0\n  2661: u64 [s1 + 120] = 0\n  2664: u64 [s1 + 112] = 0\n  2667: u64 [s1 + 96] = 0\n  2670: jump @412\n      : @99 (gas: 8)\n  2673: u64 [a3 + 320] = 0\n  2677: u64 [a3 + 312] = 0\n  2681: u64 [a3 + 304] = 0\n  2685: u64 [a3 + 296] = 0\n  2689: a0 = s1 + 0x2000\n  2693: i32 a0 = a0 + 0xfffffffffffff960\n  2697: ecalli 16 // 'value_transferred'\n  2699: fallthrough\n      : @100 (gas: 10)\n  2700: a3 = s1 + 0x1838\n  2704: a4 = a3 + 0x100\n  2708: a0 = u64 [a4 + 0x38]\n  2711: a1 = u64 [a4 + 0x40]\n  2714: a2 = u64 [a4 + 0x30]\n  2717: a3 = u64 [a4 + 0x28]\n  2720: a1 = a1 | a2\n  2723: a0 = a0 | a3\n  2726: a0 = a0 | a1\n  2729: jump @102 if a0 == 0\n      : @101 (gas: 1)\n  2732: jump @453\n      : @102 (gas: 3)\n  2735: a0 = u64 [s1 + 0x98]\n  2739: a0 = i32 [a0]\n  2741: jump @104 if a0 >u 99\n      : @103 (gas: 1)\n  2745: jump @453\n      : @104 (gas: 3)\n  2748: a0 = s1 + 0x7ff\n  2752: a0 = a0 + 0x681\n  2756: ra = 58, jump @499\n      : @105 [@dyn 29] (gas: 9)\n  2761: a0 = s1 + 0x7ff\n  2765: a0 = a0 + 0x19\n  2768: a0 = u64 [a0 + 0x668]\n  2772: u64 [s1 + 0x50] = a0\n  2775: a0 = s1 + 0x2000\n  2779: i32 a0 = a0 + 0xfffffffffffff980\n  2783: a1 = 0x24\n  2786: ecalli 2 // 'call_data_load'\n  2788: fallthrough\n      : @106 (gas: 12)\n  2789: a3 = s1 + 0x1838\n  2793: a2 = u64 [a3 + 0x158]\n  2797: a0 = u64 [a3 + 0x160]\n  2801: a1 = 0x100000000\n  2811: a1 = a1 ^ a2\n  2814: a1 = a1 | a0\n  2817: u64 [s1 + 0x38] = a2\n  2820: a2 = a2 >> 0x20\n  2823: a2 = a2 <u 0x1\n  2826: a2 = 0 if a0 != 0\n  2828: a2 = 0 if a1 == 0\n  2830: jump @108 if a2 != 0\n      : @107 (gas: 1)\n  2833: jump @453\n      : @108 (gas: 19)\n  2836: a0 = u64 [a3 + 0x150]\n  2840: u64 [s1 + 0x40] = a0\n  2843: a0 = u64 [a3 + 0x148]\n  2847: u64 [s1 + 0x48] = a0\n  2850: a0 = s1 + 0x2000\n  2854: i32 a0 = a0 + 0xfffffffffffff9a0\n  2858: a1 = 0x44\n  2861: ecalli 2 // 'call_data_load'\n  2863: a1 = s1 + 0x1838\n  2867: a2 = a1 + 0x100\n  2871: a0 = u64 [a2 + 0x80]\n  2875: u64 [s1 + 0x90] = a0\n  2879: a0 = u64 [a2 + 0x78]\n  2882: u64 [s1 + 0x88] = a0\n  2886: a0 = u64 [a2 + 0x70]\n  2889: u64 [s1 + 0x80] = a0\n  2893: a0 = u64 [a2 + 0x68]\n  2896: u64 [s1 + 0x78] = a0\n  2899: ra = 60, jump @0\n      : @109 [@dyn 30] (gas: 14)\n  2904: a1 = u64 [0x300b8]\n  2909: u64 [s1 + 0x68] = a1\n  2912: a1 = u64 [0x300b0]\n  2917: u64 [s1 + 0x60] = a1\n  2920: a0 = u32 [0x300c0]\n  2925: u64 [s1 + 0x58] = a0\n  2928: a0 = 0x30090\n  2933: u64 [s1 + 0x98] = a0\n  2937: i32 a0 = a0 + 0\n  2939: u64 [s1 + 0x70] = a0\n  2942: ra = 0x3e\n  2945: ecalli 4 // 'caller'\n  2947: t0 = 0x40\n  2950: jump @692\n      : @110 [@dyn 31] (gas: 1)\n  2953: t0 = 64, jump @692\n      : @111 [@dyn 32] (gas: 9)\n  2958: a2 = u64 [s1 + 0x58]\n  2961: a1 = a1 ^ a2\n  2964: a2 = u64 [s1 + 0x60]\n  2967: a0 = a0 ^ a2\n  2970: a0 = a0 | a1\n  2973: a1 = u64 [s1 + 0x68]\n  2976: a1 = a1 ^ a3\n  2979: a0 = a0 | a1\n  2982: jump @113 if a0 == 0\n      : @112 (gas: 1)\n  2985: jump @459\n      : @113 (gas: 8)\n  2988: a0 = u64 [s1 + 0x88]\n  2992: a1 = u64 [s1 + 0x78]\n  2995: a0 = a0 | a1\n  2998: a1 = u64 [s1 + 0x90]\n  3002: a2 = u64 [s1 + 0x80]\n  3006: a1 = a1 | a2\n  3009: a0 = a0 | a1\n  3012: jump @115 if a0 != 0\n      : @114 (gas: 1)\n  3015: jump @460\n      : @115 (gas: 7)\n  3018: a1 = u64 [s1 + 0x98]\n  3022: u64 [a1 + 8] = 0\n  3025: u64 [a1 + 0] = 0\n  3027: u32 [a1 + 16] = 0x4080000\n  3034: a0 = u64 [s1 + 0x70]\n  3037: ecalli 5 // 'code_size'\n  3039: fallthrough\n      : @116 (gas: 1)\n  3040: jump @118 if a0 != 0\n      : @117 (gas: 1)\n  3043: jump @454\n      : @118 (gas: 4)\n  3046: a0 = s1 + 0x7ff\n  3050: a0 = a0 + 0x641\n  3054: a1 = 0x40\n  3057: ra = 66, jump @7\n      : @119 [@dyn 33] (gas: 15)\n  3062: a2 = s1 + 0x7ff\n  3066: a2 = a2 + 0x19\n  3069: t0 = u64 [a2 + 0x640]\n  3073: a1 = a2 + 0x600\n  3077: a4 = u64 [a1 + 0x38]\n  3080: a5 = u64 [a1 + 0x30]\n  3083: a0 = u64 [a1 + 0x28]\n  3086: a3 = a5 | t0\n  3089: a1 = a0 | a4\n  3092: a1 = a1 | a3\n  3095: a1 = a1 >> 0x20\n  3098: a3 = a3 | a4\n  3101: a3 = a3 << 0x20\n  3104: a1 = a1 | a3\n  3107: jump @121 if a1 == 0\n      : @120 (gas: 1)\n  3110: jump @452\n      : @121 (gas: 12)\n  3113: u64 [a2 + 1560] = 0\n  3117: u64 [a2 + 1552] = 0\n  3121: u64 [a2 + 1544] = 0\n  3125: a3 = 0x677e65e800000000\n  3135: a1 = s1 + 0x7ff\n  3139: a1 = a1 + 0x621\n  3143: u64 [a2 + 0x620] = a3\n  3147: u64 [s1 + 0x60] = t0\n  3150: u64 [s1 + 0x58] = a4\n  3153: u64 [s1 + 0x68] = a5\n  3156: u64 [s1 + 0x70] = a0\n  3159: ra = 68, jump @9\n      : @122 [@dyn 34] (gas: 11)\n  3164: a2 = u64 [s1 + 0x70]\n  3167: a0 = u64 [s1 + 0x60]\n  3170: a1 = u64 [s1 + 0x58]\n  3173: a3 = a1 | a0\n  3176: a4 = 0x100000000\n  3186: a0 = 0xfffffffc\n  3196: a0 = a2 <u a0\n  3199: a1 = u64 [s1 + 0x68]\n  3202: a0 = 0 if a1 != 0\n  3204: a0 = 0 if a3 != 0\n  3206: jump @124 if a0 != 0\n      : @123 (gas: 1)\n  3209: jump @452\n      : @124 (gas: 16)\n  3212: a0 = u64 [s1 + 0x50]\n  3215: a0 = a0 << 0x20\n  3218: u64 [s1 + 0x30] = a3\n  3221: a3 = a0 >> 0x20\n  3224: i32 a0 = a2 + 0x4\n  3227: a2 = s1 + 0x7ff\n  3231: a2 = a2 + 0x19\n  3234: u64 [a2 + 1536] = 0\n  3238: u64 [a2 + 1528] = 0\n  3242: u64 [a2 + 1520] = 0\n  3246: a1 = s1 + 0x7ff\n  3250: a1 = a1 + 0x601\n  3254: u64 [s1 + 0x28] = a3\n  3257: u64 [a2 + 0x5e8] = a3\n  3261: u64 [s1 + 0x50] = a4\n  3264: ra = 70, jump @9\n      : @125 [@dyn 35] (gas: 9)\n  3269: a3 = u64 [s1 + 0x30]\n  3272: a2 = u64 [s1 + 0x70]\n  3275: a0 = u64 [s1 + 0x50]\n  3278: a0 = a0 + 0xffffffffffffffdc\n  3281: a0 = a2 <u a0\n  3284: a1 = u64 [s1 + 0x68]\n  3287: a0 = 0 if a1 != 0\n  3289: a0 = 0 if a3 != 0\n  3291: jump @127 if a0 != 0\n      : @126 (gas: 1)\n  3294: jump @452\n      : @127 (gas: 17)\n  3297: a0 = u64 [s1 + 0x38]\n  3300: a0 = a0 << 0x20\n  3303: a3 = a0 >> 0x20\n  3306: i32 a0 = a2 + 0x24\n  3309: a2 = s1 + 0x7ff\n  3313: a2 = a2 + 0x19\n  3316: u64 [a2 + 1504] = 0\n  3320: a1 = u64 [s1 + 0x48]\n  3323: a4 = a2 + 0x500\n  3327: u64 [a4 + 0xc8] = a1\n  3331: a1 = u64 [s1 + 0x40]\n  3334: u64 [a4 + 0xd0] = a1\n  3338: a1 = s1 + 0x7ff\n  3342: a1 = a1 + 0x5e1\n  3346: u64 [s1 + 0x50] = a3\n  3349: u64 [a4 + 0xd8] = a3\n  3353: ra = 72, jump @9\n      : @128 [@dyn 36] (gas: 8)\n  3358: a4 = u64 [s1 + 0x70]\n  3361: a0 = 0xffffffbc\n  3371: a0 = a4 <u a0\n  3374: a1 = u64 [s1 + 0x68]\n  3377: a0 = 0 if a1 != 0\n  3379: a1 = u64 [s1 + 0x30]\n  3382: a0 = 0 if a1 != 0\n  3384: jump @130 if a0 != 0\n      : @129 (gas: 1)\n  3387: jump @452\n      : @130 (gas: 15)\n  3390: i32 a0 = a4 + 0x44\n  3393: a1 = u64 [s1 + 0x78]\n  3396: a3 = s1 + 0x7ff\n  3400: a3 = a3 + 0x19\n  3403: a4 = a3 + 0x500\n  3407: u64 [a4 + 0xa8] = a1\n  3411: a1 = u64 [s1 + 0x80]\n  3415: u64 [a4 + 0xb0] = a1\n  3419: a1 = u64 [s1 + 0x88]\n  3423: u64 [a4 + 0xb8] = a1\n  3427: a1 = s1 + 0x7ff\n  3431: a1 = a1 + 0x5c1\n  3435: a2 = u64 [s1 + 0x90]\n  3439: u64 [a4 + 0xc0] = a2\n  3443: ra = 74, jump @9\n      : @131 [@dyn 37] (gas: 13)\n  3448: ecalli 10 // 'ref_time_left'\n  3450: a1 = u64 [s1 + 0x98]\n  3454: u64 [a1 + 8] = 0\n  3457: u64 [a1 + 0] = 0\n  3459: u32 [a1 + 16] = 0x4080000\n  3466: a0 = s1 + 0x1838\n  3470: u64 [a0 + 416] = 0\n  3474: u64 [a0 + 408] = 0\n  3478: u64 [a0 + 400] = 0\n  3482: u64 [a0 + 392] = 0\n  3486: a1 = 0x64\n  3489: a0 = u64 [s1 + 0x70]\n  3492: ra = 76, jump @19\n      : @132 [@dyn 38] (gas: 4)\n  3497: u64 [s1 + 0x38] = a0\n  3500: a0 = u64 [s1 + 0x70]\n  3503: a1 = 0\n  3505: ra = 78, jump @19\n      : @133 [@dyn 39] (gas: 33)\n  3510: a2 = s1 + 0x1838\n  3514: u32 [a2 + 424] = 0\n  3518: a3 = a2 + 0x100\n  3522: u64 [a3 + 224] = 0xffffffffffffffff\n  3527: u64 [a3 + 216] = 0xffffffffffffffff\n  3532: u64 [a3 + 208] = 0xffffffffffffffff\n  3537: u64 [a3 + 200] = 0xffffffffffffffff\n  3542: a1 = u64 [s1 + 0x98]\n  3546: a1 = a1 << 0x20\n  3549: a1 = a1 >> 0x20\n  3552: a2 = 0x800000000\n  3562: t0 = a1 | a2\n  3565: a1 = s1 + 0x19c0\n  3569: a1 = a1 << 0x20\n  3572: a1 = a1 >> 0x20\n  3575: a2 = s1 + 0x1a00\n  3579: a2 = a2 << 0x20\n  3582: a3 = a2 | a1\n  3585: a1 = u64 [s1 + 0x38]\n  3588: a1 = a1 << 0x20\n  3591: a1 = a1 >> 0x20\n  3594: a2 = 0x6400000000\n  3604: a4 = a1 | a2\n  3607: a0 = a0 << 0x20\n  3610: a0 = a0 >> 0x20\n  3613: a1 = s1 + 0x19e0\n  3617: a1 = a1 << 0x20\n  3620: a5 = a1 | a0\n  3623: a1 = 0xffffffffffffffff\n  3626: a2 = 0xffffffffffffffff\n  3629: a0 = t0\n  3631: ecalli 0 // 'call'\n  3632: fallthrough\n      : @134 (gas: 1)\n  3633: jump @136 if a0 == 0\n      : @135 (gas: 1)\n  3636: jump @493\n      : @136 (gas: 21)\n  3639: a1 = s1 + 0x7ff\n  3643: a1 = a1 + 0x19\n  3646: u64 [a1 + 1376] = 0\n  3650: u64 [a1 + 1368] = 0\n  3654: u64 [a1 + 1360] = 0\n  3658: u64 [a1 + 1352] = 0\n  3662: a0 = u64 [s1 + 0x70]\n  3665: a2 = a1 + 0x500\n  3669: u64 [a2 + 0x68] = a0\n  3672: a0 = u64 [s1 + 0x68]\n  3675: u64 [a2 + 0x70] = a0\n  3678: a0 = u64 [s1 + 0x58]\n  3681: u64 [a2 + 0x78] = a0\n  3684: a3 = a1\n  3686: a0 = s1 + 0x7ff\n  3690: a0 = a0 + 0x581\n  3694: a1 = s1 + 0x7ff\n  3698: a1 = a1 + 0x561\n  3702: a2 = u64 [s1 + 0x60]\n  3705: u64 [a3 + 0x580] = a2\n  3709: ra = 80, jump @546\n      : @137 [@dyn 40] (gas: 4)\n  3714: a0 = s1 + 0x7ff\n  3718: a0 = a0 + 0x541\n  3722: a1 = 0x40\n  3725: ra = 82, jump @7\n      : @138 [@dyn 41] (gas: 8)\n  3730: a4 = s1 + 0x7ff\n  3734: a4 = a4 + 0x19\n  3737: a5 = a4 + 0x500\n  3741: a0 = u64 [a5 + 0x40]\n  3744: a1 = u64 [a5 + 0x38]\n  3747: a2 = u64 [a5 + 0x30]\n  3750: a3 = u64 [a5 + 0x28]\n  3753: t0 = 84, jump @697\n      : @139 [@dyn 42] (gas: 1)\n  3758: jump @141 if a0 == 0\n      : @140 (gas: 1)\n  3761: jump @452\n      : @141 (gas: 14)\n  3764: a0 = u64 [s1 + 0x78]\n  3767: a2 = a4 + 0x500\n  3771: u64 [a2 + 0x8] = a0\n  3774: a0 = u64 [s1 + 0x80]\n  3778: u64 [a2 + 0x10] = a0\n  3781: a0 = u64 [s1 + 0x88]\n  3785: u64 [a2 + 0x18] = a0\n  3788: a1 = s1 + 0x7ff\n  3792: a1 = a1 + 0x521\n  3796: a0 = u64 [s1 + 0x90]\n  3800: u64 [a2 + 0x20] = a0\n  3803: a0 = a3\n  3805: u64 [s1 + 0x98] = a3\n  3809: ra = 86, jump @9\n      : @142 [@dyn 43] (gas: 66)\n  3814: a4 = s1 + 0x7ff\n  3818: a4 = a4 + 0x19\n  3821: u64 [a4 + 1216] = 0\n  3825: a0 = u64 [s1 + 0x50]\n  3828: a5 = a4 + 0x400\n  3832: u64 [a5 + 0xb8] = a0\n  3836: a0 = u64 [s1 + 0x40]\n  3839: u64 [a5 + 0xb0] = a0\n  3843: a0 = u64 [s1 + 0x48]\n  3846: u64 [a5 + 0xa8] = a0\n  3850: u64 [a4 + 1248] = 0\n  3854: u64 [a4 + 1240] = 0\n  3858: a0 = u64 [s1 + 0x28]\n  3861: u64 [a5 + 0xc8] = a0\n  3865: a0 = u64 [0x20020]\n  3870: a1 = u64 [0x20028]\n  3875: a2 = u64 [0x20030]\n  3880: a3 = u64 [0x20038]\n  3885: u64 [a4 + 0x500] = a0\n  3889: u64 [a5 + 0xf8] = a1\n  3893: u64 [a5 + 0xf0] = a2\n  3897: u64 [a5 + 0xe8] = a3\n  3901: a0 = a4\n  3903: a1 = 0x20\n  3906: a2 = s1 + 0x7ff\n  3910: a2 = a2 + 0x501\n  3914: a3 = s1 + 0x7ff\n  3918: a3 = a3 + 0x4e1\n  3922: a4 = s1 + 0x7ff\n  3926: a4 = a4 + 0x4c1\n  3930: u64 [a0 + 1232] = 0\n  3934: a0 = u64 [s1 + 0x98]\n  3938: ra = 0x58\n  3941: sp = sp + 0xffffffffffffff20\n  3945: u64 [sp + 0xd8] = ra\n  3949: u64 [sp + 0xd0] = s0\n  3953: u64 [sp + 0xc8] = s1\n  3957: s0 = sp + 0xe0\n  3961: sp = sp & 0xffffffffffffffe0\n  3964: a5 = u64 [a4]\n  3966: u64 [sp + 0x40] = a5\n  3969: a5 = u64 [a4 + 0x8]\n  3972: u64 [sp + 0x48] = a5\n  3975: a5 = u64 [a4 + 0x10]\n  3978: u64 [sp + 0x50] = a5\n  3981: a4 = u64 [a4 + 0x18]\n  3984: u64 [sp + 0x58] = a4\n  3987: t0 = 0xc\n  3990: a4 = u64 [a3]\n  3992: u64 [sp + 0x18] = a4\n  3995: a4 = u64 [a3 + 0x8]\n  3998: u64 [sp + 0x20] = a4\n  4001: a4 = u64 [a3 + 0x10]\n  4004: u64 [sp + 0x28] = a4\n  4007: a3 = u64 [a3 + 0x18]\n  4010: u64 [sp + 0x30] = a3\n  4013: s1 = u64 [a2]\n  4015: a3 = u64 [a2 + 0x8]\n  4018: u64 [sp] = a3\n  4020: a3 = u64 [a2 + 0x10]\n  4023: u64 [sp + 0x8] = a3\n  4026: a2 = u64 [a2 + 0x18]\n  4029: u64 [sp + 0x10] = a2\n  4032: u64 [sp + 0x38] = a1\n  4035: ra = 0xe\n  4038: jump @19\n      : @143 [@dyn 44] (gas: 1)\n  4041: jump @436\n      : @144 (gas: 8)\n  4044: u64 [a2 + 1056] = 0\n  4048: u64 [a2 + 1048] = 0\n  4052: u64 [a2 + 1040] = 0\n  4056: u64 [a2 + 1032] = 0\n  4060: a0 = s1 + 0x1000\n  4064: i32 a0 = a0 + 0x420\n  4068: ecalli 16 // 'value_transferred'\n  4070: fallthrough\n      : @145 (gas: 10)\n  4071: a3 = s1 + 0x1018\n  4075: a4 = a3 + 0x400\n  4079: a0 = u64 [a4 + 0x18]\n  4082: a1 = u64 [a4 + 0x20]\n  4085: a2 = u64 [a4 + 0x10]\n  4088: a3 = u64 [a4 + 0x8]\n  4091: a1 = a1 | a2\n  4094: a0 = a0 | a3\n  4097: a0 = a0 | a1\n  4100: jump @147 if a0 == 0\n      : @146 (gas: 1)\n  4103: jump @461\n      : @147 (gas: 3)\n  4106: a0 = u64 [s1 + 0x98]\n  4110: a0 = i32 [a0]\n  4112: jump @149 if a0 >u 3\n      : @148 (gas: 1)\n  4116: jump @462\n      : @149 (gas: 8)\n  4119: a1 = s1 + 0x1018\n  4123: u64 [a1 + 1088] = 0\n  4127: u64 [a1 + 1080] = 0\n  4131: u64 [a1 + 1072] = 0\n  4135: u64 [a1 + 1064] = 0x1\n  4140: a0 = s1 + 0x100\n  4144: a1 = s1 + 0x1440\n  4148: ra = 90, jump @11\n      : @150 [@dyn 45] (gas: 12)\n  4153: a1 = s1 + 0x100\n  4157: a0 = u64 [a1 + 0x18]\n  4160: u64 [s1 + 0x98] = a0\n  4164: a0 = u64 [a1 + 0x10]\n  4167: u64 [s1 + 0x88] = a0\n  4171: a0 = u64 [a1 + 0x8]\n  4174: u64 [s1 + 0x90] = a0\n  4178: a0 = u64 [a1]\n  4180: u64 [s1 + 0x80] = a0\n  4184: a0 = s1 + 0xe0\n  4188: a1 = 0x40\n  4191: ra = 92, jump @7\n      : @151 [@dyn 46] (gas: 12)\n  4196: a3 = u64 [s1 + 0xf8]\n  4200: a1 = u64 [s1 + 0xf0]\n  4204: a2 = u64 [s1 + 0xe8]\n  4208: a0 = u64 [s1 + 0xe0]\n  4212: a3 = a3 | a2\n  4215: a2 = a0 | a1\n  4218: a2 = a2 | a3\n  4221: a2 = a2 >> 0x20\n  4224: a1 = a1 | a3\n  4227: a1 = a1 << 0x20\n  4230: a1 = a1 | a2\n  4233: jump @153 if a1 == 0\n      : @152 (gas: 1)\n  4236: jump @452\n      : @153 (gas: 16)\n  4239: a1 = u64 [s1 + 0x88]\n  4243: a2 = u64 [s1 + 0x80]\n  4247: a2 = a2 | a1\n  4250: a1 = u64 [s1 + 0x98]\n  4254: a3 = u64 [s1 + 0x90]\n  4258: a1 = a1 | a3\n  4261: a1 = a1 | a2\n  4264: a2 = a1 >u 0\n  4266: u64 [s1 + 216] = 0\n  4270: u64 [s1 + 208] = 0\n  4274: u64 [s1 + 200] = 0\n  4278: a1 = s1 + 0xc0\n  4282: u64 [s1 + 0xc0] = a2\n  4286: u64 [s1 + 0x98] = a0\n  4290: ra = 0xf6\n  4294: jump @9\n      : @154 (gas: 9)\n  4297: a0 = s1 + 0x1838\n  4301: u64 [a0 + 224] = 0\n  4305: u64 [a0 + 216] = 0\n  4309: u64 [a0 + 208] = 0\n  4313: u64 [a0 + 200] = 0\n  4317: a0 = s1 + 0x2000\n  4321: i32 a0 = a0 + 0xfffffffffffff900\n  4325: ecalli 16 // 'value_transferred'\n  4327: fallthrough\n      : @155 (gas: 9)\n  4328: a3 = s1 + 0x1838\n  4332: a0 = u64 [a3 + 0xd8]\n  4336: a1 = u64 [a3 + 0xe0]\n  4340: a2 = u64 [a3 + 0xd0]\n  4344: a3 = u64 [a3 + 0xc8]\n  4348: a1 = a1 | a2\n  4351: a0 = a0 | a3\n  4354: a0 = a0 | a1\n  4357: jump @157 if a0 == 0\n      : @156 (gas: 1)\n  4360: jump @453\n      : @157 (gas: 3)\n  4363: a0 = u64 [s1 + 0x98]\n  4367: a0 = i32 [a0]\n  4369: jump @159 if a0 >u 3\n      : @158 (gas: 1)\n  4373: jump @453\n      : @159 (gas: 3)\n  4376: a0 = s1 + 0x7ff\n  4380: a0 = a0 + 0x401\n  4384: ra = 94, jump @581\n      : @160 [@dyn 47] (gas: 15)\n  4389: a1 = s1 + 0x7ff\n  4393: a1 = a1 + 0x19\n  4396: a0 = u64 [a1 + 0x400]\n  4400: u64 [s1 + 0x98] = a0\n  4404: a2 = a1 + 0x300\n  4408: a0 = u64 [a2 + 0xf8]\n  4412: u64 [s1 + 0x90] = a0\n  4416: a0 = u64 [a2 + 0xf0]\n  4420: u64 [s1 + 0x88] = a0\n  4424: a0 = u64 [a2 + 0xe8]\n  4428: u64 [s1 + 0x80] = a0\n  4432: a0 = s1 + 0x7ff\n  4436: a0 = a0 + 0x3e1\n  4440: a1 = 0x40\n  4443: ra = 96, jump @7\n      : @161 [@dyn 48] (gas: 8)\n  4448: a3 = s1 + 0x7ff\n  4452: a3 = a3 + 0x19\n  4455: a5 = a3 + 0x300\n  4459: a0 = u64 [a5 + 0xe0]\n  4463: a1 = u64 [a5 + 0xd8]\n  4467: a2 = u64 [a5 + 0xd0]\n  4471: a4 = u64 [a5 + 0xc8]\n  4475: t0 = 98, jump @695\n      : @162 [@dyn 49] (gas: 1)\n  4480: jump @164 if a0 == 0\n      : @163 (gas: 1)\n  4483: jump @452\n      : @164 (gas: 15)\n  4486: a0 = u64 [s1 + 0x80]\n  4490: a2 = a3 + 0x300\n  4494: u64 [a2 + 0xa8] = a0\n  4498: a0 = u64 [s1 + 0x88]\n  4502: u64 [a2 + 0xb0] = a0\n  4506: a0 = u64 [s1 + 0x90]\n  4510: u64 [a2 + 0xb8] = a0\n  4514: a1 = s1 + 0x7ff\n  4518: a1 = a1 + 0x3c1\n  4522: a0 = u64 [s1 + 0x98]\n  4526: u64 [a2 + 0xc0] = a0\n  4530: a0 = a4\n  4532: u64 [s1 + 0x98] = a4\n  4536: ra = 0xf6\n  4540: jump @9\n      : @165 (gas: 8)\n  4543: u64 [a3 + 992] = 0\n  4547: u64 [a3 + 984] = 0\n  4551: u64 [a3 + 976] = 0\n  4555: u64 [a3 + 968] = 0\n  4559: a0 = s1 + 0x2000\n  4563: i32 a0 = a0 + 0xfffffffffffffc00\n  4567: ecalli 16 // 'value_transferred'\n  4569: fallthrough\n      : @166 (gas: 10)\n  4570: a3 = s1 + 0x1838\n  4574: a4 = a3 + 0x300\n  4578: a0 = u64 [a4 + 0xd8]\n  4582: a1 = u64 [a4 + 0xe0]\n  4586: a2 = u64 [a4 + 0xd0]\n  4590: a3 = u64 [a4 + 0xc8]\n  4594: a1 = a1 | a2\n  4597: a0 = a0 | a3\n  4600: a0 = a0 | a1\n  4603: jump @168 if a0 == 0\n      : @167 (gas: 1)\n  4606: jump @453\n      : @168 (gas: 3)\n  4609: a0 = u64 [s1 + 0x98]\n  4613: a0 = i32 [a0]\n  4615: jump @170 if a0 >u 3\n      : @169 (gas: 1)\n  4619: jump @453\n      : @170 (gas: 2)\n  4622: a0 = s1 + 0x1340\n  4626: ra = 100, jump @596\n      : @171 [@dyn 50] (gas: 13)\n  4631: a1 = s1 + 0x1018\n  4635: a2 = a1 + 0x300\n  4639: a0 = u64 [a2 + 0x40]\n  4642: u64 [s1 + 0x98] = a0\n  4646: a0 = u64 [a2 + 0x38]\n  4649: u64 [s1 + 0x90] = a0\n  4653: a0 = u64 [a2 + 0x30]\n  4656: u64 [s1 + 0x88] = a0\n  4660: a0 = u64 [a2 + 0x28]\n  4663: u64 [s1 + 0x80] = a0\n  4667: a0 = s1 + 0x1320\n  4671: a1 = 0x40\n  4674: ra = 102, jump @7\n      : @172 [@dyn 51] (gas: 7)\n  4679: a3 = s1 + 0x1018\n  4683: a5 = a3 + 0x300\n  4687: a0 = u64 [a5 + 0x20]\n  4690: a1 = u64 [a5 + 0x18]\n  4693: a2 = u64 [a5 + 0x10]\n  4696: a4 = u64 [a5 + 0x8]\n  4699: t0 = 104, jump @695\n      : @173 [@dyn 52] (gas: 1)\n  4704: jump @175 if a0 == 0\n      : @174 (gas: 1)\n  4707: jump @452\n      : @175 (gas: 14)\n  4710: a0 = u64 [s1 + 0x80]\n  4714: a1 = a3 + 0x200\n  4718: u64 [a1 + 0xe8] = a0\n  4722: a0 = u64 [s1 + 0x88]\n  4726: u64 [a1 + 0xf0] = a0\n  4730: a0 = u64 [s1 + 0x90]\n  4734: u64 [a1 + 0xf8] = a0\n  4738: a1 = s1 + 0x1300\n  4742: a0 = u64 [s1 + 0x98]\n  4746: u64 [a3 + 0x300] = a0\n  4750: a0 = a4\n  4752: u64 [s1 + 0x98] = a4\n  4756: ra = 0xf6\n  4760: jump @9\n      : @176 (gas: 8)\n  4763: u64 [a2 + 1120] = 0\n  4767: u64 [a2 + 1112] = 0\n  4771: u64 [a2 + 1104] = 0\n  4775: u64 [a2 + 1096] = 0\n  4779: a0 = s1 + 0x1000\n  4783: i32 a0 = a0 + 0x460\n  4787: ecalli 16 // 'value_transferred'\n  4789: fallthrough\n      : @177 (gas: 10)\n  4790: a3 = s1 + 0x1018\n  4794: a4 = a3 + 0x400\n  4798: a0 = u64 [a4 + 0x58]\n  4801: a1 = u64 [a4 + 0x60]\n  4804: a2 = u64 [a4 + 0x50]\n  4807: a3 = u64 [a4 + 0x48]\n  4810: a1 = a1 | a2\n  4813: a0 = a0 | a3\n  4816: a0 = a0 | a1\n  4819: jump @179 if a0 == 0\n      : @178 (gas: 1)\n  4822: jump @463\n      : @179 (gas: 3)\n  4825: a0 = u64 [s1 + 0x98]\n  4829: a0 = i32 [a0]\n  4831: jump @181 if a0 >u 35\n      : @180 (gas: 1)\n  4835: jump @464\n      : @181 (gas: 5)\n  4838: a0 = s1 + 0x1000\n  4842: i32 a0 = a0 + 0x480\n  4846: a1 = 0x4\n  4849: ecalli 2 // 'call_data_load'\n  4851: fallthrough\n      : @182 (gas: 14)\n  4852: a0 = s1 + 0x1018\n  4856: a5 = a0 + 0x400\n  4860: a1 = u64 [a5 + 0x80]\n  4864: a2 = u64 [a5 + 0x78]\n  4867: a3 = u64 [a5 + 0x70]\n  4870: a4 = u64 [a5 + 0x68]\n  4873: u64 [s1 + 0x98] = a1\n  4877: u64 [s1 + 0x88] = a3\n  4881: a0 = a3 | a1\n  4884: u64 [s1 + 0x90] = a2\n  4888: u64 [s1 + 0x80] = a4\n  4892: a1 = a4 | a2\n  4895: a0 = a0 | a1\n  4898: jump @184 if a0 != 0\n      : @183 (gas: 1)\n  4901: jump @465\n      : @184 (gas: 7)\n  4904: a0 = 0x30090\n  4909: u64 [s1 + 0x78] = a0\n  4912: i32 a0 = a0 + 0\n  4914: u64 [s1 + 0x70] = a0\n  4917: ra = 0x6a\n  4920: ecalli 4 // 'caller'\n  4922: fallthrough\n      : @185 [@dyn 53] (gas: 5)\n  4923: a2 = u64 [s1 + 0x78]\n  4926: a0 = u64 [a2 + 0x8]\n  4929: a1 = i32 [a2 + 0x10]\n  4932: a2 = u64 [a2]\n  4934: t0 = 108, jump @691\n      : @186 [@dyn 54] (gas: 7)\n  4939: u64 [s1 + 1784] = 0\n  4943: u64 [s1 + 0x6f0] = a1\n  4947: u64 [s1 + 0x6e8] = a0\n  4951: a1 = s1 + 0x6e0\n  4955: u64 [s1 + 0x6e0] = a3\n  4959: a0 = 0\n  4961: ra = 110, jump @9\n      : @187 [@dyn 55] (gas: 7)\n  4966: u64 [s1 + 1752] = 0\n  4970: u64 [s1 + 1744] = 0\n  4974: u64 [s1 + 1728] = 0x2\n  4979: a0 = 0x20\n  4982: a1 = s1 + 0x6c0\n  4986: u64 [s1 + 1736] = 0\n  4990: ra = 112, jump @9\n      : @188 [@dyn 56] (gas: 3)\n  4995: a2 = 0x20088\n  5000: a0 = i32 [0x20088]\n  5005: jump @190 if a0 >u 63\n      : @189 (gas: 2)\n  5009: u32 [0x20088] = 0x40\n  5015: fallthrough\n      : @190 (gas: 13)\n  5016: u64 [s1 + 0x38] = a2\n  5019: a0 = sp + 0xffffffffffffffe0\n  5022: a2 = a0 & 0xffffffffffffffe0\n  5025: u64 [s1 + 0x68] = a2\n  5028: sp = a2\n  5030: a0 = 0x20090\n  5035: i32 a0 = a0 + 0\n  5037: i32 a2 = a2 + 0\n  5039: a1 = 0x40\n  5042: u64 [s1 + 0x40] = a0\n  5045: ra = 0x72\n  5048: ecalli 9 // 'hash_keccak_256'\n  5050: fallthrough\n      : @191 [@dyn 57] (gas: 6)\n  5051: a3 = u64 [s1 + 0x68]\n  5054: a0 = u64 [a3 + 0x18]\n  5057: a1 = u64 [a3 + 0x10]\n  5060: a2 = u64 [a3 + 0x8]\n  5063: a3 = u64 [a3]\n  5065: t0 = 116, jump @698\n      : @192 [@dyn 58] (gas: 9)\n  5070: a4 = s1 + 0x1018\n  5074: a5 = a4 + 0x400\n  5078: u64 [a5 + 0xa0] = a3\n  5082: u64 [a5 + 0x98] = a2\n  5086: u64 [a5 + 0x90] = a1\n  5090: u64 [a5 + 0x88] = a0\n  5094: a0 = s1 + 0x6a0\n  5098: a1 = s1 + 0x14a0\n  5102: ra = 118, jump @11\n      : @193 [@dyn 59] (gas: 21)\n  5107: a1 = s1 + 0x600\n  5111: a0 = u64 [a1 + 0xb8]\n  5115: t0 = u64 [s1 + 0x6a0]\n  5119: a2 = u64 [a1 + 0xb0]\n  5123: a3 = u64 [a1 + 0xa8]\n  5127: a1 = u64 [s1 + 0x98]\n  5131: a4 = a0 ^ a1\n  5134: a1 = a0 <u a1\n  5137: a0 = u64 [s1 + 0x90]\n  5141: a5 = a2 <u a0\n  5144: a5 = a1 if a4 != 0\n  5147: a1 = u64 [s1 + 0x88]\n  5151: t1 = a3 ^ a1\n  5154: a3 = a3 <u a1\n  5157: a1 = u64 [s1 + 0x80]\n  5161: a1 = t0 <u a1\n  5164: a1 = a3 if t1 != 0\n  5167: a0 = a0 ^ a2\n  5170: a0 = a0 | a4\n  5173: a1 = a5 if a0 != 0\n  5176: jump @195 if a1 == 0\n      : @194 (gas: 1)\n  5179: jump @469\n      : @195 (gas: 8)\n  5182: a0 = s1 + 0x1018\n  5186: u64 [a0 + 1216] = 0\n  5190: u64 [a0 + 1208] = 0\n  5194: u64 [a0 + 1200] = 0\n  5198: u64 [a0 + 1192] = 0\n  5202: a0 = s1 + 0x680\n  5206: a1 = s1 + 0x14c0\n  5210: ra = 120, jump @11\n      : @196 [@dyn 60] (gas: 20)\n  5215: a0 = u64 [s1 + 0x680]\n  5219: a1 = u64 [s1 + 0x688]\n  5223: a2 = u64 [s1 + 0x690]\n  5227: a3 = u64 [s1 + 0x698]\n  5231: u64 [s1 + 0x638] = a3\n  5235: u64 [s1 + 0x630] = a2\n  5239: u64 [s1 + 0x628] = a1\n  5243: u64 [s1 + 0x620] = a0\n  5247: a0 = u64 [s1 + 0x98]\n  5251: u64 [s1 + 0x658] = a0\n  5255: a0 = u64 [s1 + 0x90]\n  5259: u64 [s1 + 0x650] = a0\n  5263: a0 = u64 [s1 + 0x88]\n  5267: u64 [s1 + 0x648] = a0\n  5271: a0 = s1 + 0x660\n  5275: a1 = s1 + 0x640\n  5279: a2 = s1 + 0x620\n  5283: a3 = u64 [s1 + 0x80]\n  5287: u64 [s1 + 0x640] = a3\n  5291: ra = 122, jump @503\n      : @197 [@dyn 61] (gas: 17)\n  5296: a0 = u64 [s1 + 0x660]\n  5300: u64 [s1 + 0x68] = a0\n  5303: a0 = u64 [s1 + 0x668]\n  5307: u64 [s1 + 0x60] = a0\n  5310: a0 = u64 [s1 + 0x670]\n  5314: u64 [s1 + 0x58] = a0\n  5317: a0 = u64 [s1 + 0x678]\n  5321: u64 [s1 + 0x50] = a0\n  5324: a0 = s1 + 0x1018\n  5328: u64 [a0 + 1248] = 0\n  5332: u64 [a0 + 1240] = 0\n  5336: u64 [a0 + 1232] = 0\n  5340: a1 = a0\n  5342: u64 [a1 + 1224] = 0x1\n  5347: a0 = s1 + 0x600\n  5351: a1 = s1 + 0x14e0\n  5355: ra = 124, jump @11\n      : @198 [@dyn 62] (gas: 21)\n  5360: a4 = s1 + 0x600\n  5364: a0 = u64 [a4]\n  5366: a1 = u64 [a4 + 0x8]\n  5369: a2 = u64 [a4 + 0x10]\n  5372: a3 = u64 [a4 + 0x18]\n  5375: u64 [s1 + 0x5b8] = a3\n  5379: u64 [s1 + 0x5b0] = a2\n  5383: u64 [s1 + 0x5a8] = a1\n  5387: u64 [s1 + 0x5a0] = a0\n  5391: a0 = u64 [s1 + 0x50]\n  5394: u64 [s1 + 0x5d8] = a0\n  5398: a0 = u64 [s1 + 0x58]\n  5401: u64 [s1 + 0x5d0] = a0\n  5405: a0 = u64 [s1 + 0x60]\n  5408: u64 [s1 + 0x5c8] = a0\n  5412: a0 = s1 + 0x5e0\n  5416: a1 = s1 + 0x5c0\n  5420: a2 = s1 + 0x5a0\n  5424: a3 = u64 [s1 + 0x68]\n  5427: u64 [s1 + 0x5c0] = a3\n  5431: ra = 126, jump @512\n      : @199 [@dyn 63] (gas: 12)\n  5436: a0 = u64 [s1 + 0x5f8]\n  5440: u64 [s1 + 0x60] = a0\n  5443: a0 = u64 [s1 + 0x5f0]\n  5447: u64 [s1 + 0x58] = a0\n  5450: a0 = u64 [s1 + 0x5e8]\n  5454: u64 [s1 + 0x50] = a0\n  5457: a0 = u64 [s1 + 0x5e0]\n  5461: u64 [s1 + 0x48] = a0\n  5464: a0 = u64 [s1 + 0x70]\n  5467: ra = 0x80\n  5471: ecalli 4 // 'caller'\n  5473: fallthrough\n      : @200 [@dyn 64] (gas: 5)\n  5474: a2 = u64 [s1 + 0x78]\n  5477: a0 = u64 [a2 + 0x8]\n  5480: a1 = i32 [a2 + 0x10]\n  5483: a2 = u64 [a2]\n  5485: t0 = 130, jump @691\n      : @201 [@dyn 65] (gas: 7)\n  5491: u64 [s1 + 1432] = 0\n  5495: u64 [s1 + 0x590] = a1\n  5499: u64 [s1 + 0x588] = a0\n  5503: a1 = s1 + 0x580\n  5507: u64 [s1 + 0x580] = a3\n  5511: a0 = 0\n  5513: ra = 132, jump @9\n      : @202 [@dyn 66] (gas: 7)\n  5519: u64 [s1 + 1400] = 0\n  5523: u64 [s1 + 1392] = 0\n  5527: u64 [s1 + 1376] = 0x2\n  5532: a0 = 0x20\n  5535: a1 = s1 + 0x560\n  5539: u64 [s1 + 1384] = 0\n  5543: ra = 134, jump @9\n      : @203 [@dyn 67] (gas: 7)\n  5549: a0 = sp + 0xffffffffffffffe0\n  5552: a0 = a0 & 0xffffffffffffffe0\n  5555: u64 [s1 + 0x68] = a0\n  5558: sp = a0\n  5560: a2 = u64 [s1 + 0x38]\n  5563: a0 = i32 [a2]\n  5565: jump @205 if a0 >u 63\n      : @204 (gas: 2)\n  5569: u32 [a2 + 0] = 0x40\n  5572: fallthrough\n      : @205 (gas: 12)\n  5573: a0 = sp + 0xffffffffffffffe0\n  5576: a0 = a0 & 0xffffffffffffffe0\n  5579: u64 [s1 + 0x38] = a0\n  5582: sp = a0\n  5584: i32 a2 = a0 + 0\n  5586: a1 = 0x40\n  5589: a0 = u64 [s1 + 0x40]\n  5592: ra = 0x88\n  5596: ecalli 9 // 'hash_keccak_256'\n  5598: a3 = u64 [s1 + 0x38]\n  5601: t0 = 0x8a\n  5605: jump @699\n      : @206 [@dyn 68] (gas: 2)\n  5608: a3 = u64 [s1 + 0x38]\n  5611: t0 = 138, jump @699\n      : @207 [@dyn 69] (gas: 7)\n  5617: a1 = u64 [s1 + 0x68]\n  5620: u64 [a1 + 0x18] = a3\n  5623: u64 [a1 + 0x10] = a2\n  5626: u64 [a1 + 0x8] = a4\n  5629: u64 [a1] = a0\n  5631: a0 = s1 + 0x540\n  5635: ra = 140, jump @11\n      : @208 [@dyn 70] (gas: 20)\n  5641: a3 = u64 [s1 + 0x540]\n  5645: a0 = u64 [s1 + 0x548]\n  5649: a1 = u64 [s1 + 0x550]\n  5653: a2 = u64 [s1 + 0x558]\n  5657: a4 = u64 [s1 + 0x98]\n  5661: u64 [s1 + 0x4f8] = a4\n  5665: a4 = u64 [s1 + 0x90]\n  5669: u64 [s1 + 0x4f0] = a4\n  5673: a4 = u64 [s1 + 0x88]\n  5677: u64 [s1 + 0x4e8] = a4\n  5681: a4 = u64 [s1 + 0x80]\n  5685: u64 [s1 + 0x4e0] = a4\n  5689: u64 [s1 + 0x518] = a2\n  5693: u64 [s1 + 0x510] = a1\n  5697: u64 [s1 + 0x508] = a0\n  5701: a0 = s1 + 0x520\n  5705: a1 = s1 + 0x500\n  5709: a2 = s1 + 0x4e0\n  5713: u64 [s1 + 0x500] = a3\n  5717: ra = 142, jump @538\n      : @209 [@dyn 71] (gas: 14)\n  5723: a4 = s1 + 0x500\n  5727: a0 = u64 [a4 + 0x38]\n  5730: a1 = u64 [a4 + 0x30]\n  5733: a2 = u64 [a4 + 0x28]\n  5736: a3 = u64 [a4 + 0x20]\n  5739: a4 = s1 + 0x1018\n  5743: u64 [a4 + 0x500] = a0\n  5747: a0 = a4 + 0x400\n  5751: u64 [a0 + 0xf8] = a1\n  5755: u64 [a0 + 0xf0] = a2\n  5759: u64 [a0 + 0xe8] = a3\n  5763: a1 = s1 + 0x1500\n  5767: a0 = u64 [s1 + 0x68]\n  5770: ra = 144, jump @14\n      : @210 [@dyn 72] (gas: 8)\n  5776: a0 = s1 + 0x1018\n  5780: u64 [a0 + 1312] = 0\n  5784: u64 [a0 + 1304] = 0\n  5788: u64 [a0 + 1296] = 0\n  5792: u64 [a0 + 1288] = 0x1\n  5797: a0 = s1 + 0x4c0\n  5801: a1 = s1 + 0x1520\n  5805: ra = 146, jump @11\n      : @211 [@dyn 73] (gas: 20)\n  5811: a3 = u64 [s1 + 0x4c0]\n  5815: a0 = u64 [s1 + 0x4c8]\n  5819: a1 = u64 [s1 + 0x4d0]\n  5823: a2 = u64 [s1 + 0x4d8]\n  5827: a4 = u64 [s1 + 0x98]\n  5831: u64 [s1 + 0x478] = a4\n  5835: a4 = u64 [s1 + 0x90]\n  5839: u64 [s1 + 0x470] = a4\n  5843: a4 = u64 [s1 + 0x88]\n  5847: u64 [s1 + 0x468] = a4\n  5851: a4 = u64 [s1 + 0x80]\n  5855: u64 [s1 + 0x460] = a4\n  5859: u64 [s1 + 0x498] = a2\n  5863: u64 [s1 + 0x490] = a1\n  5867: u64 [s1 + 0x488] = a0\n  5871: a0 = s1 + 0x4a0\n  5875: a1 = s1 + 0x480\n  5879: a2 = s1 + 0x460\n  5883: u64 [s1 + 0x480] = a3\n  5887: ra = 148, jump @538\n      : @212 [@dyn 74] (gas: 17)\n  5893: a0 = u64 [s1 + 0x4a0]\n  5897: a1 = u64 [s1 + 0x4a8]\n  5901: a2 = u64 [s1 + 0x4b0]\n  5905: a3 = u64 [s1 + 0x4b8]\n  5909: a4 = s1 + 0x1018\n  5913: u64 [a4 + 1344] = 0\n  5917: u64 [a4 + 1336] = 0\n  5921: u64 [a4 + 1328] = 0\n  5925: u64 [a4 + 1320] = 0x1\n  5930: a5 = a4 + 0x500\n  5934: u64 [a5 + 0x60] = a3\n  5937: u64 [a5 + 0x58] = a2\n  5940: u64 [a5 + 0x50] = a1\n  5943: u64 [a5 + 0x48] = a0\n  5946: a0 = s1 + 0x1540\n  5950: a1 = s1 + 0x1560\n  5954: ra = 150, jump @14\n      : @213 [@dyn 75] (gas: 8)\n  5960: a0 = s1 + 0x1018\n  5964: u64 [a0 + 1408] = 0\n  5968: u64 [a0 + 1400] = 0\n  5972: u64 [a0 + 1392] = 0\n  5976: u64 [a0 + 1384] = 0\n  5980: a0 = s1 + 0x440\n  5984: a1 = s1 + 0x1580\n  5988: ra = 152, jump @11\n      : @214 [@dyn 76] (gas: 21)\n  5994: a3 = u64 [s1 + 0x440]\n  5998: a0 = u64 [s1 + 0x448]\n  6002: a1 = u64 [s1 + 0x450]\n  6006: a2 = u64 [s1 + 0x458]\n  6010: a4 = u64 [s1 + 0x60]\n  6013: a5 = s1 + 0x300\n  6017: u64 [a5 + 0xf8] = a4\n  6021: a4 = u64 [s1 + 0x58]\n  6024: u64 [a5 + 0xf0] = a4\n  6028: a4 = u64 [s1 + 0x50]\n  6031: u64 [a5 + 0xe8] = a4\n  6035: a4 = u64 [s1 + 0x48]\n  6038: u64 [a5 + 0xe0] = a4\n  6042: u64 [s1 + 0x418] = a2\n  6046: u64 [s1 + 0x410] = a1\n  6050: u64 [s1 + 0x408] = a0\n  6054: a0 = s1 + 0x420\n  6058: a1 = s1 + 0x400\n  6062: a2 = s1 + 0x3e0\n  6066: u64 [s1 + 0x400] = a3\n  6070: ra = 154, jump @538\n      : @215 [@dyn 77] (gas: 18)\n  6076: a4 = s1 + 0x400\n  6080: a0 = u64 [a4 + 0x20]\n  6083: a1 = u64 [a4 + 0x28]\n  6086: a2 = u64 [a4 + 0x30]\n  6089: a3 = u64 [a4 + 0x38]\n  6092: a4 = s1 + 0x1018\n  6096: u64 [a4 + 1440] = 0\n  6100: u64 [a4 + 1432] = 0\n  6104: u64 [a4 + 1424] = 0\n  6108: u64 [a4 + 1416] = 0\n  6112: a5 = a4 + 0x500\n  6116: u64 [a5 + 0xc0] = a3\n  6120: u64 [a5 + 0xb8] = a2\n  6124: u64 [a5 + 0xb0] = a1\n  6128: u64 [a5 + 0xa8] = a0\n  6132: a0 = s1 + 0x15a0\n  6136: a1 = s1 + 0x15c0\n  6140: ra = 156, jump @14\n      : @216 [@dyn 78] (gas: 2)\n  6146: a1 = u64 [s1 + 0x78]\n  6149: t0 = 158, jump @702\n      : @217 [@dyn 79] (gas: 3)\n  6155: a0 = u64 [s1 + 0x70]\n  6158: ecalli 5 // 'code_size'\n  6160: fallthrough\n      : @218 (gas: 1)\n  6161: jump @220 if a0 != 0\n      : @219 (gas: 1)\n  6164: jump @473\n      : @220 (gas: 3)\n  6167: a0 = s1 + 0x3c0\n  6171: a1 = 0x40\n  6174: ra = 160, jump @7\n      : @221 [@dyn 80] (gas: 13)\n  6180: a1 = s1 + 0x300\n  6184: a2 = u64 [a1 + 0xd8]\n  6188: a3 = u64 [a1 + 0xd0]\n  6192: a4 = u64 [a1 + 0xc8]\n  6196: a0 = u64 [a1 + 0xc0]\n  6200: a5 = a4 | a2\n  6203: a1 = a0 | a3\n  6206: a1 = a1 | a5\n  6209: a1 = a1 >> 0x20\n  6212: a5 = a5 | a3\n  6215: a5 = a5 << 0x20\n  6218: a1 = a1 | a5\n  6221: jump @223 if a1 == 0\n      : @222 (gas: 1)\n  6224: jump @452\n      : @223 (gas: 11)\n  6227: u64 [s1 + 944] = 0\n  6231: u64 [s1 + 936] = 0\n  6235: u64 [s1 + 928] = 0\n  6239: a5 = 0x27de9e3200000000\n  6249: a1 = s1 + 0x3a0\n  6253: u64 [s1 + 0x3b8] = a5\n  6257: u64 [s1 + 0x40] = a2\n  6260: u64 [s1 + 0x38] = a3\n  6263: u64 [s1 + 0x30] = a4\n  6266: u64 [s1 + 0x68] = a0\n  6269: ra = 162, jump @9\n      : @224 [@dyn 81] (gas: 10)\n  6275: a3 = u64 [s1 + 0x68]\n  6278: a0 = u64 [s1 + 0x40]\n  6281: a1 = u64 [s1 + 0x38]\n  6284: a0 = a0 | a1\n  6287: a1 = 0xfffffffc\n  6297: a1 = a3 <u a1\n  6300: a2 = u64 [s1 + 0x30]\n  6303: a1 = 0 if a2 != 0\n  6305: a1 = 0 if a0 != 0\n  6307: jump @226 if a1 != 0\n      : @225 (gas: 1)\n  6310: jump @452\n      : @226 (gas: 12)\n  6313: i32 a0 = a3 + 0x4\n  6316: a1 = u64 [s1 + 0x48]\n  6319: a3 = s1 + 0x300\n  6323: u64 [a3 + 0x80] = a1\n  6327: a1 = u64 [s1 + 0x50]\n  6330: u64 [a3 + 0x88] = a1\n  6334: a1 = u64 [s1 + 0x58]\n  6337: u64 [a3 + 0x90] = a1\n  6341: a1 = s1 + 0x380\n  6345: a2 = u64 [s1 + 0x60]\n  6348: u64 [a3 + 0x98] = a2\n  6352: ra = 164, jump @9\n      : @227 [@dyn 82] (gas: 13)\n  6358: ecalli 10 // 'ref_time_left'\n  6360: a1 = u64 [s1 + 0x78]\n  6363: u64 [a1 + 8] = 0\n  6366: u64 [a1 + 0] = 0\n  6368: u32 [a1 + 16] = 0x80000\n  6374: a0 = s1 + 0x1018\n  6378: u64 [a0 + 1504] = 0\n  6382: u64 [a0 + 1496] = 0\n  6386: u64 [a0 + 1488] = 0\n  6390: u64 [a0 + 1480] = 0\n  6394: a1 = 0x24\n  6397: a0 = u64 [s1 + 0x68]\n  6400: ra = 166, jump @19\n      : @228 [@dyn 83] (gas: 4)\n  6406: u64 [s1 + 0x28] = a0\n  6409: a0 = u64 [s1 + 0x68]\n  6412: a1 = 0\n  6414: ra = 168, jump @19\n      : @229 [@dyn 84] (gas: 34)\n  6420: a2 = s1 + 0x1018\n  6424: u32 [a2 + 1512] = 0\n  6428: a3 = a2 + 0x600\n  6432: u64 [a3 + 32] = 0xffffffffffffffff\n  6436: u64 [a3 + 24] = 0xffffffffffffffff\n  6440: u64 [a3 + 16] = 0xffffffffffffffff\n  6444: u64 [a3 + 8] = 0xffffffffffffffff\n  6448: a1 = u64 [s1 + 0x78]\n  6451: a1 = a1 << 0x20\n  6454: a1 = a1 >> 0x20\n  6457: a2 = 0x800000000\n  6467: t0 = a1 | a2\n  6470: a1 = s1 + 0x15e0\n  6474: a1 = a1 << 0x20\n  6477: a1 = a1 >> 0x20\n  6480: a2 = s1 + 0x1620\n  6484: a2 = a2 << 0x20\n  6487: a3 = a2 | a1\n  6490: a1 = u64 [s1 + 0x28]\n  6493: a1 = a1 << 0x20\n  6496: a1 = a1 >> 0x20\n  6499: a2 = 0x2400000000\n  6509: a4 = a1 | a2\n  6512: a0 = a0 << 0x20\n  6515: a0 = a0 >> 0x20\n  6518: a1 = s1 + 0x1600\n  6522: a1 = a1 << 0x20\n  6525: a5 = a1 | a0\n  6528: a1 = 0xffffffffffffffff\n  6531: a2 = 0xffffffffffffffff\n  6534: u64 [s1 + 0x28] = t0\n  6537: a0 = t0\n  6539: ecalli 0 // 'call'\n  6540: fallthrough\n      : @230 (gas: 1)\n  6541: jump @232 if a0 == 0\n      : @231 (gas: 1)\n  6544: jump @485\n      : @232 (gas: 15)\n  6547: u64 [s1 + 824] = 0\n  6551: u64 [s1 + 816] = 0\n  6555: u64 [s1 + 808] = 0\n  6559: u64 [s1 + 800] = 0\n  6563: a0 = u64 [s1 + 0x68]\n  6566: u64 [s1 + 0x340] = a0\n  6570: a0 = u64 [s1 + 0x30]\n  6573: u64 [s1 + 0x348] = a0\n  6577: a0 = u64 [s1 + 0x38]\n  6580: u64 [s1 + 0x350] = a0\n  6584: a0 = s1 + 0x340\n  6588: a1 = s1 + 0x320\n  6592: a2 = u64 [s1 + 0x40]\n  6595: u64 [s1 + 0x358] = a2\n  6599: ra = 170, jump @546\n      : @233 [@dyn 85] (gas: 3)\n  6605: a0 = s1 + 0x300\n  6609: a1 = 0x40\n  6612: ra = 172, jump @7\n      : @234 [@dyn 86] (gas: 13)\n  6618: a1 = s1 + 0x300\n  6622: a3 = u64 [a1 + 0x18]\n  6625: a4 = u64 [a1 + 0x10]\n  6628: a5 = u64 [a1 + 0x8]\n  6631: a0 = u64 [a1]\n  6633: a2 = a5 | a3\n  6636: a1 = a0 | a4\n  6639: a1 = a1 | a2\n  6642: a1 = a1 >> 0x20\n  6645: a2 = a2 | a4\n  6648: a2 = a2 << 0x20\n  6651: a1 = a1 | a2\n  6654: jump @236 if a1 == 0\n      : @235 (gas: 1)\n  6657: jump @452\n      : @236 (gas: 11)\n  6660: u64 [s1 + 752] = 0\n  6664: u64 [s1 + 744] = 0\n  6668: u64 [s1 + 736] = 0\n  6672: a2 = 0xa9059cbb00000000\n  6682: a1 = s1 + 0x2e0\n  6686: u64 [s1 + 0x2f8] = a2\n  6690: u64 [s1 + 0x68] = a0\n  6693: u64 [s1 + 0x38] = a3\n  6696: u64 [s1 + 0x30] = a4\n  6699: u64 [s1 + 0x40] = a5\n  6702: ra = 174, jump @9\n      : @237 [@dyn 87] (gas: 3)\n  6708: a0 = u64 [s1 + 0x70]\n  6711: ecalli 4 // 'caller'\n  6713: fallthrough\n      : @238 (gas: 11)\n  6714: a4 = u64 [s1 + 0x68]\n  6717: a0 = u64 [s1 + 0x38]\n  6720: a1 = u64 [s1 + 0x30]\n  6723: a2 = a1 | a0\n  6726: a3 = 0x100000000\n  6736: a0 = 0xfffffffc\n  6746: a0 = a4 <u a0\n  6749: a1 = u64 [s1 + 0x40]\n  6752: a0 = 0 if a1 != 0\n  6754: a0 = 0 if a2 != 0\n  6756: jump @240 if a0 != 0\n      : @239 (gas: 1)\n  6759: jump @452\n      : @240 (gas: 24)\n  6762: u64 [s1 + 0x20] = a2\n  6765: a2 = u64 [s1 + 0x78]\n  6768: a0 = u64 [a2 + 0x8]\n  6771: a1 = i32 [a2 + 0x10]\n  6774: a2 = u64 [a2]\n  6776: a0 = reverse a0\n  6778: u64 [s1 + 0x18] = a3\n  6781: a3 = a0 << 0x20\n  6784: a1 = reverse a1\n  6786: a1 = a1 >> 0x20\n  6789: a3 = a3 | a1\n  6792: a0 = a0 >> 0x20\n  6795: a1 = reverse a2\n  6797: a2 = a1 << 0x20\n  6800: a2 = a2 | a0\n  6803: a1 = a1 >> 0x20\n  6806: i32 a0 = a4 + 0x4\n  6809: u64 [s1 + 728] = 0\n  6813: a4 = s1 + 0x200\n  6817: u64 [a4 + 0xd0] = a1\n  6821: u64 [a4 + 0xc8] = a2\n  6825: a1 = s1 + 0x2c0\n  6829: u64 [a4 + 0xc0] = a3\n  6833: ra = 176, jump @9\n      : @241 [@dyn 88] (gas: 9)\n  6839: a3 = u64 [s1 + 0x68]\n  6842: a0 = u64 [s1 + 0x18]\n  6845: a0 = a0 + 0xffffffffffffffdc\n  6848: a0 = a3 <u a0\n  6851: a1 = u64 [s1 + 0x40]\n  6854: a0 = 0 if a1 != 0\n  6856: a1 = u64 [s1 + 0x20]\n  6859: a0 = 0 if a1 != 0\n  6861: jump @243 if a0 != 0\n      : @242 (gas: 1)\n  6864: jump @452\n      : @243 (gas: 12)\n  6867: i32 a0 = a3 + 0x24\n  6870: a1 = u64 [s1 + 0x48]\n  6873: a3 = s1 + 0x200\n  6877: u64 [a3 + 0xa0] = a1\n  6881: a1 = u64 [s1 + 0x50]\n  6884: u64 [a3 + 0xa8] = a1\n  6888: a1 = u64 [s1 + 0x58]\n  6891: u64 [a3 + 0xb0] = a1\n  6895: a1 = s1 + 0x2a0\n  6899: a2 = u64 [s1 + 0x60]\n  6902: u64 [a3 + 0xb8] = a2\n  6906: ra = 178, jump @9\n      : @244 [@dyn 89] (gas: 13)\n  6912: ecalli 10 // 'ref_time_left'\n  6914: a1 = u64 [s1 + 0x78]\n  6917: u64 [a1 + 8] = 0\n  6920: u64 [a1 + 0] = 0\n  6922: u32 [a1 + 16] = 0x6080000\n  6929: a0 = s1 + 0x1018\n  6933: u64 [a0 + 1600] = 0\n  6937: u64 [a0 + 1592] = 0\n  6941: u64 [a0 + 1584] = 0\n  6945: u64 [a0 + 1576] = 0\n  6949: a1 = 0x44\n  6952: a0 = u64 [s1 + 0x68]\n  6955: ra = 180, jump @19\n      : @245 [@dyn 90] (gas: 4)\n  6961: u64 [s1 + 0x20] = a0\n  6964: a1 = 0x20\n  6967: a0 = u64 [s1 + 0x68]\n  6970: ra = 182, jump @19\n      : @246 [@dyn 91] (gas: 28)\n  6976: a2 = s1 + 0x1018\n  6980: a3 = a2 + 0x600\n  6984: u32 [a3 + 72] = 0x20\n  6988: u64 [a3 + 128] = 0xffffffffffffffff\n  6993: u64 [a3 + 120] = 0xffffffffffffffff\n  6997: u64 [a3 + 112] = 0xffffffffffffffff\n  7001: u64 [a3 + 104] = 0xffffffffffffffff\n  7005: a1 = s1 + 0x1640\n  7009: a1 = a1 << 0x20\n  7012: a1 = a1 >> 0x20\n  7015: a2 = s1 + 0x1680\n  7019: a2 = a2 << 0x20\n  7022: a3 = a2 | a1\n  7025: a1 = u64 [s1 + 0x20]\n  7028: a1 = a1 << 0x20\n  7031: a1 = a1 >> 0x20\n  7034: a2 = 0x4400000000\n  7044: a4 = a1 | a2\n  7047: a0 = a0 << 0x20\n  7050: a0 = a0 >> 0x20\n  7053: a1 = s1 + 0x1660\n  7057: a1 = a1 << 0x20\n  7060: a5 = a1 | a0\n  7063: a1 = 0xffffffffffffffff\n  7066: a2 = 0xffffffffffffffff\n  7069: a0 = u64 [s1 + 0x28]\n  7072: ecalli 0 // 'call'\n  7073: fallthrough\n      : @247 (gas: 1)\n  7074: jump @249 if a0 == 0\n      : @248 (gas: 1)\n  7077: jump @445\n      : @249 (gas: 2)\n  7080: ecalli 12 // 'return_data_size'\n  7082: fallthrough\n      : @250 (gas: 2)\n  7083: a4 = 0x20\n  7086: jump @252 if a0 >=u a4\n      : @251 (gas: 3)\n  7089: ecalli 12 // 'return_data_size'\n  7091: a4 = a0\n  7093: fallthrough\n      : @252 (gas: 18)\n  7094: a2 = u64 [s1 + 0x68]\n  7097: a3 = u64 [s1 + 0x38]\n  7100: a0 = u64 [s1 + 0x30]\n  7103: a1 = u64 [s1 + 0x40]\n  7106: u64 [s1 + 56] = 0\n  7109: u64 [s1 + 0x40] = a4\n  7112: a5 = s1 + 0x200\n  7116: u64 [a5 + 0x40] = a4\n  7119: u64 [a5 + 0x60] = a2\n  7122: u64 [s1 + 584] = 0\n  7126: u64 [a5 + 0x68] = a1\n  7129: u64 [s1 + 592] = 0\n  7133: u64 [a5 + 0x70] = a0\n  7136: u64 [s1 + 600] = 0\n  7140: a0 = s1 + 0x260\n  7144: a1 = s1 + 0x240\n  7148: u64 [a5 + 0x78] = a3\n  7151: ra = 184, jump @546\n      : @253 [@dyn 92] (gas: 4)\n  7157: a3 = u64 [s1 + 0x38]\n  7160: a0 = a3 >u 0\n  7162: a1 = u64 [s1 + 0x40]\n  7165: t0 = 186, jump @694\n      : @254 [@dyn 93] (gas: 1)\n  7171: jump @256 if a2 != 0\n      : @255 (gas: 1)\n  7174: jump @453\n      : @256 (gas: 3)\n  7177: a0 = s1 + 0x220\n  7181: a1 = u64 [s1 + 0x68]\n  7184: ra = 188, jump @7\n      : @257 [@dyn 94] (gas: 10)\n  7190: a4 = s1 + 0x200\n  7194: a0 = u64 [a4 + 0x38]\n  7197: a1 = u64 [a4 + 0x30]\n  7200: a2 = u64 [a4 + 0x20]\n  7203: a3 = u64 [a4 + 0x28]\n  7206: a4 = a1 | a0\n  7209: a5 = a2 <u 0x2\n  7212: a5 = 0 if a3 != 0\n  7214: a5 = 0 if a4 != 0\n  7216: jump @259 if a5 != 0\n      : @258 (gas: 1)\n  7219: jump @453\n      : @259 (gas: 4)\n  7222: a1 = a1 | a2\n  7225: a0 = a0 | a3\n  7228: a0 = a0 | a1\n  7231: jump @261 if a0 != 0\n      : @260 (gas: 1)\n  7234: jump @495\n      : @261 (gas: 3)\n  7237: a0 = s1 + 0x200\n  7241: a1 = 0x40\n  7244: ra = 190, jump @7\n      : @262 [@dyn 95] (gas: 13)\n  7250: a0 = s1 + 0x200\n  7254: a4 = u64 [a0 + 0x18]\n  7257: a5 = u64 [a0 + 0x10]\n  7260: a3 = u64 [a0 + 0x8]\n  7263: a2 = u64 [a0]\n  7265: a0 = a3 | a4\n  7268: a1 = a2 | a5\n  7271: a1 = a1 | a0\n  7274: a1 = a1 >> 0x20\n  7277: a0 = a0 | a5\n  7280: a0 = a0 << 0x20\n  7283: a0 = a0 | a1\n  7286: jump @264 if a0 == 0\n      : @263 (gas: 1)\n  7289: jump @452\n      : @264 (gas: 15)\n  7292: a0 = u64 [s1 + 0x80]\n  7296: u64 [s1 + 0x1e0] = a0\n  7300: a0 = u64 [s1 + 0x88]\n  7304: u64 [s1 + 0x1e8] = a0\n  7308: a0 = u64 [s1 + 0x90]\n  7312: u64 [s1 + 0x1f0] = a0\n  7316: a1 = s1 + 0x1e0\n  7320: a0 = u64 [s1 + 0x98]\n  7324: u64 [s1 + 0x1f8] = a0\n  7328: a0 = a2\n  7330: u64 [s1 + 0x68] = a2\n  7333: u64 [s1 + 0x98] = a3\n  7337: u64 [s1 + 0x90] = a4\n  7341: u64 [s1 + 0x88] = a5\n  7345: ra = 192, jump @9\n      : @265 [@dyn 96] (gas: 10)\n  7351: a2 = u64 [s1 + 0x68]\n  7354: a0 = u64 [s1 + 0x90]\n  7358: a1 = u64 [s1 + 0x88]\n  7362: a0 = a0 | a1\n  7365: a1 = 0xffffffe0\n  7375: a1 = a2 <u a1\n  7378: a3 = u64 [s1 + 0x98]\n  7382: a1 = 0 if a3 != 0\n  7384: a1 = 0 if a0 != 0\n  7386: jump @267 if a1 != 0\n      : @266 (gas: 1)\n  7389: jump @452\n      : @267 (gas: 11)\n  7392: i32 a0 = a2 + 0x20\n  7395: a1 = u64 [s1 + 0x48]\n  7398: u64 [s1 + 0x1c0] = a1\n  7402: a1 = u64 [s1 + 0x50]\n  7405: u64 [s1 + 0x1c8] = a1\n  7409: a1 = u64 [s1 + 0x58]\n  7412: u64 [s1 + 0x1d0] = a1\n  7416: a1 = s1 + 0x1c0\n  7420: a2 = u64 [s1 + 0x60]\n  7423: u64 [s1 + 0x1d8] = a2\n  7427: ra = 194, jump @9\n      : @268 [@dyn 97] (gas: 6)\n  7433: a0 = u64 [s1 + 0x70]\n  7436: ra = 0xc4\n  7440: ecalli 4 // 'caller'\n  7442: a2 = u64 [s1 + 0x78]\n  7445: t0 = 0xc6\n  7449: jump @703\n      : @269 [@dyn 98] (gas: 2)\n  7452: a2 = u64 [s1 + 0x78]\n  7455: t0 = 198, jump @703\n      : @270 [@dyn 99] (gas: 25)\n  7461: t0 = a1 | a0\n  7464: a3 = a3 >> 0x20\n  7467: a2 = reverse a2\n  7469: a1 = a2 << 0x20\n  7472: a1 = a1 | a3\n  7475: a2 = a2 >> 0x20\n  7478: u64 [s1 + 408] = 0\n  7482: a3 = u64 [0x20060]\n  7487: a4 = u64 [0x20068]\n  7492: a5 = u64 [0x20070]\n  7497: a0 = u64 [0x20078]\n  7502: u64 [s1 + 0x1b8] = a3\n  7506: a3 = s1 + 0x100\n  7510: u64 [a3 + 0xb0] = a4\n  7514: u64 [a3 + 0xa8] = a5\n  7518: u64 [a3 + 0xa0] = a0\n  7522: u64 [a3 + 0x90] = a2\n  7526: u64 [a3 + 0x88] = a1\n  7530: a1 = 0x40\n  7533: a2 = s1 + 0x1a0\n  7537: a3 = s1 + 0x180\n  7541: u64 [s1 + 0x180] = t0\n  7545: a0 = u64 [s1 + 0x68]\n  7548: ra = 0x164\n  7552: jump @15\n      : @271 (gas: 8)\n  7555: u64 [a2 + 1728] = 0\n  7559: u64 [a2 + 1720] = 0\n  7563: u64 [a2 + 1712] = 0\n  7567: u64 [a2 + 1704] = 0\n  7571: a0 = s1 + 0x1000\n  7575: i32 a0 = a0 + 0x6c0\n  7579: ecalli 16 // 'value_transferred'\n  7581: fallthrough\n      : @272 (gas: 10)\n  7582: a3 = s1 + 0x1018\n  7586: a4 = a3 + 0x600\n  7590: a0 = u64 [a4 + 0xb8]\n  7594: a1 = u64 [a4 + 0xc0]\n  7598: a2 = u64 [a4 + 0xb0]\n  7602: a3 = u64 [a4 + 0xa8]\n  7606: a1 = a1 | a2\n  7609: a0 = a0 | a3\n  7612: a0 = a0 | a1\n  7615: jump @274 if a0 == 0\n      : @273 (gas: 1)\n  7618: jump @453\n      : @274 (gas: 3)\n  7621: a0 = u64 [s1 + 0x98]\n  7625: a0 = i32 [a0]\n  7627: jump @276 if a0 >u 3\n      : @275 (gas: 1)\n  7631: jump @453\n      : @276 (gas: 8)\n  7634: a1 = s1 + 0x1018\n  7638: u64 [a1 + 1760] = 0\n  7642: u64 [a1 + 1752] = 0\n  7646: u64 [a1 + 1744] = 0\n  7650: u64 [a1 + 1736] = 0x1\n  7655: a0 = s1 + 0x740\n  7659: a1 = s1 + 0x16e0\n  7663: ra = 200, jump @11\n      : @277 [@dyn 100] (gas: 11)\n  7669: a0 = u64 [s1 + 0x758]\n  7673: u64 [s1 + 0x98] = a0\n  7677: a0 = u64 [s1 + 0x750]\n  7681: u64 [s1 + 0x90] = a0\n  7685: a0 = u64 [s1 + 0x748]\n  7689: u64 [s1 + 0x88] = a0\n  7693: a0 = u64 [s1 + 0x740]\n  7697: u64 [s1 + 0x80] = a0\n  7701: a0 = s1 + 0x720\n  7705: a1 = 0x40\n  7708: ra = 202, jump @7\n      : @278 [@dyn 101] (gas: 6)\n  7714: a4 = s1 + 0x700\n  7718: a0 = u64 [a4 + 0x38]\n  7721: a1 = u64 [a4 + 0x30]\n  7724: a2 = u64 [a4 + 0x28]\n  7727: a3 = u64 [a4 + 0x20]\n  7730: t0 = 204, jump @697\n      : @279 [@dyn 102] (gas: 1)\n  7736: jump @281 if a0 == 0\n      : @280 (gas: 1)\n  7739: jump @452\n      : @281 (gas: 14)\n  7742: a0 = u64 [s1 + 0x80]\n  7746: a2 = s1 + 0x700\n  7750: u64 [a2] = a0\n  7752: a0 = u64 [s1 + 0x88]\n  7756: u64 [a2 + 0x8] = a0\n  7759: a0 = u64 [s1 + 0x90]\n  7763: u64 [a2 + 0x10] = a0\n  7766: a1 = s1 + 0x700\n  7770: a0 = u64 [s1 + 0x98]\n  7774: u64 [a2 + 0x18] = a0\n  7777: a0 = a3\n  7779: u64 [s1 + 0x98] = a3\n  7783: ra = 0xf6\n  7787: jump @9\n      : @282 (gas: 9)\n  7790: a0 = s1 + 0x1838\n  7794: u64 [a0 + 192] = 0\n  7798: u64 [a0 + 184] = 0\n  7802: u64 [a0 + 176] = 0\n  7806: u64 [a0 + 168] = 0\n  7810: a0 = s1 + 0x2000\n  7814: i32 a0 = a0 + 0xfffffffffffff8e0\n  7818: ecalli 16 // 'value_transferred'\n  7820: fallthrough\n      : @283 (gas: 9)\n  7821: a3 = s1 + 0x1838\n  7825: a0 = u64 [a3 + 0xb8]\n  7829: a1 = u64 [a3 + 0xc0]\n  7833: a2 = u64 [a3 + 0xb0]\n  7837: a3 = u64 [a3 + 0xa8]\n  7841: a1 = a1 | a2\n  7844: a0 = a0 | a3\n  7847: a0 = a0 | a1\n  7850: jump @285 if a0 == 0\n      : @284 (gas: 1)\n  7853: jump @453\n      : @285 (gas: 3)\n  7856: a0 = u64 [s1 + 0x98]\n  7860: a0 = i32 [a0]\n  7862: jump @287 if a0 >u 3\n      : @286 (gas: 1)\n  7866: jump @453\n      : @287 (gas: 4)\n  7869: a0 = s1 + 0x7ff\n  7873: a0 = a0 + 0x3a1\n  7877: a1 = 0x40\n  7880: ra = 206, jump @7\n      : @288 [@dyn 103] (gas: 15)\n  7886: a3 = s1 + 0x7ff\n  7890: a3 = a3 + 0x19\n  7893: a5 = a3 + 0x300\n  7897: a4 = u64 [a5 + 0xa0]\n  7901: a1 = u64 [a5 + 0x98]\n  7905: a2 = u64 [a5 + 0x90]\n  7909: a0 = u64 [a5 + 0x88]\n  7913: a4 = a4 | a2\n  7916: a2 = a0 | a1\n  7919: a2 = a2 | a4\n  7922: a2 = a2 >> 0x20\n  7925: a1 = a1 | a4\n  7928: a1 = a1 << 0x20\n  7931: a1 = a1 | a2\n  7934: jump @290 if a1 == 0\n      : @289 (gas: 1)\n  7937: jump @452\n      : @290 (gas: 9)\n  7940: u64 [a3 + 896] = 0\n  7944: u64 [a3 + 888] = 0\n  7948: u64 [a3 + 872] = 0x806\n  7954: a1 = s1 + 0x7ff\n  7958: a1 = a1 + 0x381\n  7962: u64 [a3 + 880] = 0\n  7966: u64 [s1 + 0x98] = a0\n  7970: ra = 0xf6\n  7974: jump @9\n      : @291 (gas: 11)\n  7977: u64 [a3 + 1024] = 0\n  7981: u64 [a3 + 1016] = 0\n  7985: u64 [a3 + 1008] = 0\n  7989: u64 [a3 + 1000] = 0\n  7993: a0 = s1 + 0x2000\n  7997: i32 a0 = a0 + 0xfffffffffffffc20\n  8001: ra = 0xd0\n  8005: ecalli 16 // 'value_transferred'\n  8007: a0 = 0x1838\n  8011: t0 = 0xd2\n  8015: jump @700\n      : @292 [@dyn 104] (gas: 2)\n  8018: a0 = 0x1838\n  8022: t0 = 210, jump @700\n      : @293 [@dyn 105] (gas: 1)\n  8028: jump @295 if a0 == 0\n      : @294 (gas: 1)\n  8031: jump @453\n      : @295 (gas: 3)\n  8034: a0 = u64 [s1 + 0x98]\n  8038: a0 = i32 [a0]\n  8040: jump @297 if a0 >u 3\n      : @296 (gas: 1)\n  8044: jump @453\n      : @297 (gas: 3)\n  8047: a0 = s1 + 0x13a0\n  8051: a1 = u64 [s1 + 0x90]\n  8055: ra = 212, jump @11\n      : @298 [@dyn 106] (gas: 13)\n  8061: a1 = s1 + 0x1018\n  8065: a2 = a1 + 0x300\n  8069: a0 = u64 [a2 + 0xa0]\n  8073: u64 [s1 + 0x98] = a0\n  8077: a0 = u64 [a2 + 0x98]\n  8081: u64 [s1 + 0x90] = a0\n  8085: a0 = u64 [a2 + 0x90]\n  8089: u64 [s1 + 0x88] = a0\n  8093: a0 = u64 [a2 + 0x88]\n  8097: u64 [s1 + 0x80] = a0\n  8101: a0 = s1 + 0x1380\n  8105: a1 = 0x40\n  8108: ra = 214, jump @7\n      : @299 [@dyn 107] (gas: 7)\n  8114: a3 = s1 + 0x1018\n  8118: a5 = a3 + 0x300\n  8122: a0 = u64 [a5 + 0x80]\n  8126: a1 = u64 [a5 + 0x78]\n  8129: a2 = u64 [a5 + 0x70]\n  8132: a4 = u64 [a5 + 0x68]\n  8135: t0 = 216, jump @695\n      : @300 [@dyn 108] (gas: 1)\n  8141: jump @302 if a0 == 0\n      : @301 (gas: 1)\n  8144: jump @452\n      : @302 (gas: 14)\n  8147: a0 = u64 [s1 + 0x80]\n  8151: a2 = a3 + 0x300\n  8155: u64 [a2 + 0x48] = a0\n  8158: a0 = u64 [s1 + 0x88]\n  8162: u64 [a2 + 0x50] = a0\n  8165: a0 = u64 [s1 + 0x90]\n  8169: u64 [a2 + 0x58] = a0\n  8172: a1 = s1 + 0x1360\n  8176: a0 = u64 [s1 + 0x98]\n  8180: u64 [a2 + 0x60] = a0\n  8183: a0 = a4\n  8185: u64 [s1 + 0x98] = a4\n  8189: ra = 0xf6\n  8193: jump @9\n      : @303 (gas: 8)\n  8196: u64 [a3 + 288] = 0\n  8200: u64 [a3 + 280] = 0\n  8204: u64 [a3 + 272] = 0\n  8208: u64 [a3 + 264] = 0\n  8212: a0 = s1 + 0x2000\n  8216: i32 a0 = a0 + 0xfffffffffffff940\n  8220: ecalli 16 // 'value_transferred'\n  8222: fallthrough\n      : @304 (gas: 10)\n  8223: a3 = s1 + 0x1838\n  8227: a4 = a3 + 0x100\n  8231: a0 = u64 [a4 + 0x18]\n  8234: a1 = u64 [a4 + 0x20]\n  8237: a2 = u64 [a4 + 0x10]\n  8240: a3 = u64 [a4 + 0x8]\n  8243: a1 = a1 | a2\n  8246: a0 = a0 | a3\n  8249: a0 = a0 | a1\n  8252: jump @306 if a0 == 0\n      : @305 (gas: 1)\n  8255: jump @453\n      : @306 (gas: 3)\n  8258: a0 = u64 [s1 + 0x98]\n  8262: a0 = i32 [a0]\n  8264: jump @308 if a0 >u 3\n      : @307 (gas: 1)\n  8268: jump @453\n      : @308 (gas: 4)\n  8271: a0 = s1 + 0x7ff\n  8275: a0 = a0 + 0x481\n  8279: a1 = 0x40\n  8282: ra = 218, jump @7\n      : @309 [@dyn 109] (gas: 15)\n  8288: a3 = s1 + 0x7ff\n  8292: a3 = a3 + 0x19\n  8295: a5 = a3 + 0x400\n  8299: a4 = u64 [a5 + 0x80]\n  8303: a1 = u64 [a5 + 0x78]\n  8306: a2 = u64 [a5 + 0x70]\n  8309: a0 = u64 [a5 + 0x68]\n  8312: a4 = a4 | a2\n  8315: a2 = a0 | a1\n  8318: a2 = a2 | a4\n  8321: a2 = a2 >> 0x20\n  8324: a1 = a1 | a4\n  8327: a1 = a1 << 0x20\n  8330: a1 = a1 | a2\n  8333: jump @311 if a1 == 0\n      : @310 (gas: 1)\n  8336: jump @452\n      : @311 (gas: 9)\n  8339: u64 [a3 + 1120] = 0\n  8343: u64 [a3 + 1112] = 0\n  8347: u64 [a3 + 1096] = 0x800\n  8353: a1 = s1 + 0x7ff\n  8357: a1 = a1 + 0x461\n  8361: u64 [a3 + 1104] = 0\n  8365: u64 [s1 + 0x98] = a0\n  8369: ra = 0xf6\n  8373: jump @9\n      : @312 (gas: 3)\n  8376: a0 = u64 [s1 + 0x98]\n  8380: a0 = i32 [a0]\n  8382: jump @314 if a0 >u 3\n      : @313 (gas: 1)\n  8386: jump @453\n      : @314 (gas: 8)\n  8389: u64 [a3 + 512] = 0\n  8393: u64 [a3 + 504] = 0\n  8397: u64 [a3 + 496] = 0\n  8401: u64 [a3 + 488] = 0\n  8405: a0 = s1 + 0x2000\n  8409: i32 a0 = a0 + 0xfffffffffffffa20\n  8413: ecalli 16 // 'value_transferred'\n  8415: fallthrough\n      : @315 (gas: 10)\n  8416: a4 = s1 + 0x1838\n  8420: a5 = a4 + 0x100\n  8424: a0 = u64 [a5 + 0xf8]\n  8428: a1 = u64 [a4 + 0x200]\n  8432: a2 = u64 [a5 + 0xf0]\n  8436: a3 = u64 [a5 + 0xe8]\n  8440: a1 = a1 | a2\n  8443: a0 = a0 | a3\n  8446: a0 = a0 | a1\n  8449: jump @317 if a0 != 0\n      : @316 (gas: 1)\n  8452: jump @474\n      : @317 (gas: 7)\n  8455: u64 [a4 + 544] = 0\n  8459: u64 [a4 + 536] = 0\n  8463: u64 [a4 + 528] = 0\n  8467: u64 [a4 + 520] = 0x1\n  8472: a0 = s1 + 0x12e0\n  8476: a1 = s1 + 0x1a40\n  8480: ra = 220, jump @11\n      : @318 [@dyn 110] (gas: 14)\n  8486: a0 = s1 + 0x1018\n  8490: a5 = a0 + 0x200\n  8494: a4 = u64 [a5 + 0xe0]\n  8498: a3 = u64 [a5 + 0xd8]\n  8502: a2 = u64 [a5 + 0xd0]\n  8506: a1 = u64 [a5 + 0xc8]\n  8510: u64 [s1 + 0x88] = a2\n  8514: u64 [s1 + 0x78] = a4\n  8517: a0 = a2 | a4\n  8520: u64 [s1 + 0x98] = a1\n  8524: u64 [s1 + 0x80] = a3\n  8528: a1 = a1 | a3\n  8531: a0 = a0 | a1\n  8534: jump @321 if a0 == 0\n      : @319 (gas: 3)\n  8537: a0 = s1 + 0x12c0\n  8541: a1 = u64 [s1 + 0x90]\n  8545: ra = 222, jump @11\n      : @320 [@dyn 111] (gas: 10)\n  8551: a3 = s1 + 0x1018\n  8555: a4 = a3 + 0x200\n  8559: a0 = u64 [a4 + 0xb8]\n  8563: a1 = u64 [a4 + 0xc0]\n  8567: a2 = u64 [a4 + 0xb0]\n  8571: a3 = u64 [a4 + 0xa8]\n  8575: a1 = a1 | a2\n  8578: a0 = a0 | a3\n  8581: a0 = a0 | a1\n  8584: jump @353 if a0 != 0\n      : @321 (gas: 18)\n  8588: a0 = s1 + 0x1838\n  8592: u64 [a0 + 608] = 0\n  8596: u64 [a0 + 600] = 0\n  8600: u64 [a0 + 592] = 0\n  8604: u64 [a0 + 584] = 0\n  8608: a0 = s1 + 0x2000\n  8612: i32 a0 = a0 + 0xfffffffffffffa80\n  8616: ecalli 16 // 'value_transferred'\n  8618: a1 = s1 + 0x1838\n  8622: a2 = a1 + 0x200\n  8626: a0 = u64 [a2 + 0x60]\n  8629: u64 [s1 + 0x80] = a0\n  8633: a0 = u64 [a2 + 0x58]\n  8636: u64 [s1 + 0x78] = a0\n  8639: a0 = u64 [a2 + 0x50]\n  8642: u64 [s1 + 0x70] = a0\n  8645: a0 = u64 [a2 + 0x48]\n  8648: jump @357\n      : @322 (gas: 8)\n  8651: u64 [a3 + 256] = 0\n  8655: u64 [a3 + 248] = 0\n  8659: u64 [a3 + 240] = 0\n  8663: u64 [a3 + 232] = 0\n  8667: a0 = s1 + 0x2000\n  8671: i32 a0 = a0 + 0xfffffffffffff920\n  8675: ecalli 16 // 'value_transferred'\n  8677: fallthrough\n      : @323 (gas: 9)\n  8678: a3 = s1 + 0x1838\n  8682: a0 = u64 [a3 + 0xf8]\n  8686: a1 = u64 [a3 + 0x100]\n  8690: a2 = u64 [a3 + 0xf0]\n  8694: a3 = u64 [a3 + 0xe8]\n  8698: a1 = a1 | a2\n  8701: a0 = a0 | a3\n  8704: a0 = a0 | a1\n  8707: jump @325 if a0 == 0\n      : @324 (gas: 1)\n  8710: jump @453\n      : @325 (gas: 3)\n  8713: a0 = u64 [s1 + 0x98]\n  8717: a0 = i32 [a0]\n  8719: jump @327 if a0 >u 3\n      : @326 (gas: 1)\n  8723: jump @453\n      : @327 (gas: 4)\n  8726: a0 = s1 + 0x7ff\n  8730: a0 = a0 + 0x441\n  8734: a1 = 0x40\n  8737: ra = 224, jump @7\n      : @328 [@dyn 112] (gas: 12)\n  8743: a0 = s1 + 0x7ff\n  8747: a0 = a0 + 0x19\n  8750: a2 = a0 + 0x400\n  8754: a1 = u64 [a2 + 0x40]\n  8757: u64 [s1 + 0x98] = a1\n  8761: a1 = u64 [a2 + 0x38]\n  8764: u64 [s1 + 0x90] = a1\n  8768: a1 = u64 [a2 + 0x30]\n  8771: u64 [s1 + 0x80] = a1\n  8775: a0 = u64 [a2 + 0x28]\n  8778: u64 [s1 + 0x88] = a0\n  8782: ra = 226, jump @0\n      : @329 [@dyn 113] (gas: 13)\n  8788: a0 = u64 [s1 + 0x98]\n  8792: a1 = u64 [s1 + 0x80]\n  8796: a0 = a0 | a1\n  8799: a1 = u64 [s1 + 0x88]\n  8803: a3 = a1\n  8805: a2 = u64 [s1 + 0x90]\n  8809: a1 = a1 | a2\n  8812: a1 = a1 | a0\n  8815: a1 = a1 >> 0x20\n  8818: a0 = a0 | a2\n  8821: a0 = a0 << 0x20\n  8824: a0 = a0 | a1\n  8827: jump @331 if a0 == 0\n      : @330 (gas: 1)\n  8830: jump @452\n      : @331 (gas: 14)\n  8833: a2 = u64 [0x300b0]\n  8838: a1 = u64 [0x300b8]\n  8843: a0 = u32 [0x300c0]\n  8848: a4 = s1 + 0x7ff\n  8852: a4 = a4 + 0x19\n  8855: u64 [a4 + 1056] = 0\n  8859: a5 = a4 + 0x400\n  8863: u64 [a5 + 0x18] = a0\n  8866: u64 [a5 + 0x10] = a1\n  8869: a1 = s1 + 0x7ff\n  8873: a1 = a1 + 0x421\n  8877: u64 [a5 + 0x8] = a2\n  8880: a0 = a3\n  8882: ra = 228, jump @9\n      : @332 [@dyn 114] (gas: 4)\n  8888: a1 = 0x20\n  8891: a0 = u64 [s1 + 0x88]\n  8895: ra = 0xf8\n  8899: jump @19\n      : @333 (gas: 1)\n  8902: jump @335 if a0 == 1889567281\n      : @334 (gas: 1)\n  8909: jump @475\n      : @335 (gas: 8)\n  8912: u64 [a3 + 96] = 0\n  8915: u64 [a3 + 88] = 0\n  8918: u64 [a3 + 80] = 0\n  8921: u64 [a3 + 72] = 0\n  8924: a0 = s1 + 0x2000\n  8928: i32 a0 = a0 + 0xfffffffffffff880\n  8932: ecalli 16 // 'value_transferred'\n  8934: fallthrough\n      : @336 (gas: 9)\n  8935: a3 = s1 + 0x1838\n  8939: a0 = u64 [a3 + 0x58]\n  8942: a1 = u64 [a3 + 0x60]\n  8945: a2 = u64 [a3 + 0x50]\n  8948: a3 = u64 [a3 + 0x48]\n  8951: a1 = a1 | a2\n  8954: a0 = a0 | a3\n  8957: a0 = a0 | a1\n  8960: jump @453 if a0 != 0\n      : @337 (gas: 3)\n  8964: a0 = u64 [s1 + 0x98]\n  8968: a0 = i32 [a0]\n  8970: jump @453 if a0 <=u 35\n      : @338 (gas: 5)\n  8975: a0 = s1 + 0x2000\n  8979: i32 a0 = a0 + 0xfffffffffffff8a0\n  8983: a1 = 0x4\n  8986: ecalli 2 // 'call_data_load'\n  8988: fallthrough\n      : @339 (gas: 11)\n  8989: a4 = s1 + 0x1838\n  8993: a1 = u64 [a4 + 0x78]\n  8996: a0 = u64 [a4 + 0x80]\n  9000: a2 = 0x100000000\n  9010: a2 = a2 ^ a1\n  9013: a2 = a2 | a0\n  9016: a3 = a1 >> 0x20\n  9019: a3 = a3 <u 0x1\n  9022: a3 = 0 if a0 != 0\n  9024: a3 = 0 if a2 == 0\n  9026: jump @453 if a3 == 0\n      : @340 (gas: 13)\n  9030: a2 = u64 [a4 + 0x70]\n  9033: a3 = u64 [a4 + 0x68]\n  9036: a4 = s1 + 0x7ff\n  9040: a4 = a4 + 0x19\n  9043: a5 = a4 + 0x300\n  9047: u64 [a5 + 0x48] = a3\n  9050: u64 [a5 + 0x50] = a2\n  9053: u64 [a5 + 0x58] = a1\n  9056: a1 = s1 + 0x7ff\n  9060: a1 = a1 + 0x361\n  9064: u64 [a5 + 0x60] = a0\n  9067: a0 = 0\n  9069: ra = 230, jump @9\n      : @341 [@dyn 115] (gas: 10)\n  9075: a2 = s1 + 0x7ff\n  9079: a2 = a2 + 0x19\n  9082: u64 [a2 + 832] = 0\n  9086: u64 [a2 + 824] = 0\n  9090: u64 [a2 + 808] = 0x2\n  9095: a0 = 0x20\n  9098: a1 = s1 + 0x7ff\n  9102: a1 = a1 + 0x341\n  9106: u64 [a2 + 816] = 0\n  9110: ra = 232, jump @9\n      : @342 [@dyn 116] (gas: 3)\n  9116: a1 = 0x40\n  9119: a0 = 0\n  9121: ra = 234, jump @19\n      : @343 [@dyn 117] (gas: 10)\n  9127: a1 = sp + 0xffffffffffffffe0\n  9130: a1 = a1 & 0xffffffffffffffe0\n  9133: u64 [s1 + 0x98] = a1\n  9137: sp = a1\n  9139: i32 a0 = a0 + 0\n  9141: i32 a2 = a1 + 0\n  9143: a1 = 0x40\n  9146: ra = 0xec\n  9150: ecalli 9 // 'hash_keccak_256'\n  9152: fallthrough\n      : @344 [@dyn 118] (gas: 6)\n  9153: a3 = u64 [s1 + 0x98]\n  9157: a0 = u64 [a3 + 0x18]\n  9160: a1 = u64 [a3 + 0x10]\n  9163: a2 = u64 [a3 + 0x8]\n  9166: a3 = u64 [a3]\n  9168: t0 = 238, jump @698\n      : @345 [@dyn 119] (gas: 9)\n  9174: a4 = s1 + 0x1838\n  9178: u64 [a4 + 0xa0] = a3\n  9182: u64 [a4 + 0x98] = a2\n  9186: u64 [a4 + 0x90] = a1\n  9190: u64 [a4 + 0x88] = a0\n  9194: a0 = s1 + 0x7ff\n  9198: a0 = a0 + 0x321\n  9202: a1 = s1 + 0x18c0\n  9206: ra = 240, jump @11\n      : @346 [@dyn 120] (gas: 15)\n  9212: a0 = s1 + 0x7ff\n  9216: a0 = a0 + 0x19\n  9219: a2 = a0 + 0x300\n  9223: a1 = u64 [a2 + 0x20]\n  9226: u64 [s1 + 0x98] = a1\n  9230: a1 = u64 [a2 + 0x18]\n  9233: u64 [s1 + 0x90] = a1\n  9237: a1 = u64 [a2 + 0x10]\n  9240: u64 [s1 + 0x88] = a1\n  9244: a1 = u64 [a2 + 0x8]\n  9247: u64 [s1 + 0x80] = a1\n  9251: a0 = s1 + 0x7ff\n  9255: a0 = a0 + 0x301\n  9259: a1 = 0x40\n  9262: ra = 242, jump @7\n      : @347 [@dyn 121] (gas: 8)\n  9268: a3 = s1 + 0x7ff\n  9272: a3 = a3 + 0x19\n  9275: a0 = u64 [a3 + 0x300]\n  9279: a5 = a3 + 0x200\n  9283: a1 = u64 [a5 + 0xf8]\n  9287: a2 = u64 [a5 + 0xf0]\n  9291: a4 = u64 [a5 + 0xe8]\n  9295: t0 = 244, jump @695\n      : @348 [@dyn 122] (gas: 1)\n  9301: jump @452 if a0 != 0\n      : @349 (gas: 14)\n  9305: a0 = u64 [s1 + 0x80]\n  9309: a2 = a3 + 0x200\n  9313: u64 [a2 + 0xc8] = a0\n  9317: a0 = u64 [s1 + 0x88]\n  9321: u64 [a2 + 0xd0] = a0\n  9325: a0 = u64 [s1 + 0x90]\n  9329: u64 [a2 + 0xd8] = a0\n  9333: a1 = s1 + 0x7ff\n  9337: a1 = a1 + 0x2e1\n  9341: a0 = u64 [s1 + 0x98]\n  9345: u64 [a2 + 0xe0] = a0\n  9349: a0 = a4\n  9351: u64 [s1 + 0x98] = a4\n  9355: ra = 246, jump @9\n      : @350 [@dyn 123] (gas: 3)\n  9361: a1 = 0x20\n  9364: a0 = u64 [s1 + 0x98]\n  9368: ra = 248, jump @19\n      : @351 [@dyn 124] (gas: 2)\n  9374: i32 a1 = a0 + 0\n  9376: fallthrough\n      : @352 (gas: 4)\n  9377: a2 = 0x20\n  9380: a0 = 0\n  9382: ecalli 13 // 'seal_return'\n  9384: fallthrough\n      : @353 (gas: 32)\n  9385: a0 = s1 + 0x1838\n  9389: u64 [a0 + 576] = 0\n  9393: u64 [a0 + 568] = 0\n  9397: u64 [a0 + 560] = 0\n  9401: u64 [a0 + 552] = 0\n  9405: a0 = s1 + 0x2000\n  9409: i32 a0 = a0 + 0xfffffffffffffa60\n  9413: ecalli 16 // 'value_transferred'\n  9415: a2 = s1 + 0x1838\n  9419: a4 = a2 + 0x200\n  9423: a3 = u64 [a4 + 0x28]\n  9426: a0 = u64 [a4 + 0x30]\n  9429: a1 = u64 [a4 + 0x38]\n  9432: a2 = u64 [a4 + 0x40]\n  9435: a4 = u64 [s1 + 0x78]\n  9438: a5 = s1 + 0x1018\n  9442: u64 [a5 + 0x260] = a4\n  9446: a4 = u64 [s1 + 0x80]\n  9450: u64 [a5 + 0x258] = a4\n  9454: a4 = u64 [s1 + 0x88]\n  9458: u64 [a5 + 0x250] = a4\n  9462: a4 = u64 [s1 + 0x98]\n  9466: u64 [a5 + 0x248] = a4\n  9470: a4 = a5 + 0x200\n  9474: u64 [a4 + 0x80] = a2\n  9478: u64 [a4 + 0x78] = a1\n  9481: u64 [a4 + 0x70] = a0\n  9484: a0 = s1 + 0x12a0\n  9488: a1 = s1 + 0x1280\n  9492: a2 = s1 + 0x1260\n  9496: u64 [a4 + 0x68] = a3\n  9499: ra = 250, jump @503\n      : @354 [@dyn 125] (gas: 13)\n  9505: a1 = s1 + 0x1018\n  9509: a2 = a1 + 0x200\n  9513: a0 = u64 [a2 + 0x88]\n  9517: u64 [s1 + 0x98] = a0\n  9521: a0 = u64 [a2 + 0x90]\n  9525: u64 [s1 + 0x88] = a0\n  9529: a0 = u64 [a2 + 0x98]\n  9533: u64 [s1 + 0x80] = a0\n  9537: a0 = u64 [a2 + 0xa0]\n  9541: u64 [s1 + 0x78] = a0\n  9544: a0 = s1 + 0x1240\n  9548: a1 = u64 [s1 + 0x90]\n  9552: ra = 252, jump @11\n      : @355 [@dyn 126] (gas: 23)\n  9558: a4 = s1 + 0x1018\n  9562: a5 = a4 + 0x200\n  9566: a0 = u64 [a5 + 0x28]\n  9569: a1 = u64 [a5 + 0x30]\n  9572: a2 = u64 [a5 + 0x38]\n  9575: a3 = u64 [a5 + 0x40]\n  9578: u64 [a4 + 0x1e0] = a3\n  9582: u64 [a4 + 0x1d8] = a2\n  9586: u64 [a4 + 0x1d0] = a1\n  9590: u64 [a4 + 0x1c8] = a0\n  9594: a0 = u64 [s1 + 0x78]\n  9597: u64 [a5] = a0\n  9599: a0 = u64 [s1 + 0x80]\n  9603: a5 = a4 + 0x100\n  9607: u64 [a5 + 0xf8] = a0\n  9611: a0 = u64 [s1 + 0x88]\n  9615: u64 [a5 + 0xf0] = a0\n  9619: a0 = s1 + 0x1220\n  9623: a1 = s1 + 0x1200\n  9627: a2 = s1 + 0x11e0\n  9631: a3 = u64 [s1 + 0x98]\n  9635: u64 [a5 + 0xe8] = a3\n  9639: ra = 254, jump @512\n      : @356 [@dyn 127] (gas: 10)\n  9645: a1 = s1 + 0x1018\n  9649: a2 = a1 + 0x200\n  9653: a0 = u64 [a2 + 0x20]\n  9656: u64 [s1 + 0x80] = a0\n  9660: a0 = u64 [a2 + 0x18]\n  9663: u64 [s1 + 0x78] = a0\n  9666: a0 = u64 [a2 + 0x10]\n  9669: u64 [s1 + 0x70] = a0\n  9672: a0 = u64 [a2 + 0x8]\n  9675: fallthrough\n      : @357 (gas: 8)\n  9676: u64 [s1 + 0x68] = a0\n  9679: a0 = 0x30090\n  9684: u64 [s1 + 0x98] = a0\n  9688: i32 a0 = a0 + 0\n  9690: u64 [s1 + 0x60] = a0\n  9693: ra = 0x100\n  9697: ecalli 4 // 'caller'\n  9699: fallthrough\n      : @358 [@dyn 128] (gas: 5)\n  9700: a2 = u64 [s1 + 0x98]\n  9704: a0 = u64 [a2 + 0x8]\n  9707: a1 = i32 [a2 + 0x10]\n  9710: a2 = u64 [a2]\n  9712: t0 = 258, jump @691\n      : @359 [@dyn 129] (gas: 9)\n  9718: a2 = s1 + 0x1018\n  9722: u64 [a2 + 448] = 0\n  9726: a4 = a2 + 0x100\n  9730: u64 [a4 + 0xb8] = a1\n  9734: u64 [a4 + 0xb0] = a0\n  9738: a1 = s1 + 0x11c0\n  9742: u64 [a4 + 0xa8] = a3\n  9746: a0 = 0\n  9748: ra = 260, jump @9\n      : @360 [@dyn 130] (gas: 8)\n  9754: a2 = s1 + 0x1018\n  9758: u64 [a2 + 416] = 0\n  9762: u64 [a2 + 408] = 0\n  9766: u64 [a2 + 392] = 0x2\n  9771: a0 = 0x20\n  9774: a1 = s1 + 0x11a0\n  9778: u64 [a2 + 400] = 0\n  9782: ra = 262, jump @9\n      : @361 [@dyn 131] (gas: 7)\n  9788: a0 = sp + 0xffffffffffffffe0\n  9791: a0 = a0 & 0xffffffffffffffe0\n  9794: u64 [s1 + 0x88] = a0\n  9798: sp = a0\n  9800: a1 = 0x40\n  9803: a0 = 0\n  9805: ra = 264, jump @19\n      : @362 [@dyn 132] (gas: 12)\n  9811: a1 = sp + 0xffffffffffffffe0\n  9814: a1 = a1 & 0xffffffffffffffe0\n  9817: u64 [s1 + 0x58] = a1\n  9820: sp = a1\n  9822: i32 a0 = a0 + 0\n  9824: i32 a2 = a1 + 0\n  9826: a1 = 0x40\n  9829: ra = 0x10a\n  9833: ecalli 9 // 'hash_keccak_256'\n  9835: a3 = u64 [s1 + 0x58]\n  9838: t0 = 0x10c\n  9842: jump @699\n      : @363 [@dyn 133] (gas: 2)\n  9845: a3 = u64 [s1 + 0x58]\n  9848: t0 = 268, jump @699\n      : @364 [@dyn 134] (gas: 7)\n  9854: a1 = u64 [s1 + 0x88]\n  9858: u64 [a1 + 0x18] = a3\n  9861: u64 [a1 + 0x10] = a2\n  9864: u64 [a1 + 0x8] = a4\n  9867: u64 [a1] = a0\n  9869: a0 = s1 + 0x1180\n  9873: ra = 270, jump @11\n      : @365 [@dyn 135] (gas: 22)\n  9879: a4 = s1 + 0x1018\n  9883: a3 = u64 [a4 + 0x168]\n  9887: a0 = u64 [a4 + 0x170]\n  9891: a1 = u64 [a4 + 0x178]\n  9895: a2 = u64 [a4 + 0x180]\n  9899: a5 = u64 [s1 + 0x80]\n  9903: u64 [a4 + 0x120] = a5\n  9907: a5 = u64 [s1 + 0x78]\n  9910: u64 [a4 + 0x118] = a5\n  9914: a5 = u64 [s1 + 0x70]\n  9917: u64 [a4 + 0x110] = a5\n  9921: a5 = u64 [s1 + 0x68]\n  9924: u64 [a4 + 0x108] = a5\n  9928: a5 = a4 + 0x100\n  9932: u64 [a5 + 0x40] = a2\n  9935: u64 [a5 + 0x38] = a1\n  9938: u64 [a5 + 0x30] = a0\n  9941: a0 = s1 + 0x1160\n  9945: a1 = s1 + 0x1140\n  9949: a2 = s1 + 0x1120\n  9953: u64 [a5 + 0x28] = a3\n  9956: ra = 272, jump @573\n      : @366 [@dyn 136] (gas: 15)\n  9962: a3 = s1 + 0x1018\n  9966: a4 = a3 + 0x100\n  9970: a0 = u64 [a4 + 0x60]\n  9973: a1 = u64 [a4 + 0x58]\n  9976: a2 = u64 [a4 + 0x50]\n  9979: a3 = u64 [a4 + 0x48]\n  9982: a4 = s1 + 0x1838\n  9986: a5 = a4 + 0x200\n  9990: u64 [a5 + 0x80] = a0\n  9994: u64 [a5 + 0x78] = a1\n  9997: u64 [a5 + 0x70] = a2\n 10000: u64 [a5 + 0x68] = a3\n 10003: a1 = s1 + 0x1aa0\n 10007: a0 = u64 [s1 + 0x88]\n 10011: ra = 274, jump @14\n      : @367 [@dyn 137] (gas: 8)\n 10017: a0 = s1 + 0x1838\n 10021: u64 [a0 + 672] = 0\n 10025: u64 [a0 + 664] = 0\n 10029: u64 [a0 + 656] = 0\n 10033: u64 [a0 + 648] = 0x1\n 10038: a0 = s1 + 0x1100\n 10042: a1 = s1 + 0x1ac0\n 10046: ra = 276, jump @11\n      : @368 [@dyn 138] (gas: 21)\n 10052: a4 = s1 + 0x1018\n 10056: a3 = u64 [a4 + 0xe8]\n 10060: a0 = u64 [a4 + 0xf0]\n 10064: a1 = u64 [a4 + 0xf8]\n 10068: a2 = u64 [a4 + 0x100]\n 10072: a5 = u64 [s1 + 0x80]\n 10076: u64 [a4 + 0xa0] = a5\n 10080: a5 = u64 [s1 + 0x78]\n 10083: u64 [a4 + 0x98] = a5\n 10087: a5 = u64 [s1 + 0x70]\n 10090: u64 [a4 + 0x90] = a5\n 10094: a5 = u64 [s1 + 0x68]\n 10097: u64 [a4 + 0x88] = a5\n 10101: u64 [a4 + 0xc0] = a2\n 10105: u64 [a4 + 0xb8] = a1\n 10109: u64 [a4 + 0xb0] = a0\n 10113: a0 = s1 + 0x10e0\n 10117: a1 = s1 + 0x10c0\n 10121: a2 = s1 + 0x10a0\n 10125: u64 [a4 + 0xa8] = a3\n 10129: ra = 278, jump @573\n      : @369 [@dyn 139] (gas: 18)\n 10135: a3 = s1 + 0x1018\n 10139: a0 = u64 [a3 + 0xc8]\n 10143: a1 = u64 [a3 + 0xd0]\n 10147: a2 = u64 [a3 + 0xd8]\n 10151: a3 = u64 [a3 + 0xe0]\n 10155: a4 = s1 + 0x1838\n 10159: u64 [a4 + 704] = 0\n 10163: u64 [a4 + 696] = 0\n 10167: u64 [a4 + 688] = 0\n 10171: u64 [a4 + 680] = 0x1\n 10176: a5 = a4 + 0x200\n 10180: u64 [a5 + 0xe0] = a3\n 10184: u64 [a5 + 0xd8] = a2\n 10188: u64 [a5 + 0xd0] = a1\n 10192: u64 [a5 + 0xc8] = a0\n 10196: a0 = s1 + 0x1ae0\n 10200: a1 = s1 + 0x1b00\n 10204: ra = 280, jump @14\n      : @370 [@dyn 140] (gas: 21)\n 10210: a0 = s1 + 0x1838\n 10214: u64 [a0 + 768] = 0\n 10218: u64 [a0 + 760] = 0\n 10222: u64 [a0 + 752] = 0\n 10226: u64 [a0 + 744] = 0\n 10230: a0 = s1 + 0x2000\n 10234: i32 a0 = a0 + 0xfffffffffffffb20\n 10238: ecalli 16 // 'value_transferred'\n 10240: a0 = s1 + 0x1838\n 10244: a2 = a0 + 0x200\n 10248: a1 = u64 [a2 + 0xe8]\n 10252: u64 [s1 + 0x88] = a1\n 10256: a1 = u64 [a2 + 0xf0]\n 10260: u64 [s1 + 0x58] = a1\n 10263: a1 = u64 [a2 + 0xf8]\n 10267: u64 [s1 + 0x50] = a1\n 10270: a0 = u64 [a0 + 0x300]\n 10274: u64 [s1 + 0x48] = a0\n 10277: a0 = s1 + 0x1080\n 10281: a1 = u64 [s1 + 0x90]\n 10285: ra = 282, jump @11\n      : @371 [@dyn 141] (gas: 21)\n 10291: a4 = s1 + 0x1018\n 10295: a3 = u64 [a4 + 0x68]\n 10298: a0 = u64 [a4 + 0x70]\n 10301: a1 = u64 [a4 + 0x78]\n 10304: a2 = u64 [a4 + 0x80]\n 10308: a5 = u64 [s1 + 0x48]\n 10311: u64 [a4 + 0x20] = a5\n 10314: a5 = u64 [s1 + 0x50]\n 10317: u64 [a4 + 0x18] = a5\n 10320: a5 = u64 [s1 + 0x58]\n 10323: u64 [a4 + 0x10] = a5\n 10326: a5 = u64 [s1 + 0x88]\n 10330: u64 [a4 + 0x8] = a5\n 10333: u64 [a4 + 0x40] = a2\n 10336: u64 [a4 + 0x38] = a1\n 10339: u64 [a4 + 0x30] = a0\n 10342: a0 = s1 + 0x1060\n 10346: a1 = s1 + 0x1040\n 10350: a2 = s1 + 0x1020\n 10354: u64 [a4 + 0x28] = a3\n 10357: ra = 284, jump @573\n      : @372 [@dyn 142] (gas: 14)\n 10363: a3 = s1 + 0x1018\n 10367: a0 = u64 [a3 + 0x60]\n 10370: a1 = u64 [a3 + 0x58]\n 10373: a2 = u64 [a3 + 0x50]\n 10376: a3 = u64 [a3 + 0x48]\n 10379: a4 = s1 + 0x1838\n 10383: a5 = a4 + 0x300\n 10387: u64 [a5 + 0x20] = a0\n 10390: u64 [a5 + 0x18] = a1\n 10393: u64 [a5 + 0x10] = a2\n 10396: u64 [a5 + 0x8] = a3\n 10399: a1 = s1 + 0x1b40\n 10403: a0 = u64 [s1 + 0x90]\n 10407: ra = 286, jump @14\n      : @373 [@dyn 143] (gas: 2)\n 10413: a1 = u64 [s1 + 0x98]\n 10417: t0 = 288, jump @702\n      : @374 [@dyn 144] (gas: 3)\n 10423: a0 = u64 [s1 + 0x60]\n 10426: ecalli 5 // 'code_size'\n 10428: fallthrough\n      : @375 (gas: 1)\n 10429: jump @454 if a0 == 0\n      : @376 (gas: 3)\n 10433: a0 = s1 + 0x1000\n 10437: a1 = 0x40\n 10440: ra = 290, jump @7\n      : @377 [@dyn 145] (gas: 14)\n 10446: a0 = s1 + 0x1018\n 10450: a2 = u64 [a0]\n 10452: a1 = a0 + 0xffffffffffffff00\n 10456: a3 = u64 [a1 + 0xf8]\n 10460: a4 = u64 [a1 + 0xf0]\n 10464: a5 = u64 [a1 + 0xe8]\n 10468: a0 = a4 | a2\n 10471: a1 = a5 | a3\n 10474: a1 = a1 | a0\n 10477: a1 = a1 >> 0x20\n 10480: a0 = a0 | a3\n 10483: a0 = a0 << 0x20\n 10486: a0 = a0 | a1\n 10489: jump @452 if a0 != 0\n      : @378 (gas: 16)\n 10493: a0 = s1 + 0x7ff\n 10497: a0 = a0 + 0x19\n 10500: u64 [s1 + 0x88] = a2\n 10504: a2 = a0\n 10506: u64 [a0 + 2008] = 0\n 10510: u64 [a0 + 2000] = 0\n 10514: u64 [a0 + 1992] = 0\n 10518: a0 = 0x9940686e00000000\n 10528: a1 = s1 + 0x7ff\n 10532: a1 = a1 + 0x7e1\n 10536: u64 [a2 + 0x7e0] = a0\n 10540: a0 = a5\n 10542: u64 [s1 + 0x58] = a3\n 10545: u64 [s1 + 0x50] = a4\n 10548: u64 [s1 + 0x90] = a5\n 10552: ra = 292, jump @9\n      : @379 [@dyn 146] (gas: 9)\n 10558: a0 = s1 + 0x1838\n 10562: u64 [a0 + 832] = 0\n 10566: u64 [a0 + 824] = 0\n 10570: u64 [a0 + 816] = 0\n 10574: u64 [a0 + 808] = 0\n 10578: a0 = s1 + 0x2000\n 10582: i32 a0 = a0 + 0xfffffffffffffb60\n 10586: ecalli 16 // 'value_transferred'\n 10588: fallthrough\n      : @380 (gas: 10)\n 10589: a5 = u64 [s1 + 0x90]\n 10593: a0 = u64 [s1 + 0x88]\n 10597: a1 = u64 [s1 + 0x58]\n 10600: a0 = a0 | a1\n 10603: a1 = 0xfffffffc\n 10613: a1 = a5 <u a1\n 10616: a2 = u64 [s1 + 0x50]\n 10619: a1 = 0 if a2 != 0\n 10621: a1 = 0 if a0 != 0\n 10623: jump @452 if a1 == 0\n      : @381 (gas: 16)\n 10627: a0 = s1 + 0x1838\n 10631: a2 = u64 [a0 + 0x328]\n 10635: a1 = u64 [a0 + 0x330]\n 10639: a3 = u64 [a0 + 0x338]\n 10643: a4 = u64 [a0 + 0x340]\n 10647: i32 a0 = a5 + 0x4\n 10650: a5 = s1 + 0x7ff\n 10654: a5 = a5 + 0x19\n 10657: u64 [a5 + 0x7c0] = a4\n 10661: a4 = a5 + 0x700\n 10665: u64 [a4 + 0xb8] = a3\n 10669: u64 [a4 + 0xb0] = a1\n 10673: a1 = s1 + 0x7ff\n 10677: a1 = a1 + 0x7c1\n 10681: u64 [a4 + 0xa8] = a2\n 10685: ra = 294, jump @9\n      : @382 [@dyn 147] (gas: 5)\n 10691: ra = 0x128\n 10695: ecalli 10 // 'ref_time_left'\n 10697: a1 = u64 [s1 + 0x98]\n 10701: t0 = 0x12a\n 10705: jump @702\n      : @383 [@dyn 148] (gas: 2)\n 10708: a1 = u64 [s1 + 0x98]\n 10712: t0 = 298, jump @702\n      : @384 [@dyn 149] (gas: 8)\n 10718: a0 = s1 + 0x1838\n 10722: u64 [a0 + 864] = 0\n 10726: u64 [a0 + 856] = 0\n 10730: u64 [a0 + 848] = 0\n 10734: u64 [a0 + 840] = 0\n 10738: a1 = 0x24\n 10741: a0 = u64 [s1 + 0x90]\n 10745: ra = 300, jump @19\n      : @385 [@dyn 150] (gas: 4)\n 10751: u64 [s1 + 0x48] = a0\n 10754: a0 = u64 [s1 + 0x90]\n 10758: a1 = 0\n 10760: ra = 302, jump @19\n      : @386 [@dyn 151] (gas: 33)\n 10766: a2 = s1 + 0x1838\n 10770: u32 [a2 + 872] = 0\n 10774: a3 = a2 + 0x300\n 10778: u64 [a3 + 160] = 0xffffffffffffffff\n 10783: u64 [a3 + 152] = 0xffffffffffffffff\n 10788: u64 [a3 + 144] = 0xffffffffffffffff\n 10793: u64 [a3 + 136] = 0xffffffffffffffff\n 10798: a1 = u64 [s1 + 0x98]\n 10802: a1 = a1 << 0x20\n 10805: a1 = a1 >> 0x20\n 10808: a2 = 0x800000000\n 10818: t0 = a1 | a2\n 10821: a1 = s1 + 0x1b80\n 10825: a1 = a1 << 0x20\n 10828: a1 = a1 >> 0x20\n 10831: a2 = s1 + 0x1bc0\n 10835: a2 = a2 << 0x20\n 10838: a3 = a2 | a1\n 10841: a1 = u64 [s1 + 0x48]\n 10844: a1 = a1 << 0x20\n 10847: a1 = a1 >> 0x20\n 10850: a2 = 0x2400000000\n 10860: a4 = a1 | a2\n 10863: a0 = a0 << 0x20\n 10866: a0 = a0 >> 0x20\n 10869: a1 = s1 + 0x1ba0\n 10873: a1 = a1 << 0x20\n 10876: a5 = a1 | a0\n 10879: a1 = 0xffffffffffffffff\n 10882: a2 = 0xffffffffffffffff\n 10885: a0 = t0\n 10887: ecalli 0 // 'call'\n 10888: fallthrough\n      : @387 (gas: 1)\n 10889: jump @486 if a0 != 0\n      : @388 (gas: 21)\n 10893: a1 = s1 + 0x7ff\n 10897: a1 = a1 + 0x19\n 10900: u64 [a1 + 1888] = 0\n 10904: u64 [a1 + 1880] = 0\n 10908: u64 [a1 + 1872] = 0\n 10912: u64 [a1 + 1864] = 0\n 10916: a0 = u64 [s1 + 0x90]\n 10920: a2 = a1 + 0x700\n 10924: u64 [a2 + 0x68] = a0\n 10927: a0 = u64 [s1 + 0x50]\n 10930: u64 [a2 + 0x70] = a0\n 10933: a0 = u64 [s1 + 0x58]\n 10936: u64 [a2 + 0x78] = a0\n 10939: a3 = a1\n 10941: a0 = s1 + 0x7ff\n 10945: a0 = a0 + 0x781\n 10949: a1 = s1 + 0x7ff\n 10953: a1 = a1 + 0x761\n 10957: a2 = u64 [s1 + 0x88]\n 10961: u64 [a3 + 0x780] = a2\n 10965: ra = 304, jump @546\n      : @389 [@dyn 152] (gas: 4)\n 10971: a0 = s1 + 0x7ff\n 10975: a0 = a0 + 0x741\n 10979: a1 = 0x40\n 10982: ra = 306, jump @7\n      : @390 [@dyn 153] (gas: 20)\n 10988: a0 = s1 + 0x7ff\n 10992: a0 = a0 + 0x19\n 10995: a2 = a0 + 0x700\n 10999: a1 = u64 [a2 + 0x40]\n 11002: u64 [s1 + 0x58] = a1\n 11005: a1 = u64 [a2 + 0x38]\n 11008: u64 [s1 + 0x50] = a1\n 11011: a1 = u64 [a2 + 0x30]\n 11014: u64 [s1 + 0x88] = a1\n 11018: a0 = u64 [a2 + 0x28]\n 11021: u64 [s1 + 0x90] = a0\n 11025: a0 = s1 + 0x1838\n 11029: u64 [a0 + 960] = 0\n 11033: u64 [a0 + 952] = 0\n 11037: u64 [a0 + 944] = 0\n 11041: u64 [a0 + 936] = 0\n 11045: a0 = s1 + 0x2000\n 11049: i32 a0 = a0 + 0xfffffffffffffbe0\n 11053: ecalli 16 // 'value_transferred'\n 11055: fallthrough\n      : @391 (gas: 12)\n 11056: a0 = u64 [s1 + 0x58]\n 11059: a1 = u64 [s1 + 0x88]\n 11063: a0 = a0 | a1\n 11066: a2 = u64 [s1 + 0x50]\n 11069: a1 = u64 [s1 + 0x90]\n 11073: a1 = a1 | a2\n 11076: a1 = a1 | a0\n 11079: a1 = a1 >> 0x20\n 11082: a0 = a0 | a2\n 11085: a0 = a0 << 0x20\n 11088: a0 = a0 | a1\n 11091: jump @452 if a0 != 0\n      : @392 (gas: 17)\n 11095: a3 = s1 + 0x1838\n 11099: a4 = a3 + 0x300\n 11103: a0 = u64 [a4 + 0xa8]\n 11107: a1 = u64 [a4 + 0xb0]\n 11111: a2 = u64 [a4 + 0xb8]\n 11115: a3 = u64 [a4 + 0xc0]\n 11119: a4 = s1 + 0x7ff\n 11123: a4 = a4 + 0x19\n 11126: a5 = a4 + 0x700\n 11130: u64 [a5 + 0x20] = a3\n 11133: u64 [a5 + 0x18] = a2\n 11136: u64 [a5 + 0x10] = a1\n 11139: a1 = s1 + 0x7ff\n 11143: a1 = a1 + 0x721\n 11147: u64 [a5 + 0x8] = a0\n 11150: a0 = u64 [s1 + 0x90]\n 11154: ra = 308, jump @9\n      : @393 [@dyn 154] (gas: 10)\n 11160: a0 = u64 [s1 + 0x58]\n 11163: a1 = u64 [s1 + 0x50]\n 11166: a0 = a0 | a1\n 11169: a1 = 0xffffffe0\n 11179: a2 = u64 [s1 + 0x90]\n 11183: a1 = a2 <u a1\n 11186: a2 = u64 [s1 + 0x88]\n 11190: a1 = 0 if a2 != 0\n 11192: a1 = 0 if a0 != 0\n 11194: jump @452 if a1 == 0\n      : @394 (gas: 16)\n 11198: a0 = u64 [s1 + 0x90]\n 11202: i32 a0 = a0 + 0x20\n 11205: a1 = u64 [s1 + 0x68]\n 11208: a3 = s1 + 0x7ff\n 11212: a3 = a3 + 0x19\n 11215: a2 = a3 + 0x600\n 11219: u64 [a2 + 0xe8] = a1\n 11223: a1 = u64 [s1 + 0x70]\n 11226: u64 [a2 + 0xf0] = a1\n 11230: a1 = u64 [s1 + 0x78]\n 11233: u64 [a2 + 0xf8] = a1\n 11237: a1 = s1 + 0x7ff\n 11241: a1 = a1 + 0x701\n 11245: a2 = u64 [s1 + 0x80]\n 11249: u64 [a3 + 0x700] = a2\n 11253: ra = 310, jump @9\n      : @395 [@dyn 155] (gas: 6)\n 11259: a0 = u64 [s1 + 0x60]\n 11262: ra = 0x138\n 11266: ecalli 4 // 'caller'\n 11268: a2 = u64 [s1 + 0x98]\n 11272: t0 = 0x13a\n 11276: jump @703\n      : @396 [@dyn 156] (gas: 2)\n 11279: a2 = u64 [s1 + 0x98]\n 11283: t0 = 314, jump @703\n      : @397 [@dyn 157] (gas: 29)\n 11289: t0 = a1 | a0\n 11292: a3 = a3 >> 0x20\n 11295: a2 = reverse a2\n 11297: a1 = a2 << 0x20\n 11300: a1 = a1 | a3\n 11303: a2 = a2 >> 0x20\n 11306: a3 = u64 [0x20000]\n 11311: a0 = s1 + 0x7ff\n 11315: a0 = a0 + 0x19\n 11318: u64 [a0 + 0x6e0] = a3\n 11322: a3 = u64 [0x20008]\n 11327: a4 = u64 [0x20010]\n 11332: a5 = u64 [0x20018]\n 11337: u64 [a0 + 0x6d8] = a3\n 11341: a3 = a0 + 0x600\n 11345: u64 [a3 + 0xd0] = a4\n 11349: u64 [a0 + 1728] = 0\n 11353: u64 [a3 + 0xc8] = a5\n 11357: u64 [a3 + 0xb8] = a2\n 11361: u64 [a3 + 0xb0] = a1\n 11365: a1 = 0x40\n 11368: a2 = s1 + 0x7ff\n 11372: a2 = a2 + 0x6e1\n 11376: a3 = s1 + 0x7ff\n 11380: a3 = a3 + 0x6c1\n 11384: u64 [a0 + 0x6a8] = t0\n 11388: a0 = u64 [s1 + 0x90]\n 11392: ra = 0x164\n 11396: jump @15\n      : @398 (gas: 4)\n 11399: a0 = s1 + 0x7ff\n 11403: a0 = a0 + 0x241\n 11407: a1 = 0x40\n 11410: ra = 316, jump @7\n      : @399 [@dyn 158] (gas: 15)\n 11416: a0 = s1 + 0x7ff\n 11420: a0 = a0 + 0x19\n 11423: a2 = a0 + 0x200\n 11427: a1 = u64 [a2 + 0x40]\n 11430: u64 [s1 + 0x90] = a1\n 11434: a1 = u64 [a2 + 0x38]\n 11437: u64 [s1 + 0x88] = a1\n 11441: a1 = u64 [a2 + 0x30]\n 11444: u64 [s1 + 0x80] = a1\n 11448: a0 = u64 [a2 + 0x28]\n 11451: u64 [s1 + 0x98] = a0\n 11455: ra = 0x13e\n 11459: ecalli 12 // 'return_data_size'\n 11461: t0 = 0x140\n 11465: jump @693\n      : @400 [@dyn 159] (gas: 1)\n 11468: t0 = 320, jump @693\n      : @401 [@dyn 160] (gas: 1)\n 11474: jump @452 if a1 != 0\n      : @402 (gas: 3)\n 11478: a2 = a0\n 11480: a0 = a0 >> 0x20\n 11483: jump @452 if a0 != 0\n      : @403 (gas: 6)\n 11487: i32 a0 = a2 + 0\n 11489: u64 [s1 + 0x90] = a0\n 11493: a0 = u64 [s1 + 0x98]\n 11497: a1 = a2\n 11499: u64 [s1 + 0x88] = a2\n 11503: ra = 322, jump @19\n      : @404 [@dyn 161] (gas: 11)\n 11509: a1 = s1 + 0x1018\n 11513: a2 = u64 [s1 + 0x88]\n 11517: u32 [a1 + 0x7a8] = a2\n 11521: i32 a0 = a0 + 0\n 11523: a1 = s1 + 0x1000\n 11527: i32 a1 = a1 + 0x7c0\n 11531: a2 = 0\n 11533: ecalli 11 // 'return_data_copy'\n 11535: a0 = s1 + 0x1018\n 11539: a0 = i32 [a0 + 0x7a8]\n 11543: fallthrough\n      : @405 (gas: 2)\n 11544: a1 = u64 [s1 + 0x90]\n 11548: jump @452 if a0 <u a1\n      : @406 (gas: 2)\n 11552: ecalli 12 // 'return_data_size'\n 11554: fallthrough\n      : @407 (gas: 3)\n 11555: a1 = a0\n 11557: a0 = a0 >> 0x20\n 11560: jump @452 if a0 != 0\n      : @408 (gas: 3)\n 11564: a0 = u64 [s1 + 0x98]\n 11568: u64 [s1 + 0x90] = a1\n 11572: ra = 324, jump @19\n      : @409 [@dyn 162] (gas: 5)\n 11578: i32 a1 = a0 + 0\n 11580: a2 = i32 [s1 + 0x90]\n 11584: a0 = 0x1\n 11587: ecalli 13 // 'seal_return'\n 11589: jump @495\n      : @410 (gas: 15)\n 11592: a5 = a3 + 0x100\n 11596: a2 = u64 [a5 + 0xe0]\n 11600: a1 = u64 [a5 + 0xd8]\n 11604: a4 = a3\n 11606: a3 = u64 [a5 + 0xd0]\n 11610: a5 = a4 + 0x100\n 11614: u64 [a5 + 0x48] = a0\n 11617: u64 [a5 + 0x50] = a3\n 11620: u64 [a5 + 0x58] = a1\n 11623: a0 = s1 + 0x7ff\n 11627: a0 = a0 + 0x181\n 11631: a1 = s1 + 0x7ff\n 11635: a1 = a1 + 0x161\n 11639: u64 [a5 + 0x60] = a2\n 11642: ra = 326, jump @565\n      : @411 [@dyn 163] (gas: 12)\n 11648: a1 = s1 + 0x7ff\n 11652: a1 = a1 + 0x19\n 11655: a2 = a1 + 0x100\n 11659: a0 = u64 [a2 + 0x80]\n 11663: u64 [s1 + 0x60] = a0\n 11666: a0 = u64 [a2 + 0x78]\n 11669: u64 [s1 + 0x70] = a0\n 11672: a0 = u64 [a2 + 0x70]\n 11675: u64 [s1 + 0x78] = a0\n 11678: a0 = u64 [a2 + 0x68]\n 11681: u64 [s1 + 0x80] = a0\n 11685: fallthrough\n      : @412 (gas: 4)\n 11686: a0 = s1 + 0x7ff\n 11690: a0 = a0 + 0x141\n 11694: a1 = 0x40\n 11697: ra = 328, jump @7\n      : @413 [@dyn 164] (gas: 15)\n 11703: a4 = s1 + 0x7ff\n 11707: a4 = a4 + 0x19\n 11710: t1 = u64 [a4 + 0x140]\n 11714: a1 = a4 + 0x100\n 11718: a5 = u64 [a1 + 0x38]\n 11721: a3 = u64 [a1 + 0x30]\n 11724: a0 = u64 [a1 + 0x28]\n 11727: a2 = a3 | t1\n 11730: a1 = a0 | a5\n 11733: a1 = a1 | a2\n 11736: a1 = a1 >> 0x20\n 11739: a2 = a2 | a5\n 11742: a2 = a2 << 0x20\n 11745: a1 = a1 | a2\n 11748: jump @452 if a1 != 0\n      : @414 (gas: 12)\n 11752: u64 [a4 + 280] = 0\n 11756: u64 [a4 + 272] = 0\n 11760: u64 [a4 + 264] = 0\n 11764: t0 = 0xc958a43b00000000\n 11774: a1 = s1 + 0x7ff\n 11778: a1 = a1 + 0x121\n 11782: u64 [a4 + 0x120] = t0\n 11786: u64 [s1 + 0x88] = a0\n 11790: u64 [s1 + 0x58] = t1\n 11793: u64 [s1 + 0x50] = a5\n 11796: u64 [s1 + 0x48] = a3\n 11799: ra = 330, jump @9\n      : @415 [@dyn 165] (gas: 10)\n 11805: a3 = u64 [s1 + 0x88]\n 11809: a0 = u64 [s1 + 0x58]\n 11812: a1 = u64 [s1 + 0x50]\n 11815: a0 = a0 | a1\n 11818: a1 = 0xfffffffc\n 11828: a1 = a3 <u a1\n 11831: a2 = u64 [s1 + 0x48]\n 11834: a1 = 0 if a2 != 0\n 11836: a1 = 0 if a0 != 0\n 11838: jump @452 if a1 == 0\n      : @416 (gas: 14)\n 11842: i32 a0 = a3 + 0x4\n 11845: a1 = u64 [s1 + 0x80]\n 11849: a4 = s1 + 0x7ff\n 11853: a4 = a4 + 0x19\n 11856: u64 [a4 + 0xe8] = a1\n 11860: a1 = u64 [s1 + 0x78]\n 11863: u64 [a4 + 0xf0] = a1\n 11867: a1 = u64 [s1 + 0x70]\n 11870: u64 [a4 + 0xf8] = a1\n 11874: a1 = s1 + 0x7ff\n 11878: a1 = a1 + 0x101\n 11882: a2 = u64 [s1 + 0x60]\n 11885: u64 [a4 + 0x100] = a2\n 11889: ra = 332, jump @9\n      : @417 [@dyn 166] (gas: 13)\n 11895: ecalli 10 // 'ref_time_left'\n 11897: a1 = u64 [s1 + 0x98]\n 11901: u64 [a1 + 8] = 0\n 11904: u64 [a1 + 0] = 0\n 11906: u32 [a1 + 16] = 0x80000\n 11912: a0 = s1 + 0x1018\n 11916: u64 [a0 + 2016] = 0\n 11920: u64 [a0 + 2008] = 0\n 11924: u64 [a0 + 2000] = 0\n 11928: u64 [a0 + 1992] = 0\n 11932: a1 = 0x24\n 11935: a0 = u64 [s1 + 0x88]\n 11939: ra = 334, jump @19\n      : @418 [@dyn 167] (gas: 4)\n 11945: u64 [s1 + 0x98] = a0\n 11949: a1 = 0x20\n 11952: a0 = u64 [s1 + 0x88]\n 11956: ra = 336, jump @19\n      : @419 [@dyn 168] (gas: 28)\n 11962: a1 = s1 + 0x1018\n 11966: u32 [a1 + 2024] = 0x20\n 11971: a1 = s1 + 0x1838\n 11975: u64 [a1 + 0] = 0\n 11977: u64 [a1 + 4294967288] = 0\n 11980: u64 [a1 + 4294967280] = 0\n 11983: u64 [a1 + 4294967272] = 0\n 11986: a1 = s1 + 0x17e0\n 11990: a1 = a1 << 0x20\n 11993: a1 = a1 >> 0x20\n 11996: a2 = s1 + 0x1820\n 12000: a2 = a2 << 0x20\n 12003: a3 = a2 | a1\n 12006: a1 = u64 [s1 + 0x98]\n 12010: a1 = a1 << 0x20\n 12013: a1 = a1 >> 0x20\n 12016: a2 = 0x2400000000\n 12026: a4 = a1 | a2\n 12029: a0 = a0 << 0x20\n 12032: a0 = a0 >> 0x20\n 12035: a1 = s1 + 0x1800\n 12039: a1 = a1 << 0x20\n 12042: a5 = a1 | a0\n 12045: a1 = 0xffffffffffffffff\n 12048: a2 = 0xffffffffffffffff\n 12051: a0 = u64 [s1 + 0x68]\n 12054: ecalli 0 // 'call'\n 12055: fallthrough\n      : @420 (gas: 1)\n 12056: jump @438 if a0 != 0\n      : @421 (gas: 2)\n 12060: ecalli 12 // 'return_data_size'\n 12062: fallthrough\n      : @422 (gas: 2)\n 12063: a5 = 0x20\n 12066: jump @424 if a0 >=u a5\n      : @423 (gas: 3)\n 12069: ecalli 12 // 'return_data_size'\n 12071: a5 = a0\n 12073: fallthrough\n      : @424 (gas: 21)\n 12074: a2 = s1 + 0x7ff\n 12078: a2 = a2 + 0x19\n 12081: a3 = u64 [s1 + 0x88]\n 12085: t0 = u64 [s1 + 0x58]\n 12088: a0 = u64 [s1 + 0x50]\n 12091: a1 = u64 [s1 + 0x48]\n 12094: u64 [s1 + 104] = 0\n 12097: u64 [s1 + 0x98] = a5\n 12101: u64 [a2 + 0x88] = a5\n 12105: u64 [a2 + 0xa8] = a3\n 12109: u64 [a2 + 144] = 0\n 12113: u64 [a2 + 0xb0] = a1\n 12117: u64 [a2 + 152] = 0\n 12121: u64 [a2 + 0xb8] = a0\n 12125: u64 [a2 + 160] = 0\n 12129: a0 = s1 + 0x7ff\n 12133: a0 = a0 + 0xc1\n 12137: a1 = s1 + 0x7ff\n 12141: a1 = a1 + 0xa1\n 12145: u64 [a2 + 0xc0] = t0\n 12149: ra = 338, jump @546\n      : @425 [@dyn 169] (gas: 4)\n 12155: a3 = u64 [s1 + 0x68]\n 12158: a0 = a3 >u 0\n 12160: a1 = u64 [s1 + 0x98]\n 12164: t0 = 340, jump @694\n      : @426 [@dyn 170] (gas: 1)\n 12170: jump @494 if a2 == 0\n      : @427 (gas: 4)\n 12174: a0 = s1 + 0x7ff\n 12178: a0 = a0 + 0x81\n 12182: a1 = u64 [s1 + 0x88]\n 12186: ra = 342, jump @7\n      : @428 [@dyn 171] (gas: 14)\n 12192: a1 = s1 + 0x7ff\n 12196: a1 = a1 + 0x19\n 12199: a0 = u64 [a1 + 0x80]\n 12203: u64 [s1 + 0x98] = a0\n 12207: a0 = u64 [a1 + 0x78]\n 12210: u64 [s1 + 0x88] = a0\n 12214: a0 = u64 [a1 + 0x70]\n 12217: u64 [s1 + 0x68] = a0\n 12220: a0 = u64 [a1 + 0x68]\n 12223: u64 [s1 + 0x58] = a0\n 12226: a0 = s1 + 0x7ff\n 12230: a0 = a0 + 0x61\n 12233: a1 = u64 [s1 + 0x90]\n 12237: ra = 344, jump @11\n      : @429 [@dyn 172] (gas: 27)\n 12243: a4 = s1 + 0x7ff\n 12247: a4 = a4 + 0x19\n 12250: a3 = u64 [a4 + 0x48]\n 12253: a0 = u64 [a4 + 0x50]\n 12256: a1 = u64 [a4 + 0x58]\n 12259: a2 = u64 [a4 + 0x60]\n 12262: a5 = u64 [s1 + 0x98]\n 12266: u64 [a4] = a5\n 12268: a5 = u64 [s1 + 0x88]\n 12272: u64 [a4 + 0xfffffffffffffff8] = a5\n 12275: a5 = u64 [s1 + 0x68]\n 12278: t0 = s1 + 0x1000\n 12282: u64 [t0 + 0xfffffffffffff808] = a5\n 12286: a5 = u64 [s1 + 0x58]\n 12289: t0 = s1 + 0x1000\n 12293: u64 [t0 + 0xfffffffffffff800] = a5\n 12297: u64 [a4 + 0x20] = a2\n 12300: u64 [a4 + 0x18] = a1\n 12303: u64 [a4 + 0x10] = a0\n 12306: a0 = s1 + 0x7ff\n 12310: a0 = a0 + 0x41\n 12313: a1 = s1 + 0x7ff\n 12317: a1 = a1 + 0x21\n 12320: a2 = s1 + 0x7ff\n 12324: a2 = a2 + 0x1\n 12327: u64 [a4 + 0x8] = a3\n 12330: ra = 346, jump @573\n      : @430 [@dyn 173] (gas: 14)\n 12336: a3 = s1 + 0x7ff\n 12340: a3 = a3 + 0x19\n 12343: a0 = u64 [a3 + 0x40]\n 12346: a1 = u64 [a3 + 0x38]\n 12349: a2 = u64 [a3 + 0x30]\n 12352: a3 = u64 [a3 + 0x28]\n 12355: a4 = s1 + 0x1838\n 12359: u64 [a4 + 0x40] = a0\n 12362: u64 [a4 + 0x38] = a1\n 12365: u64 [a4 + 0x30] = a2\n 12368: u64 [a4 + 0x28] = a3\n 12371: a1 = s1 + 0x1860\n 12375: a0 = u64 [s1 + 0x90]\n 12379: ra = 348, jump @14\n      : @431 [@dyn 174] (gas: 3)\n 12385: a0 = s1 + 0x7e0\n 12389: a1 = 0x40\n 12392: ra = 350, jump @7\n      : @432 [@dyn 175] (gas: 6)\n 12398: a4 = s1 + 0x700\n 12402: a0 = u64 [a4 + 0xf8]\n 12406: a1 = u64 [a4 + 0xf0]\n 12410: a2 = u64 [a4 + 0xe8]\n 12414: a3 = u64 [a4 + 0xe0]\n 12418: t0 = 352, jump @697\n      : @433 [@dyn 176] (gas: 1)\n 12424: jump @452 if a0 != 0\n      : @434 (gas: 12)\n 12428: a0 = u64 [s1 + 0x58]\n 12431: u64 [s1 + 0x7c0] = a0\n 12435: a0 = u64 [s1 + 0x68]\n 12438: u64 [s1 + 0x7c8] = a0\n 12442: a0 = u64 [s1 + 0x88]\n 12446: u64 [s1 + 0x7d0] = a0\n 12450: a1 = s1 + 0x7c0\n 12454: a0 = u64 [s1 + 0x98]\n 12458: u64 [s1 + 0x7d8] = a0\n 12462: a0 = a3\n 12464: u64 [s1 + 0x98] = a3\n 12468: ra = 354, jump @9\n      : @435 [@dyn 177] (gas: 22)\n 12474: a0 = u64 [s1 + 0x60]\n 12477: a4 = s1 + 0x700\n 12481: u64 [a4 + 0x98] = a0\n 12485: a0 = u64 [s1 + 0x70]\n 12488: u64 [a4 + 0x90] = a0\n 12492: a0 = u64 [s1 + 0x78]\n 12495: u64 [a4 + 0x88] = a0\n 12499: a0 = u64 [0x20040]\n 12504: a1 = u64 [0x20048]\n 12509: a2 = u64 [0x20050]\n 12514: a3 = u64 [s1 + 0x80]\n 12518: u64 [a4 + 0x80] = a3\n 12522: u64 [a4 + 0xb8] = a0\n 12526: u64 [a4 + 0xb0] = a1\n 12530: u64 [a4 + 0xa8] = a2\n 12534: a0 = u64 [0x20058]\n 12539: a1 = 0x20\n 12542: a2 = s1 + 0x7a0\n 12546: a3 = s1 + 0x780\n 12550: u64 [a4 + 0xa0] = a0\n 12554: a0 = u64 [s1 + 0x98]\n 12558: ra = 356, jump @15\n      : @436 [@dyn 178] (gas: 3)\n 12564: a0 = 0\n 12566: a1 = 0\n 12568: ra = 358, jump @19\n      : @437 [@dyn 179] (gas: 5)\n 12574: i32 a1 = a0 + 0\n 12576: a0 = 0\n 12578: a2 = 0\n 12580: ecalli 13 // 'seal_return'\n 12582: jump @484\n      : @438 (gas: 4)\n 12585: a0 = s1 + 0x7ff\n 12589: a0 = a0 + 0xe1\n 12593: a1 = 0x40\n 12596: ra = 360, jump @7\n      : @439 [@dyn 180] (gas: 14)\n 12602: a0 = s1 + 0x7ff\n 12606: a0 = a0 + 0x19\n 12609: a1 = u64 [a0 + 0xe0]\n 12613: u64 [s1 + 0x90] = a1\n 12617: a1 = u64 [a0 + 0xd8]\n 12621: u64 [s1 + 0x88] = a1\n 12625: a1 = u64 [a0 + 0xd0]\n 12629: u64 [s1 + 0x80] = a1\n 12633: a0 = u64 [a0 + 0xc8]\n 12637: u64 [s1 + 0x98] = a0\n 12641: ra = 0x16a\n 12645: ecalli 12 // 'return_data_size'\n 12647: t0 = 0x16c\n 12651: jump @693\n      : @440 [@dyn 181] (gas: 1)\n 12654: t0 = 364, jump @693\n      : @441 [@dyn 182] (gas: 1)\n 12660: jump @452 if a1 != 0\n      : @442 (gas: 3)\n 12664: a2 = a0\n 12666: a0 = a0 >> 0x20\n 12669: jump @452 if a0 != 0\n      : @443 (gas: 6)\n 12673: i32 a0 = a2 + 0\n 12675: u64 [s1 + 0x90] = a0\n 12679: a0 = u64 [s1 + 0x98]\n 12683: a1 = a2\n 12685: u64 [s1 + 0x88] = a2\n 12689: ra = 366, jump @19\n      : @444 [@dyn 183] (gas: 11)\n 12695: a1 = s1 + 0x1838\n 12699: a2 = u64 [s1 + 0x88]\n 12703: u32 [a1 + 0x8] = a2\n 12706: i32 a0 = a0 + 0\n 12708: a1 = s1 + 0x2000\n 12712: i32 a1 = a1 + 0xfffffffffffff840\n 12716: a2 = 0\n 12718: ecalli 11 // 'return_data_copy'\n 12720: a0 = s1 + 0x1838\n 12724: a0 = i32 [a0 + 0x8]\n 12727: jump @405\n      : @445 (gas: 3)\n 12730: a0 = s1 + 0x280\n 12734: a1 = 0x40\n 12737: ra = 368, jump @7\n      : @446 [@dyn 184] (gas: 13)\n 12743: a1 = s1 + 0x200\n 12747: a0 = u64 [a1 + 0x98]\n 12751: u64 [s1 + 0x90] = a0\n 12755: a0 = u64 [a1 + 0x90]\n 12759: u64 [s1 + 0x88] = a0\n 12763: a0 = u64 [a1 + 0x88]\n 12767: u64 [s1 + 0x80] = a0\n 12771: a0 = u64 [a1 + 0x80]\n 12775: u64 [s1 + 0x98] = a0\n 12779: ra = 0x172\n 12783: ecalli 12 // 'return_data_size'\n 12785: t0 = 0x174\n 12789: jump @693\n      : @447 [@dyn 185] (gas: 1)\n 12792: t0 = 372, jump @693\n      : @448 [@dyn 186] (gas: 1)\n 12798: jump @452 if a1 != 0\n      : @449 (gas: 3)\n 12801: a2 = a0\n 12803: a0 = a0 >> 0x20\n 12806: jump @452 if a0 != 0\n      : @450 (gas: 6)\n 12809: i32 a0 = a2 + 0\n 12811: u64 [s1 + 0x90] = a0\n 12815: a0 = u64 [s1 + 0x98]\n 12819: a1 = a2\n 12821: u64 [s1 + 0x88] = a2\n 12825: ra = 374, jump @19\n      : @451 [@dyn 187] (gas: 11)\n 12831: a1 = s1 + 0x1018\n 12835: a2 = u64 [s1 + 0x88]\n 12839: u32 [a1 + 0x688] = a2\n 12843: i32 a0 = a0 + 0\n 12845: a1 = s1 + 0x1000\n 12849: i32 a1 = a1 + 0x6a0\n 12853: a2 = 0\n 12855: ecalli 11 // 'return_data_copy'\n 12857: a0 = s1 + 0x1018\n 12861: a0 = i32 [a0 + 0x688]\n 12865: jump @405\n      : @452 (gas: 1)\n 12868: trap\n      : @453 (gas: 4)\n 12869: a0 = 0\n 12871: a1 = 0\n 12873: ra = 0x178\n 12877: jump @19\n      : @454 (gas: 2)\n 12880: a1 = 0\n 12882: ra = 376, jump @19\n      : @455 [@dyn 188] (gas: 5)\n 12888: i32 a1 = a0 + 0\n 12890: a0 = 0x1\n 12893: a2 = 0\n 12895: ecalli 13 // 'seal_return'\n 12897: jump @484\n      : @456 (gas: 3)\n 12900: a0 = 0\n 12902: ra = 0x178\n 12906: jump @19\n      : @457 (gas: 12)\n 12909: a2 = s1 + 0x7ff\n 12913: a2 = a2 + 0x19\n 12916: u64 [a2 + 664] = 0\n 12920: u64 [a2 + 656] = 0\n 12924: a0 = 0x30cd747100000000\n 12934: u64 [a2 + 0x2a0] = a0\n 12938: a1 = s1 + 0x7ff\n 12942: a1 = a1 + 0x2a1\n 12946: u64 [a2 + 648] = 0\n 12950: a0 = 0\n 12952: ra = 0x184\n 12956: jump @9\n      : @458 (gas: 9)\n 12959: u64 [s1 + 1904] = 0\n 12963: u64 [s1 + 1896] = 0\n 12967: u64 [s1 + 1888] = 0\n 12971: a0 = 0x1f2a200500000000\n 12981: a1 = s1 + 0x760\n 12985: u64 [s1 + 0x778] = a0\n 12989: a0 = 0\n 12991: ra = 0x184\n 12995: jump @9\n      : @459 (gas: 12)\n 12998: a2 = s1 + 0x7ff\n 13002: a2 = a2 + 0x19\n 13005: u64 [a2 + 1624] = 0\n 13009: u64 [a2 + 1616] = 0\n 13013: a0 = 0x30cd747100000000\n 13023: u64 [a2 + 0x660] = a0\n 13027: a1 = s1 + 0x7ff\n 13031: a1 = a1 + 0x661\n 13035: u64 [a2 + 1608] = 0\n 13039: a0 = 0\n 13041: ra = 0x184\n 13045: jump @9\n      : @460 (gas: 12)\n 13048: a2 = s1 + 0x7ff\n 13052: a2 = a2 + 0x19\n 13055: u64 [a2 + 1176] = 0\n 13059: u64 [a2 + 1168] = 0\n 13063: a0 = 0x1f2a200500000000\n 13073: u64 [a2 + 0x4a0] = a0\n 13077: a1 = s1 + 0x7ff\n 13081: a1 = a1 + 0x4a1\n 13085: u64 [a2 + 1160] = 0\n 13089: a0 = 0\n 13091: ra = 0x184\n 13095: jump @9\n      : @461 (gas: 3)\n 13098: a1 = 0x20090\n 13103: i32 a1 = a1 + 0\n 13105: jump @483\n      : @462 (gas: 3)\n 13108: a1 = 0x20090\n 13113: i32 a1 = a1 + 0\n 13115: jump @483\n      : @463 (gas: 3)\n 13118: a1 = 0x20090\n 13123: i32 a1 = a1 + 0\n 13125: jump @483\n      : @464 (gas: 3)\n 13128: a1 = 0x20090\n 13133: i32 a1 = a1 + 0\n 13135: jump @483\n      : @465 (gas: 8)\n 13138: u64 [s1 + 304] = 0\n 13142: u64 [s1 + 296] = 0\n 13146: u64 [s1 + 288] = 0\n 13150: a0 = 0x1f2a200500000000\n 13160: a1 = s1 + 0x120\n 13164: u64 [s1 + 0x138] = a0\n 13168: a0 = 0\n 13170: ra = 378, jump @9\n      : @466 [@dyn 189] (gas: 2)\n 13176: a1 = i32 [0x20088]\n 13181: jump @468 if a1 >u 31\n      : @467 (gas: 4)\n 13185: u32 [0x20088] = 0x20\n 13191: a1 = 0x20090\n 13196: i32 a1 = a1 + 0\n 13198: jump @498\n      : @468 (gas: 3)\n 13201: a1 = 0x20090\n 13206: i32 a1 = a1 + 0\n 13208: jump @498\n      : @469 (gas: 8)\n 13211: u64 [s1 + 336] = 0\n 13215: u64 [s1 + 328] = 0\n 13219: u64 [s1 + 320] = 0\n 13223: a0 = 0x3999656700000000\n 13233: a1 = s1 + 0x140\n 13237: u64 [s1 + 0x158] = a0\n 13241: a0 = 0\n 13243: ra = 380, jump @9\n      : @470 [@dyn 190] (gas: 3)\n 13249: a0 = u64 [s1 + 0x38]\n 13252: a0 = i32 [a0]\n 13254: jump @472 if a0 >u 31\n      : @471 (gas: 3)\n 13258: a1 = u64 [s1 + 0x38]\n 13261: u32 [a1 + 0] = 0x20\n 13264: fallthrough\n      : @472 (gas: 5)\n 13265: a0 = 0x1\n 13268: a2 = 0x4\n 13271: a1 = u64 [s1 + 0x40]\n 13274: ecalli 13 // 'seal_return'\n 13276: fallthrough\n      : @473 (gas: 5)\n 13277: a0 = 0x1\n 13280: a1 = u64 [s1 + 0x40]\n 13283: a2 = 0\n 13285: ecalli 13 // 'seal_return'\n 13287: jump @484\n      : @474 (gas: 12)\n 13290: a2 = s1 + 0x7ff\n 13294: a2 = a2 + 0x19\n 13297: u64 [a2 + 1688] = 0\n 13301: u64 [a2 + 1680] = 0\n 13305: a0 = 0x1f2a200500000000\n 13315: u64 [a2 + 0x6a0] = a0\n 13319: a1 = s1 + 0x7ff\n 13323: a1 = a1 + 0x6a1\n 13327: u64 [a2 + 1672] = 0\n 13331: a0 = 0\n 13333: ra = 0x184\n 13337: jump @9\n      : @475 (gas: 1)\n 13340: jump @480 if a0 != 124854476\n      : @476 (gas: 12)\n 13347: a0 = s1 + 0x1018\n 13351: u64 [a0 + 1024] = 0\n 13355: u64 [a0 + 1016] = 0\n 13359: u64 [a0 + 1008] = 0\n 13363: u64 [a0 + 1000] = 0\n 13367: a0 = s1 + 0x1000\n 13371: i32 a0 = a0 + 0x400\n 13375: ra = 0x17e\n 13379: ecalli 16 // 'value_transferred'\n 13381: a0 = 0x1018\n 13385: t0 = 0x180\n 13389: jump @700\n      : @477 [@dyn 191] (gas: 2)\n 13392: a0 = 0x1018\n 13396: t0 = 384, jump @700\n      : @478 [@dyn 192] (gas: 1)\n 13402: jump @487 if a0 == 0\n      : @479 (gas: 3)\n 13406: a1 = 0x20090\n 13411: i32 a1 = a1 + 0\n 13413: jump @483\n      : @480 (gas: 3)\n 13415: a0 = u64 [s1 + 0x98]\n 13419: a0 = i32 [a0]\n 13421: fallthrough\n      : @481 (gas: 1)\n 13422: jump @484 if a0 == 0\n      : @482 (gas: 3)\n 13425: a1 = 0x20090\n 13430: i32 a1 = a1 + 0\n 13432: fallthrough\n      : @483 (gas: 4)\n 13433: a0 = 0x1\n 13436: a2 = 0\n 13438: ecalli 13 // 'seal_return'\n 13440: fallthrough\n      : @484 (gas: 6)\n 13441: a1 = 0x20090\n 13446: i32 a1 = a1 + 0\n 13448: a0 = 0\n 13450: a2 = 0\n 13452: ecalli 13 // 'seal_return'\n 13454: jump @484\n      : @485 (gas: 9)\n 13456: u64 [s1 + 880] = 0\n 13460: u64 [s1 + 872] = 0\n 13464: u64 [s1 + 864] = 0\n 13468: a0 = 0xa437293700000000\n 13478: a1 = s1 + 0x360\n 13482: u64 [s1 + 0x378] = a0\n 13486: a0 = 0\n 13488: ra = 0x184\n 13492: jump @9\n      : @486 (gas: 12)\n 13495: a2 = s1 + 0x7ff\n 13499: a2 = a2 + 0x19\n 13502: u64 [a2 + 1944] = 0\n 13506: u64 [a2 + 1936] = 0\n 13510: a0 = 0xa437293700000000\n 13520: u64 [a2 + 0x7a0] = a0\n 13524: a1 = s1 + 0x7ff\n 13528: a1 = a1 + 0x7a1\n 13532: u64 [a2 + 1928] = 0\n 13536: a0 = 0\n 13538: ra = 0x184\n 13542: jump @9\n      : @487 (gas: 3)\n 13545: a0 = u64 [s1 + 0x98]\n 13549: a0 = i32 [a0]\n 13551: jump @489 if a0 >u 3\n      : @488 (gas: 6)\n 13555: a1 = 0x20090\n 13560: i32 a1 = a1 + 0\n 13562: a0 = 0x1\n 13565: a2 = 0\n 13567: ecalli 13 // 'seal_return'\n 13569: jump @484\n      : @489 (gas: 7)\n 13571: u64 [s1 + 184] = 0\n 13575: u64 [s1 + 176] = 0\n 13579: u64 [s1 + 160] = 0x804\n 13585: a0 = 0x80\n 13589: a1 = s1 + 0xa0\n 13593: u64 [s1 + 168] = 0\n 13597: ra = 386, jump @9\n      : @490 [@dyn 193] (gas: 2)\n 13603: a1 = i32 [0x20088]\n 13608: jump @492 if a1 >u 159\n      : @491 (gas: 4)\n 13613: u32 [0x20088] = 0xa0\n 13620: a0 = 0x20090\n 13625: i32 a1 = a0 + 0x80\n 13629: jump @352\n      : @492 (gas: 3)\n 13632: a0 = 0x20090\n 13637: i32 a1 = a0 + 0x80\n 13641: jump @352\n      : @493 (gas: 12)\n 13644: a2 = s1 + 0x7ff\n 13648: a2 = a2 + 0x19\n 13651: u64 [a2 + 1432] = 0\n 13655: u64 [a2 + 1424] = 0\n 13659: a0 = 0xda46d89900000000\n 13669: u64 [a2 + 0x5a0] = a0\n 13673: a1 = s1 + 0x7ff\n 13677: a1 = a1 + 0x5a1\n 13681: u64 [a2 + 1416] = 0\n 13685: a0 = 0\n 13687: ra = 0x184\n 13691: jump @9\n      : @494 (gas: 5)\n 13694: a1 = 0x20090\n 13699: i32 a1 = a1 + 0\n 13701: a0 = 0x1\n 13704: ecalli 13 // 'seal_return'\n 13706: fallthrough\n      : @495 (gas: 8)\n 13707: u64 [s1 + 368] = 0\n 13711: u64 [s1 + 360] = 0\n 13715: u64 [s1 + 352] = 0\n 13719: a0 = 0xa437293700000000\n 13729: a1 = s1 + 0x160\n 13733: u64 [s1 + 0x178] = a0\n 13737: a0 = 0\n 13739: ra = 388, jump @9\n      : @496 [@dyn 194] (gas: 3)\n 13745: a1 = 0x4\n 13748: a0 = 0\n 13750: ra = 390, jump @19\n      : @497 [@dyn 195] (gas: 2)\n 13756: i32 a1 = a0 + 0\n 13758: fallthrough\n      : @498 (gas: 5)\n 13759: a0 = 0x1\n 13762: a2 = 0x4\n 13765: ra = 0x188\n 13769: ecalli 13 // 'seal_return'\n 13771: fallthrough\n      : @499 [@dyn 196] (gas: 11)\n 13772: sp = sp + 0xffffffffffffffc0\n 13775: u64 [sp + 0x38] = ra\n 13778: u64 [sp + 0x30] = s0\n 13781: u64 [sp + 0x28] = s1\n 13784: s0 = sp + 0x40\n 13787: sp = sp & 0xffffffffffffffe0\n 13790: s1 = a0\n 13792: i32 a0 = sp + 0\n 13794: a1 = 0x4\n 13797: ecalli 2 // 'call_data_load'\n 13799: fallthrough\n      : @500 (gas: 12)\n 13800: a0 = u64 [sp + 0x18]\n 13803: a1 = u64 [sp + 0x10]\n 13806: a2 = u64 [sp + 0x8]\n 13809: a3 = u64 [sp]\n 13811: a4 = a2 | a0\n 13814: a5 = a3 | a1\n 13817: a5 = a5 | a4\n 13820: a5 = a5 >> 0x20\n 13823: a4 = a4 | a1\n 13826: a4 = a4 << 0x20\n 13829: a4 = a4 | a5\n 13832: jump @502 if a4 != 0\n      : @501 (gas: 10)\n 13835: u64 [s1] = a3\n 13837: u64 [s1 + 0x8] = a2\n 13840: u64 [s1 + 0x10] = a1\n 13843: u64 [s1 + 0x18] = a0\n 13846: sp = s0 + 0xffffffffffffffc0\n 13849: ra = u64 [sp + 0x38]\n 13852: s0 = u64 [sp + 0x30]\n 13855: s1 = u64 [sp + 0x28]\n 13858: sp = sp + 0x40\n 13861: ret\n      : @502 (gas: 7)\n 13863: a1 = 0x20090\n 13868: i32 a1 = a1 + 0\n 13870: a0 = 0x1\n 13873: a2 = 0\n 13875: ra = 0x18a\n 13879: ecalli 13 // 'seal_return'\n 13881: fallthrough\n      : @503 [@dyn 197] (gas: 70)\n 13882: sp = sp + 0xffffffffffffff40\n 13886: u64 [sp + 0xb8] = ra\n 13890: u64 [sp + 0xb0] = s0\n 13894: u64 [sp + 0xa8] = s1\n 13898: s0 = sp + 0xc0\n 13902: sp = sp & 0xfffffffffffffff0\n 13905: ra = u64 [a2]\n 13907: t0 = u64 [a1]\n 13909: a3 = u64 [a1 + 0x8]\n 13912: u64 [sp + 0x58] = a0\n 13915: a4 = u64 [a2 + 0x8]\n 13918: a0 = t0 mulhu ra\n 13921: s1 = a3 * ra\n 13924: a0 = a0 + s1\n 13927: s1 = a0 <u s1\n 13930: a5 = a3 mulhu ra\n 13933: a5 = a5 + s1\n 13936: s1 = t0 * a4\n 13939: a0 = a0 + s1\n 13942: u64 [sp + 0x50] = a0\n 13945: a0 = a0 <u s1\n 13948: s1 = t0 mulhu a4\n 13951: a0 = a0 + s1\n 13954: a0 = a0 + a5\n 13957: a5 = a0 <u a5\n 13960: s1 = a3 mulhu a4\n 13963: a5 = a5 + s1\n 13966: s1 = a3 * a4\n 13969: a0 = a0 + s1\n 13972: u64 [sp + 0x48] = a0\n 13975: s1 = a0 <u s1\n 13978: a5 = a5 + s1\n 13981: u64 [sp + 0x40] = a5\n 13984: t1 = u64 [a2 + 0x10]\n 13987: a2 = u64 [a2 + 0x18]\n 13990: t2 = u64 [a1 + 0x18]\n 13993: a0 = u64 [a1 + 0x10]\n 13996: a5 = a3 * t1\n 13999: u64 [sp + 0x20] = a2\n 14002: s1 = a2 * t0\n 14005: a1 = s1 + a5\n 14008: u64 [sp + 0x28] = a4\n 14011: s1 = a4 * a0\n 14014: a2 = t2 * ra\n 14017: a2 = a2 + s1\n 14020: s1 = t1 * t0\n 14023: a5 = a0 * ra\n 14026: s1 = s1 + a5\n 14029: u64 [sp + 0x30] = t1\n 14032: a4 = t1 mulhu t0\n 14035: u64 [sp + 0x10] = a4\n 14038: a4 = a4 + a1\n 14041: t1 = a0 mulhu ra\n 14044: a1 = t1 + a2\n 14047: a2 = s1 <u a5\n 14050: u64 [sp + 0x18] = a1\n 14053: u64 [sp + 0x8] = a4\n 14056: a5 = a1 + a4\n 14059: a2 = a2 + a5\n 14062: u64 [sp + 0x38] = t2\n 14065: a5 = a3 | t2\n 14068: a1 = t0 | a0\n 14071: a1 = a1 | a5\n 14074: a4 = u64 [sp + 0x40]\n 14077: a5 = u64 [sp + 0x48]\n 14080: s1 = s1 + a5\n 14083: t2 = s1 <u a5\n 14086: a2 = a2 + a4\n 14089: a2 = a2 + t2\n 14092: jump @505 if a1 == 0\n      : @504 (gas: 50)\n 14096: a1 = a2 ^ a4\n 14099: u64 [sp + 0x48] = a2\n 14102: a2 = u64 [sp + 0x48]\n 14105: a2 = a2 <u a4\n 14108: t2 = a2 if a1 != 0\n 14111: u64 [sp + 0x40] = s1\n 14114: a1 = u64 [sp + 0x10]\n 14117: a2 = u64 [sp + 0x8]\n 14120: s1 = a2 <u a1\n 14123: a2 = a3 >u 0\n 14125: a1 = u64 [sp + 0x20]\n 14128: a5 = a1 >u 0\n 14130: a2 = a2 & a5\n 14133: a5 = a1 mulhu t0\n 14136: a5 = a5 >u 0\n 14138: a2 = a2 | a5\n 14141: a4 = t1\n 14143: t1 = u64 [sp + 0x30]\n 14146: a3 = a3 mulhu t1\n 14149: a3 = a3 >u 0\n 14151: a2 = a2 | a3\n 14154: a2 = a2 | s1\n 14157: u64 [sp + 0x10] = a2\n 14160: a2 = u64 [sp + 0x18]\n 14163: a2 = a2 <u a4\n 14166: a4 = u64 [sp + 0x28]\n 14169: a3 = a4 >u 0\n 14171: s1 = u64 [sp + 0x38]\n 14174: a5 = s1 >u 0\n 14176: a3 = a3 & a5\n 14179: a5 = s1 mulhu ra\n 14182: a5 = a5 >u 0\n 14184: a3 = a3 | a5\n 14187: a5 = a4 mulhu a0\n 14190: a5 = a5 >u 0\n 14192: a3 = a3 | a5\n 14195: a2 = a2 | a3\n 14198: a3 = t1 | a1\n 14201: a5 = a0 | s1\n 14204: s1 = u64 [sp + 0x40]\n 14207: a3 = a3 >u 0\n 14209: a5 = a5 >u 0\n 14211: a3 = a3 & a5\n 14214: a2 = a2 | a3\n 14217: a1 = u64 [sp + 0x10]\n 14220: a1 = a1 | a2\n 14223: a2 = u64 [sp + 0x48]\n 14226: a0 = a1 | t2\n 14229: a0 = a0 & 0x1\n 14232: jump @506 if a0 != 0\n      : @505 (gas: 13)\n 14235: a0 = t0 * ra\n 14238: a1 = u64 [sp + 0x58]\n 14241: u64 [a1] = a0\n 14243: a0 = u64 [sp + 0x50]\n 14246: u64 [a1 + 0x8] = a0\n 14249: u64 [a1 + 0x10] = s1\n 14252: u64 [a1 + 0x18] = a2\n 14255: sp = s0 + 0xffffffffffffff40\n 14259: ra = u64 [sp + 0xb8]\n 14263: s0 = u64 [sp + 0xb0]\n 14267: s1 = u64 [sp + 0xa8]\n 14271: sp = sp + 0xc0\n 14275: ret\n      : @506 (gas: 6)\n 14277: u64 [sp + 144] = 0\n 14281: u64 [sp + 136] = 0\n 14285: u64 [sp + 128] = 0\n 14289: t0 = 0x18c\n 14293: a0 = 0x4e487b7100000000\n 14303: fallthrough\n      : @507 [@dyn 198] (gas: 4)\n 14304: a1 = sp + 0x80\n 14308: u64 [sp + 0x98] = a0\n 14312: a0 = 0\n 14314: ra = 398, jump @9\n      : @508 [@dyn 199] (gas: 7)\n 14320: u64 [sp + 120] = 0\n 14323: u64 [sp + 112] = 0\n 14326: u64 [sp + 96] = 0x11\n 14330: a0 = 0x4\n 14333: a1 = sp + 0x60\n 14336: u64 [sp + 104] = 0\n 14339: ra = 400, jump @9\n      : @509 [@dyn 200] (gas: 2)\n 14345: a1 = i32 [0x20088]\n 14350: jump @511 if a1 >u 63\n      : @510 (gas: 2)\n 14354: u32 [0x20088] = 0x40\n 14360: fallthrough\n      : @511 (gas: 7)\n 14361: a1 = 0x20090\n 14366: i32 a1 = a1 + 0\n 14368: a0 = 0x1\n 14371: a2 = 0x24\n 14374: ra = 0x192\n 14378: ecalli 13 // 'seal_return'\n 14380: fallthrough\n      : @512 [@dyn 201] (gas: 16)\n 14381: sp = sp + 0xfffffffffffffef0\n 14385: u64 [sp + 0x108] = ra\n 14389: u64 [sp + 0x100] = s0\n 14393: u64 [sp + 0xf8] = s1\n 14397: s0 = sp + 0x110\n 14401: sp = sp & 0xfffffffffffffff0\n 14404: t1 = u64 [a2 + 0x10]\n 14407: a5 = u64 [a2 + 0x18]\n 14410: s1 = u64 [a2 + 0x8]\n 14413: a2 = u64 [a2]\n 14415: a4 = s1 | a5\n 14418: a3 = a2 | t1\n 14421: a3 = a3 | a4\n 14424: u64 [sp] = a0\n 14426: u64 [sp + 0xa8] = a3\n 14430: jump @532 if a3 == 0\n      : @513 (gas: 73)\n 14434: a0 = u64 [a1 + 0x18]\n 14437: ra = u64 [a1 + 0x10]\n 14440: t0 = u64 [a1 + 0x8]\n 14443: t2 = u64 [a1]\n 14445: u64 [sp + 0x60] = t2\n 14448: a1 = clz t1\n 14450: a1 = a1 + 0x40\n 14453: a4 = clz a5\n 14455: a4 = a1 if a5 == 0\n 14458: u64 [sp + 0x30] = a2\n 14461: a1 = clz a2\n 14463: a2 = a1 + 0x40\n 14466: a1 = clz s1\n 14468: u64 [sp + 0x38] = s1\n 14471: a1 = a2 if s1 == 0\n 14474: a2 = a1 + 0x80\n 14478: u64 [sp + 0x40] = a5\n 14481: u64 [sp + 0x48] = t1\n 14484: a3 = t1 | a5\n 14487: a4 = a2 if a3 == 0\n 14490: a2 = a2 <u a1\n 14493: a2 = 0 if a3 != 0\n 14495: a1 = clz ra\n 14497: a1 = a1 + 0x40\n 14500: a5 = clz a0\n 14502: a5 = a1 if a0 == 0\n 14505: a1 = clz t2\n 14507: a1 = a1 + 0x40\n 14510: a3 = clz t0\n 14512: a3 = a1 if t0 == 0\n 14515: a1 = a3 + 0x80\n 14519: s1 = ra | a0\n 14522: a5 = a1 if s1 == 0\n 14525: a1 = a1 <u a3\n 14528: a1 = 0 if s1 != 0\n 14530: t1 = a2 ^ a1\n 14533: s1 = a2 <u a1\n 14536: a3 = a4 <u a5\n 14539: s1 = a3 if t1 == 0\n 14542: a2 = a2 - a1\n 14545: t2 = s1 <u 0x1\n 14548: t2 = t2 + 0xffffffffffffffff\n 14551: a3 = a2 - a3\n 14554: t1 = -s1\n 14556: a1 = a4 - a5\n 14559: a2 = t1 >u 0\n 14561: a4 = t2 >u 0\n 14563: a4 = a2 if t2 == 0\n 14566: u64 [sp + 0xa0] = a1\n 14570: a2 = a1 <u 0x100\n 14574: a2 = a2 ^ 0x1\n 14577: a5 = a3 >u 0\n 14579: a2 = a5 if a3 != 0\n 14582: a2 = a4 if s1 != 0\n 14585: s1 = u64 [sp + 0x60]\n 14588: a4 = s1 | ra\n 14591: a5 = t0 | a0\n 14594: a4 = a4 | a5\n 14597: a1 = u64 [sp + 0xa8]\n 14601: a5 = a1 <u 0x1\n 14604: a4 = a4 <u 0x1\n 14607: a4 = a4 | a5\n 14610: a2 = a2 | a4\n 14613: u64 [sp + 0x68] = a0\n 14616: a1 = a0\n 14618: a1 = 0 if a2 != 0\n 14620: a4 = ra\n 14622: a4 = 0 if a2 != 0\n 14624: u64 [sp + 0x58] = t0\n 14627: a5 = t0\n 14629: a5 = 0 if a2 != 0\n 14631: s1 = 0 if a2 != 0\n 14633: jump @530 if a2 != 0\n      : @514 (gas: 7)\n 14637: a0 = u64 [sp + 0xa0]\n 14641: a2 = a0 ^ 0xff\n 14645: t0 = a2 | t1\n 14648: a2 = a3 | t2\n 14651: a2 = t0 | a2\n 14654: a0 = u64 [sp]\n 14656: jump @531 if a2 == 0\n      : @515 (gas: 18)\n 14660: a2 = u64 [sp + 0xa0]\n 14664: a1 = a2 + 0x1\n 14667: u64 [sp + 0xa8] = a1\n 14671: u64 [sp + 0x50] = ra\n 14674: a0 = a1 <u 0x1\n 14677: a0 = a0 + a3\n 14680: u64 [sp + 0x80] = a0\n 14684: a0 = a0 | a1\n 14687: a0 = a0 <u 0x1\n 14690: a0 = a0 + t1\n 14693: u64 [sp + 0x70] = a0\n 14696: a0 = a0 <u t1\n 14699: a0 = a0 + t2\n 14702: u64 [sp + 0x78] = a0\n 14705: t0 = 0x194\n 14709: s1 = 0xff - a2\n 14713: a2 = 0x80 - s1\n 14717: fallthrough\n      : @516 [@dyn 202] (gas: 4)\n 14718: u64 [sp + 0x28] = s1\n 14721: a0 = u64 [sp + 0x60]\n 14724: a1 = u64 [sp + 0x58]\n 14727: ra = 406, jump @704\n      : @517 [@dyn 203] (gas: 6)\n 14733: u64 [sp + 0x98] = a0\n 14737: u64 [sp + 0x90] = a1\n 14741: a0 = u64 [sp + 0x50]\n 14744: a1 = u64 [sp + 0x68]\n 14747: a2 = s1\n 14749: ra = 408, jump @709\n      : @518 [@dyn 204] (gas: 10)\n 14755: u64 [sp + 0x88] = a0\n 14759: a0 = u64 [sp + 0x90]\n 14763: a0 = a0 | a1\n 14766: u64 [sp + 0x90] = a0\n 14770: a1 = u64 [sp + 0xa0]\n 14774: a2 = 0x7f - a1\n 14777: a0 = u64 [sp + 0x60]\n 14780: s1 = u64 [sp + 0x58]\n 14783: a1 = s1\n 14785: ra = 410, jump @709\n      : @519 [@dyn 205] (gas: 18)\n 14791: a2 = u64 [sp + 0x28]\n 14794: a3 = a2 <u 0x80\n 14798: u64 [sp + 0xa0] = a3\n 14802: a4 = u64 [sp + 0x90]\n 14806: a1 = a4 if a3 != 0\n 14809: a4 = u64 [sp + 0x68]\n 14812: a1 = a4 if a2 == 0\n 14815: u64 [sp + 0x90] = a1\n 14819: a1 = u64 [sp + 0x98]\n 14823: a4 = u64 [sp + 0x88]\n 14827: a1 = a1 | a4\n 14830: a1 = a0 if a3 == 0\n 14833: a0 = u64 [sp + 0x50]\n 14836: a1 = a0 if a2 == 0\n 14839: u64 [sp + 0x98] = a1\n 14843: a0 = u64 [sp + 0x60]\n 14846: a1 = s1\n 14848: ra = 412, jump @709\n      : @520 [@dyn 206] (gas: 13)\n 14854: a5 = u64 [sp + 0x70]\n 14857: a2 = u64 [sp + 0x78]\n 14860: a3 = u64 [sp + 0x80]\n 14864: a3 = a3 | a2\n 14867: a2 = u64 [sp + 0xa8]\n 14871: a2 = a2 | a5\n 14874: a2 = a2 | a3\n 14877: a3 = u64 [sp + 0xa0]\n 14881: a1 = 0 if a3 == 0\n 14883: u64 [sp + 0x88] = a1\n 14887: a0 = 0 if a3 == 0\n 14889: u64 [sp + 0xa0] = a0\n 14893: jump @528 if a2 == 0\n      : @521 (gas: 5)\n 14897: s1 = u64 [sp + 0xa8]\n 14901: a2 = s1 + 0xffffffffffffff80\n 14904: a0 = u64 [sp + 0x50]\n 14907: a1 = u64 [sp + 0x68]\n 14910: ra = 414, jump @704\n      : @522 [@dyn 207] (gas: 6)\n 14916: u64 [sp + 0x28] = a0\n 14919: u64 [sp + 0x18] = a1\n 14922: a0 = u64 [sp + 0x60]\n 14925: a1 = u64 [sp + 0x58]\n 14928: a2 = s1\n 14930: ra = 416, jump @704\n      : @523 [@dyn 208] (gas: 6)\n 14936: u64 [sp + 0x10] = a0\n 14939: u64 [sp + 0x20] = a1\n 14942: a2 = 0x80 - s1\n 14946: a0 = u64 [sp + 0x50]\n 14949: a1 = u64 [sp + 0x68]\n 14952: ra = 418, jump @709\n      : @524 [@dyn 209] (gas: 20)\n 14958: a2 = u64 [sp + 0x20]\n 14961: a1 = a1 | a2\n 14964: a2 = s1 <u 0x80\n 14968: u64 [sp + 0x20] = a2\n 14971: a3 = u64 [sp + 0x18]\n 14974: a1 = a3 if a2 == 0\n 14977: a3 = u64 [sp + 0x58]\n 14980: a3 = a1 if s1 != 0\n 14983: u64 [sp + 0x58] = a3\n 14986: a1 = u64 [sp + 0x10]\n 14989: a0 = a0 | a1\n 14992: a1 = u64 [sp + 0x28]\n 14995: a0 = a1 if a2 == 0\n 14998: a1 = u64 [sp + 0x60]\n 15001: a1 = a0 if s1 != 0\n 15004: u64 [sp + 0x60] = a1\n 15007: a0 = u64 [sp + 0x50]\n 15010: a1 = u64 [sp + 0x68]\n 15013: a2 = s1\n 15015: ra = 420, jump @704\n      : @525 [@dyn 210] (gas: 24)\n 15021: t0 = u64 [sp + 0x58]\n 15024: t2 = 0\n 15026: a2 = u64 [sp + 0x20]\n 15029: a1 = 0 if a2 == 0\n 15031: a0 = 0 if a2 == 0\n 15033: u64 [sp + 0x68] = a0\n 15036: a3 = u64 [sp + 0x30]\n 15039: a0 = a3 <u 0x1\n 15042: a2 = u64 [sp + 0x38]\n 15045: a0 = a2 - a0\n 15048: u64 [sp + 0x20] = a0\n 15051: a0 = a3 | a2\n 15054: a0 = a0 <u 0x1\n 15057: a2 = u64 [sp + 0x48]\n 15060: a4 = a2 - a0\n 15063: u64 [sp + 0x18] = a4\n 15066: a0 = a2 <u a0\n 15069: a2 = u64 [sp + 0x40]\n 15072: a2 = a2 - a0\n 15075: u64 [sp + 0x10] = a2\n 15078: a3 = a3 + 0xffffffffffffffff\n 15081: u64 [sp + 0x8] = a3\n 15084: ra = u64 [sp + 0x60]\n 15087: fallthrough\n      : @526 (gas: 103)\n 15088: u64 [sp + 40] = 0\n 15091: a4 = ra >> 0x3f\n 15094: a3 = t0 << 0x1\n 15097: s1 = t0\n 15099: t0 = a3 | a4\n 15102: a4 = ra << 0x1\n 15105: ra = u64 [sp + 0x90]\n 15109: a2 = ra >> 0x3f\n 15112: a2 = a2 | a4\n 15115: u64 [sp + 0x60] = a2\n 15118: a0 = u64 [sp + 0x20]\n 15121: t1 = a0 ^ t0\n 15124: a4 = a0 <u t0\n 15127: a0 = u64 [sp + 0x8]\n 15130: a5 = t2\n 15132: t2 = a0 <u a2\n 15135: t2 = a4 if t1 != 0\n 15138: a1 = a1 << 0x1\n 15141: a0 = u64 [sp + 0x68]\n 15144: a2 = a0 >> 0x3f\n 15147: a1 = a1 | a2\n 15150: u64 [sp + 0x58] = a1\n 15153: a2 = s1 >> 0x3f\n 15156: a0 = a0 << 0x1\n 15159: t1 = a0 | a2\n 15162: a0 = ra << 0x1\n 15165: a1 = u64 [sp + 0x98]\n 15169: a2 = a1 >> 0x3f\n 15172: a0 = a0 | a2\n 15175: a2 = a1 << 0x1\n 15178: a1 = u64 [sp + 0x88]\n 15182: a4 = a1 >> 0x3f\n 15185: a2 = a2 | a4\n 15188: a4 = a1 << 0x1\n 15191: s1 = u64 [sp + 0xa0]\n 15195: ra = s1 >> 0x3f\n 15198: a4 = a4 | ra\n 15201: s1 = s1 << 0x1\n 15204: a5 = a5 | s1\n 15207: u64 [sp + 0xa0] = a5\n 15211: a4 = a4 | 0\n 15213: u64 [sp + 0x88] = a4\n 15217: a1 = a2 | 0\n 15219: u64 [sp + 0x98] = a1\n 15223: a0 = a0 | 0\n 15225: u64 [sp + 0x90] = a0\n 15229: a2 = u64 [sp + 0x18]\n 15232: a0 = a2 - t1\n 15235: a0 = a0 <u t2\n 15238: a2 = a2 <u t1\n 15241: a4 = u64 [sp + 0x10]\n 15244: a3 = u64 [sp + 0x58]\n 15247: a4 = a4 - a3\n 15250: a4 = a4 - a2\n 15253: a4 = a4 - a0\n 15256: a4 = a4 >>a 0x3f\n 15259: a0 = u64 [sp + 0x30]\n 15262: a1 = a4 & a0\n 15265: u64 [sp + 0x50] = a1\n 15268: a5 = u64 [sp + 0x38]\n 15271: a5 = a5 & a4\n 15274: a0 = t0 ^ a5\n 15277: s1 = t0 <u a5\n 15280: t2 = u64 [sp + 0x60]\n 15283: ra = t2 <u a1\n 15286: s1 = ra if a0 == 0\n 15289: a2 = u64 [sp + 0x48]\n 15292: a2 = a2 & a4\n 15295: a1 = t1 - a2\n 15298: a0 = a1 - s1\n 15301: u64 [sp + 0x68] = a0\n 15304: a0 = a1 <u s1\n 15307: a2 = t1 <u a2\n 15310: s1 = u64 [sp + 0x40]\n 15313: s1 = s1 & a4\n 15316: a1 = a3 - s1\n 15319: a1 = a1 - a2\n 15322: a1 = a1 - a0\n 15325: a3 = t0 - a5\n 15328: t0 = a3 - ra\n 15331: a0 = u64 [sp + 0x50]\n 15334: ra = t2 - a0\n 15337: a5 = u64 [sp + 0xa8]\n 15341: s1 = u64 [sp + 0x80]\n 15345: a0 = a5 | s1\n 15348: a0 = a0 <u 0x1\n 15351: a3 = u64 [sp + 0x70]\n 15354: a2 = a3 <u a0\n 15357: a0 = a3 - a0\n 15360: a3 = a5 <u 0x1\n 15363: s1 = s1 - a3\n 15366: a3 = u64 [sp + 0x78]\n 15369: a3 = a3 - a2\n 15372: a5 = a5 + 0xffffffffffffffff\n 15375: u64 [sp + 0x80] = s1\n 15379: u64 [sp + 0x78] = a3\n 15382: a2 = s1 | a3\n 15385: u64 [sp + 0xa8] = a5\n 15389: a3 = a5 | a0\n 15392: a2 = a2 | a3\n 15395: t2 = a4 & 0x1\n 15398: u64 [sp + 0x70] = a0\n 15401: jump @526 if a2 != 0\n      : @527 (gas: 1)\n 15405: jump @529\n      : @528 (gas: 3)\n 15407: t2 = 0\n 15409: u64 [sp + 40] = 0\n 15412: fallthrough\n      : @529 (gas: 21)\n 15413: a3 = u64 [sp + 0x98]\n 15417: a0 = a3 >> 0x3f\n 15420: a1 = u64 [sp + 0x90]\n 15424: a1 = a1 << 0x1\n 15427: a0 = a0 | a1\n 15430: a5 = u64 [sp + 0x88]\n 15434: a1 = a5 >> 0x3f\n 15437: a3 = a3 << 0x1\n 15440: a1 = a1 | a3\n 15443: a2 = u64 [sp + 0xa0]\n 15447: a3 = a2 >> 0x3f\n 15450: a5 = a5 << 0x1\n 15453: s1 = a2 << 0x1\n 15456: s1 = t2 | s1\n 15459: a2 = u64 [sp + 0x28]\n 15462: a3 = a3 | a2\n 15465: a5 = a5 | a3\n 15468: a4 = a2 | a1\n 15471: a1 = a2 | a0\n 15474: a0 = u64 [sp]\n 15476: jump @531\n      : @530 (gas: 2)\n 15478: a0 = u64 [sp]\n 15480: fallthrough\n      : @531 (gas: 10)\n 15481: u64 [a0] = s1\n 15483: u64 [a0 + 0x8] = a5\n 15486: u64 [a0 + 0x10] = a4\n 15489: u64 [a0 + 0x18] = a1\n 15492: sp = s0 + 0xfffffffffffffef0\n 15496: ra = u64 [sp + 0x108]\n 15500: s0 = u64 [sp + 0x100]\n 15504: s1 = u64 [sp + 0xf8]\n 15508: sp = sp + 0x110\n 15512: ret\n      : @532 (gas: 6)\n 15514: u64 [sp + 224] = 0\n 15518: u64 [sp + 216] = 0\n 15522: u64 [sp + 208] = 0\n 15526: t0 = 0x1a6\n 15530: a0 = 0x4e487b7100000000\n 15540: fallthrough\n      : @533 [@dyn 211] (gas: 4)\n 15541: a1 = sp + 0xd0\n 15545: u64 [sp + 0xe8] = a0\n 15549: a0 = 0\n 15551: ra = 424, jump @9\n      : @534 [@dyn 212] (gas: 7)\n 15557: u64 [sp + 200] = 0\n 15561: u64 [sp + 192] = 0\n 15565: u64 [sp + 176] = 0x12\n 15570: a0 = 0x4\n 15573: a1 = sp + 0xb0\n 15577: u64 [sp + 184] = 0\n 15581: ra = 426, jump @9\n      : @535 [@dyn 213] (gas: 2)\n 15587: a1 = i32 [0x20088]\n 15592: jump @537 if a1 >u 63\n      : @536 (gas: 2)\n 15596: u32 [0x20088] = 0x40\n 15602: fallthrough\n      : @537 (gas: 7)\n 15603: a1 = 0x20090\n 15608: i32 a1 = a1 + 0\n 15610: a0 = 0x1\n 15613: a2 = 0x24\n 15616: ra = 0x1ac\n 15620: ecalli 13 // 'seal_return'\n 15622: fallthrough\n      : @538 [@dyn 214] (gas: 30)\n 15623: sp = sp + 0xffffffffffffff80\n 15626: u64 [sp + 0x78] = ra\n 15629: u64 [sp + 0x70] = s0\n 15632: u64 [sp + 0x68] = s1\n 15635: s0 = sp + 0x80\n 15639: sp = sp & 0xfffffffffffffff0\n 15642: a4 = u64 [a2]\n 15644: a3 = u64 [a1]\n 15646: s1 = u64 [a2 + 0x8]\n 15649: t1 = u64 [a1 + 0x8]\n 15652: t2 = u64 [a2 + 0x10]\n 15655: a5 = u64 [a1 + 0x10]\n 15658: a2 = u64 [a2 + 0x18]\n 15661: a1 = u64 [a1 + 0x18]\n 15664: t0 = t1 ^ s1\n 15667: u64 [sp + 0x8] = s1\n 15670: s1 = t1 <u s1\n 15673: u64 [sp + 0x18] = a4\n 15676: u64 [sp + 0x10] = a3\n 15679: a3 = a3 <u a4\n 15682: u64 [sp] = a3\n 15684: s1 = a3 if t0 == 0\n 15687: a3 = a1 ^ a2\n 15690: ra = a1 <u a2\n 15693: t0 = a5 <u t2\n 15696: ra = t0 if a3 == 0\n 15699: a4 = a5 ^ t2\n 15702: a3 = a3 | a4\n 15705: ra = s1 if a3 == 0\n 15708: jump @540 if ra != 0\n      : @539 (gas: 23)\n 15711: a3 = a5 - t2\n 15714: a1 = a1 - a2\n 15717: a1 = a1 - t0\n 15720: a2 = a3 <u s1\n 15723: a1 = a1 - a2\n 15726: a3 = a3 - s1\n 15729: a2 = u64 [sp + 0x8]\n 15732: a2 = t1 - a2\n 15735: a4 = u64 [sp]\n 15737: a2 = a2 - a4\n 15740: a4 = u64 [sp + 0x18]\n 15743: a5 = u64 [sp + 0x10]\n 15746: a4 = a5 - a4\n 15749: u64 [a0] = a4\n 15751: u64 [a0 + 0x8] = a2\n 15754: u64 [a0 + 0x10] = a3\n 15757: u64 [a0 + 0x18] = a1\n 15760: sp = s0 + 0xffffffffffffff80\n 15763: ra = u64 [sp + 0x78]\n 15766: s0 = u64 [sp + 0x70]\n 15769: s1 = u64 [sp + 0x68]\n 15772: sp = sp + 0x80\n 15776: ret\n      : @540 (gas: 6)\n 15778: u64 [sp + 80] = 0\n 15781: u64 [sp + 72] = 0\n 15784: u64 [sp + 64] = 0\n 15787: t0 = 0x1ae\n 15791: a0 = 0x4e487b7100000000\n 15801: fallthrough\n      : @541 [@dyn 215] (gas: 4)\n 15802: a1 = sp + 0x40\n 15805: u64 [sp + 0x58] = a0\n 15808: a0 = 0\n 15810: ra = 432, jump @9\n      : @542 [@dyn 216] (gas: 7)\n 15816: u64 [sp + 56] = 0\n 15819: u64 [sp + 48] = 0\n 15822: u64 [sp + 32] = 0x11\n 15826: a0 = 0x4\n 15829: a1 = sp + 0x20\n 15832: u64 [sp + 40] = 0\n 15835: ra = 434, jump @9\n      : @543 [@dyn 217] (gas: 2)\n 15841: a1 = i32 [0x20088]\n 15846: jump @545 if a1 >u 63\n      : @544 (gas: 2)\n 15850: u32 [0x20088] = 0x40\n 15856: fallthrough\n      : @545 (gas: 7)\n 15857: a1 = 0x20090\n 15862: i32 a1 = a1 + 0\n 15864: a0 = 0x1\n 15867: a2 = 0x24\n 15870: ra = 0x1b4\n 15874: ecalli 13 // 'seal_return'\n 15876: fallthrough\n      : @546 [@dyn 218] (gas: 46)\n 15877: sp = sp + 0xffffffffffffff70\n 15881: u64 [sp + 0x88] = ra\n 15885: u64 [sp + 0x80] = s0\n 15889: u64 [sp + 0x78] = s1\n 15892: s0 = sp + 0x90\n 15896: sp = sp & 0xfffffffffffffff0\n 15899: t0 = a0\n 15901: a2 = u64 [a1]\n 15903: t2 = u64 [a0 + 0x8]\n 15906: a5 = u64 [a1 + 0x8]\n 15909: t1 = u64 [a0]\n 15911: a3 = a2 + 0x1f\n 15914: ra = a3 <u a2\n 15917: a2 = a5 + ra\n 15920: a3 = a3 & 0xffffffffffffffe0\n 15923: u64 [sp + 0x8] = t1\n 15926: t1 = t1 + a3\n 15929: a4 = t1 <u a3\n 15932: a3 = a2 + t2\n 15935: a3 = a3 + a4\n 15938: s1 = a3 ^ a2\n 15941: a0 = a3 <u a2\n 15944: a0 = a4 if s1 == 0\n 15947: a4 = u64 [t0 + 0x18]\n 15950: a5 = a2 <u a5\n 15953: s1 = u64 [a1 + 0x10]\n 15956: t0 = u64 [t0 + 0x10]\n 15959: a1 = u64 [a1 + 0x18]\n 15962: a5 = ra if ra == 0\n 15965: a5 = a5 + s1\n 15968: s1 = a5 <u s1\n 15971: a2 = a5 + t0\n 15974: a0 = a0 + a2\n 15977: a5 = a2 <u a5\n 15980: a2 = a0 <u a2\n 15983: a1 = a1 + a4\n 15986: a1 = a1 + s1\n 15989: a1 = a1 + a5\n 15992: a5 = a1 + a2\n 15995: a1 = a5 >u 0\n 15997: a2 = a0 >u 0\n 15999: a2 = a1 if a5 != 0\n 16002: a1 = a0 | a5\n 16005: s1 = a3 >u 0\n 16007: s1 = a2 if a1 != 0\n 16010: jump @550 if s1 != 0\n      : @547 (gas: 13)\n 16013: a1 = u64 [sp + 0x8]\n 16016: a1 = t1 <u a1\n 16019: a2 = a3 ^ t2\n 16022: s1 = a3 <u t2\n 16025: s1 = a1 if a2 == 0\n 16028: a1 = a0 <u t0\n 16031: a2 = a5 ^ a4\n 16034: a4 = a5 <u a4\n 16037: a4 = a1 if a2 == 0\n 16040: a1 = a0 ^ t0\n 16043: a1 = a1 | a2\n 16046: a4 = s1 if a1 == 0\n 16049: jump @550 if a4 != 0\n      : @548 (gas: 7)\n 16052: u64 [sp + 0x50] = t1\n 16055: u64 [sp + 0x58] = a3\n 16058: u64 [sp + 0x60] = a0\n 16061: a0 = 0x40\n 16064: a1 = sp + 0x50\n 16067: u64 [sp + 0x68] = a5\n 16070: ra = 438, jump @9\n      : @549 [@dyn 219] (gas: 6)\n 16076: sp = s0 + 0xffffffffffffff70\n 16080: ra = u64 [sp + 0x88]\n 16084: s0 = u64 [sp + 0x80]\n 16088: s1 = u64 [sp + 0x78]\n 16091: sp = sp + 0x90\n 16095: ret\n      : @550 (gas: 1)\n 16097: t0 = 440, jump @701\n      : @551 [@dyn 220] (gas: 1)\n 16103: ra = 442, jump @9\n      : @552 [@dyn 221] (gas: 7)\n 16109: u64 [sp + 40] = 0\n 16112: u64 [sp + 32] = 0\n 16115: u64 [sp + 16] = 0x41\n 16119: a0 = 0x4\n 16122: a1 = sp + 0x10\n 16125: u64 [sp + 24] = 0\n 16128: ra = 444, jump @9\n      : @553 [@dyn 222] (gas: 2)\n 16134: a1 = i32 [0x20088]\n 16139: jump @555 if a1 >u 63\n      : @554 (gas: 2)\n 16143: u32 [0x20088] = 0x40\n 16149: fallthrough\n      : @555 (gas: 7)\n 16150: a1 = 0x20090\n 16155: i32 a1 = a1 + 0\n 16157: a0 = 0x1\n 16160: a2 = 0x24\n 16163: ra = 0x1be\n 16167: ecalli 13 // 'seal_return'\n 16169: fallthrough\n      : @556 [@dyn 223] (gas: 53)\n 16170: sp = sp + 0xffffffffffffff90\n 16173: u64 [sp + 0x68] = ra\n 16176: u64 [sp + 0x60] = s0\n 16179: u64 [sp + 0x58] = s1\n 16182: s0 = sp + 0x70\n 16185: sp = sp & 0xfffffffffffffff0\n 16188: a3 = a1\n 16190: t2 = u64 [a1 + 0x10]\n 16193: a1 = u64 [a1 + 0x8]\n 16196: t0 = u64 [a2 + 0x8]\n 16199: s1 = u64 [a3]\n 16201: u64 [sp] = s1\n 16203: a4 = u64 [a2]\n 16205: u64 [sp + 0x8] = a4\n 16208: ra = u64 [a2 + 0x10]\n 16211: a5 = t0 ^ a1\n 16214: u64 [sp + 0x28] = a5\n 16217: a5 = t0 <u a1\n 16220: a4 = a4 <u s1\n 16223: t1 = u64 [sp + 0x28]\n 16226: a5 = a4 if t1 == 0\n 16229: s1 = a4\n 16231: a3 = u64 [a3 + 0x18]\n 16234: u64 [sp + 0x18] = a3\n 16237: a2 = u64 [a2 + 0x18]\n 16240: u64 [sp + 0x10] = a2\n 16243: a3 = ra - t2\n 16246: a2 = a3 - a5\n 16249: u64 [sp + 0x20] = a2\n 16252: a2 = a3 <u a5\n 16255: u64 [sp + 0x28] = t2\n 16258: a4 = ra <u t2\n 16261: t2 = u64 [sp + 0x18]\n 16264: a3 = u64 [sp + 0x10]\n 16267: a3 = a3 - t2\n 16270: a3 = a3 - a4\n 16273: a3 = a3 - a2\n 16276: a2 = t0 - a1\n 16279: a2 = a2 - s1\n 16282: t0 = u64 [sp]\n 16284: a4 = u64 [sp + 0x8]\n 16287: a4 = a4 - t0\n 16290: a5 = a2 >u 0\n 16292: a4 = a4 <u 0x20\n 16295: a4 = a4 ^ 0x1\n 16298: a4 = a5 if a2 != 0\n 16301: s1 = a3 >s 0\n 16303: a2 = u64 [sp + 0x20]\n 16306: a5 = a2 >u 0\n 16308: a5 = s1 if a3 != 0\n 16311: a2 = a2 | a3\n 16314: a4 = a5 if a2 != 0\n 16317: jump @562 if a4 == 0\n      : @557 (gas: 10)\n 16320: s1 = a0\n 16322: a3 = u64 [sp + 0x28]\n 16325: a0 = t0 | a3\n 16328: a2 = a1 | t2\n 16331: a0 = a0 | a2\n 16334: a0 = a0 >> 0x20\n 16337: a2 = a2 | a3\n 16340: a2 = a2 << 0x20\n 16343: a0 = a0 | a2\n 16346: jump @561 if a0 != 0\n      : @558 (gas: 3)\n 16349: a0 = sp + 0x30\n 16352: a1 = t0\n 16354: ra = 448, jump @7\n      : @559 [@dyn 224] (gas: 12)\n 16360: a0 = u64 [sp + 0x48]\n 16363: a1 = u64 [sp + 0x40]\n 16366: a2 = u64 [sp + 0x38]\n 16369: a3 = u64 [sp + 0x30]\n 16372: a4 = a2 | a0\n 16375: a5 = a3 | a1\n 16378: a5 = a5 | a4\n 16381: a5 = a5 >> 0x20\n 16384: a4 = a4 | a1\n 16387: a4 = a4 << 0x20\n 16390: a4 = a4 | a5\n 16393: jump @563 if a4 != 0\n      : @560 (gas: 10)\n 16396: u64 [s1] = a3\n 16398: u64 [s1 + 0x8] = a2\n 16401: u64 [s1 + 0x10] = a1\n 16404: u64 [s1 + 0x18] = a0\n 16407: sp = s0 + 0xffffffffffffff90\n 16410: ra = u64 [sp + 0x68]\n 16413: s0 = u64 [sp + 0x60]\n 16416: s1 = u64 [sp + 0x58]\n 16419: sp = sp + 0x70\n 16422: ret\n      : @561 (gas: 1)\n 16424: trap\n      : @562 (gas: 2)\n 16425: a1 = 0x20090\n 16430: jump @564\n      : @563 (gas: 2)\n 16432: a1 = 0x20090\n 16437: fallthrough\n      : @564 (gas: 6)\n 16438: i32 a1 = a1 + 0\n 16440: a0 = 0x1\n 16443: a2 = 0\n 16445: ra = 0x1c2\n 16449: ecalli 13 // 'seal_return'\n 16451: fallthrough\n      : @565 [@dyn 225] (gas: 12)\n 16452: a2 = u32 [a1]\n 16454: a3 = a2 <u 0x1\n 16457: a1 = -a3\n 16459: a2 = a2 + 0xffffffffffffffff\n 16462: a3 = a3 << 0x20\n 16465: a4 = a2 >> 0x20\n 16468: a4 = a4 - a3\n 16471: a5 = a1 >> 0x20\n 16474: a5 = a5 - a3\n 16477: a4 = a4 | a5\n 16480: a4 = a4 | a5\n 16483: jump @567 if a4 != 0\n      : @566 (gas: 5)\n 16486: u64 [a0] = a2\n 16488: u64 [a0 + 0x8] = a1\n 16491: u64 [a0 + 0x10] = a1\n 16494: u64 [a0 + 0x18] = a1\n 16497: ret\n      : @567 (gas: 11)\n 16499: sp = sp + 0xffffffffffffffb0\n 16502: u64 [sp + 0x48] = ra\n 16505: u64 [sp + 0x40] = s0\n 16508: s0 = sp + 0x50\n 16511: sp = sp & 0xfffffffffffffff0\n 16514: u64 [sp + 48] = 0\n 16517: u64 [sp + 40] = 0\n 16520: u64 [sp + 32] = 0\n 16523: t0 = 0x1c4\n 16527: a0 = 0x4e487b7100000000\n 16537: fallthrough\n      : @568 [@dyn 226] (gas: 4)\n 16538: a1 = sp + 0x20\n 16541: u64 [sp + 0x38] = a0\n 16544: a0 = 0\n 16546: ra = 454, jump @9\n      : @569 [@dyn 227] (gas: 7)\n 16552: u64 [sp + 24] = 0\n 16555: u64 [sp + 16] = 0\n 16558: u64 [sp + 0] = 0x11\n 16561: a0 = 0x4\n 16564: a1 = sp\n 16566: u64 [sp + 8] = 0\n 16569: ra = 456, jump @9\n      : @570 [@dyn 228] (gas: 2)\n 16575: a1 = i32 [0x20088]\n 16580: jump @572 if a1 >u 63\n      : @571 (gas: 2)\n 16584: u32 [0x20088] = 0x40\n 16590: fallthrough\n      : @572 (gas: 7)\n 16591: a1 = 0x20090\n 16596: i32 a1 = a1 + 0\n 16598: a0 = 0x1\n 16601: a2 = 0x24\n 16604: ra = 0x1ca\n 16608: ecalli 13 // 'seal_return'\n 16610: fallthrough\n      : @573 [@dyn 229] (gas: 45)\n 16611: sp = sp + 0xffffffffffffff90\n 16614: u64 [sp + 0x68] = ra\n 16617: u64 [sp + 0x60] = s0\n 16620: u64 [sp + 0x58] = s1\n 16623: s0 = sp + 0x70\n 16626: sp = sp & 0xfffffffffffffff0\n 16629: a3 = u64 [a1 + 0x18]\n 16632: u64 [sp + 0x8] = a3\n 16635: a4 = u64 [a2 + 0x18]\n 16638: t2 = u64 [a1]\n 16640: u64 [sp] = t2\n 16642: a3 = u64 [a1 + 0x8]\n 16645: s1 = u64 [a2 + 0x8]\n 16648: a5 = u64 [a2]\n 16650: t1 = u64 [a1 + 0x10]\n 16653: t0 = u64 [a2 + 0x10]\n 16656: a2 = s1 + a3\n 16659: t2 = t2 + a5\n 16662: a5 = t2 <u a5\n 16665: a2 = a2 + a5\n 16668: ra = a2 ^ s1\n 16671: s1 = a2 <u s1\n 16674: s1 = a5 if ra == 0\n 16677: a1 = t0 + t1\n 16680: a5 = u64 [sp + 0x8]\n 16683: a5 = a5 + a4\n 16686: a4 = a1 <u t0\n 16689: a4 = a4 + a5\n 16692: a5 = a1 + s1\n 16695: a1 = a5 <u a1\n 16698: ra = a4 + a1\n 16701: a4 = a2 ^ a3\n 16704: a3 = a2 <u a3\n 16707: a1 = u64 [sp]\n 16709: s1 = t2 <u a1\n 16712: s1 = a3 if a4 != 0\n 16715: t0 = a5 <u t1\n 16718: a1 = u64 [sp + 0x8]\n 16721: a4 = ra ^ a1\n 16724: a3 = ra <u a1\n 16727: a3 = t0 if a4 == 0\n 16730: a1 = a5 ^ t1\n 16733: a1 = a1 | a4\n 16736: s1 = a3 if a1 != 0\n 16739: jump @575 if s1 != 0\n      : @574 (gas: 10)\n 16742: u64 [a0] = t2\n 16744: u64 [a0 + 0x8] = a2\n 16747: u64 [a0 + 0x10] = a5\n 16750: u64 [a0 + 0x18] = ra\n 16753: sp = s0 + 0xffffffffffffff90\n 16756: ra = u64 [sp + 0x68]\n 16759: s0 = u64 [sp + 0x60]\n 16762: s1 = u64 [sp + 0x58]\n 16765: sp = sp + 0x70\n 16768: ret\n      : @575 (gas: 1)\n 16770: t0 = 460, jump @701\n      : @576 [@dyn 230] (gas: 1)\n 16776: ra = 462, jump @9\n      : @577 [@dyn 231] (gas: 7)\n 16782: u64 [sp + 40] = 0\n 16785: u64 [sp + 32] = 0\n 16788: u64 [sp + 16] = 0x11\n 16792: a0 = 0x4\n 16795: a1 = sp + 0x10\n 16798: u64 [sp + 24] = 0\n 16801: ra = 464, jump @9\n      : @578 [@dyn 232] (gas: 2)\n 16807: a1 = i32 [0x20088]\n 16812: jump @580 if a1 >u 63\n      : @579 (gas: 2)\n 16816: u32 [0x20088] = 0x40\n 16822: fallthrough\n      : @580 (gas: 7)\n 16823: a1 = 0x20090\n 16828: i32 a1 = a1 + 0\n 16830: a0 = 0x1\n 16833: a2 = 0x24\n 16836: ra = 0x1d2\n 16840: ecalli 13 // 'seal_return'\n 16842: fallthrough\n      : @581 [@dyn 233] (gas: 14)\n 16843: sp = sp + 0xfffffffffffffe80\n 16847: u64 [sp + 0x178] = ra\n 16851: u64 [sp + 0x170] = s0\n 16855: u64 [sp + 0x168] = s1\n 16859: s0 = sp + 0x180\n 16863: sp = sp & 0xffffffffffffffe0\n 16866: s1 = a0\n 16868: u64 [sp + 312] = 0\n 16872: u64 [sp + 304] = 0\n 16876: u64 [sp + 296] = 0\n 16880: u64 [sp + 288] = 0x1\n 16885: a0 = sp + 0x100\n 16889: a1 = sp + 0x120\n 16893: ra = 468, jump @11\n      : @582 [@dyn 234] (gas: 8)\n 16899: a2 = u64 [sp + 0x118]\n 16903: a3 = u64 [sp + 0x110]\n 16907: a4 = u64 [sp + 0x108]\n 16911: a5 = u64 [sp + 0x100]\n 16915: a0 = a4 | a2\n 16918: a1 = a5 | a3\n 16921: a0 = a0 | a1\n 16924: jump @588 if a0 == 0\n      : @583 (gas: 12)\n 16928: u64 [sp + 0x18] = a5\n 16931: u64 [sp + 0x20] = a4\n 16934: u64 [sp + 0x28] = a3\n 16937: u64 [sp + 0x30] = a2\n 16940: u64 [sp + 0x38] = s1\n 16943: u64 [sp + 344] = 0\n 16947: u64 [sp + 336] = 0\n 16951: u64 [sp + 328] = 0\n 16955: u64 [sp + 320] = 0\n 16959: a0 = sp + 0xe0\n 16963: a1 = sp + 0x140\n 16967: ra = 470, jump @11\n      : @584 [@dyn 235] (gas: 22)\n 16973: ra = u64 [sp + 0xf8]\n 16977: s1 = u64 [sp + 0xf0]\n 16981: a4 = u64 [sp + 0xe8]\n 16985: a1 = u64 [sp + 0xe0]\n 16989: a5 = 0xde0b6b3a7640000\n 16999: t1 = a1 mulhu a5\n 17002: a0 = a4 * a5\n 17005: t1 = t1 + a0\n 17008: a0 = t1 <u a0\n 17011: a2 = a4 mulhu a5\n 17014: a0 = a0 + a2\n 17017: t2 = s1 * a5\n 17020: t2 = t2 + a0\n 17023: a3 = t2 <u a0\n 17026: a0 = ra * a5\n 17029: a2 = s1 mulhu a5\n 17032: a0 = a0 + a2\n 17035: a4 = a4 | ra\n 17038: s1 = s1 | a1\n 17041: a4 = a4 | s1\n 17044: t0 = a0 + a3\n 17047: jump @586 if a4 == 0\n      : @585 (gas: 7)\n 17050: a3 = 0 if t0 != 0\n 17052: a0 = a0 <u a2\n 17055: a2 = ra mulhu a5\n 17058: a2 = a2 >u 0\n 17060: a0 = a0 | a2\n 17063: a0 = a0 | a3\n 17066: jump @590 if a0 != 0\n      : @586 (gas: 17)\n 17070: a0 = a1 * a5\n 17073: a1 = u64 [sp + 0x18]\n 17076: u64 [sp + 0x40] = a1\n 17079: u64 [sp + 0x60] = a0\n 17082: a0 = u64 [sp + 0x20]\n 17085: u64 [sp + 0x48] = a0\n 17088: u64 [sp + 0x68] = t1\n 17091: a0 = u64 [sp + 0x28]\n 17094: u64 [sp + 0x50] = a0\n 17097: u64 [sp + 0x70] = t2\n 17100: a0 = u64 [sp + 0x30]\n 17103: u64 [sp + 0x58] = a0\n 17106: a0 = sp + 0x80\n 17110: a1 = sp + 0x60\n 17113: a2 = sp + 0x40\n 17116: u64 [sp + 0x78] = t0\n 17119: ra = 472, jump @512\n      : @587 [@dyn 236] (gas: 10)\n 17125: a0 = u64 [sp + 0x90]\n 17129: a1 = u64 [sp + 0x98]\n 17133: a2 = u64 [sp + 0x80]\n 17137: a3 = u64 [sp + 0x88]\n 17141: a4 = u64 [sp + 0x38]\n 17144: u64 [a4 + 0x10] = a0\n 17147: u64 [a4 + 0x18] = a1\n 17150: u64 [a4] = a2\n 17152: u64 [a4 + 0x8] = a3\n 17155: jump @589\n      : @588 (gas: 6)\n 17157: u64 [s1 + 24] = 0\n 17160: u64 [s1 + 16] = 0\n 17163: u64 [s1 + 8] = 0\n 17166: a0 = 0xde0b6b3a7640000\n 17176: u64 [s1] = a0\n 17178: fallthrough\n      : @589 (gas: 6)\n 17179: sp = s0 + 0xfffffffffffffe80\n 17183: ra = u64 [sp + 0x178]\n 17187: s0 = u64 [sp + 0x170]\n 17191: s1 = u64 [sp + 0x168]\n 17195: sp = sp + 0x180\n 17199: ret\n      : @590 (gas: 6)\n 17201: u64 [sp + 208] = 0\n 17205: u64 [sp + 200] = 0\n 17209: u64 [sp + 192] = 0\n 17213: t0 = 0x1da\n 17217: a0 = 0x4e487b7100000000\n 17227: fallthrough\n      : @591 [@dyn 237] (gas: 4)\n 17228: a1 = sp + 0xc0\n 17232: u64 [sp + 0xd8] = a0\n 17236: a0 = 0\n 17238: ra = 476, jump @9\n      : @592 [@dyn 238] (gas: 7)\n 17244: u64 [sp + 184] = 0\n 17248: u64 [sp + 176] = 0\n 17252: u64 [sp + 160] = 0x11\n 17257: a0 = 0x4\n 17260: a1 = sp + 0xa0\n 17264: u64 [sp + 168] = 0\n 17268: ra = 478, jump @9\n      : @593 [@dyn 239] (gas: 2)\n 17274: a1 = i32 [0x20088]\n 17279: jump @595 if a1 >u 63\n      : @594 (gas: 2)\n 17283: u32 [0x20088] = 0x40\n 17289: fallthrough\n      : @595 (gas: 7)\n 17290: a1 = 0x20090\n 17295: i32 a1 = a1 + 0\n 17297: a0 = 0x1\n 17300: a2 = 0x24\n 17303: ra = 0x1e0\n 17307: ecalli 13 // 'seal_return'\n 17309: fallthrough\n      : @596 [@dyn 240] (gas: 16)\n 17310: sp = sp + 0xfffffffffffffac0\n 17314: a1 = sp + 0x500\n 17318: u64 [a1 + 0x38] = ra\n 17321: u64 [a1 + 0x30] = s0\n 17324: u64 [a1 + 0x28] = s1\n 17327: s0 = sp + 0x540\n 17331: sp = sp & 0xffffffffffffffe0\n 17334: s1 = a0\n 17336: a0 = sp + 0x400\n 17340: u64 [a0 + 56] = 0\n 17343: u64 [a0 + 48] = 0\n 17346: u64 [a0 + 40] = 0\n 17349: u64 [a0 + 32] = 0\n 17352: a0 = sp + 0x400\n 17356: a1 = sp + 0x420\n 17360: ra = 482, jump @11\n      : @597 [@dyn 241] (gas: 9)\n 17366: a0 = sp + 0x400\n 17370: a2 = u64 [a0 + 0x18]\n 17373: a3 = u64 [a0 + 0x10]\n 17376: a4 = u64 [a0 + 0x8]\n 17379: a5 = u64 [a0]\n 17381: a0 = a4 | a2\n 17384: a1 = a5 | a3\n 17387: a0 = a0 | a1\n 17390: jump @613 if a0 == 0\n      : @598 (gas: 8)\n 17394: u64 [sp + 0x38] = s1\n 17397: u64 [sp + 0x18] = a5\n 17400: u64 [sp + 0x20] = a4\n 17403: u64 [sp + 0x28] = a3\n 17406: u64 [sp + 0x30] = a2\n 17409: a0 = sp + 0x3e0\n 17413: a1 = 0x40\n 17416: ra = 484, jump @7\n      : @599 [@dyn 242] (gas: 16)\n 17422: a3 = sp + 0x300\n 17426: a1 = u64 [a3 + 0xf8]\n 17430: a2 = u64 [a3 + 0xf0]\n 17434: a0 = u64 [a3 + 0xe8]\n 17438: s1 = u64 [a3 + 0xe0]\n 17442: u64 [sp + 0xf0] = a0\n 17446: u64 [sp + 0xe0] = a1\n 17450: a0 = a0 | a1\n 17453: a1 = s1 | a2\n 17456: a1 = a1 | a0\n 17459: a1 = a1 >> 0x20\n 17462: u64 [sp + 0xe8] = a2\n 17466: a0 = a0 | a2\n 17469: a0 = a0 << 0x20\n 17472: a0 = a0 | a1\n 17475: jump @672 if a0 != 0\n      : @600 (gas: 9)\n 17479: a2 = sp + 0x300\n 17483: u64 [a2 + 208] = 0\n 17487: u64 [a2 + 200] = 0\n 17491: u64 [a2 + 192] = 0\n 17495: a0 = 0xc2f192cb00000000\n 17505: a1 = sp + 0x3c0\n 17509: u64 [a2 + 0xd8] = a0\n 17513: a0 = s1\n 17515: ra = 486, jump @9\n      : @601 [@dyn 243] (gas: 14)\n 17521: ecalli 10 // 'ref_time_left'\n 17523: a0 = s1\n 17525: u64 [sp + 0xf8] = s1\n 17529: s1 = 0x30090\n 17534: u64 [0x30098] = 0\n 17539: u64 [0x30090] = 0\n 17544: u32 [0x300a0] = 0x80000\n 17552: a1 = sp + 0x400\n 17556: u64 [a1 + 88] = 0\n 17559: u64 [a1 + 80] = 0\n 17562: u64 [a1 + 72] = 0\n 17565: u64 [a1 + 64] = 0\n 17568: a1 = 0x4\n 17571: ra = 488, jump @19\n      : @602 [@dyn 244] (gas: 4)\n 17577: u64 [sp + 0xd8] = a0\n 17581: a1 = 0x20\n 17584: a0 = u64 [sp + 0xf8]\n 17588: ra = 490, jump @19\n      : @603 [@dyn 245] (gas: 33)\n 17594: a2 = sp + 0x400\n 17598: u32 [a2 + 96] = 0x20\n 17602: u64 [a2 + 152] = 0\n 17606: u64 [a2 + 144] = 0\n 17610: u64 [a2 + 136] = 0\n 17614: u64 [a2 + 128] = 0\n 17618: u64 [sp + 0xc8] = s1\n 17622: a1 = s1 << 0x20\n 17625: a1 = a1 >> 0x20\n 17628: a2 = 0x1800000000\n 17638: s1 = a1 | a2\n 17641: a1 = sp + 0x440\n 17645: a1 = a1 << 0x20\n 17648: a1 = a1 >> 0x20\n 17651: a2 = sp + 0x480\n 17655: a2 = a2 << 0x20\n 17658: a3 = a2 | a1\n 17661: a1 = u64 [sp + 0xd8]\n 17665: a1 = a1 << 0x20\n 17668: a1 = a1 >> 0x20\n 17671: a2 = 0x400000000\n 17681: a4 = a1 | a2\n 17684: a0 = a0 << 0x20\n 17687: a0 = a0 >> 0x20\n 17690: a1 = sp + 0x460\n 17694: a1 = a1 << 0x20\n 17697: a5 = a1 | a0\n 17700: a1 = 0xffffffffffffffff\n 17703: a2 = 0xffffffffffffffff\n 17706: u64 [sp + 0xd0] = s1\n 17710: a0 = s1\n 17712: ecalli 0 // 'call'\n 17713: fallthrough\n      : @604 (gas: 1)\n 17714: jump @655 if a0 != 0\n      : @605 (gas: 2)\n 17718: ecalli 12 // 'return_data_size'\n 17720: fallthrough\n      : @606 (gas: 2)\n 17721: a1 = 0x20\n 17724: jump @608 if a0 >=u a1\n      : @607 (gas: 3)\n 17727: ecalli 12 // 'return_data_size'\n 17729: a1 = a0\n 17731: fallthrough\n      : @608 (gas: 18)\n 17732: s1 = 0\n 17734: u64 [sp + 0xd8] = a1\n 17738: a3 = sp + 0x300\n 17742: u64 [a3 + 0x60] = a1\n 17745: a0 = u64 [sp + 0xf8]\n 17749: u64 [a3 + 0x80] = a0\n 17753: u64 [a3 + 104] = 0\n 17756: a0 = u64 [sp + 0xf0]\n 17760: u64 [a3 + 0x88] = a0\n 17764: u64 [a3 + 112] = 0\n 17767: a0 = u64 [sp + 0xe8]\n 17771: u64 [a3 + 0x90] = a0\n 17775: u64 [a3 + 120] = 0\n 17778: a0 = sp + 0x380\n 17782: a1 = sp + 0x360\n 17786: a2 = u64 [sp + 0xe0]\n 17790: u64 [a3 + 0x98] = a2\n 17794: ra = 492, jump @546\n      : @609 [@dyn 246] (gas: 32)\n 17800: t0 = u64 [sp + 0xf8]\n 17804: a1 = u64 [sp + 0xd8]\n 17808: a0 = a1 + t0\n 17811: a1 = a0 <u a1\n 17814: t1 = u64 [sp + 0xf0]\n 17818: a2 = t1\n 17820: a2 = a2 + a1\n 17823: a3 = a2 ^ 0\n 17825: a4 = a2 <u 0\n 17827: a4 = a1 if a3 == 0\n 17830: a5 = u64 [sp + 0xe8]\n 17834: a1 = a5\n 17836: a4 = a4 + a1\n 17839: t2 = a4 <u a1\n 17842: a1 = a1 <u 0\n 17844: a3 = u64 [sp + 0xe0]\n 17848: s1 = a3\n 17850: a1 = a1 + s1\n 17853: t2 = t2 + a1\n 17856: s1 = sp + 0x300\n 17860: u64 [s1 + 0x10] = a4\n 17863: u64 [s1 + 0x8] = a2\n 17866: u64 [s1] = a0\n 17868: u64 [s1 + 0x38] = a3\n 17871: u64 [s1 + 0x30] = a5\n 17874: u64 [s1 + 0x28] = t1\n 17877: u64 [s1 + 0x20] = t0\n 17880: a0 = sp + 0x340\n 17884: a1 = sp + 0x320\n 17888: a2 = sp + 0x300\n 17892: u64 [s1 + 0x18] = t2\n 17895: ra = 494, jump @556\n      : @610 [@dyn 247] (gas: 3)\n 17901: a0 = u64 [sp + 0x340]\n 17905: i32 a1 = a0 + 0\n 17907: jump @614 if a1 == 0\n      : @611 (gas: 12)\n 17910: a4 = sp + 0x300\n 17914: a2 = u64 [a4 + 0x58]\n 17917: a1 = u64 [a4 + 0x50]\n 17920: a3 = u64 [a4 + 0x48]\n 17923: a4 = sp + 0x200\n 17927: u64 [a4 + 0xc0] = a0\n 17931: u64 [a4 + 0xc8] = a3\n 17935: u64 [a4 + 0xd0] = a1\n 17939: a0 = sp + 0x2e0\n 17943: a1 = sp + 0x2c0\n 17947: u64 [a4 + 0xd8] = a2\n 17951: ra = 496, jump @565\n      : @612 [@dyn 248] (gas: 10)\n 17957: a1 = sp + 0x200\n 17961: a0 = u64 [a1 + 0xf8]\n 17965: u64 [sp + 0xe0] = a0\n 17969: a0 = u64 [a1 + 0xf0]\n 17973: u64 [sp + 0xd8] = a0\n 17977: a0 = u64 [a1 + 0xe8]\n 17981: u64 [sp + 0xc0] = a0\n 17985: a0 = u64 [a1 + 0xe0]\n 17989: u64 [sp + 0xb8] = a0\n 17993: jump @615\n      : @613 (gas: 4)\n 17995: a3 = 0\n 17997: a2 = 0\n 17999: a1 = 0\n 18001: jump @654\n      : @614 (gas: 5)\n 18004: u64 [sp + 184] = 0\n 18008: u64 [sp + 192] = 0\n 18012: u64 [sp + 216] = 0\n 18016: u64 [sp + 224] = 0\n 18020: fallthrough\n      : @615 (gas: 3)\n 18021: a0 = sp + 0x2a0\n 18025: a1 = 0x40\n 18028: ra = 498, jump @7\n      : @616 [@dyn 249] (gas: 15)\n 18034: a3 = sp + 0x200\n 18038: a2 = u64 [a3 + 0xb8]\n 18042: s1 = u64 [a3 + 0xb0]\n 18046: a1 = u64 [a3 + 0xa8]\n 18050: a0 = u64 [a3 + 0xa0]\n 18054: u64 [sp + 0xe8] = a1\n 18058: u64 [sp + 0xf0] = a2\n 18062: a2 = a2 | a1\n 18065: a1 = a0 | s1\n 18068: a1 = a1 | a2\n 18071: a1 = a1 >> 0x20\n 18074: a2 = a2 | s1\n 18077: a2 = a2 << 0x20\n 18080: a1 = a1 | a2\n 18083: jump @672 if a1 != 0\n      : @617 (gas: 9)\n 18087: a3 = sp + 0x200\n 18091: u64 [a3 + 144] = 0\n 18095: u64 [a3 + 136] = 0\n 18099: u64 [a3 + 128] = 0\n 18103: a2 = 0xc958a43b00000000\n 18113: a1 = sp + 0x280\n 18117: u64 [a3 + 0x98] = a2\n 18121: u64 [sp + 0xf8] = a0\n 18125: ra = 500, jump @9\n      : @618 [@dyn 250] (gas: 10)\n 18131: a2 = u64 [sp + 0xf8]\n 18135: u64 [sp + 0xb0] = s1\n 18139: a0 = u64 [sp + 0xf0]\n 18143: a0 = a0 | s1\n 18146: a1 = 0xfffffffc\n 18156: a1 = a2 <u a1\n 18159: a3 = u64 [sp + 0xe8]\n 18163: a1 = 0 if a3 != 0\n 18165: a1 = 0 if a0 != 0\n 18167: jump @672 if a1 == 0\n      : @619 (gas: 13)\n 18171: i32 a0 = a2 + 0x4\n 18174: a1 = u64 [sp + 0xb8]\n 18178: a4 = sp + 0x200\n 18182: u64 [a4 + 0x60] = a1\n 18185: a1 = u64 [sp + 0xc0]\n 18189: u64 [a4 + 0x68] = a1\n 18192: a1 = u64 [sp + 0xd8]\n 18196: u64 [a4 + 0x70] = a1\n 18199: a1 = sp + 0x260\n 18203: a3 = u64 [sp + 0xe0]\n 18207: u64 [a4 + 0x78] = a3\n 18210: s1 = a2\n 18212: ra = 502, jump @9\n      : @620 [@dyn 251] (gas: 5)\n 18218: ra = 0x1f8\n 18222: ecalli 10 // 'ref_time_left'\n 18224: a1 = u64 [sp + 0xc8]\n 18228: t0 = 0x1fa\n 18232: jump @702\n      : @621 [@dyn 252] (gas: 2)\n 18235: a1 = u64 [sp + 0xc8]\n 18239: t0 = 506, jump @702\n      : @622 [@dyn 253] (gas: 8)\n 18245: a0 = sp + 0x400\n 18249: u64 [a0 + 216] = 0\n 18253: u64 [a0 + 208] = 0\n 18257: u64 [a0 + 200] = 0\n 18261: u64 [a0 + 192] = 0\n 18265: a1 = 0x24\n 18268: a0 = s1\n 18270: ra = 508, jump @19\n      : @623 [@dyn 254] (gas: 4)\n 18276: u64 [sp + 0xe0] = a0\n 18280: a1 = 0x20\n 18283: a0 = s1\n 18285: ra = 510, jump @19\n      : @624 [@dyn 255] (gas: 27)\n 18291: u32 [sp + 1248] = 0x20\n 18296: a1 = sp + 0x500\n 18300: u64 [a1 + 24] = 0\n 18303: u64 [a1 + 16] = 0\n 18306: u64 [a1 + 8] = 0\n 18309: u64 [a1 + 0] = 0\n 18311: a1 = sp + 0x4c0\n 18315: a1 = a1 << 0x20\n 18318: a1 = a1 >> 0x20\n 18321: a2 = sp + 0x500\n 18325: a2 = a2 << 0x20\n 18328: a3 = a2 | a1\n 18331: a1 = u64 [sp + 0xe0]\n 18335: a1 = a1 << 0x20\n 18338: a1 = a1 >> 0x20\n 18341: a2 = 0x2400000000\n 18351: a4 = a1 | a2\n 18354: a0 = a0 << 0x20\n 18357: a0 = a0 >> 0x20\n 18360: a1 = sp + 0x4e0\n 18364: a1 = a1 << 0x20\n 18367: a5 = a1 | a0\n 18370: a1 = 0xffffffffffffffff\n 18373: a2 = 0xffffffffffffffff\n 18376: a0 = u64 [sp + 0xd0]\n 18380: ecalli 0 // 'call'\n 18381: fallthrough\n      : @625 (gas: 1)\n 18382: jump @662 if a0 != 0\n      : @626 (gas: 2)\n 18386: ecalli 12 // 'return_data_size'\n 18388: fallthrough\n      : @627 (gas: 2)\n 18389: a4 = 0x20\n 18392: jump @629 if a0 >=u a4\n      : @628 (gas: 3)\n 18395: ecalli 12 // 'return_data_size'\n 18397: a4 = a0\n 18399: fallthrough\n      : @629 (gas: 18)\n 18400: s1 = 0\n 18402: a2 = u64 [sp + 0xf8]\n 18406: a3 = u64 [sp + 0xf0]\n 18410: a0 = u64 [sp + 0xb0]\n 18414: a1 = u64 [sp + 0xe8]\n 18418: u64 [sp + 0xf0] = a4\n 18422: a5 = sp + 0x200\n 18426: u64 [a5] = a4\n 18428: u64 [a5 + 0x20] = a2\n 18431: u64 [a5 + 8] = 0\n 18434: u64 [a5 + 0x28] = a1\n 18437: u64 [a5 + 16] = 0\n 18440: u64 [a5 + 0x30] = a0\n 18443: u64 [a5 + 24] = 0\n 18446: a0 = sp + 0x220\n 18450: a1 = sp + 0x200\n 18454: u64 [a5 + 0x38] = a3\n 18457: ra = 512, jump @546\n      : @630 [@dyn 256] (gas: 8)\n 18463: a1 = u64 [sp + 0xf0]\n 18467: a1 = a1 <u 0x20\n 18470: a1 = a1 ^ 0x1\n 18473: a0 = 0\n 18475: a2 = a0\n 18477: s1 = 0\n 18479: a2 = a1 if s1 == 0\n 18482: jump @673 if a2 == 0\n      : @631 (gas: 3)\n 18486: a0 = sp + 0x1e0\n 18490: a1 = u64 [sp + 0xf8]\n 18494: ra = 514, jump @7\n      : @632 [@dyn 257] (gas: 24)\n 18500: t0 = u64 [sp + 0x1f8]\n 18504: t1 = u64 [sp + 0x1e0]\n 18508: a3 = u64 [sp + 0x1e8]\n 18512: a2 = u64 [sp + 0x1f0]\n 18516: a4 = 0x5b4\n 18520: a1 = t1 mulhu a4\n 18523: a5 = a3 * a4\n 18526: a1 = a1 + a5\n 18529: u64 [sp + 0xa0] = a1\n 18533: a1 = a1 <u a5\n 18536: a5 = a3 mulhu a4\n 18539: a1 = a1 + a5\n 18542: a5 = a2 * a4\n 18545: a5 = a5 + a1\n 18548: u64 [sp + 0x98] = a5\n 18552: a5 = a5 <u a1\n 18555: s1 = t0 * a4\n 18558: a1 = a3 | t0\n 18561: a0 = t1 | a2\n 18564: a0 = a0 | a1\n 18567: a1 = a2 mulhu a4\n 18570: s1 = s1 + a1\n 18573: t2 = s1 + a5\n 18576: jump @634 if a0 == 0\n      : @633 (gas: 7)\n 18579: a5 = 0 if t2 != 0\n 18581: a0 = s1 <u a1\n 18584: a1 = t0 mulhu a4\n 18587: a1 = a1 >u 0\n 18589: a0 = a0 | a1\n 18592: a0 = a0 | a5\n 18595: jump @674 if a0 != 0\n      : @634 (gas: 23)\n 18599: s1 = t1 * 0x5b4\n 18603: a0 = 0xdec740\n 18609: a1 = t1 mulhu a0\n 18612: a4 = a3 * a0\n 18615: a5 = t0\n 18617: t0 = a4 + a1\n 18620: a1 = t0 <u a4\n 18623: a3 = a3 mulhu a0\n 18626: a1 = a1 + a3\n 18629: a3 = a2 * a0\n 18632: ra = a1 + a3\n 18635: a1 = ra <u a1\n 18638: a2 = a2 mulhu a0\n 18641: a3 = a5 * a0\n 18644: a2 = a2 + a3\n 18647: a3 = a2 + a1\n 18650: a5 = u64 [sp + 0x98]\n 18654: a1 = s1 | a5\n 18657: a4 = u64 [sp + 0xa0]\n 18661: a2 = a4 | t2\n 18664: a1 = a1 | a2\n 18667: t1 = t1 * a0\n 18670: jump @652 if a1 == 0\n      : @635 (gas: 76)\n 18674: a0 = s1 | a5\n 18677: a1 = a4 | t2\n 18680: a0 = a0 | a1\n 18683: a0 = a0 <u 0x1\n 18686: a1 = t1 | ra\n 18689: u64 [sp + 0x58] = t0\n 18692: a2 = t0 | a3\n 18695: a1 = a1 | a2\n 18698: a1 = a1 <u 0x1\n 18701: a0 = a0 | a1\n 18704: u64 [sp + 0xf8] = a0\n 18708: a1 = clz a5\n 18710: a1 = a1 + 0x40\n 18713: a0 = t1\n 18715: t1 = a3\n 18717: a3 = clz t2\n 18719: a3 = a1 if t2 == 0\n 18722: u64 [sp + 0x88] = s1\n 18726: a1 = clz s1\n 18728: a1 = a1 + 0x40\n 18731: a2 = clz a4\n 18733: a2 = a1 if a4 == 0\n 18736: a1 = a2 + 0x80\n 18740: u64 [sp + 0x90] = t2\n 18744: a5 = a5 | t2\n 18747: a3 = a1 if a5 == 0\n 18750: a4 = a1 <u a2\n 18753: a4 = 0 if a5 != 0\n 18755: a1 = clz ra\n 18757: a1 = a1 + 0x40\n 18760: a5 = clz t1\n 18762: a5 = a1 if t1 == 0\n 18765: t2 = a0\n 18767: a1 = clz a0\n 18769: a1 = a1 + 0x40\n 18772: a2 = clz t0\n 18774: a2 = a1 if t0 == 0\n 18777: a1 = a2 + 0x80\n 18781: s1 = ra | t1\n 18784: a5 = a1 if s1 == 0\n 18787: a0 = a1 <u a2\n 18790: a0 = 0 if s1 != 0\n 18792: a1 = a4 ^ a0\n 18795: s1 = a4 <u a0\n 18798: a2 = a3 <u a5\n 18801: s1 = a2 if a1 == 0\n 18804: a1 = s1 <u 0x1\n 18807: u64 [sp + 0x50] = t2\n 18810: t0 = a1 + 0xffffffffffffffff\n 18813: t2 = -s1\n 18815: a4 = a4 - a0\n 18818: a4 = a4 - a2\n 18821: a1 = a3 - a5\n 18824: u64 [sp + 0xf0] = t2\n 18828: a0 = t2 >u 0\n 18830: a2 = t0 >u 0\n 18832: a2 = a0 if t0 == 0\n 18835: a0 = a4 >u 0\n 18837: a3 = a1 <u 0x100\n 18841: a3 = a3 ^ 0x1\n 18844: a3 = a0 if a4 != 0\n 18847: a3 = a2 if s1 != 0\n 18850: a2 = u64 [sp + 0xf8]\n 18854: a2 = a2 | a3\n 18857: u64 [sp + 0x48] = t1\n 18860: a3 = t1\n 18862: a3 = 0 if a2 != 0\n 18864: u64 [sp + 0x40] = ra\n 18867: a0 = ra\n 18869: a0 = 0 if a2 != 0\n 18871: a5 = u64 [sp + 0x58]\n 18874: t1 = u64 [sp + 0x50]\n 18877: a5 = 0 if a2 != 0\n 18879: s1 = t1\n 18881: s1 = 0 if a2 != 0\n 18883: jump @651 if a2 != 0\n      : @636 (gas: 8)\n 18887: t2 = t0\n 18889: t0 = a1\n 18891: a2 = a1 ^ 0xff\n 18895: ra = u64 [sp + 0xf0]\n 18899: a2 = a2 | ra\n 18902: a1 = a4 | t2\n 18905: a1 = a1 | a2\n 18908: jump @651 if a1 == 0\n      : @637 (gas: 18)\n 18912: a1 = t0 + 0x1\n 18915: u64 [sp + 0xe8] = t0\n 18919: u64 [sp + 0xf8] = a1\n 18923: a0 = a1 <u 0x1\n 18926: a0 = a0 + a4\n 18929: u64 [sp + 0xd8] = a0\n 18933: a0 = a0 | a1\n 18936: a0 = a0 <u 0x1\n 18939: a0 = a0 + ra\n 18942: u64 [sp + 0xc8] = a0\n 18946: a0 = a0 <u ra\n 18949: a0 = a0 + t2\n 18952: u64 [sp + 0xd0] = a0\n 18956: s1 = 0xff - t0\n 18960: a2 = 0x80 - s1\n 18964: a0 = t1\n 18966: a1 = u64 [sp + 0x58]\n 18969: ra = 516, jump @704\n      : @638 [@dyn 258] (gas: 6)\n 18975: u64 [sp + 0xf0] = a0\n 18979: u64 [sp + 0xc0] = a1\n 18983: a0 = u64 [sp + 0x40]\n 18986: a1 = u64 [sp + 0x48]\n 18989: a2 = s1\n 18991: ra = 518, jump @709\n      : @639 [@dyn 259] (gas: 9)\n 18997: u64 [sp + 0xe0] = a0\n 19001: a0 = u64 [sp + 0xc0]\n 19005: a0 = a0 | a1\n 19008: u64 [sp + 0xb8] = a0\n 19012: a1 = u64 [sp + 0xe8]\n 19016: a2 = 0x7f - a1\n 19019: a0 = u64 [sp + 0x50]\n 19022: a1 = u64 [sp + 0x58]\n 19025: ra = 520, jump @709\n      : @640 [@dyn 260] (gas: 19)\n 19031: a2 = s1\n 19033: a4 = s1 <u 0x80\n 19037: u64 [sp + 0xc0] = a4\n 19041: a3 = u64 [sp + 0xb8]\n 19045: a1 = a3 if a4 != 0\n 19048: s1 = u64 [sp + 0xf8]\n 19052: a3 = u64 [sp + 0x48]\n 19055: a1 = a3 if a2 == 0\n 19058: u64 [sp + 0xe8] = a1\n 19062: a1 = u64 [sp + 0xf0]\n 19066: a3 = u64 [sp + 0xe0]\n 19070: a1 = a1 | a3\n 19073: a1 = a0 if a4 == 0\n 19076: a0 = u64 [sp + 0x40]\n 19079: a1 = a0 if a2 == 0\n 19082: u64 [sp + 0xf0] = a1\n 19086: a0 = u64 [sp + 0x50]\n 19089: a1 = u64 [sp + 0x58]\n 19092: ra = 522, jump @709\n      : @641 [@dyn 261] (gas: 12)\n 19098: a3 = u64 [sp + 0xc8]\n 19102: a4 = u64 [sp + 0xd0]\n 19106: a2 = u64 [sp + 0xd8]\n 19110: ra = a0\n 19112: a0 = a2 | a4\n 19115: a2 = s1 | a3\n 19118: a0 = a0 | a2\n 19121: a2 = u64 [sp + 0xc0]\n 19125: a1 = 0 if a2 == 0\n 19127: u64 [sp + 0xe0] = a1\n 19131: ra = 0 if a2 == 0\n 19133: jump @649 if a0 == 0\n      : @642 (gas: 5)\n 19137: a2 = s1 + 0xffffffffffffff80\n 19140: a0 = u64 [sp + 0x40]\n 19143: a1 = u64 [sp + 0x48]\n 19146: u64 [sp + 0xc0] = ra\n 19150: ra = 524, jump @704\n      : @643 [@dyn 262] (gas: 6)\n 19156: u64 [sp + 0xb8] = a0\n 19160: u64 [sp + 0xa8] = a1\n 19164: a0 = u64 [sp + 0x50]\n 19167: a1 = u64 [sp + 0x58]\n 19170: a2 = s1\n 19172: ra = 526, jump @704\n      : @644 [@dyn 263] (gas: 6)\n 19178: u64 [sp + 0x80] = a0\n 19182: u64 [sp + 0xb0] = a1\n 19186: a2 = 0x80 - s1\n 19190: a0 = u64 [sp + 0x40]\n 19193: a1 = u64 [sp + 0x48]\n 19196: ra = 528, jump @709\n      : @645 [@dyn 264] (gas: 20)\n 19202: a3 = u64 [sp + 0xb0]\n 19206: a3 = a3 | a1\n 19209: a1 = s1 <u 0x80\n 19213: u64 [sp + 0xb0] = a1\n 19217: a2 = u64 [sp + 0xa8]\n 19221: a3 = a2 if a1 == 0\n 19224: a2 = u64 [sp + 0x58]\n 19227: a3 = a2 if s1 == 0\n 19230: u64 [sp + 0xa8] = a3\n 19234: a2 = u64 [sp + 0x80]\n 19238: a2 = a2 | a0\n 19241: a0 = u64 [sp + 0xb8]\n 19245: a2 = a0 if a1 == 0\n 19248: a0 = u64 [sp + 0x50]\n 19251: a2 = a0 if s1 == 0\n 19254: u64 [sp + 0x80] = a2\n 19258: a0 = u64 [sp + 0x40]\n 19261: a1 = u64 [sp + 0x48]\n 19264: a2 = s1\n 19266: ra = 530, jump @704\n      : @646 [@dyn 265] (gas: 25)\n 19272: t2 = u64 [sp + 0x80]\n 19276: t1 = u64 [sp + 0xa8]\n 19280: ra = u64 [sp + 0xc0]\n 19284: t0 = 0\n 19286: a2 = u64 [sp + 0xb0]\n 19290: a1 = 0 if a2 == 0\n 19292: a0 = 0 if a2 == 0\n 19294: u64 [sp + 0xb8] = a0\n 19298: a2 = u64 [sp + 0x88]\n 19302: a0 = a2 <u 0x1\n 19305: a3 = u64 [sp + 0xa0]\n 19309: a0 = a3 - a0\n 19312: u64 [sp + 0x78] = a0\n 19315: a0 = a2 | a3\n 19318: a0 = a0 <u 0x1\n 19321: a3 = u64 [sp + 0x98]\n 19325: a4 = a3 - a0\n 19328: u64 [sp + 0x70] = a4\n 19331: a0 = a3 <u a0\n 19334: a3 = u64 [sp + 0x90]\n 19338: a3 = a3 - a0\n 19341: u64 [sp + 0x68] = a3\n 19344: a2 = a2 + 0xffffffffffffffff\n 19347: u64 [sp + 0x60] = a2\n 19350: fallthrough\n      : @647 (gas: 102)\n 19351: u64 [sp + 0xc0] = t0\n 19355: u64 [sp + 0xf8] = s1\n 19359: u64 [sp + 128] = 0\n 19363: a4 = t2 >> 0x3f\n 19366: a3 = t1 << 0x1\n 19369: a3 = a3 | a4\n 19372: a4 = t2 << 0x1\n 19375: s1 = u64 [sp + 0xe8]\n 19379: a2 = s1 >> 0x3f\n 19382: a2 = a2 | a4\n 19385: u64 [sp + 0xb0] = a2\n 19389: a0 = u64 [sp + 0x78]\n 19392: t0 = a0 ^ a3\n 19395: a4 = a0 <u a3\n 19398: a0 = u64 [sp + 0x60]\n 19401: t2 = a0 <u a2\n 19404: t2 = a4 if t0 != 0\n 19407: a1 = a1 << 0x1\n 19410: a0 = u64 [sp + 0xb8]\n 19414: a2 = a0 >> 0x3f\n 19417: t0 = a1 | a2\n 19420: u64 [sp + 0xa8] = t0\n 19424: a2 = t1 >> 0x3f\n 19427: a0 = a0 << 0x1\n 19430: t1 = a0 | a2\n 19433: a0 = s1 << 0x1\n 19436: a1 = u64 [sp + 0xf0]\n 19440: a2 = a1 >> 0x3f\n 19443: a0 = a0 | a2\n 19446: a2 = a1 << 0x1\n 19449: s1 = u64 [sp + 0xe0]\n 19453: a4 = s1 >> 0x3f\n 19456: a2 = a2 | a4\n 19459: a4 = s1 << 0x1\n 19462: s1 = ra\n 19464: ra = ra >> 0x3f\n 19467: a4 = a4 | ra\n 19470: s1 = s1 << 0x1\n 19473: a1 = u64 [sp + 0xc0]\n 19477: a1 = a1 | s1\n 19480: u64 [sp + 0xc0] = a1\n 19484: a4 = a4 | 0\n 19486: u64 [sp + 0xe0] = a4\n 19490: a1 = a2 | 0\n 19492: u64 [sp + 0xf0] = a1\n 19496: a0 = a0 | 0\n 19498: u64 [sp + 0xe8] = a0\n 19502: a2 = u64 [sp + 0x70]\n 19505: a0 = a2 - t1\n 19508: a0 = a0 <u t2\n 19511: a2 = a2 <u t1\n 19514: a4 = u64 [sp + 0x68]\n 19517: a4 = a4 - t0\n 19520: a4 = a4 - a2\n 19523: a4 = a4 - a0\n 19526: a4 = a4 >>a 0x3f\n 19529: a0 = u64 [sp + 0x88]\n 19533: t2 = a4 & a0\n 19536: a5 = u64 [sp + 0xa0]\n 19540: a5 = a5 & a4\n 19543: a0 = a3 ^ a5\n 19546: s1 = a3 <u a5\n 19549: t0 = u64 [sp + 0xb0]\n 19553: ra = t0 <u t2\n 19556: s1 = ra if a0 == 0\n 19559: a2 = u64 [sp + 0x98]\n 19563: a2 = a2 & a4\n 19566: a1 = t1 - a2\n 19569: a0 = a1 - s1\n 19572: u64 [sp + 0xb8] = a0\n 19576: a0 = a1 <u s1\n 19579: a2 = t1 <u a2\n 19582: s1 = u64 [sp + 0x90]\n 19586: s1 = s1 & a4\n 19589: a1 = u64 [sp + 0xa8]\n 19593: a1 = a1 - s1\n 19596: s1 = u64 [sp + 0xf8]\n 19600: a1 = a1 - a2\n 19603: a1 = a1 - a0\n 19606: a3 = a3 - a5\n 19609: t1 = a3 - ra\n 19612: ra = u64 [sp + 0xc0]\n 19616: t2 = t0 - t2\n 19619: a5 = u64 [sp + 0xd8]\n 19623: a0 = s1 | a5\n 19626: a0 = a0 <u 0x1\n 19629: a3 = u64 [sp + 0xc8]\n 19633: a2 = a3 <u a0\n 19636: a0 = a3 - a0\n 19639: a3 = s1 <u 0x1\n 19642: a5 = a5 - a3\n 19645: a3 = u64 [sp + 0xd0]\n 19649: a3 = a3 - a2\n 19652: s1 = s1 + 0xffffffffffffffff\n 19655: u64 [sp + 0xd8] = a5\n 19659: u64 [sp + 0xd0] = a3\n 19663: a2 = a5 | a3\n 19666: a3 = s1 | a0\n 19669: a2 = a2 | a3\n 19672: t0 = a4 & 0x1\n 19675: u64 [sp + 0xc8] = a0\n 19679: jump @647 if a2 != 0\n      : @648 (gas: 1)\n 19683: jump @650\n      : @649 (gas: 3)\n 19685: t0 = 0\n 19687: u64 [sp + 128] = 0\n 19691: fallthrough\n      : @650 (gas: 20)\n 19692: a3 = u64 [sp + 0xf0]\n 19696: a0 = a3 >> 0x3f\n 19699: a1 = u64 [sp + 0xe8]\n 19703: a1 = a1 << 0x1\n 19706: a1 = a1 | a0\n 19709: a5 = u64 [sp + 0xe0]\n 19713: a0 = a5 >> 0x3f\n 19716: a3 = a3 << 0x1\n 19719: a0 = a0 | a3\n 19722: a3 = ra >> 0x3f\n 19725: a5 = a5 << 0x1\n 19728: s1 = ra << 0x1\n 19731: s1 = t0 | s1\n 19734: a2 = u64 [sp + 0x80]\n 19738: a3 = a3 | a2\n 19741: a5 = a5 | a3\n 19744: a0 = a0 | a2\n 19747: a3 = a2 | a1\n 19750: t1 = u64 [sp + 0x50]\n 19753: fallthrough\n      : @651 (gas: 8)\n 19754: a1 = s1 ^ 0x2710\n 19758: a3 = a3 | a5\n 19761: a0 = a0 | a3\n 19764: a0 = a0 | a1\n 19767: t0 = u64 [sp + 0x58]\n 19770: ra = u64 [sp + 0x40]\n 19773: a3 = u64 [sp + 0x48]\n 19776: jump @680 if a0 != 0\n      : @652 (gas: 16)\n 19780: a0 = u64 [sp + 0x18]\n 19783: u64 [sp + 0x100] = a0\n 19787: u64 [sp + 0x120] = t1\n 19791: a0 = u64 [sp + 0x20]\n 19794: u64 [sp + 0x108] = a0\n 19798: u64 [sp + 0x128] = t0\n 19802: a0 = u64 [sp + 0x28]\n 19805: u64 [sp + 0x110] = a0\n 19809: u64 [sp + 0x130] = ra\n 19813: a0 = u64 [sp + 0x30]\n 19816: u64 [sp + 0x118] = a0\n 19820: a0 = sp + 0x140\n 19824: a1 = sp + 0x120\n 19828: a2 = sp + 0x100\n 19832: u64 [sp + 0x138] = a3\n 19836: ra = 532, jump @512\n      : @653 [@dyn 266] (gas: 6)\n 19842: a0 = u64 [sp + 0x158]\n 19846: a1 = u64 [sp + 0x150]\n 19850: a2 = u64 [sp + 0x148]\n 19854: a3 = u64 [sp + 0x140]\n 19858: s1 = u64 [sp + 0x38]\n 19861: fallthrough\n      : @654 (gas: 11)\n 19862: u64 [s1] = a3\n 19864: u64 [s1 + 0x8] = a2\n 19867: u64 [s1 + 0x10] = a1\n 19870: u64 [s1 + 0x18] = a0\n 19873: sp = s0 + 0xfffffffffffffac0\n 19877: a0 = sp + 0x500\n 19881: ra = u64 [a0 + 0x38]\n 19884: s0 = u64 [a0 + 0x30]\n 19887: s1 = u64 [a0 + 0x28]\n 19890: sp = sp + 0x540\n 19894: ret\n      : @655 (gas: 3)\n 19896: a0 = sp + 0x3a0\n 19900: a1 = 0x40\n 19903: ra = 534, jump @7\n      : @656 [@dyn 267] (gas: 12)\n 19909: a1 = sp + 0x300\n 19913: a0 = u64 [a1 + 0xb8]\n 19917: u64 [sp + 0xf8] = a0\n 19921: a0 = u64 [a1 + 0xb0]\n 19925: u64 [sp + 0xf0] = a0\n 19929: a0 = u64 [a1 + 0xa8]\n 19933: u64 [sp + 0xe8] = a0\n 19937: s1 = u64 [a1 + 0xa0]\n 19941: ra = 0x218\n 19945: ecalli 12 // 'return_data_size'\n 19947: t0 = 0x21a\n 19951: jump @696\n      : @657 [@dyn 268] (gas: 1)\n 19954: t0 = 538, jump @696\n      : @658 [@dyn 269] (gas: 1)\n 19960: jump @672 if a1 != 0\n      : @659 (gas: 3)\n 19964: s1 = a0\n 19966: a0 = a0 >> 0x20\n 19969: jump @672 if a0 != 0\n      : @660 (gas: 5)\n 19973: i32 a0 = s1 + 0\n 19975: u64 [sp + 0xf0] = a0\n 19979: a0 = u64 [sp + 0xf8]\n 19983: a1 = s1\n 19985: ra = 540, jump @19\n      : @661 [@dyn 270] (gas: 7)\n 19991: u32 [sp + 0x4a0] = s1\n 19995: i32 a0 = a0 + 0\n 19997: i32 a1 = sp + 0x4a0\n 20001: a2 = 0\n 20003: ecalli 11 // 'return_data_copy'\n 20005: a0 = i32 [sp + 0x4a0]\n 20009: jump @669\n      : @662 (gas: 3)\n 20011: a0 = sp + 0x240\n 20015: a1 = 0x40\n 20018: ra = 542, jump @7\n      : @663 [@dyn 271] (gas: 12)\n 20024: a1 = sp + 0x200\n 20028: a0 = u64 [a1 + 0x58]\n 20031: u64 [sp + 0xf8] = a0\n 20035: a0 = u64 [a1 + 0x50]\n 20038: u64 [sp + 0xf0] = a0\n 20042: a0 = u64 [a1 + 0x48]\n 20045: u64 [sp + 0xe8] = a0\n 20049: s1 = u64 [a1 + 0x40]\n 20052: ra = 0x220\n 20056: ecalli 12 // 'return_data_size'\n 20058: t0 = 0x222\n 20062: jump @696\n      : @664 [@dyn 272] (gas: 1)\n 20065: t0 = 546, jump @696\n      : @665 [@dyn 273] (gas: 1)\n 20071: jump @672 if a1 != 0\n      : @666 (gas: 3)\n 20074: s1 = a0\n 20076: a0 = a0 >> 0x20\n 20079: jump @672 if a0 != 0\n      : @667 (gas: 5)\n 20082: i32 a0 = s1 + 0\n 20084: u64 [sp + 0xf0] = a0\n 20088: a0 = u64 [sp + 0xf8]\n 20092: a1 = s1\n 20094: ra = 548, jump @19\n      : @668 [@dyn 274] (gas: 7)\n 20100: u32 [sp + 0x520] = s1\n 20104: i32 a0 = a0 + 0\n 20106: i32 a1 = sp + 0x520\n 20110: a2 = 0\n 20112: ecalli 11 // 'return_data_copy'\n 20114: a0 = i32 [sp + 0x520]\n 20118: fallthrough\n      : @669 (gas: 2)\n 20119: a1 = u64 [sp + 0xf0]\n 20123: jump @672 if a0 <u a1\n      : @670 (gas: 2)\n 20126: ecalli 12 // 'return_data_size'\n 20128: fallthrough\n      : @671 (gas: 3)\n 20129: s1 = a0\n 20131: a0 = a0 >> 0x20\n 20134: jump @687 if a0 == 0\n      : @672 (gas: 1)\n 20138: trap\n      : @673 (gas: 5)\n 20139: a1 = 0x20090\n 20144: i32 a1 = a1 + 0\n 20146: a0 = 0x1\n 20149: ecalli 13 // 'seal_return'\n 20151: fallthrough\n      : @674 (gas: 6)\n 20152: u64 [sp + 464] = 0\n 20156: u64 [sp + 456] = 0\n 20160: u64 [sp + 448] = 0\n 20164: t0 = 0x226\n 20168: a0 = 0x4e487b7100000000\n 20178: fallthrough\n      : @675 [@dyn 275] (gas: 4)\n 20179: a1 = sp + 0x1c0\n 20183: u64 [sp + 0x1d8] = a0\n 20187: a0 = 0\n 20189: ra = 552, jump @9\n      : @676 [@dyn 276] (gas: 7)\n 20195: u64 [sp + 440] = 0\n 20199: u64 [sp + 432] = 0\n 20203: u64 [sp + 416] = 0x11\n 20208: a0 = 0x4\n 20211: a1 = sp + 0x1a0\n 20215: u64 [sp + 424] = 0\n 20219: ra = 554, jump @9\n      : @677 [@dyn 277] (gas: 2)\n 20225: a1 = i32 [0x20088]\n 20230: jump @679 if a1 >u 63\n      : @678 (gas: 3)\n 20234: u32 [0x20088] = 0x40\n 20240: a1 = 0x20090\n 20245: jump @686\n      : @679 (gas: 2)\n 20247: a1 = 0x20090\n 20252: jump @686\n      : @680 (gas: 6)\n 20254: u64 [sp + 400] = 0\n 20258: u64 [sp + 392] = 0\n 20262: u64 [sp + 384] = 0\n 20266: t0 = 0x22c\n 20270: a0 = 0x4e487b7100000000\n 20280: fallthrough\n      : @681 [@dyn 278] (gas: 4)\n 20281: a1 = sp + 0x180\n 20285: u64 [sp + 0x198] = a0\n 20289: a0 = 0\n 20291: ra = 558, jump @9\n      : @682 [@dyn 279] (gas: 7)\n 20297: u64 [sp + 376] = 0\n 20301: u64 [sp + 368] = 0\n 20305: u64 [sp + 352] = 0x11\n 20310: a0 = 0x4\n 20313: a1 = sp + 0x160\n 20317: u64 [sp + 360] = 0\n 20321: ra = 560, jump @9\n      : @683 [@dyn 280] (gas: 2)\n 20327: a1 = i32 [0x20088]\n 20332: jump @685 if a1 >u 63\n      : @684 (gas: 3)\n 20336: u32 [0x20088] = 0x40\n 20342: a1 = 0x20090\n 20347: jump @686\n      : @685 (gas: 2)\n 20349: a1 = 0x20090\n 20354: fallthrough\n      : @686 (gas: 5)\n 20355: i32 a1 = a1 + 0\n 20357: a0 = 0x1\n 20360: a2 = 0x24\n 20363: ecalli 13 // 'seal_return'\n 20365: fallthrough\n      : @687 (gas: 3)\n 20366: a0 = u64 [sp + 0xf8]\n 20370: a1 = s1\n 20372: ra = 562, jump @19\n      : @688 [@dyn 281] (gas: 5)\n 20378: i32 a1 = a0 + 0\n 20380: i32 a2 = s1 + 0\n 20382: a0 = 0x1\n 20385: ecalli 13 // 'seal_return'\n 20387: jump @674\n      : @689 [export #0: 'call'] (gas: 2)\n 20390: a0 = 0\n 20392: ra = 564, jump @25\n      : @690 [@dyn 282] [export #1: 'deploy'] (gas: 2)\n 20398: a0 = 0x1\n 20401: ra = 566, jump @25\n      : @691 [@dyn 283] (gas: 11)\n 20407: a0 = reverse a0\n 20409: a3 = a0 << 0x20\n 20412: a1 = reverse a1\n 20414: a1 = a1 >> 0x20\n 20417: a3 = a3 | a1\n 20420: a0 = a0 >> 0x20\n 20423: a1 = reverse a2\n 20425: a2 = a1 << 0x20\n 20428: a0 = a0 | a2\n 20431: a1 = a1 >> 0x20\n 20434: jump [t0]\n      : @692 (gas: 15)\n 20436: a2 = u64 [s1 + 0x98]\n 20440: a0 = u64 [a2 + 0x8]\n 20443: a1 = u64 [a2]\n 20445: a2 = i32 [a2 + 0x10]\n 20448: a0 = reverse a0\n 20450: a3 = a0 >> 0x20\n 20453: a1 = reverse a1\n 20455: a4 = a1 << 0x20\n 20458: a3 = a3 | a4\n 20461: a0 = a0 << 0x20\n 20464: a2 = reverse a2\n 20466: a2 = a2 >> 0x20\n 20469: a0 = a0 | a2\n 20472: a1 = a1 >> 0x20\n 20475: jump [t0]\n      : @693 (gas: 12)\n 20477: a1 = u64 [s1 + 0x90]\n 20481: a2 = u64 [s1 + 0x80]\n 20485: a1 = a1 | a2\n 20488: a3 = u64 [s1 + 0x88]\n 20492: a2 = u64 [s1 + 0x98]\n 20496: a2 = a2 | a3\n 20499: a2 = a2 | a1\n 20502: a2 = a2 >> 0x20\n 20505: a1 = a1 | a3\n 20508: a1 = a1 << 0x20\n 20511: a1 = a1 | a2\n 20514: jump [t0]\n      : @694 (gas: 9)\n 20516: a1 = a1 <u 0x20\n 20519: a1 = a1 ^ 0x1\n 20522: a1 = a0 if a3 != 0\n 20525: a0 = a3 >u 0\n 20527: a2 = a3 >u 0\n 20529: a2 = a0 if a3 == 0\n 20532: a0 = a3 | a3\n 20535: a2 = a1 if a0 == 0\n 20538: jump [t0]\n      : @695 (gas: 8)\n 20540: a0 = a0 | a2\n 20543: a2 = a4 | a1\n 20546: a2 = a2 | a0\n 20549: a2 = a2 >> 0x20\n 20552: a0 = a0 | a1\n 20555: a0 = a0 << 0x20\n 20558: a0 = a0 | a2\n 20561: jump [t0]\n      : @696 (gas: 12)\n 20563: a1 = u64 [sp + 0xf8]\n 20567: a2 = u64 [sp + 0xe8]\n 20571: a1 = a1 | a2\n 20574: u64 [sp + 0xf8] = s1\n 20578: a3 = u64 [sp + 0xf0]\n 20582: a2 = s1 | a3\n 20585: a2 = a2 | a1\n 20588: a2 = a2 >> 0x20\n 20591: a1 = a1 | a3\n 20594: a1 = a1 << 0x20\n 20597: a1 = a1 | a2\n 20600: jump [t0]\n      : @697 (gas: 8)\n 20602: a0 = a0 | a2\n 20605: a2 = a3 | a1\n 20608: a2 = a2 | a0\n 20611: a2 = a2 >> 0x20\n 20614: a0 = a0 | a1\n 20617: a0 = a0 << 0x20\n 20620: a0 = a0 | a2\n 20623: jump [t0]\n      : @698 (gas: 5)\n 20625: a0 = reverse a0\n 20627: a1 = reverse a1\n 20629: a2 = reverse a2\n 20631: a3 = reverse a3\n 20633: jump [t0]\n      : @699 (gas: 9)\n 20635: a0 = u64 [a3 + 0x18]\n 20638: a1 = u64 [a3 + 0x10]\n 20641: a2 = u64 [a3 + 0x8]\n 20644: a3 = u64 [a3]\n 20646: a0 = reverse a0\n 20648: a4 = reverse a1\n 20650: a2 = reverse a2\n 20652: a3 = reverse a3\n 20654: jump [t0]\n      : @700 (gas: 10)\n 20656: a3 = s1 + a0\n 20659: a4 = a3 + 0x300\n 20663: a0 = u64 [a4 + 0xf8]\n 20667: a1 = u64 [a3 + 0x400]\n 20671: a2 = u64 [a4 + 0xf0]\n 20675: a3 = u64 [a4 + 0xe8]\n 20679: a1 = a1 | a2\n 20682: a0 = a0 | a3\n 20685: a0 = a0 | a1\n 20688: jump [t0]\n      : @701 (gas: 8)\n 20690: u64 [sp + 64] = 0\n 20693: u64 [sp + 56] = 0\n 20696: u64 [sp + 48] = 0\n 20699: a0 = 0x4e487b7100000000\n 20709: a1 = sp + 0x30\n 20712: u64 [sp + 0x48] = a0\n 20715: a0 = 0\n 20717: jump [t0]\n      : @702 (gas: 5)\n 20719: u64 [a1 + 8] = 0\n 20722: u64 [a1 + 0] = 0\n 20724: a0 = 0x80000\n 20729: u32 [a1 + 0x10] = a0\n 20732: jump [t0]\n      : @703 (gas: 8)\n 20734: a0 = u64 [a2 + 0x8]\n 20737: a1 = i32 [a2 + 0x10]\n 20740: a2 = u64 [a2]\n 20742: a3 = reverse a0\n 20744: a0 = a3 << 0x20\n 20747: a1 = reverse a1\n 20749: a1 = a1 >> 0x20\n 20752: jump [t0]\n      : @704 (gas: 2)\n 20754: a3 = a2 & 0x40\n 20757: jump @708 if a3 != 0\n      : @705 (gas: 1)\n 20760: jump @707 if a2 == 0\n      : @706 (gas: 6)\n 20763: i32 a3 = 0x40 - a2\n 20766: a3 = a1 << a3\n 20769: a1 = a1 >> a2\n 20772: a0 = a0 >> a2\n 20775: a0 = a0 | a3\n 20778: ret\n      : @707 (gas: 1)\n 20780: ret\n      : @708 (gas: 4)\n 20782: a0 = a2 + 0xffffffffffffffc0\n 20785: a0 = a1 >> a0\n 20788: a1 = 0\n 20790: ret\n      : @709 (gas: 2)\n 20792: a3 = a2 & 0x40\n 20795: jump @713 if a3 != 0\n      : @710 (gas: 1)\n 20798: jump @712 if a2 == 0\n      : @711 (gas: 6)\n 20801: i32 a3 = 0x40 - a2\n 20804: a3 = a0 >> a3\n 20807: a0 = a0 << a2\n 20810: a1 = a1 << a2\n 20813: a1 = a1 | a3\n 20816: ret\n      : @712 (gas: 1)\n 20818: ret\n      : @713 (gas: 4)\n 20820: a1 = a2 + 0xffffffffffffffc0\n 20823: a1 = a0 << a1\n 20826: a0 = 0\n 20828: ret\n",
        "bytecode": {
          "linkReferences": {},
          "object": "50564d0000a15f000000000000010700c1d000c00080038084f9a7f110d29da173dd91eec0143219028dba0c924d5bee35ca88b4a765ca9e514d27e89bf93797f98ac883b3ef055a92d878fedb1c4d6b970bf1c6ba22c7d553c31f98fb0bfbe2060c027156c9bee920f66c98c6238c05f6a8c470c331bf758757a986a250f4cc929d93c9c19b5052afe442e18317486a1ac6eb66bbf099241e2000000004812111000000000400000012000000200000002e000000340000003d0000004a0000005c00000067000000760000008300000093000000a3000000ae000000c0000000cb00000063616c6c63616c6c5f646174615f636f707963616c6c5f646174615f6c6f616463616c6c5f646174615f73697a6563616c6c6572636f64655f73697a656465706f7369745f6576656e746765745f696d6d757461626c655f646174616765745f73746f72616765686173685f6b656363616b5f3235367265665f74696d655f6c65667472657475726e5f646174615f636f707972657475726e5f646174615f73697a657365616c5f72657475726e7365745f696d6d757461626c655f646174617365745f73746f7261676576616c75655f7472616e73666572726564051302c0a64f0463616c6cc0ae4f066465706c6f7906c0c65d811b02c05e516a00b201d502e602b60317041f04f504fa042a05750582059a05c605f305ff053e067a0650078207b207b70718088008b108c0089b094e0ac90a580b890b8e0bf60b5c0cc50c1e0d780da90db60d820e920eae0ee60ec90f391064102511601180111712471260123b134b1366138313bb13ce13f3135f14b014f0143c15621573158f15ad15e815f11509165b169016b316051748176a17bc1702180b1824188318d61806191419cd19da19341ab71a001b311b401bf51b031c161c521cb71c091d1c1d251df51d221e381ece1e521f5c1f7d1fb21fcd1f60202621672127225422b82273239c23a723c123d623fc233424552491249e2421255625ad25e425f6251a263c26532675267e269726ea26212744279727e22733287b28ad28b728ce283e29c329d429de29ff290e2adb2aec2a982bfb2b0f2c192c982ccc2cd22cf52c3a2d802db72d1d2e772ea92eba2e7b2f8a2fa02fd32f303061306e308830ba3014311e313a316e3174319731c731f831fe311f3258327833c13350345a342335b135bc35cc353a36e037f03709382d387e398d39a339c739063a443a583a6e3aad3ab53cc53ce33c073dba3dc83de13d053ecc3ee73eed3e063f2a3fe83f44409a40a840bf40e34088418e41a741cb4103424d42e5424c435c437a439e43d6430e447144a944ba448845ed4525467246d3462a473b474547644773471f4844481f4a354a574a9a4ad44aea4a024b484b824dc54df24df84d174e384e614e674e844ed34ee34e014f394f494f674f9a4fae4fb74f9511e87b10107b15087b163306800002390580000251051c3307b00003837783680a070139078000022003800002ac5710821010821508821695111832000039088000025108a4053307b0000383770a0e2897059511f07b10087b1564896475330820649750100241047c78017c797c7a027c7b03978808d4980897aa1097bb18d4ba0ad4a8087c79057c7a047c7b067c7c07979908d4a90997bb1097cc18d4cb0bd4b909979920d489027c79097c7a087c7b0a7c7c0b979908d4a90997bb1097cc18d4cb0bd4b9097c7a0d7c7b0c7c7c0e7c780f97aa08d4ba0a97cc10978818d4c808d4a808978820d498037c78117c7a107c7b127c7c13978808d4a80897bb1097cc18d4cb0bd4b8087c7a157c7b147c7c167c791797aa08d4ba0a97cc10979918d4c909d4a909979920d4890a7c78197c79187c7b1a7c7c1b978808d4980897bb1097cc18d4cb0bd4b8087c791d7c7b1c7c7c1e7c771f979908d4b90997cc10977718d4c707d49707977720d487076f776fa86f396f2a7b5a187b59107b58087b57821008821595111032009511d87b10207b15187b161082897b19088289087b19828510828618330820501004f9026f686f59821a6faa821b086fbb787b18787a10787908787898bc38787c1f98bc30787c1e98bc28787c1d98bc20787c1c98bc18787c1b98bc10787c1a98bb08787b1998ab38787b1798ab30787b1698ab28787b1598ab20787b1498ab18787b1398ab10787b1298aa08787a11989a38787a0f989a30787a0e989a28787a0d989a20787a0c989a18787a0b989a10787a0a98990878790998893878790798893078790698892878790598892078790498891878790398891078790298880878780182102082151882161095112832009511a07b10587b15507b16489515608411e06476828718828910828a0882886f776f996faa6f887b18187b1a107b19087b17491138491130491128491120481140208318831a20831b403309ff33073300060a0801821738821830821928821a20501208b04d7b6a187b69107b68087b679551a082105882155082164895116032009511a07b10587b15509515608411e08272827a08827b108277188283828908828c108288186f746fbb6faa6f276f826fcc6f996f387b17187b1a107b1b087b147b18387b19307b1c287b12208318831a203309ff330b2033070a0f9551a08210588215509511603200951160ff7b1098007b1590007b1688009515a0008411e082ab7b1b3882ab087b1b3082ab107b1b2882aa187b1a20829a7b1a18829a087b1a10829a107b1a088299187b19648650100af50082186f888219086f99821a106faa821b186fbb7b1b587b1a507b19487b18408218206f888219286f99821a306faa821b386fbb7b1b787b1a707b19687b18608379836a8317403308020a06955160ff8210980082159000821688009511a00032007b183850100e8c006f687b187882186f887b18708218086f887b18688218106f887b18608218186f887b1898008218206f887b1890008218286f887b1888008218306f887b1880008218406f887b18b8008218486f887b18b0008218506f887b18a8008218586f887b18a0008379811a388317603308030a06955120ff8210d8008215d0008216c8009511e00032008b7910520931c8780883881f8488e05638000001253309880002390a880002ae8a093d088800020133089000028377c887073200009511f07b10087b158475010a03013d07840002510507501010095010120a01951160ff7b1098007b1590007b1688009515a0008411e0491158491150491140a000330740c8710849114850101469fc4911784911704911684911608317600a1001821770821878821968821a60d49808d4a707d487075107173308900002838833070133093300200a0d289a00330690000383673300160a040182670881681082695012183a4a4911387b18307b1728330780009518207b1a2050101af9fb390888000256289f000d2003880002a0000133079000028377a000330833090a0164173308800050101c93fa821718821910821a08821b3e07c800033e09c000033e0ab800033e0bb00003285afa3307a000330850101eb8fe8378330733093300200a0d01951110fe7b10e8017b15e0017b16d8019515f001951190e58411e06416956918104929c0034929b8034929a80380003307409568c0134929b00350102255fb33078400027b679800390784000255170407281e2e9517e08477e064714917184917104917087b6790004907956700108377e00333083300240a0201956918108197e4035247f886c2820a28e5175147299726873d0a956a381852475bcba58d0a282c1b5247300f61970a285b195147f6d373b7c5035247b00de3d00a28fd195147d79399f1010b5247dcab50ff0a285c185147289d7e27fc0851474d7d1a2ec30b524739ef983a0a289c165147118180640a28d51b492900074929f8064929f0064929e80695670010837700070a1001956a181095ab000682b7f80082a8000782b9f00082bae800d49808d4a707d4870751070628122b8267980081775617630728052b9567ff079577c102501026812e95670010837720073308440a020195691810959a000782a72082a81882a910d48707889801947852080628ea2a50102883f83a08b800037b6888003a08b000037b6880003807c000037b677833079000037b679800837733002a0a0433022c28254850122c2248826978d3980882698000d39707d4870782688800d3a808d4870751070628992a95670010837740073308240a0201956a181095ab000782b73882b84082b93082ba28d49808d4a707d48707520706289a2a9567ff079577810233084050102e41f89569ff079599198292800295980002828c78828b70828768d42b0ad4c708d4a808988820d4ca0a97aa20d4a80851080628fc297b62707b6c787b6b8000492958024929500249294802140a00000000cb92f1c29568ff07958861027b9a60027b67880050103013f90a0a826898004918084908481810000008956718104927600749275807492750074927480733080482678800501032fafb7b676833082082678800501034ebfb9568181048286807204928a0074928980749289007492888078268980097882098882014090000000018000000d49802956860179788209888209569a017979920d4890a82686897882098882014090000000004000000d4980b97772098772095688017978820d4780c3308ff3309ff7b626864270a01510706284d230a0c01330820ae87080a0c6478019569ff0795991982628800826b8000826c78826a707b68584916607b98e8017b9208024929f0017b9b10024929f8017b9c1802492900029567ff07957721029568ff07958801027b9a20025010366f3482628800826858c82807d8870882638000826c60c83c09c88909d3c90ad8c90bdaa80b826078c80c08c88b0bd88b04d8c808826a70c8ac0cc8c808c884049568ff079588197b8b98019568ff079588197b8990019568ff079588197b8788019567ff079577197b7ac0019567ff079577197b70b8019567ff079577197b73b0019567ff079577197b72a8019567ff079577e1019568ff079588c1019569ff079599a101956bff0795bb197bb4a001501038e134956aff0795aa1982a7c801837851080628ea2249268000491678491670491660283823492a4001492a3801492a3001492a280195670020837760f90a1001956a381895ab000182b73882b84082b93082ba28d49808d4a707d4870751070628992782679800817756176307288c279567ff079577810650103a082b9567ff07957719827768067b675095670020837780f93308240a0201956a381882a9580182a7600114080000000001000000d39808d478087b69389899208899019479938952090628342782a750017b674082a748017b6748956700208377a0f93308440a029568381895890001829780007b6790008297787b6788008297707b6780008297687b677850103cadf43a08b800037b68683a08b000037b68603807c000037b675833079000037b67980083777b677033003e0a04330240284e445012404b44826958d39808826960d39707d48707826868d3a808d48707510706281d2782678800826878d487078268900082698000d49808d48707520706283127826898004918084908481810000008048267700a0501520706286d269567ff079577410633084050104263f49569ff079599198292400695980006828b38828c30828728d42c0ad4b708d4a808988820d4ba0a97aa20d4a808510806281e26492918064929100649290806140a00000000e8657e679568ff07958821067b9a20067b62607b6b587b6c687b677050104437f5826970826760826858d4780a140b00000000010000001407fcffffff00000000d87907826868948794a752070628bb258267509777207b6a30987a208397049569ff07959919492900064929f8054929f0059568ff07958801067b6a287b9ae8057b6b50501046cef4826a308269708267509577dcd87907826868948794a7520706286625826738977720987a208397249569ff079599194929e005826848959b00057bb8c8008268407bb8d0009568ff079588e1057b6a507bbad80050104875f4826b701407bcffffff00000000d87b078268689487826830948752070628092583b744826878956aff0795aa1995ab00057bb8a800826880007bb8b000826888007bb8b8009568ff079588c105826990007bb9c00050104a1bf40a0a82689800491808490848181000000804956738184927a00149279801492790014927880133086482677050104c02f77b6738826770330850104ef5f6956938184829a801959a0001492ae000ff492ad800ff492ad000ff492ac800ff8268980097882098882014090000000008000000d498029568c0199788209888209569001a979920d4890a82683897882098882014090000000064000000d4980b9777209877209568e019978820d4780c3308ff3309ff64270a015107062818279568ff0795881949286005492858054928500549284805826770958900057b97688267687b97708267587b9778648a9567ff07957781059568ff07958861058269607ba98005501050882f9567ff0795774105330840501052c7f1956bff0795bb1995bc000582c74082c83882c93082ca28501254d14151070628932382677895b900057b9708826780007b9710826788007b97189568ff0795882105826790007b972064a77b6a9800501056adf2956bff0795bb19492bc00482675095bc00047bc7b8008267407bc7b0008267487bc7a800492be004492bd8048267287bc7c8003a072000023a082800023a093000023a0a3800027bb700057bc8f8007bc9f0007bcae80064b73308209569ff0795990105956aff0795aae104956bff0795bbc1044927d00482679800330058951120ff7b10d8007b15d0007b16c8009515e0008411e082bc7b1c4082bc087b1c4882bc107b1c5082bb187b1b5833020c82ab7b1b1882ab087b1b2082ab107b1b2882aa187b1a308296829a087b1a829a107b1a088299187b19107b183833000e28e0f4284b214929200449291804492910044929080495670010837720040a1001956a181095ab000482b71882b82082b91082ba08d49808d4a707d4870751070628232382679800817756170307282023956818104928400449283804492830044928280401956700019568401450105a4cf2956800018287187b6798008287107b6788008287087b67900082877b6780009567e00033084050105cf5ef826af8008268f0008269e8008267e000d49a0ad48709d4a909989920d4a808978820d4980851080628b8218268880082698000d4890982689800826a9000d4a808d498088e894926d8004926d0004926c8009568c0007b69c0007b6798003300f60028c8f0956738184927e0004927d8004927d0004927c80095670020837700f90a1001956a381882a7d80082a8e00082a9d00082aac800d49808d4a707d48707510706283d21826798008177561703072830219567ff079577010450105eab309568ff07958819828700047b679800958900038297f8007b6790008297f0007b6788008297e8007b6780009567ff079577e103330840501060f9ee956aff0795aa1995ac000382c7e00082c8d80082c9d00082cbc800501262c13e51070628c1208267800095a900037b97a800826788007b97b000826790007b97b8009568ff079588c103826798007b97c00064b77b6b98003300f60028d2ef492ae003492ad803492ad003492ac80395670020837700fc0a1001956a381895ab000382b7d80082b8e00082b9d00082bac800d49808d4a707d4870751070628472082679800817756170307283a20956740135010648c3195681810958900038297407b6798008297387b6790008297307b6788008297287b6780009567201333084050106612ee956a181095ac000382c72082c81882c91082cb08501268e13d51070628e11f8267800095a800027b87e800826788007b87f000826790007b87f80095680013826798007ba7000364b77b6b98003300f60028f6ee4929600449295804492950044929480495670010837760040a1001956a181095ab000482b75882b86082b95082ba48d49808d4a707d487075107062868208267980081775617230728652095670010837780043308040a020195671810957c000482c8800082c97882ca7082cb687b6898007b6a8800d48a077b6990007b6b8000d49b08d48707520706282d2033079000037b677883777b677033006a0a0401826978829708819810829950126c713c4926f8067b68f0067b67e8069568e0067b6ae006330750106e2dee4926d8064926d0064926c006023307209568c0064926c80650107010ee3309880002390788000256173f0b200388000240017b69389517e08479e07b696864913307900002837783993308407b67403300720a0901826a6882a71882a81082a90882aa501274c83c956b181095bc00047bcaa0007bc998007bc890007bc788009567a0069568a01450107692ee956800068287b8008262a0068289b000828aa80082689800d3870bd8870882679000d8790cdbb80c82688800d38a03d88a0a82688000d88208db3a08d39707d4b707db7c0851080628601f956718104927c0044927b8044927b0044927a804956780069568c01450107826ee826780068268880682699006826a98067b6a38067b6930067b6828067b672006826798007b675806826790007b675006826788007b674806956760069568400695692006826a80007b6a400650107a8f21826760067b6768826768067b6760826770067b6758826778067b6750956718104927e0044927d8044927d00464784928c80401956700069568e01450107c95ed956b000682b782b80882b91082ba187b6ab8057b69b0057b68a8057b67a0058267507b67d8058267587b67d0058267607b67c8059567e0059568c0059569a005826a687b6ac00550107ef6228267f8057b67608267f0057b67588267e8057b67508267e0057b6748826770330080000a04018269788297088198108299502282004a3a492698057b6890057b678805956880057b6a800533075020840005ec49267805492670054926600502330720956860054926680550208600e7eb9517e08477e07b67686471826938819756173f08480940019517e08477e07b673864718379330840826740330088000a09826a3833028a0028b63a826a3850228a00b03a8268687b8a187b89107b8b087b879567400550208c007dec826a4005826748058268500582695805826b98007b6bf804826b90007b6bf004826b88007b6be804826b80007b6be0047b6918057b6810057b67080595672005956800059569e0047b6a000550208e00b226956b000582b73882b83082b92882ba20956b18107bb7000595b700047b78f8007b79f0007b7ae800956800158267685020900078ec9567181049272005492718054927100549270805019567c0049568201550209200d3eb826ac0048267c8048268d0048269d804826b98007b6b7804826b90007b6b7004826b88007b6b6804826b80007b6b60047b6998047b6890047b6788049567a00495688004956960047b6a80045020940008268267a0048268a8048269b004826ab804956b1810492b4005492b3805492b3005492b28050195bc00057bca607bc9587bc8507bc748956740159568601550209600c0eb95671810492780054927780549277005492768059567400495688015502098001ceb826a4004826748048268500482695804826b60956c00037bcbf800826b587bcbf000826b507bcbe800826b487bcbe0007b6918047b6810047b67080495672004956800049569e0037b6a000450209a005125956b000482b72082b82882b93082ba38956b1810492ba005492b9805492b9005492b880595bc00057bcac0007bc9b8007bc8b0007bc7a8009567a0159568c01550209c0006eb82687850229e00ea388267700a050152070628c91b9567c0033308405020a00036e8956800038289d800828ad000828bc8008287c000d49b0cd4a708d4c808988820d4ac0c97cc20d4c80851080628f4194926b0034926a8034926a003140c00000000329ede279568a0037b6cb8037b69407b6a387b6b307b67685020a20011e9826a68826740826838d487071408fcffffff00000000d88a0882693094989478520806289e1983a704826848956a00037ba880008268507ba888008268587ba89000956880038269607ba998005020a400bee80a0a8268784918084908481810000008956718104927e0054927d8054927d0054927c8053308248267685020a600a6eb7b672882676833085020a80098eb956918104829e805959a0006491a20ff491a18ff491a10ff491a08ff82687897882098882014090000000008000000d498029568e01597882098882095692016979920d4890a82682897882098882014090000000024000000d4980b97772098772095680016978820d4780c3308ff3309ff7b622864270a0151070628001b492638034926300349262803492620038267687b6740038267307b6748038267387b67500395674003956820038269407b6958035020aa003e24956700033308405020ac0080e695680003828a18828b10828c088287d4ac09d4b708d49808988820d4b909979920d498085108062843184926f0024926e8024926e002140900000000bb9c05a99568e0027b69f8027b67687b6a387b6b307b6c405020ae0060e78267700a0401826b68826738826830d47809140a00000000010000001407fcffffff00000000d87b078268409487949752070628dd177b692082697882970881981082996f777b6a18977a206f88988820d48a0a9877206f98978920d4790998882083b7044926d802956b00027bb8d0007bb9c8009568c0027bbac0005020b000dde6826a688267189577dcd87a078268409487826820948752070628741783a724826848956a00027ba8a0008268507ba8a8008268587ba8b0009568a0028269607ba9b8005020b20094e60a0a82687849180849084818100000080695671810492740064927380649273006492728063308448267685020b4007be97b67203308208267685020b6006ce995691810959a0006481a4820492a8000ff491a78ff491a70ff491a68ff9568401697882098882095698016979920d4890a82682097882098882014090000000044000000d4980b97772098772095686016978820d4780c3308ff3309ff8267280a015107062815160a0c01330b20aeb7080a0c647b01826968826a388267308268404916387b6b40956c00027bcb407bc960492648027bc868492650027bc7704926580295676002956840027bca785020b8001622826a388ea78268405022ba002734520906283f16956720028268685020bc0044e4956b000282b73882b83082b92082ba28d4780b889c0294ac94bc520c06281216d49808d4a707d48707520706284919956700023308405020be0008e495670002827b18827c10827a088279d4ba07d4c908d47808988820d4c707977720d4870751070628cb15826780007b67e001826788007b67e801826790007b67f0019568e001826798007b67f80164977b69687b6a98007b6b90007b6c88005020c000dde48269688267900082688800d487071408e0ffffff00000000d88908826a980094a894785208062867158397208268487b68c0018268507b68c8018268587b68d0019568c0018269607b69d8015020c2008be48267703300c4000a048269783302c60028e5338269785022c600df33d4780298aa206f99979820d4a808989920492698013a0a6000023a0b6800023a0c7000023a077800027b6ab801956a00017babb0007baca8007ba7a0007ba990007ba888003308409569a001956a80017b6280018267683300640128ebe54929c0064929b8064929b0064929a806956700108377c0060a1001956a181095ab000682b7b80082b8c00082b9b00082baa800d49808d4a707d4870751070628831482679800817756170307287614956818104928e0064928d8064928d0064928c80601956740079568e0165020c80091e4826758077b679800826750077b679000826748077b678800826740077b678000956720073308405020ca0038e2956b000782b73882b83082b92882ba205022cc00483251070628091482678000956900077b97826788007b9708826790007b971095680007826798007b971864a77b6a98003300f6002823e3956738184927c0004927b8004927b0004927a800956700208377e0f80a1001956a381882a7b80082a8c00082a9b00082aaa800d49808d4a707d4870751070628981382679800817756170307288b139567ff079577a1033308405020ce008ce1956aff0795aa1995ac000382cba00082c8980082c9900082c78800d49b0bd48709d4b909989920d4b808978820d49808510806284313492a8003492a7803492a680306089568ff0795888103492a70037b6798003300f6002868e2492a0004492af803492af003492ae80395670020837720fc3300d0000a10330738183302d200286131330738185022d2005a3151070628e6128267980081775617030728d9129567a013826890005020d40009e395681810958900038297a0007b679800829798007b679000829790007b678800829788007b678000956780133308405020d600a8e0956a181095ac000382c7800082c87882c97082cb685022d80075305107062874128267800095a900037b9748826788007b9750826790007b975895686013826798007b976064b77b6b98003300f600288de1492a2001492a1801492a1001492a080195670020837740f90a1001956a381895ab000182b71882b82082b91082ba08d49808d4a707d487075107062806128267980081775617030728f9119567ff07957781043308405020da00fadf956aff0795aa1995ac000482cb800082c87882c97082c768d49b0bd48709d4b909989920d4b808978820d4980851080628b411492a6004492a5804492a480400089568ff0795886104492a50047b6798003300f60028d9e082679800817756170307288311492a0002492af801492af001492ae80195670020837720fa0a1001956b381895bc000182c7f80082b8000282c9f00082cae800d49808d4a707d4870752070628e612492b2002492b1802492b1002492b0802019567e0129568401a5020dc0060e195671810957c000282cbe00082cad80082c9d00082c8c8007b6988007b6b78d4b9077b6898007b6a8000d4a808d487075107369567c012826890005020de001fe1956a181095ab000282b7b80082b8c00082b9b00082baa800d49808d4a707d4870752072103956738184927600249275802492750024927480295670020837780fa0a1095683818958900028297607b6780008297587b67788297507b6770829748280404492a0001492af800492af000492ae80095670020837720f90a1001956a381882a7f80082a8000182a9f00082aae800d49808d4a707d48707510706283f10826798008177561703072832109567ff07957741043308405020e00033de9567ff07957719957900048298407b6898008298387b6890008298307b6880008297287b6788005020e200b2dd8267980082688000d4870782688800648a82699000d49808d47808988820d49707977720d4870751070628c60f3a09b000033a08b800033807c00003956bff0795bb19492b200495bc00047bc7187bc8109568ff07958821047bc90864a75020e400dcde330820826788003300f80028e3e151473182a0700a284f11491a60491a58491a50491a4895670020837780f80a1001956a381882a75882a86082a95082aa48d49808d4a707d487075207450f8267980081775417233b0f956700208377a0f83308040a0201956b381882b87882b7800014090000000001000000d38909d47909988a2088aa01947a939a510a030f82b97082ba68956bff0795bb1995bc00037bca487bc9507bc8589568ff07958861037bc76033075020e60021de9569ff07959919492940034929380349292803023307209568ff0795884103492930035020e800f8dd33084033075020ea0005e19518e08488e07b6898006481837783893308403300ec000a0901826a980082a71882a81082a90882aa5022ee00c12c956b38187bbaa0007bb998007bb890007bb788009567ff07957721039568c0185020f0008ade9567ff07957719957900038298207b6898008298187b6890008298107b6888008298087b6880009567ff07957701033308405020f20026dc956aff0795aa1982a7000395ac000282c8f80082c9f00082cbe8005022f400ed2b5207ef0d8267800095a900027b97c800826788007b97d000826790007b97d8009568ff079588e102826798007b97e00064b77b6b98005020f60003dd330820826798005020f8000ee083780133092033070a0d01956738184927400249273802492730024927280295670020837760fa0a1095693818959b000282ba2882b73082b83882b940826b78956c18107bcb6002826b80007bcb5802826b88007bcb5002826b98007bcb480295cb00027bb980007bb8787bb7709567a01295688012956960127bba685020fa001f119568181095890002829788007b679800829790007b678800829798007b6780008297a0007b677895674012826890005020fc0030dd956b181095bc000282c72882c83082c93882ca407bbae0017bb9d8017bb8d0017bb7c8018267787bc78267800095bc00017bc7f800826788007bc7f00095672012956800129569e011826a98007bcae8005020fe00861295681810958900028297207b6780008297187b67788297107b6770829708017b676833079000037b67980083777b6760330000010a040182699800829708819810829950220201c729956918104929c001959b00017bb8b8007bb7b0009568c0117bbaa8003307502004017adb956918104929a0014929980149298801023307209568a011492990015020060158db9517e08477e07b678800647133084033075020080159de9518e08488e07b685864818377838933084033000a010a09826a5833020c0128292a826a5850220c01232a826888007b8a187b89107b8b087b879567801150200e01efdb956b181082ba680182b7700182b8780182b98001826c80007bbc2001826c787bbc1801826c707bbc1001826c687bbc080195bc00017bc9407bc8387bc7309567601195684011956920117bca2850201001ff19956a181095ab000182b76082b85882b95082ba48956b381895bc00027bc780007bc8787bc9707bca689568a01a8267880050201201e7db956738184927a00249279802492790024927880201956700119568c01a5020140142db956b181082bae80082b7f00082b8f80082b90001826c80007bbca000826c787bbc9800826c707bbc9000826c687bbc88007bb9c0007bb8b8007bb7b0009567e0109568c0109569a0107bbaa800502016015219956a181082a7c80082a8d00082a9d80082aae000956b3818492bc002492bb802492bb002492ba8020195bc00027bcae0007bc9d8007bc8d0007bc7c8009567e01a9568001b5020180126db95673818492700034927f8024927f0024927e80295670020837720fb0a1095673818957900028298e8007b6888008298f0007b68588298f8007b6850827700037b6748956780108268900050201a0153da956b181082ba6882b77082b87882b98000826c487bbc20826c507bbc18826c587bbc10826c88007bbc087bb9407bb8387bb7309567601095684010956920107bba2850201c016e18956a181082a76082a85882a95082aa48956b381895bc00037bc7207bc8187bc9107bca089568401b8267900050201e015bda82689800502220013e288267600a05015107930995670010330840502022018cd7956718108279957800ff828af800828bf000828ce800d49b07d4ac08d47808988820d4a707977720d4870752074b099567ff079577197b69880064794927d8074927d0074927c8071407000000006e6840999568ff079588e1077b97e00764c77b6a587b6b507b6c90005020240156d8956738184927400349273803492730034927280395670020837760fb0a1001826c900082678800826858d487071408fcffffff00000000d88c08826950949894785108c508956738188279280382783003827a3803827b400383c704956cff0795cc197bcbc00795cb00077bbab8007bb8b0009568ff079588c1077bb9a80050202601d1d7330028010a0a8268980033022a01281e278268980050222a01172795673818492760034927580349275003492748033308248267900050202c01adda7b674882679000330850202e019eda9569381848296803959a0003492aa000ff492a9800ff492a9000ff492a8800ff8268980097882098882014090000000008000000d498029568801b9788209888209569c01b979920d4890a82684897882098882014090000000024000000d4980b9777209877209568a01b978820d4780c3308ff3309ff64270a0152072e0a9568ff079588194928600749285807492850074928480782679000958900077b97688267507b97708267587b9778648a9567ff07957781079568ff0795886107826988007ba980075020300130139567ff0795774107330840502032016ed59567ff07957719957900078298407b68588298387b68508298307b6888008297287b679000956738184927c0034927b8034927b0034927a803956700208377e0fb0a100182675882688800d4870782695082689000d49808d47808988820d49707977720d487075207f106956a381895ab000382b7a80082b8b00082b9b80082bac000956bff0795bb1995bc00077bca207bc9187bc8109568ff07958821077bc7088267900050203401fcd5826758826850d487071408e0ffffff0000000082699000d88908826988009498947851088a0682679000837720826868956aff0795aa1995a900067b98e8008268707b98f0008268787b98f8009568ff0795880107826980007ba900075020360199d5826760330038010a048269980033023a0128f2248269980050223a01eb24d4780298aa206f99979820d4a8089899203a0a0000029567ff079577197b7ae0063a0a0800023a0b1000023a0c1800027b7ad806957a00067babd0004927c0067bacc8007ba9b8007ba8b0003308409569ff079599e106956aff0795aac1067b72a806826790003300640128e7d69567ff079577410233084050203c01c2d39567ff07957719957900028298407b6890008298387b6888008298307b6880008297287b67980033003e010a0c330240012834235022400131235208720564799877205207690583977b6790008267980064987b69880050204201b7d795681810826988007a89a8078377956800108388c00733090a0b956718108177a8070182689000ac8728050a0c01647898772052071c05826798007b6890005020440172d78378816990003307010a0d28460895ac000182c9e00082c8d80064ab82cad00095bc00017bc7487bca507bc8589567ff07957781019568ff07958861017bc96050204601ca129568ff0795881995890001829780007b67608297787b67708297707b67788297687b678000019567ff079577410133084050204801a3d2956bff0795bb1982b3400195b80001828c38828a30828728d43a09d4c708d49808988820d4c909979920d4980852086004492b1801492b1001492b08011402000000003ba458c99568ff07958821017bb220017b6788007b63587b6c507b6a4850204a0177d3826a8800826758826850d487071408fcffffff00000000d88a08826948949894785108060483a70482688000956bff0795bb197bb8e8008268787bb8f0008268707bb8f8009568ff07958801018269607bb9000150204c011dd30a0a826898004918084908481810000008956718104927e0074927d8074927d0074927c8073308248267880050204e0103d67b6798003308208267880050205001f2d5956818104828e807209568381849084918f84918f04918e89568e01797882098882095692018979920d4890a8268980097882098882014090000000024000000d4980b97772098772095680018978820d4780c3308ff3309ff8267680a01520711020a0c01330c20aec7080a0c647c019569ff07959919826a88008262588267508268484916687b6c98007b9c88007b9aa800492990007b98b000492998007b97b8004929a0009567ff079577c1009568ff079588a1007b92c00050205201900e826a688ea78268980050225401a0205109f4059567ff07957781008268880050205601bad09568ff07958819828780007b6798008287787b6788008287707b67688287687b67589567ff079577618268900050205801b3d2956bff0795bb1982ba4882b75082b85882b960826c98007bbc826c88007bbcf8826c68956200107b2c08f8826c58956200107b2c00f87bb9207bb8187bb7109567ff079577419568ff079588219569ff079599017bba0850205a01b910956aff0795aa1982a74082a83882a93082aa28956b38187bb7407bb8387bb9307bba28956860188267900050205c01a7d29567e00733084050205e01eccf956b000782b7f80082b8f00082b9e80082bae00050226001f81f5207bc018267587b67c0078267687b67c807826788007b67d0079568c007826798007b67d80764a77b6a980050206201dad0826760956b00077bb798008267707bb790008267787bb788003a074000023a084800023a09500002826a80007bba80007bb7b8007bb8b0007bb9a8003a075800023308209569a007956a80077bb7a00082679800502064015dd233073308502066018ed38378330733090a0d285b039567ff079577e1003308405020680120cf9567ff079577198278e0007b6890008278d8007b6888008278d0007b6880008277c8007b67980033006a010a0c33026c0128921e50226c018f1e5208d00064799877205207c70083977b6790008267980064987b69880050206e0115d395683818826988007a8908837795680020838840f833090a0b956738188177082861fb956780023308405020700193ce95680002828798007b679000828790007b678800828788007b678000828780007b679800330072010a0c3302740128081e50227401051e520846647998772052073e83977b6790008267980064987b698800502076018dd295681810826988007a8988068377956800108388a00633090a0b956718108177880628d7fa0033073308330078012859d233085020780154d2837833070133090a0d282002330733007801283cd29569ff0795991949299802492990021407000000007174cd307b97a0029568ff079588a1024929880233073300840128f2ce49267007492668074926600714070000000005202a1f956860077b67780733073300840128cbce9569ff0795991949295806492950061407000000007174cd307b9760069568ff0795886106492948063307330084012899ce9569ff07959919492998044929900414070000000005202a1f7b97a0049568ff079588a104492988043307330084012867ce3308900002838828480133089000028388283e013308900002838828340133089000028388282a0149263001492628014926200114070000000005202a1f956820017b673801330750207a011cce390888000256181f14200388000220330890000283882831023308900002838828270249265001492648014926400114070000000067659939956840017b675801330750207c01d3cd826738817756171f0b826838480820013307013309048268400a0d0133070182684033090a0d289a009569ff07959919492998064929900614070000000005202a1f7b97a0069568ff079588a106492988063307330084012875cd5247cc2071074b95671810492700044927f8034927f0034927e803956700108377000433007e010a10330718103302800128631c33071810502280015c1c51078f0033089000028388281482679800817701510713330890000283880133070133090a0d0133089000028388330733090a0d28f3492670034926680349266003140700000000372937a4956860037b67780333073300840128dacc9569ff079599194929980749299007140700000000372937a47b97a0079568ff079588a1074929880733073300840128a8cc826798008177561703143308900002838833070133090a0d28804926b8004926b0004926a0000408330780009568a0004926a8005020820171cc390888000256289f00182003880002a0003307900002837880002864ef3307900002837880002858ef9569ff07959919492998054929900514070000000099d846da7b97a0059568ff079588a105492988053307330084012813cc330890000283883307010a0d01492670014926680149266001140700000000372937a4956860017b677801330750208401e3cb330804330750208601f0ce837801330701330904330088010a0d019511c07b10387b15307b16289515408411e0647683173308040a0201821718821810821908821ad4790bd48a0cd4bc0c98cc20d48b0b97bb20d4cb0b520b1f7b6a7b69087b68107b67189551c0821038821530821628951140320033089000028388330701330933008a010a0d01951140ff7b10b8007b15b0007b16a8009515c0008411f082908282828a087b1758829b08d60207ca0a06c86707d86706d60a0cc86c0ccab206c867077b1750d86707d6b206c86707c8c707d8c70cd6ba06c86c0ccaba06c867077b1748d86706c86c0c7b1c40829310829918828418828710ca3a0c7b1920ca2906c8c6087b1b28ca7b06ca0409c86909ca2306ca070cc8c6067b1330d6230b7b1b10c88b0bd60703c89308d8c6097b18187b1b08c8b80cc8c9097b1438d44a0cd47208d4c808821b40821c48c8c606d8c604c8b909c8490951088f00d3b9087b1948821948d8b909db89047b1640821810821908d889068ea98218208e8cd2c909d6280c8eccd4c909643b821330d63a0a8eaad4a909d469097b1910821918d8b909821b288eba8216388e6cd2ca0ad6060c8eccd4ca0ad67b0c8eccd4ca0ad4a909d4830ad4670c8216408eaa8eccd2ca0ad4a909821810d49808821948d4480784770152072dca02078218587b878217507b87087b86107b8918955140ff8210b8008215b0008216a8009511c000320049219000492188004921800033028c01140700000000717b484e01951880007b179800330750208e01a4c949117849117049116011330704951860491168502090018bc9390888000256183f0b2003880002400133089000028388330701330924330092010a0d019511f0fe7b1008017b1500017b16f800951510018411f0829310829c188296088299d4c60bd4390ad4ba0a7b177b1aa800510a3c0482871882801082820882847b1460683895884068cbdac80b7b1930689895894068687b1638da6908958980007b1c407b1348d4c30adaa90bd8890994a96808958840687cda780c6848958840682ada280a95a88000d47006da680cd8a8089468d38903d88906d8cb0ada3a06c989098864019544ffc9a90a9a63c9cb088e398e4bda490b7b18a000888900018599018eacdbac09db6b09821660d4060bd4720cd4cb0b8218a800888c0188bb01d4cb0bd4b9097b176864789498640b949b7b1258642c949c949652094d038217a0008579ff00d43902d44a09d492098217510939038219a0009598017b18a8007b1050888701c8a7077b178000d48707887701c837077b1770d83707c847077b1778330294019a96ff009a698000017b1628821760821858502096018b177b1798007b1890008217508218686469502098019b177b17880082179000d487077b1790008218a0009a897f821760821658646850209a017717821928889a80007b1aa000821b9000dbab08821b68da9b087b18900082189800821b8800d4b808daa708821750da97087b189800821760646850209c013817821c70821978821a8000d49a0a8219a800d4c909d4a909821aa00093a87b18880093a77b17a000510902028216a80095698082175082186850209e01d4167b17287b181882176082185864695020a001c0167b17107b18209a6980008217508218685020a201d016821920d49808886980007b1920821a18da9a08821a58db680a7b1a58821810d48707821828da9807821860db67087b186082175082186864695020a4016b168212583304821920939893977b1768821a3088a701821938c979077b1720d49a07887701821948c9790b7b1b18d87907821940c979097b191095aaff7b1a0882106001491128980b3f972a016426d4ba02970b018210900098093fd4b9097b1960821720d32703d8270b821708644cd89704db3b0497880182176898793fd498087b185898693f977701d497039707018218980098893fd4970797890182188800988b3fd4b909978b018216a00098603fd40b0b976601d46c0c7b1ca00086bb7b1b880086987b18980086777b179000821918c93907d84707d83909821b10821a58c9ab0bc99b0bc97b0b99bb3f821730d27b087b1850821c38d2bc0cd3c207d8c206821460d88400da7006821948d2b909c99308c968077b1768d86807d89309821640d2b606c96a08c99808c97808c9c20ac90a02821750c97400821ca80082168000d46c07887701821a70d87a09c97a0788ca01c9a606821a78c99a0a95ccff7b1680007b1a78d4a6097b1ca800d47c0ad4a90984b4017b17705209c7fe2808330449112801821a980098a73f82189000978801d48707821c880098c83f97aa01d4a8088219a000989a3f97cc01979601d46406821928d49a0ad4ac0cd4890bd47908821728058217017b767b7c087b7b107b78189551f0fe82100801821500018216f8009511100132004921e0004921d8004921d0003302a601140700000000717b484e019518d0007b17e80033075020a801cfc44921c8004921c0004921b000123307049518b0004921b8005020aa01b1c4390888000256183f0b20038800024001330890000283883307013309243300ac010a0d019511807b10787b15707b1668951580008411f0829b828a829608828308829410828c10829918828818d363027b1608d863067b1b187b1a10d8ba0a7b1ada2a06d3980ad89800d84c02daa200d34c0bd4ba0adaa600520046c94c0ac99808c92808d86a09c99808c96a0a821908c99309821bc9b909821b18821c10c9bc0b7b7b7b79087b7a107b78189551808210788215708216689511800032004911504911484911403302ae01140700000000717b484e019518407b175833075020b001ccc3491138491130491120113307049518204911285020b201b3c3390888000256183f0b20038800024001330890000283883307013309243300b4010a0d01951170ff7b1088007b1580007b1678951590008411f064728289827408828c088273959a1fd89a00c80c0984aae07b1308c8a303d8a30bc8490ac8ba0ad39a06d89a07da6b07822b18d8c90c828610822210828818da000cc86c0cd86c06c82c09c89707d8c90cd89709c8b808c86808c8c808c8980c8ec88e79dbc809d4c7088ea6db8906520657821808d88308d34a09d84a06da9806d82708d3bc09d8bc0bda980bd32708d49808da860b520b307b13507b1a587b17603307409518507b1c685020b601c8c2955170ff82108800821580008216789511900032005022b801f1115020ba01a7c2491128491120491110413307049518104911185020bc018ec2390888000256183f0b20038800024001330890000283883307013309243300be010a0d019511907b10687b15607b16589515708411f0648a82841082880882920882a67b16829b7b1b08829010d3820c7b1c28d8820cd86b0b821328da3b0c64b682aa187b1a188299187b1910c9400ac9ca097b1920d8ca097b1428d8400b821418821a10c94a0ac9ba0ac99a0ac98209c969098212821b08c92b0b8e9c88bb2085bb01db9c0b8fa68219208e9cdba60cd4a909db9c0b510b6c6476821a28d4a207d44809d49707987720d4a909979920d4970752074e95173064285020c00172c0821748821840821938821a30d4790bd48a0cd4bc0c98cc20d48b0b97bb20d4cb0b520b277b6a7b69087b68107b671895519082106882156082165895117032000033089000022808330890000201838833070133093300c2010a0d018089889a019aa89599ff97aa20989b20c9ab0b988c20c9ac0cd4cb0bd4cb0b520b107b797b78087b78107b781832009511b07b10487b15409515508411f04911304911284911203302c401140700000000717b484e019518207b173833075020c601ecc049111849111049011133070464184911085020c801d5c0390888000256183f0b20038800024001330890000283883307013309243300ca010a0d019511907b10687b15607b16589515708411f0828a187b1a08829b1882847b14828a08829608829c828310829210c8a609c8c404d8c40cc8c909d36900d86906da0c06c83208821c08c8bc0cd8280bc8cb0bc8680cd88c08c88b00d3a90bd8a90a8218d88406dbba06d83c02821808d3800bd8800adab20ad33c08d4b808db8a0652061f7b747b79087b7c107b701895519082106882156082165895117032005022cc01500f5020ce0106c0491128491120491110113307049518104911185020d001edbf390888000256183f0b20038800024001330890000283883307013309243300d2010a0d01951180fe7b1078017b1570017b166801951580018411e06476492138014921300149212801492120010195170001951820015020d40183c082191801821a1001821b0801821c0001d49b07d4ac08d487075107e9007b1c187b1b207b1a287b19307b1638492158014921500149214801492140019517e000951840015020d60139c08210f8008216f000821be8008218e000140c000064a7b3b6e00dd6c803cacb07c87303d87307d6cb09c89707cac604c87404d8740acac007d6c609c89707d40b0bd48606d46b0bc8a702510b17942ad89707d6c0098e99d49707d4a70752078700cac8078218187b18407b17608217207b17487b13688217287b17507b14708217307b1758951780009518609519407b12785020d8014ef5821790008218980082198000821a8800821b387bb7107bb8187bb97bba0828184916184916104916081407000064a7b3b6e00d7b6701955180fe8210780182157001821668019511800132004921d0004921c8004921c0003302da01140700000000717b484e019518c0007b17d80033075020dc0138be4921b8004921b0004921a000113307049518a0004921a8005020de011abe390888000256183f0b20038800024001330890000283883307013309243300e0010a0d019511c0fa951800057b80387b85307b8628951540058411e064769517000449173849173049172849172095170004951820045020e201b0be95170004827918827a10827b08827cd49b07d4ac08d4870751075d027b16387b1c187b1b207b1a287b19309517e0033308405020e4014cbc951a000382a8f80082a9f00082a7e80082a6e0007b17f0007b18e000d48707d49608d478089888207b19e800d49707977720d487075207670a951900034929d0004929c8004929c000140700000000cb92f1c29518c0037b97d80064675020e60123bd0a0a64677b16f8003306900003210398000321039000032003a00003000008951800044918584918504918484918403308045020e80103c07b17d8003308208217f8005020ea01f2bf9519000448196020492998004929900049298800492980007b16c80097682098882014090000000018000000d498069518400497882098882095198004979920d4890a8218d80097882098882014090000000004000000d4980b97772098772095186004978820d4780c3308ff3309ff7b16d00064670a01520786080a0c01330820ae87080a0c64780133067b18d800951a00037ba8608217f8007ba78000491a688217f0007ba78800491a708217e8007ba79000491a7895178003951860038219e0007ba998005020ec0183f88212f8008218d800c82807d887088213f0006439c88909859a889bdaa80b821ce80064c8c88b0bd88b048888821ae00064a6c86808c88404951600037b6b107b69087b677b6a387b6c307b63287b62209517400395182003951900037b64185020ee0143f9821740038378510861951b000382b95882b85082ba48951b00027bb7c0007bbac8007bb8d0009517e0029518c0027bb9d8005020f00125fa951800028287f8007b17e0008287f0007b17d8008287e8007b17c0008287e0007b17b800281c330a330933082845074921b8004921c0004921d8004921e000019517a0023308405020f201e8b9951a000282a9b80082a6b00082a8a80082a7a0007b18e8007b19f000d48909d46708d49808988820d46909979920d4980852080708951a0002492a9000492a8800492a80001409000000003ba458c9951880027ba998007b17f8005020f401c1ba8219f8007b16b0008217f000d467071408fcffffff00000000d88908821ae80094a894785108b3078397048218b800951b00027bb8608218c0007bb8688218d8007bb87095186002821ae0007bba7864965020f6016aba3300f8010a0a8218c8003302fa0128b7098218c8005022fa01b009951700044927d8004927d0004927c8004927c00033082464675020fc0148bd7b17e00033082064675020fe0139bd4821e004209518000549181849181049180849089518c00497882098882095190005979920d4890a8218e00097882098882014090000000024000000d4980b9777209877209518e004978820d4780c3308ff3309ff8217d0000a0152075d060a0c01330b20aeb7080a0c647b0133068219f800821af0008217b0008218e8007b1bf000951c00027bcb7bc920491c087bc828491c107bc730491c1895172002951800027bca3850200002ecf58218f000888820858801330764793306da6809510979069517e0018218f8005020020216b88212f8018213e001821ae8018219f001330bb405d6b308caba0cc8c8087b18a000d8c808d6ba0cc8c808cab90cc88c0c7b1c9800d88c0ccab206d42a08d49307d48707d6b908c88606c8c604510717944cd88607d6b2088e88d48707d4c707520715069636b405330740c7de00d67308ca7a0b642cc88b02d8b208d67a0ac8a808ca790ac8a800d88008d67909ca7c0ac8a909c8890a821c9800d4c608821ba000d44b09d49808ca730351085604d4c607d44b08d48707887701d403087b1258d4a209d49808888801d487077b17f80068c8958840643764a3684ada480a7b168800686895884068b9dab809959880007b149000d44c0cdac80ad8980b94cb6808958840683cda380c647468789588406829da280995988000d43006da680cd898079467d37b08d87b06d8ca09da89068868017b14509582ff9a64c97b0bc99b0bc9ca087b14f0008e478e29da27098eb7888a000185aa01dbb70adb690a8219f800d4a9097b1348643a949a7b104064079497821c58821350949c6436949652096703642464828589ff008210f000d40909d44b08d4980851084e039528017b12e8007b18f800888701c8b7077b17d800d48707887701c807077b17c800d80707c847077b17d0009a26ff009a698000643782185850200402f9067b17f0007b18c00082174082184864695020060209077b17e0008217c000d487077b17b8008218e8009a897f82175082185850200802e7066469886b80007b1bc000821ab800dbba088216f800821a48da9a087b18e8008218f000821ae000d4a808dab708821740da97087b18f00082175082185850200a02a406821ac800821bd0008219d8006470d4b907d4a609d497078219c00093987b18e0009390510728029569808217408218487b10c00050200c0244067b17b8007b18a800821750821858646950200e022e067b1780007b18b0009a698000821740821848502010023c06821ab000d48a0a886880007b18b0008219a800da890a821958da690a7b1aa80082198000d479098217b800da8709821750da67097b198000821740821848646950201202d005821480008213a8008210c00033028219b000939893977b17b80082198800889701821aa000c97a077b1778d4a907887701821a9800c97a0b7b1b70d87a07821a9000c97a0a7b1a689599ff7b1960017b12c0007b16f80049218000984b3f973a01d4ba0a974b018216e80098693fd4b9097b19b000821778d3a702d8a70b821760d89704db2b049788018217b80098793fd498027b12a80098393f977701d497039767018218f00098893fd497079789018216e000986b3fd4b909976b01640698003fd40b0b9766018218c000d468087b18c00086bb7b1be00086987b18f00086777b17e800821970c93907d84707d83909821b68c92b0bc99b0bc97b0b99bb3f82178800d27b04821ca000d2bc0cd3ca07d8ca068212b000d84200da700682199800d2b909c99308c968077b17b800d86807d8930982169000d2b6068218a800c968088216f800c99808c97808c9ca0ac90a038210c000c94204821cd800d4c607887701821ac800d87a09c97a07886a01c9ac0c821ad000c99a0a9566ff7b1cd8007b1ad000d4ac09d4760ad4a90984b2017b17c8005209b8fe280933024921800001821af00098a73f8218e800978801d47808821ce00098c73f97aa01d4a707980a3f97cc01970601d4620682198000d49a0ad4ac0cd49707d4890a8213500185681027d4ca0ad4a707d48707821258821040821a485207de018217187b1700017b1320018217207b1708017b1228018217287b1710017b1030018217307b1718019517400195182001951900017b1a380150201402b1ea821758018218500182194801821a4001821638017b6a7b69087b68107b67189551c0fa951700058270388275308276289511400532009517a0033308405020160295b2951800038287b8007b17f8008287b0007b17f0008287a8007b17e8008286a000330018020a0c33021a0228640250221a0261025208b20064769877205207a90083677b17f0008217f800646850201c0295b67a16a00483778318a00433090a0b8117a004286e9517400233084050201e0222b2951800028287587b17f8008287507b17f0008287487b17e800828640330020020a0c3302220228f50150222202f201520843647698772052073b83677b17f0008217f80064685020240228b67a16200583778318200533090a0b81172005018218f000ac870f0a0c0164769877205107e80000330890000283883307010a0d014921d0014921c8014921c00133022602140700000000717b484e019518c0017b17d801330750202802b1b24921b8014921b0014921a001113307049518a0014921a80150202a0293b2390888000256183f112003880002403308900002286e3308900002286749219001492188014921800133022c02140700000000717b484e01951880017b179801330750202e024bb2492178014921700149216001113307049518600149216801502030022db2390888000256183f112003880002403308900002280833089000020183883307013309240a0d018217f80064685020320212b5837883693307010a0d2815ff33075020340233b5330701502036022ab56f77977a206f88988820d48a0a9877206f98978920d4970798882032028269980082970882988199106f77987a206f88978b20d4ba0a9777206f99989920d4970798882032028268900082698000d49808826a880082699800d4a909d48909989920d4a808978820d498083202888820858801dba7088ea78ea9daa709d4aa07da78093202d49707d48b09d47909989920d48707977720d4970732028218f8008219e800d498087b16f800821af000d4a609d48909989920d4a808978820d498083202d49707d48a09d47909989920d48707977720d4970732026f776f886f996faa320282a71882a81082a90882aa6f776f8b6f996faa3202c8760a95ab000382b7f80082a8000482b9f00082bae800d49808d4a707d487073202491140491138491130140700000000717b484e9518307b174833073202491808490833070000087a8710320282970881981082996f7a97a7206f889888203202849a40520a195109148d9a40cfa80ad09808d09707d4a707320032009597c0d0780733083200849a40520a195109148d9a40d0a70acf9707cf9808d4a808320032009598c0cf870833073200490a21a11a4292d210a1925429a42449922449922449922449922449922449922449922449922449922449922449aa9294529294942454a5242549922449922449922449922449922449922449922449499294a4aa24254994a434494292922425494a5292aaaa242549492a498a88889424494a92a442a5949224a59492a4922222a284524949499122458a142952a428491111519224082161284d4a432244444492902424499a2449124a29a13429248924841018a22a429242082151a8d288888814114122428810494a124594460412108104121048402001018104121111d1888888244914890811694492a42484081112a2948424924892883422499224110991882449922449222202888808450a2222221192081122222209209144922480249124e9a4498d4424494444444444448824912449922449221189484422129188444444442442244a22492222221a91244992281211229188342202489254128944a48888442209212121214a4a4292244912494492440aa4494442242249922449222280884892902401049054922489444444222149924a922412894844244202484a4912898888888808450a4444441292424484104224012492489204902492a4934844442249524444224424442249429248241211294224129148442442082122a244444444242222529224494992a4942449121111d188244992449188881011229148149110119124499288442445444444222222a21111912489221121121111111111099188880849444444444414918888884644442449a24884884422918884882409494444444444118988886844922449a248441a11492212912421254d52888888424448440821824952a8244d9242444444448888884822892492244944444484888888888888888888089148241211518808519288884422111189108944228926298888888288908820492932492551220992a40822222222222222222222882489888888041111212288888888888888888888202222222244924404111111114444242291484444444410491211111111111124489348101111499224898800229224489200924a928844221241494144442441521011111149024824912409204924493a898848241211892012449292244912110144244990264900012495244925252949222222822449294922128948042505222222099204111122229248920490249224274d6a9224914422119120254822412449524992241244929224491211111111252282442480442549241291081225922029498410424444442422128988886844444492248a4444848820222222221244920449449148448a484444443422229224512422412422229224491211444444222222a28844904491882022222222221244449220894824129122121111d18824499244918804918824499224890822222251242222a211111149928808114144444424114922828888882411111111452492248988886844442449a24844824824128944109128922449420891882422058948204912d148922411858834120124494512892411298844844444908224aa44234941444444441089442291884810898888202222222222a208124153232222a288244944444444441211092222222222114144924444a48888888888202291249910251a494144444414444448449044294852254a24412429828888884824129124221244244944248908222242441011111189442222222282888888880811111111444444441111914824228824912449244944248824894892882082342241141191244922124544001151124144444434220920a98888884422222222882212414444248244414484104224012492489204902492a42312111191242922222288481089244924222222a2892492248988888848248948044902884445249188442222224814910892928448841022222222111111918804914824128928124489228a20228aa888112d11111429115144928888049188244962448248449224491211114044449220920490542422914844248222051111910822114488924412492401248924c9d1a44622492222222222222248114444049188449244228824491449442292442291049124892489082241444404914844444411242291082144444448444450415522124422222222a24810258a2882881451914482888888888822414a8a28828828a222b22205a55224121140444491880820a24824228088882291880022228a84124a28a1444400110521825042898800220a52249334a9442202888828128888888828221144a868425343551111404491484400111145a208a58a08222208211022211289082022a248288d8800220a52d0249a2449a5494a9224294992a4508a4644442a49922449922449922449922449922449922449922449124992242925a5a424494a494949924a9224494a9288882822228011054924094204434934222292a424452429a5a4944492a4524a8924254992944a444a9224922455a9222249118924912449226292202229884844928244449288489248411289248a222249902405492441124992244992a420a592244992244992494a22499294244992249244924892288a22499224499224499224499224492292244992482249a23212492489244992544b12111145440430a22022242208110c25d1248954922449929424499224499292a4244912258900260549240942044349342212a9a424499224499224499224a9a42449922449922449101189822089244188602889264952922a4992a42449922449929494a49424254992240549922449529224494361295a4a922449494a92248900260549528210c150124d92244925254992244992242949922449499224054112498210c150128d88881411212288884812499288888820222280244992244992949444922449924492202222492949008d88882222021851101112118408869268449248912411412429492449224144444424492489888800220a2a420801912409221144444444124022892492009244924447935a44221291884444041149944a9414259194241191204a24898888882022222222aa1211311244444444922489888800222288880490a84844229188144411892022225210290891a448228924802491247134a9454444942449448248aa4444101111492249124992242929890892922449924422492449922451aa442911492aa55222494992a4245129924452a9a48a8a4812894822492411518288a420221149822222914444924412444449a2289244109114444412442222494422492405115154442249224924c98848924822499244124912492249492251144592244922912492481249241249128924922492882489a818892492244924494692249188442422111111444464492292449120222222228a0451a28882282a8a049148241245829414511045c5484b0ca51111018c28880889084204a150444400230a224222821041282c6914544a41825292921429a52425292211499294a4929424498a48449224254992aa4a525589888824250920a9145252292549925452499224951400",
          "opcodes": ""
        },
        "methodIdentifiers": {
          "NATIVE_ASSETS()": "82c286f8",
          "STAKING()": "97610f30",
          "XCM_PRECOMPILE()": "077120cc",
          "balanceOf(address)": "70a08231",
          "bridgeYieldToParachain(uint32,address,uint256)": "b773d3f6",
          "deposit()": "d0e30db0",
          "depositorCount()": "277e9d28",
          "estimatedAPY()": "f19993d7",
          "harvestYield(uint32,uint256,uint64)": "64808111",
          "owner()": "8da5cb5b",
          "sharePrice()": "87269729",
          "totalDeposited()": "ff50abdc",
          "totalShares()": "3a98ef39",
          "withdraw(uint256)": "2e1a7d4d"
        }
      },
      "hash": "811f7f7ed8f34cd4676019352fea9a32d77ce2a83ad8ff9032c3f8052755a493",
      "factoryDependencies": {}
    }
  }
}