{
  "contracts/Mocks.sol": {
    "MockStaking": {
      "abi": [
        {
          "inputs": [],
          "name": "activeEra",
          "outputs": [
            {
              "internalType": "uint32",
              "name": "",
              "type": "uint32"
            }
          ],
          "stateMutability": "view",
          "type": "function"
        },
        {
          "inputs": [
            {
              "internalType": "uint256",
              "name": "",
              "type": "uint256"
            }
          ],
          "name": "bond",
          "outputs": [],
          "stateMutability": "nonpayable",
          "type": "function"
        },
        {
          "inputs": [
            {
              "internalType": "uint256",
              "name": "",
              "type": "uint256"
            }
          ],
          "name": "bondExtra",
          "outputs": [],
          "stateMutability": "nonpayable",
          "type": "function"
        },
        {
          "inputs": [],
          "name": "era",
          "outputs": [
            {
              "internalType": "uint32",
              "name": "",
              "type": "uint32"
            }
          ],
          "stateMutability": "view",
          "type": "function"
        },
        {
          "inputs": [
            {
              "internalType": "uint32",
              "name": "",
              "type": "uint32"
            }
          ],
          "name": "erasTotalStake",
          "outputs": [
            {
              "internalType": "uint256",
              "name": "",
              "type": "uint256"
            }
          ],
          "stateMutability": "pure",
          "type": "function"
        },
        {
          "inputs": [
            {
              "internalType": "uint32",
              "name": "",
              "type": "uint32"
            }
          ],
          "name": "erasValidatorReward",
          "outputs": [
            {
              "internalType": "uint256",
              "name": "",
              "type": "uint256"
            }
          ],
          "stateMutability": "view",
          "type": "function"
        },
        {
          "inputs": [
            {
              "internalType": "address[]",
              "name": "",
              "type": "address[]"
            }
          ],
          "name": "nominate",
          "outputs": [],
          "stateMutability": "nonpayable",
          "type": "function"
        },
        {
          "inputs": [],
          "name": "reward",
          "outputs": [
            {
              "internalType": "uint256",
              "name": "",
              "type": "uint256"
            }
          ],
          "stateMutability": "view",
          "type": "function"
        },
        {
          "inputs": [
            {
              "internalType": "uint256",
              "name": "",
              "type": "uint256"
            }
          ],
          "name": "unbond",
          "outputs": [],
          "stateMutability": "nonpayable",
          "type": "function"
        }
      ],
      "evm": {
        "assembly": "// RO data = 0/0 bytes\n// RW data = 0/65584 bytes\n// Stack size = 32768 bytes\n\n// Instructions = 990\n// Code size = 3131 bytes\n\n      : @0 (gas: 2)\n     0: a1 = i32 [0x20008]\n     5: jump @28 if a1 == 0\n      : @1 (gas: 4)\n     9: a0 = 0x30030\n    14: i32 a0 = a0 + 0\n    16: ecalli 5 // 'set_immutable_data'\n    18: jump @28\n      : @2 (gas: 8)\n    21: sp = sp + 0xfffffffffffffff0\n    24: u64 [sp + 0x8] = ra\n    27: u64 [sp] = s0\n    29: a2 = a1\n    31: s0 = a0\n    33: a1 = 0x20\n    36: a0 = a2\n    38: ra = 2, jump @8\n      : @3 [@dyn 1] (gas: 100)\n    43: a1 = u8 [a0 + 0x1]\n    46: a2 = u8 [a0]\n    48: a3 = u8 [a0 + 0x2]\n    51: a4 = u8 [a0 + 0x3]\n    54: a1 = a1 << 0x8\n    57: a1 = a1 | a2\n    60: a3 = a3 << 0x10\n    63: a4 = a4 << 0x18\n    66: a3 = a3 | a4\n    69: a1 = a1 | a3\n    72: a2 = u8 [a0 + 0x5]\n    75: a3 = u8 [a0 + 0x4]\n    78: a4 = u8 [a0 + 0x6]\n    81: a5 = u8 [a0 + 0x7]\n    84: a2 = a2 << 0x8\n    87: a2 = a2 | a3\n    90: a4 = a4 << 0x10\n    93: a5 = a5 << 0x18\n    96: a4 = a4 | a5\n    99: a2 = a2 | a4\n   102: a2 = a2 << 0x20\n   105: t0 = a2 | a1\n   108: a2 = u8 [a0 + 0x9]\n   111: a3 = u8 [a0 + 0x8]\n   114: a4 = u8 [a0 + 0xa]\n   117: a5 = u8 [a0 + 0xb]\n   120: a2 = a2 << 0x8\n   123: a2 = a2 | a3\n   126: a4 = a4 << 0x10\n   129: a5 = a5 << 0x18\n   132: a4 = a4 | a5\n   135: a2 = a2 | a4\n   138: a3 = u8 [a0 + 0xd]\n   141: a4 = u8 [a0 + 0xc]\n   144: a5 = u8 [a0 + 0xe]\n   147: a1 = u8 [a0 + 0xf]\n   150: a3 = a3 << 0x8\n   153: a3 = a3 | a4\n   156: a5 = a5 << 0x10\n   159: a1 = a1 << 0x18\n   162: a1 = a1 | a5\n   165: a1 = a1 | a3\n   168: a1 = a1 << 0x20\n   171: t1 = a1 | a2\n   174: a1 = u8 [a0 + 0x11]\n   177: a3 = u8 [a0 + 0x10]\n   180: a4 = u8 [a0 + 0x12]\n   183: a5 = u8 [a0 + 0x13]\n   186: a1 = a1 << 0x8\n   189: a1 = a1 | a3\n   192: a4 = a4 << 0x10\n   195: a5 = a5 << 0x18\n   198: a4 = a4 | a5\n   201: a1 = a1 | a4\n   204: a3 = u8 [a0 + 0x15]\n   207: a4 = u8 [a0 + 0x14]\n   210: a5 = u8 [a0 + 0x16]\n   213: a2 = u8 [a0 + 0x17]\n   216: a3 = a3 << 0x8\n   219: a3 = a3 | a4\n   222: a5 = a5 << 0x10\n   225: a2 = a2 << 0x18\n   228: a2 = a2 | a5\n   231: a2 = a2 | a3\n   234: a2 = a2 << 0x20\n   237: a3 = a2 | a1\n   240: a1 = u8 [a0 + 0x19]\n   243: a2 = u8 [a0 + 0x18]\n   246: a4 = u8 [a0 + 0x1a]\n   249: a5 = u8 [a0 + 0x1b]\n   252: a1 = a1 << 0x8\n   255: a1 = a1 | a2\n   258: a4 = a4 << 0x10\n   261: a5 = a5 << 0x18\n   264: a4 = a4 | a5\n   267: a1 = a1 | a4\n   270: a2 = u8 [a0 + 0x1d]\n   273: a4 = u8 [a0 + 0x1c]\n   276: a5 = u8 [a0 + 0x1e]\n   279: a0 = u8 [a0 + 0x1f]\n   282: a2 = a2 << 0x8\n   285: a2 = a2 | a4\n   288: a5 = a5 << 0x10\n   291: a0 = a0 << 0x18\n   294: a0 = a0 | a5\n   297: a0 = a0 | a2\n   300: a0 = a0 << 0x20\n   303: a0 = a0 | a1\n   306: a0 = reverse a0\n   308: a1 = reverse a3\n   310: a2 = reverse t1\n   312: a3 = reverse t0\n   314: u64 [s0 + 0x18] = a3\n   317: u64 [s0 + 0x10] = a2\n   320: u64 [s0 + 0x8] = a1\n   323: u64 [s0] = a0\n   325: ra = u64 [sp + 0x8]\n   328: s0 = u64 [sp]\n   330: sp = sp + 0x10\n   333: ret\n      : @4 (gas: 12)\n   335: sp = sp + 0xffffffffffffffd8\n   338: u64 [sp + 0x20] = ra\n   341: u64 [sp + 0x18] = s0\n   344: u64 [sp + 0x10] = s1\n   347: a2 = u64 [a1]\n   349: u64 [sp + 0x8] = a2\n   352: a2 = u64 [a1 + 0x8]\n   355: u64 [sp] = a2\n   357: s0 = u64 [a1 + 0x10]\n   360: s1 = u64 [a1 + 0x18]\n   363: a1 = 0x20\n   366: ra = 4, jump @8\n      : @5 [@dyn 2] (gas: 71)\n   371: a1 = reverse s1\n   373: a2 = reverse s0\n   375: a3 = u64 [sp]\n   377: a3 = reverse a3\n   379: a4 = u64 [sp + 0x8]\n   382: a4 = reverse a4\n   384: u8 [a0 + 0x18] = a4\n   387: u8 [a0 + 0x10] = a3\n   390: u8 [a0 + 0x8] = a2\n   393: u8 [a0] = a1\n   395: a5 = a4 >> 0x38\n   398: u8 [a0 + 0x1f] = a5\n   401: a5 = a4 >> 0x30\n   404: u8 [a0 + 0x1e] = a5\n   407: a5 = a4 >> 0x28\n   410: u8 [a0 + 0x1d] = a5\n   413: a5 = a4 >> 0x20\n   416: u8 [a0 + 0x1c] = a5\n   419: a5 = a4 >> 0x18\n   422: u8 [a0 + 0x1b] = a5\n   425: a5 = a4 >> 0x10\n   428: u8 [a0 + 0x1a] = a5\n   431: a4 = a4 >> 0x8\n   434: u8 [a0 + 0x19] = a4\n   437: a4 = a3 >> 0x38\n   440: u8 [a0 + 0x17] = a4\n   443: a4 = a3 >> 0x30\n   446: u8 [a0 + 0x16] = a4\n   449: a4 = a3 >> 0x28\n   452: u8 [a0 + 0x15] = a4\n   455: a4 = a3 >> 0x20\n   458: u8 [a0 + 0x14] = a4\n   461: a4 = a3 >> 0x18\n   464: u8 [a0 + 0x13] = a4\n   467: a4 = a3 >> 0x10\n   470: u8 [a0 + 0x12] = a4\n   473: a3 = a3 >> 0x8\n   476: u8 [a0 + 0x11] = a3\n   479: a3 = a2 >> 0x38\n   482: u8 [a0 + 0xf] = a3\n   485: a3 = a2 >> 0x30\n   488: u8 [a0 + 0xe] = a3\n   491: a3 = a2 >> 0x28\n   494: u8 [a0 + 0xd] = a3\n   497: a3 = a2 >> 0x20\n   500: u8 [a0 + 0xc] = a3\n   503: a3 = a2 >> 0x18\n   506: u8 [a0 + 0xb] = a3\n   509: a3 = a2 >> 0x10\n   512: u8 [a0 + 0xa] = a3\n   515: a2 = a2 >> 0x8\n   518: u8 [a0 + 0x9] = a2\n   521: a2 = a1 >> 0x38\n   524: u8 [a0 + 0x7] = a2\n   527: a2 = a1 >> 0x30\n   530: u8 [a0 + 0x6] = a2\n   533: a2 = a1 >> 0x28\n   536: u8 [a0 + 0x5] = a2\n   539: a2 = a1 >> 0x20\n   542: u8 [a0 + 0x4] = a2\n   545: a2 = a1 >> 0x18\n   548: u8 [a0 + 0x3] = a2\n   551: a2 = a1 >> 0x10\n   554: u8 [a0 + 0x2] = a2\n   557: a1 = a1 >> 0x8\n   560: u8 [a0 + 0x1] = a1\n   563: ra = u64 [sp + 0x20]\n   566: s0 = u64 [sp + 0x18]\n   569: s1 = u64 [sp + 0x10]\n   572: sp = sp + 0x28\n   575: ret\n      : @6 (gas: 48)\n   577: sp = sp + 0xffffffffffffffa0\n   580: u64 [sp + 0x58] = ra\n   583: u64 [sp + 0x50] = s0\n   586: u64 [sp + 0x48] = s1\n   589: s0 = sp + 0x60\n   592: sp = sp & 0xffffffffffffffe0\n   595: s1 = a0\n   597: a0 = u64 [a1 + 0x18]\n   600: a2 = u64 [a1 + 0x10]\n   603: a3 = u64 [a1 + 0x8]\n   606: a1 = u64 [a1]\n   608: a0 = reverse a0\n   610: a2 = reverse a2\n   612: a3 = reverse a3\n   614: a1 = reverse a1\n   616: u64 [sp + 0x18] = a1\n   619: u64 [sp + 0x10] = a3\n   622: u64 [sp + 0x8] = a2\n   625: u64 [sp] = a0\n   627: u64 [sp + 56] = 0\n   630: u64 [sp + 48] = 0\n   633: u64 [sp + 40] = 0\n   636: u64 [sp + 32] = 0\n   639: u32 [sp + 64] = 0x20\n   643: i32 a1 = sp + 0\n   645: i32 a3 = sp + 0x20\n   648: i32 a4 = sp + 0x40\n   651: a2 = 0xffffffffffffffff\n   654: a0 = 0\n   656: ecalli 3 // 'get_storage'\n   658: a0 = u64 [sp + 0x38]\n   661: a1 = u64 [sp + 0x30]\n   664: a2 = u64 [sp + 0x28]\n   667: a3 = u64 [sp + 0x20]\n   670: a0 = reverse a0\n   672: a1 = reverse a1\n   674: a2 = reverse a2\n   676: a3 = reverse a3\n   678: u64 [s1 + 0x18] = a3\n   681: u64 [s1 + 0x10] = a2\n   684: u64 [s1 + 0x8] = a1\n   687: u64 [s1] = a0\n   689: sp = s0 + 0xffffffffffffffa0\n   692: ra = u64 [sp + 0x58]\n   695: s0 = u64 [sp + 0x50]\n   698: s1 = u64 [sp + 0x48]\n   701: sp = sp + 0x60\n   704: ret\n      : @7 (gas: 40)\n   706: sp = sp + 0xffffffffffffffa0\n   709: u64 [sp + 0x58] = ra\n   712: u64 [sp + 0x50] = s0\n   715: s0 = sp + 0x60\n   718: sp = sp & 0xffffffffffffffe0\n   721: t0 = u64 [a0]\n   723: a3 = u64 [a0 + 0x8]\n   726: a4 = u64 [a0 + 0x10]\n   729: a0 = u64 [a0 + 0x18]\n   732: t1 = u64 [a1]\n   734: a2 = u64 [a1 + 0x8]\n   737: a5 = u64 [a1 + 0x10]\n   740: a1 = u64 [a1 + 0x18]\n   743: t2 = reverse a0\n   745: a4 = reverse a4\n   747: a3 = reverse a3\n   749: a0 = reverse t0\n   751: t0 = reverse a1\n   753: a5 = reverse a5\n   755: a2 = reverse a2\n   757: a1 = reverse t1\n   759: u64 [sp + 0x18] = a0\n   762: u64 [sp + 0x10] = a3\n   765: u64 [sp + 0x8] = a4\n   768: u64 [sp] = t2\n   770: u64 [sp + 0x38] = a1\n   773: u64 [sp + 0x30] = a2\n   776: u64 [sp + 0x28] = a5\n   779: u64 [sp + 0x20] = t0\n   782: i32 a1 = sp + 0\n   784: i32 a3 = sp + 0x20\n   787: a2 = 0xffffffffffffffff\n   790: a4 = 0x20\n   793: a0 = 0\n   795: ecalli 6 // 'set_storage'\n   797: sp = s0 + 0xffffffffffffffa0\n   800: ra = u64 [sp + 0x58]\n   803: s0 = u64 [sp + 0x50]\n   806: sp = sp + 0x60\n   809: ret\n      : @8 (gas: 2)\n   811: i32 a2 = a0 >> 0x10\n   814: jump @13 if a2 != 0\n      : @9 (gas: 4)\n   817: a1 = a1 + a0\n   820: i32 a1 = a1 + 0x1f\n   823: a1 = a1 & 0xffffffffffffffe0\n   826: jump @13 if a1 >u 65536\n      : @10 (gas: 3)\n   832: a2 = 0x20004\n   837: a3 = i32 [0x20004]\n   842: jump @12 if a3 >=u a1\n      : @11 (gas: 2)\n   845: u32 [0x20004] = a1\n   850: fallthrough\n      : @12 (gas: 4)\n   851: a1 = 0x20010\n   856: i32 a0 = a0 + 0\n   858: a0 = a0 + a1\n   861: ret\n      : @13 (gas: 1)\n   863: trap\n      : @14 (gas: 6)\n   864: sp = sp + 0xfffffffffffffff0\n   867: u64 [sp + 0x8] = ra\n   870: u64 [sp] = s0\n   872: s0 = a0 & 0x1\n   875: ecalli 2 // 'call_data_size'\n   877: fallthrough\n      : @15 (gas: 2)\n   878: u32 [0x20000] = a0\n   883: jump @17 if s0 == 0\n      : @16 (gas: 1)\n   886: ra = 6, jump @18\n      : @17 [@dyn 3] (gas: 1)\n   890: ra = 8, jump @30\n      : @18 [@dyn 4] (gas: 12)\n   895: sp = sp + 0xfffffffffffffee0\n   899: u64 [sp + 0x118] = ra\n   903: u64 [sp + 0x110] = s0\n   907: s0 = sp + 0x120\n   911: sp = sp & 0xffffffffffffffe0\n   914: u64 [sp + 56] = 0\n   917: u64 [sp + 48] = 0\n   920: u64 [sp + 32] = 0x80\n   925: a0 = 0x40\n   928: a1 = sp + 0x20\n   931: u64 [sp + 40] = 0\n   934: ra = 10, jump @4\n      : @19 [@dyn 5] (gas: 7)\n   939: u64 [sp + 88] = 0\n   942: u64 [sp + 80] = 0\n   945: u64 [sp + 72] = 0\n   948: u64 [sp + 64] = 0\n   951: i32 a0 = sp + 0x40\n   954: ecalli 7 // 'value_transferred'\n   956: fallthrough\n      : @20 (gas: 8)\n   957: a0 = u64 [sp + 0x50]\n   960: a1 = u64 [sp + 0x58]\n   963: a2 = u64 [sp + 0x48]\n   966: a3 = u64 [sp + 0x40]\n   969: a1 = a1 | a2\n   972: a0 = a0 | a3\n   975: a0 = a0 | a1\n   978: jump @22 if a0 == 0\n      : @21 (gas: 7)\n   981: a1 = 0x20010\n   986: i32 a1 = a1 + 0\n   988: a0 = 0x1\n   991: a2 = 0\n   993: ra = 0x14\n   996: ecalli 4 // 'seal_return'\n   998: jump @30\n      : @22 (gas: 7)\n  1001: u64 [sp + 120] = 0\n  1004: u64 [sp + 112] = 0\n  1007: u64 [sp + 104] = 0\n  1010: u64 [sp + 96] = 0\n  1013: a0 = sp\n  1015: a1 = sp + 0x60\n  1018: ra = 12, jump @6\n      : @23 [@dyn 6] (gas: 17)\n  1023: a0 = u32 [sp + 0x4]\n  1026: a0 = a0 << 0x20\n  1029: a1 = u64 [sp + 0x8]\n  1032: a2 = u64 [sp + 0x10]\n  1035: a3 = u64 [sp + 0x18]\n  1038: a0 = a0 + 0x1\n  1041: u64 [sp + 152] = 0\n  1045: u64 [sp + 144] = 0\n  1049: u64 [sp + 136] = 0\n  1053: u64 [sp + 128] = 0\n  1057: u64 [sp + 0xb8] = a3\n  1061: u64 [sp + 0xb0] = a2\n  1065: u64 [sp + 0xa8] = a1\n  1069: u64 [sp + 0xa0] = a0\n  1073: a0 = sp + 0x80\n  1077: a1 = sp + 0xa0\n  1081: ra = 14, jump @7\n      : @24 [@dyn 7] (gas: 12)\n  1086: u64 [sp + 216] = 0\n  1090: u64 [sp + 208] = 0\n  1094: u64 [sp + 200] = 0\n  1098: u64 [sp + 192] = 0x1\n  1103: u64 [sp + 248] = 0\n  1107: u64 [sp + 240] = 0\n  1111: u64 [sp + 232] = 0\n  1115: a0 = 0xde0b6b3a7640000\n  1125: u64 [sp + 0xe0] = a0\n  1129: a0 = sp + 0xc0\n  1133: a1 = sp + 0xe0\n  1137: ra = 16, jump @7\n      : @25 [@dyn 8] (gas: 2)\n  1142: a1 = i32 [0x20004]\n  1147: jump @27 if a1 >u 127\n      : @26 (gas: 2)\n  1151: u32 [0x20004] = 0x80\n  1158: fallthrough\n      : @27 (gas: 6)\n  1159: a0 = 0x20010\n  1164: i32 a0 = a0 + 0x80\n  1168: a1 = 0\n  1170: a2 = 0\n  1172: ecalli 0 // 'call_data_copy'\n  1173: jump @0\n      : @28 (gas: 3)\n  1176: a0 = 0x80\n  1180: a1 = 0\n  1182: ra = 18, jump @8\n      : @29 [@dyn 9] (gas: 6)\n  1187: i32 a1 = a0 + 0\n  1189: a0 = 0\n  1191: a2 = 0\n  1193: ra = 0x14\n  1196: ecalli 4 // 'seal_return'\n  1198: fallthrough\n      : @30 [@dyn 10] (gas: 14)\n  1199: sp = sp + 0xfffffffffffffc20\n  1203: a0 = sp + 0x300\n  1207: u64 [a0 + 0xd8] = ra\n  1211: u64 [a0 + 0xd0] = s0\n  1215: u64 [a0 + 0xc8] = s1\n  1219: s0 = sp + 0x3e0\n  1223: sp = sp & 0xffffffffffffffe0\n  1226: u64 [sp + 472] = 0\n  1230: u64 [sp + 464] = 0\n  1234: u64 [sp + 448] = 0x80\n  1240: a0 = 0x40\n  1243: a1 = sp + 0x1c0\n  1247: u64 [sp + 456] = 0\n  1251: ra = 22, jump @4\n      : @31 [@dyn 11] (gas: 3)\n  1256: s1 = 0x20000\n  1261: a0 = i32 [0x20000]\n  1266: jump @96 if a0 <u 4\n      : @32 (gas: 5)\n  1271: i32 a0 = sp + 0x1e0\n  1275: a1 = 0\n  1277: ra = 0x18\n  1280: ecalli 1 // 'call_data_load'\n  1282: fallthrough\n      : @33 [@dyn 12] (gas: 2)\n  1283: a0 = i32 [sp + 0x1fc]\n  1287: jump @66 if a0 == 2571135086\n      : @34 (gas: 1)\n  1295: jump @67 if a0 == 3270611659\n      : @35 (gas: 1)\n  1303: jump @47 if a0 == 3378029627\n      : @36 (gas: 1)\n  1311: jump @66 if a0 == 3939141854\n      : @37 (gas: 1)\n  1319: jump @57 if a0 == 339629536\n      : @38 (gas: 1)\n  1327: jump @65 if a0 != 579647283\n      : @39 (gas: 8)\n  1335: a0 = sp + 0x200\n  1339: u64 [a0 + 248] = 0\n  1343: u64 [a0 + 240] = 0\n  1347: u64 [a0 + 232] = 0\n  1351: u64 [a0 + 224] = 0\n  1355: i32 a0 = sp + 0x2e0\n  1359: ecalli 7 // 'value_transferred'\n  1361: fallthrough\n      : @40 (gas: 9)\n  1362: a4 = sp + 0x200\n  1366: a0 = u64 [a4 + 0xf0]\n  1370: a1 = u64 [a4 + 0xf8]\n  1374: a2 = u64 [a4 + 0xe8]\n  1378: a3 = u64 [a4 + 0xe0]\n  1382: a1 = a1 | a2\n  1385: a0 = a0 | a3\n  1388: a0 = a0 | a1\n  1391: jump @75 if a0 != 0\n      : @41 (gas: 2)\n  1395: a0 = i32 [s1]\n  1397: jump @76 if a0 <=u 3\n      : @42 (gas: 8)\n  1402: a1 = sp + 0x300\n  1406: u64 [a1 + 24] = 0\n  1409: u64 [a1 + 16] = 0\n  1412: u64 [a1 + 8] = 0\n  1415: u64 [a1 + 0] = 0x1\n  1418: a0 = sp + 0xe0\n  1422: a1 = sp + 0x300\n  1426: ra = 26, jump @6\n      : @43 [@dyn 13] (gas: 11)\n  1431: a0 = u64 [sp + 0xf8]\n  1435: u64 [sp + 0x18] = a0\n  1438: a0 = u64 [sp + 0xf0]\n  1442: u64 [sp + 0x10] = a0\n  1445: a0 = u64 [sp + 0xe8]\n  1449: u64 [sp + 0x8] = a0\n  1452: a0 = u64 [sp + 0xe0]\n  1456: u64 [sp] = a0\n  1458: a0 = sp + 0xc0\n  1462: a1 = 0x40\n  1465: ra = 28, jump @2\n      : @44 [@dyn 14] (gas: 5)\n  1470: a0 = u64 [sp + 0xd8]\n  1474: a1 = u64 [sp + 0xd0]\n  1478: a2 = u64 [sp + 0xc8]\n  1482: s1 = u64 [sp + 0xc0]\n  1486: t0 = 30, jump @127\n      : @45 [@dyn 15] (gas: 1)\n  1491: jump @74 if a0 != 0\n      : @46 (gas: 12)\n  1495: a0 = u64 [sp]\n  1497: u64 [sp + 0xa0] = a0\n  1501: a0 = u64 [sp + 0x8]\n  1504: u64 [sp + 0xa8] = a0\n  1508: a0 = u64 [sp + 0x10]\n  1511: u64 [sp + 0xb0] = a0\n  1515: a1 = sp + 0xa0\n  1519: a0 = u64 [sp + 0x18]\n  1522: u64 [sp + 0xb8] = a0\n  1526: a0 = s1\n  1528: ra = 0x34\n  1531: jump @4\n      : @47 (gas: 8)\n  1534: a0 = sp + 0x300\n  1538: u64 [a0 + 120] = 0\n  1541: u64 [a0 + 112] = 0\n  1544: u64 [a0 + 104] = 0\n  1547: u64 [a0 + 96] = 0\n  1550: i32 a0 = sp + 0x360\n  1554: ecalli 7 // 'value_transferred'\n  1556: fallthrough\n      : @48 (gas: 9)\n  1557: a4 = sp + 0x300\n  1561: a0 = u64 [a4 + 0x70]\n  1564: a1 = u64 [a4 + 0x78]\n  1567: a2 = u64 [a4 + 0x68]\n  1570: a3 = u64 [a4 + 0x60]\n  1573: a1 = a1 | a2\n  1576: a0 = a0 | a3\n  1579: a0 = a0 | a1\n  1582: jump @77 if a0 != 0\n      : @49 (gas: 2)\n  1586: a0 = i32 [s1]\n  1588: jump @78 if a0 <=u 35\n      : @50 (gas: 4)\n  1593: i32 a0 = sp + 0x380\n  1597: a1 = 0x4\n  1600: ecalli 1 // 'call_data_load'\n  1602: fallthrough\n      : @51 (gas: 14)\n  1603: a4 = sp + 0x300\n  1607: a0 = u64 [a4 + 0x98]\n  1611: a1 = u64 [a4 + 0x88]\n  1615: a2 = u32 [sp + 0x384]\n  1619: a3 = u64 [a4 + 0x90]\n  1623: a0 = a0 | a1\n  1626: a1 = a0 << 0x20\n  1629: a1 = a1 | a2\n  1632: a0 = a0 | a3\n  1635: a0 = a0 >> 0x20\n  1638: a0 = a0 | a1\n  1641: a3 = a3 << 0x20\n  1644: a0 = a0 | a3\n  1647: jump @79 if a0 != 0\n      : @52 (gas: 8)\n  1651: a1 = sp + 0x300\n  1655: u64 [a1 + 184] = 0\n  1659: u64 [a1 + 176] = 0\n  1663: u64 [a1 + 168] = 0\n  1667: u64 [a1 + 160] = 0x1\n  1672: a0 = sp + 0x1a0\n  1676: a1 = sp + 0x3a0\n  1680: ra = 32, jump @6\n      : @53 [@dyn 16] (gas: 11)\n  1685: a0 = u64 [sp + 0x1b8]\n  1689: u64 [sp + 0x18] = a0\n  1692: a0 = u64 [sp + 0x1b0]\n  1696: u64 [sp + 0x10] = a0\n  1699: a0 = u64 [sp + 0x1a8]\n  1703: u64 [sp + 0x8] = a0\n  1706: a0 = u64 [sp + 0x1a0]\n  1710: u64 [sp] = a0\n  1712: a0 = sp + 0x180\n  1716: a1 = 0x40\n  1719: ra = 34, jump @2\n      : @54 [@dyn 17] (gas: 5)\n  1724: a0 = u64 [sp + 0x198]\n  1728: a1 = u64 [sp + 0x190]\n  1732: a2 = u64 [sp + 0x188]\n  1736: s1 = u64 [sp + 0x180]\n  1740: t0 = 36, jump @127\n      : @55 [@dyn 18] (gas: 1)\n  1745: jump @74 if a0 != 0\n      : @56 (gas: 12)\n  1749: a0 = u64 [sp]\n  1751: u64 [sp + 0x160] = a0\n  1755: a0 = u64 [sp + 0x8]\n  1758: u64 [sp + 0x168] = a0\n  1762: a0 = u64 [sp + 0x10]\n  1765: u64 [sp + 0x170] = a0\n  1769: a1 = sp + 0x160\n  1773: a0 = u64 [sp + 0x18]\n  1776: u64 [sp + 0x178] = a0\n  1780: a0 = s1\n  1782: ra = 0x34\n  1785: jump @4\n      : @57 (gas: 8)\n  1788: a0 = sp + 0x200\n  1792: u64 [a0 + 88] = 0\n  1795: u64 [a0 + 80] = 0\n  1798: u64 [a0 + 72] = 0\n  1801: u64 [a0 + 64] = 0\n  1804: i32 a0 = sp + 0x240\n  1808: ecalli 7 // 'value_transferred'\n  1810: fallthrough\n      : @58 (gas: 9)\n  1811: a4 = sp + 0x200\n  1815: a0 = u64 [a4 + 0x50]\n  1818: a1 = u64 [a4 + 0x58]\n  1821: a2 = u64 [a4 + 0x48]\n  1824: a3 = u64 [a4 + 0x40]\n  1827: a1 = a1 | a2\n  1830: a0 = a0 | a3\n  1833: a0 = a0 | a1\n  1836: jump @80 if a0 != 0\n      : @59 (gas: 2)\n  1840: a0 = i32 [s1]\n  1842: jump @81 if a0 <=u 3\n      : @60 (gas: 8)\n  1847: a0 = sp + 0x200\n  1851: u64 [a0 + 120] = 0\n  1854: u64 [a0 + 112] = 0\n  1857: u64 [a0 + 104] = 0\n  1860: u64 [a0 + 96] = 0\n  1863: a0 = sp + 0x80\n  1867: a1 = sp + 0x260\n  1871: ra = 38, jump @6\n      : @61 [@dyn 19] (gas: 5)\n  1876: a0 = u64 [sp + 0x80]\n  1880: u64 [sp + 0x18] = a0\n  1883: a0 = sp + 0x60\n  1886: a1 = 0x40\n  1889: ra = 40, jump @2\n      : @62 [@dyn 20] (gas: 5)\n  1894: a0 = u64 [sp + 0x78]\n  1897: a1 = u64 [sp + 0x70]\n  1900: a2 = u64 [sp + 0x68]\n  1903: s1 = u64 [sp + 0x60]\n  1906: t0 = 42, jump @127\n      : @63 [@dyn 21] (gas: 1)\n  1911: jump @74 if a0 != 0\n      : @64 (gas: 11)\n  1915: a0 = u64 [sp + 0x18]\n  1918: a0 = a0 << 0x20\n  1921: a0 = a0 >> 0x20\n  1924: u64 [sp + 88] = 0\n  1927: u64 [sp + 80] = 0\n  1930: u64 [sp + 72] = 0\n  1933: a1 = sp + 0x40\n  1936: u64 [sp + 0x40] = a0\n  1939: a0 = s1\n  1941: ra = 0x34\n  1944: jump @4\n      : @65 (gas: 1)\n  1947: jump @82 if a0 != 668900914\n      : @66 (gas: 13)\n  1955: ra = 0x2c\n  1958: sp = sp + 0xffffffffffffffc0\n  1961: u64 [sp + 0x38] = ra\n  1964: u64 [sp + 0x30] = s0\n  1967: s0 = sp + 0x40\n  1970: sp = sp & 0xffffffffffffffe0\n  1973: u64 [sp + 24] = 0\n  1976: u64 [sp + 16] = 0\n  1979: u64 [sp + 8] = 0\n  1982: u64 [sp + 0] = 0\n  1984: i32 a0 = sp + 0\n  1986: ecalli 7 // 'value_transferred'\n  1988: jump @120\n      : @67 [@dyn 22] (gas: 8)\n  1991: a0 = sp + 0x300\n  1995: u64 [a0 + 56] = 0\n  1998: u64 [a0 + 48] = 0\n  2001: u64 [a0 + 40] = 0\n  2004: u64 [a0 + 32] = 0\n  2007: i32 a0 = sp + 0x320\n  2011: ecalli 7 // 'value_transferred'\n  2013: fallthrough\n      : @68 (gas: 9)\n  2014: a4 = sp + 0x300\n  2018: a0 = u64 [a4 + 0x30]\n  2021: a1 = u64 [a4 + 0x38]\n  2024: a2 = u64 [a4 + 0x28]\n  2027: a3 = u64 [a4 + 0x20]\n  2030: a1 = a1 | a2\n  2033: a0 = a0 | a3\n  2036: a0 = a0 | a1\n  2039: jump @86 if a0 != 0\n      : @69 (gas: 2)\n  2043: a0 = i32 [s1]\n  2045: jump @87 if a0 <=u 3\n      : @70 (gas: 8)\n  2050: a0 = sp + 0x300\n  2054: u64 [a0 + 88] = 0\n  2057: u64 [a0 + 80] = 0\n  2060: u64 [a0 + 72] = 0\n  2063: u64 [a0 + 64] = 0\n  2066: a0 = sp + 0x140\n  2070: a1 = sp + 0x340\n  2074: ra = 46, jump @6\n      : @71 [@dyn 23] (gas: 5)\n  2079: a0 = u64 [sp + 0x140]\n  2083: u64 [sp + 0x18] = a0\n  2086: a0 = sp + 0x120\n  2090: a1 = 0x40\n  2093: ra = 48, jump @2\n      : @72 [@dyn 24] (gas: 5)\n  2098: a0 = u64 [sp + 0x138]\n  2102: a1 = u64 [sp + 0x130]\n  2106: a2 = u64 [sp + 0x128]\n  2110: s1 = u64 [sp + 0x120]\n  2114: t0 = 50, jump @127\n      : @73 [@dyn 25] (gas: 1)\n  2119: jump @88 if a0 == 0\n      : @74 (gas: 1)\n  2123: trap\n      : @75 (gas: 6)\n  2124: a1 = 0x20010\n  2129: i32 a1 = a1 + 0\n  2131: a0 = 0x1\n  2134: a2 = 0\n  2136: ecalli 4 // 'seal_return'\n  2138: jump @98\n      : @76 (gas: 6)\n  2141: a1 = 0x20010\n  2146: i32 a1 = a1 + 0\n  2148: a0 = 0x1\n  2151: a2 = 0\n  2153: ecalli 4 // 'seal_return'\n  2155: jump @98\n      : @77 (gas: 6)\n  2158: a1 = 0x20010\n  2163: i32 a1 = a1 + 0\n  2165: a0 = 0x1\n  2168: a2 = 0\n  2170: ecalli 4 // 'seal_return'\n  2172: jump @98\n      : @78 (gas: 6)\n  2175: a1 = 0x20010\n  2180: i32 a1 = a1 + 0\n  2182: a0 = 0x1\n  2185: a2 = 0\n  2187: ecalli 4 // 'seal_return'\n  2189: jump @98\n      : @79 (gas: 6)\n  2192: a1 = 0x20010\n  2197: i32 a1 = a1 + 0\n  2199: a0 = 0x1\n  2202: a2 = 0\n  2204: ecalli 4 // 'seal_return'\n  2206: jump @98\n      : @80 (gas: 6)\n  2209: a1 = 0x20010\n  2214: i32 a1 = a1 + 0\n  2216: a0 = 0x1\n  2219: a2 = 0\n  2221: ecalli 4 // 'seal_return'\n  2223: jump @98\n      : @81 (gas: 6)\n  2226: a1 = 0x20010\n  2231: i32 a1 = a1 + 0\n  2233: a0 = 0x1\n  2236: a2 = 0\n  2238: ecalli 4 // 'seal_return'\n  2240: jump @98\n      : @82 (gas: 1)\n  2243: jump @92 if a0 != 185803708\n      : @83 (gas: 8)\n  2251: a0 = sp + 0x200\n  2255: u64 [a0 + 24] = 0\n  2258: u64 [a0 + 16] = 0\n  2261: u64 [a0 + 8] = 0\n  2264: u64 [a0 + 0] = 0\n  2266: i32 a0 = sp + 0x200\n  2270: ecalli 7 // 'value_transferred'\n  2272: fallthrough\n      : @84 (gas: 9)\n  2273: a4 = sp + 0x200\n  2277: a0 = u64 [a4 + 0x10]\n  2280: a1 = u64 [a4 + 0x18]\n  2283: a2 = u64 [a4 + 0x8]\n  2286: a3 = u64 [a4]\n  2288: a1 = a1 | a2\n  2291: a0 = a0 | a3\n  2294: a0 = a0 | a1\n  2297: jump @98 if a0 == 0\n      : @85 (gas: 6)\n  2301: a1 = 0x20010\n  2306: i32 a1 = a1 + 0\n  2308: a0 = 0x1\n  2311: a2 = 0\n  2313: ecalli 4 // 'seal_return'\n  2315: jump @98\n      : @86 (gas: 6)\n  2318: a1 = 0x20010\n  2323: i32 a1 = a1 + 0\n  2325: a0 = 0x1\n  2328: a2 = 0\n  2330: ecalli 4 // 'seal_return'\n  2332: jump @98\n      : @87 (gas: 6)\n  2335: a1 = 0x20010\n  2340: i32 a1 = a1 + 0\n  2342: a0 = 0x1\n  2345: a2 = 0\n  2347: ecalli 4 // 'seal_return'\n  2349: jump @98\n      : @88 (gas: 10)\n  2352: a0 = u64 [sp + 0x18]\n  2355: a0 = a0 << 0x20\n  2358: a0 = a0 >> 0x20\n  2361: u64 [sp + 280] = 0\n  2365: u64 [sp + 272] = 0\n  2369: u64 [sp + 264] = 0\n  2373: a1 = sp + 0x100\n  2377: u64 [sp + 0x100] = a0\n  2381: a0 = s1\n  2383: ra = 52, jump @4\n      : @89 [@dyn 26] (gas: 3)\n  2388: a1 = 0x20\n  2391: a0 = s1\n  2393: ra = 54, jump @8\n      : @90 [@dyn 27] (gas: 2)\n  2398: i32 a1 = a0 + 0\n  2400: fallthrough\n      : @91 (gas: 4)\n  2401: a2 = 0x20\n  2404: a0 = 0\n  2406: ecalli 4 // 'seal_return'\n  2408: fallthrough\n      : @92 (gas: 1)\n  2409: jump @96 if a0 != 435355053\n      : @93 (gas: 8)\n  2416: a0 = sp + 0x200\n  2420: u64 [a0 + 152] = 0\n  2424: u64 [a0 + 144] = 0\n  2428: u64 [a0 + 136] = 0\n  2432: u64 [a0 + 128] = 0\n  2436: i32 a0 = sp + 0x280\n  2440: ecalli 7 // 'value_transferred'\n  2442: fallthrough\n      : @94 (gas: 9)\n  2443: a4 = sp + 0x200\n  2447: a0 = u64 [a4 + 0x90]\n  2451: a1 = u64 [a4 + 0x98]\n  2455: a2 = u64 [a4 + 0x88]\n  2459: a3 = u64 [a4 + 0x80]\n  2463: a1 = a1 | a2\n  2466: a0 = a0 | a3\n  2469: a0 = a0 | a1\n  2472: jump @100 if a0 == 0\n      : @95 (gas: 6)\n  2475: a1 = 0x20010\n  2480: i32 a1 = a1 + 0\n  2482: a0 = 0x1\n  2485: a2 = 0\n  2487: ecalli 4 // 'seal_return'\n  2489: jump @98\n      : @96 (gas: 6)\n  2491: a1 = 0x20010\n  2496: i32 a1 = a1 + 0\n  2498: a0 = 0x1\n  2501: a2 = 0\n  2503: ecalli 4 // 'seal_return'\n  2505: jump @98\n      : @97 (gas: 5)\n  2507: i32 a1 = a1 + 0\n  2509: a0 = 0x1\n  2512: a2 = 0\n  2514: ecalli 4 // 'seal_return'\n  2516: fallthrough\n      : @98 (gas: 2)\n  2517: a0 = i32 [s1]\n  2519: jump @102 if a0 >u 35\n      : @99 (gas: 2)\n  2523: a1 = 0x20010\n  2528: jump @97\n      : @100 (gas: 2)\n  2530: a0 = i32 [s1]\n  2532: jump @105 if a0 >u 35\n      : @101 (gas: 2)\n  2536: a1 = 0x20010\n  2541: jump @97\n      : @102 (gas: 4)\n  2543: i32 a0 = sp + 0x220\n  2547: a1 = 0x4\n  2550: ecalli 1 // 'call_data_load'\n  2552: fallthrough\n      : @103 (gas: 14)\n  2553: a4 = sp + 0x200\n  2557: a0 = u64 [a4 + 0x38]\n  2560: a1 = u64 [a4 + 0x28]\n  2563: a2 = u32 [sp + 0x224]\n  2567: a3 = u64 [a4 + 0x30]\n  2570: a0 = a0 | a1\n  2573: a1 = a0 << 0x20\n  2576: a1 = a1 | a2\n  2579: a0 = a0 | a3\n  2582: a0 = a0 >> 0x20\n  2585: a0 = a0 | a1\n  2588: a3 = a3 << 0x20\n  2591: a0 = a0 | a3\n  2594: jump @108 if a0 == 0\n      : @104 (gas: 2)\n  2597: a1 = 0x20010\n  2602: jump @97\n      : @105 (gas: 4)\n  2604: i32 a0 = sp + 0x2a0\n  2608: a1 = 0x4\n  2611: ecalli 1 // 'call_data_load'\n  2613: fallthrough\n      : @106 (gas: 11)\n  2614: a3 = sp + 0x200\n  2618: a0 = u64 [a3 + 0xb8]\n  2622: a1 = u64 [a3 + 0xb0]\n  2626: a2 = u64 [a3 + 0xa8]\n  2630: u64 [sp + 0x18] = a0\n  2633: u64 [sp + 0x10] = a1\n  2636: a0 = a0 | a1\n  2639: u64 [sp + 0x8] = a2\n  2642: a1 = a2 <u 0x1\n  2645: a1 = 0 if a0 != 0\n  2647: jump @112 if a1 != 0\n      : @107 (gas: 2)\n  2650: a1 = 0x20010\n  2655: jump @97\n      : @108 (gas: 8)\n  2658: u64 [sp + 56] = 0\n  2661: u64 [sp + 40] = 0x5\n  2665: a0 = 0x6bc75e2d63100000\n  2675: u64 [sp + 0x20] = a0\n  2678: a0 = 0x80\n  2682: a1 = sp + 0x20\n  2685: u64 [sp + 48] = 0\n  2688: ra = 56, jump @4\n      : @109 [@dyn 28] (gas: 2)\n  2693: a1 = i32 [0x20004]\n  2698: jump @111 if a1 >u 159\n      : @110 (gas: 4)\n  2703: u32 [0x20004] = 0xa0\n  2710: a0 = 0x20010\n  2715: i32 a1 = a0 + 0x80\n  2719: jump @91\n      : @111 (gas: 3)\n  2722: a0 = 0x20010\n  2727: i32 a1 = a0 + 0x80\n  2731: jump @91\n      : @112 (gas: 19)\n  2734: a2 = u64 [sp + 0x2a0]\n  2738: a0 = u32 [s1]\n  2740: a1 = a2 + 0x23\n  2743: u64 [sp] = a2\n  2745: a2 = a1 <u a2\n  2748: a4 = u64 [sp + 0x8]\n  2751: a3 = a4 + a2\n  2754: a4 = a3 <u a4\n  2757: a4 = a2 if a2 == 0\n  2760: a2 = u64 [sp + 0x10]\n  2763: a4 = a4 + a2\n  2766: a2 = a4 <u a2\n  2769: a5 = u64 [sp + 0x18]\n  2772: a2 = a2 + a5\n  2775: a2 = a2 | a4\n  2778: a0 = a1 <u a0\n  2781: a0 = 0 if a3 != 0\n  2783: a0 = 0 if a2 != 0\n  2785: jump @116 if a0 == 0\n      : @113 (gas: 5)\n  2788: a1 = u64 [sp]\n  2790: i32 a1 = a1 + 0x4\n  2793: i32 a0 = sp + 0x2c0\n  2797: ecalli 1 // 'call_data_load'\n  2799: fallthrough\n      : @114 (gas: 8)\n  2800: a0 = sp + 0x200\n  2804: a3 = u64 [a0 + 0xd8]\n  2808: a2 = u64 [a0 + 0xd0]\n  2812: a1 = u64 [a0 + 0xc8]\n  2816: a0 = a2 | a3\n  2819: a4 = a1 <u 0x1\n  2822: a4 = 0 if a0 != 0\n  2824: jump @117 if a4 != 0\n      : @115 (gas: 2)\n  2827: a1 = 0x20010\n  2832: jump @97\n      : @116 (gas: 2)\n  2835: a1 = 0x20010\n  2840: jump @97\n      : @117 (gas: 48)\n  2843: a4 = u64 [sp + 0x2c0]\n  2847: t0 = u32 [s1]\n  2849: a5 = a2 >> 0x3b\n  2852: a3 = a3 << 0x5\n  2855: t1 = a3 | a5\n  2858: a5 = a1 >> 0x3b\n  2861: a2 = a2 << 0x5\n  2864: a2 = a2 | a5\n  2867: a5 = a4 >> 0x3b\n  2870: a1 = a1 << 0x5\n  2873: a1 = a1 | a5\n  2876: a4 = a4 << 0x5\n  2879: a0 = u64 [sp]\n  2881: a4 = a4 + a0\n  2884: a5 = a4 <u a0\n  2887: a0 = u64 [sp + 0x8]\n  2890: a1 = a1 + a0\n  2893: a1 = a1 + a5\n  2896: s1 = a1 ^ a0\n  2899: a0 = a1 <u a0\n  2902: a0 = a5 if s1 == 0\n  2905: a3 = u64 [sp + 0x10]\n  2908: a2 = a2 + a3\n  2911: a0 = a0 + a2\n  2914: a5 = a0 <u a2\n  2917: a2 = a2 <u a3\n  2920: a3 = u64 [sp + 0x18]\n  2923: a3 = a3 + t1\n  2926: a2 = a2 + a3\n  2929: a2 = a2 + a5\n  2932: a3 = a4 + 0x24\n  2935: a4 = a3 <u a4\n  2938: a5 = a1 + a4\n  2941: a1 = a5 <u a1\n  2944: a1 = a4 if a4 == 0\n  2947: a1 = a1 + a0\n  2950: a0 = a1 <u a0\n  2953: a0 = a0 + a2\n  2956: a2 = a1 <u 0x1\n  2959: a4 = a0 <u 0x1\n  2962: a4 = a2 if a0 == 0\n  2965: a0 = a0 | a1\n  2968: a1 = a5 <u 0x1\n  2971: a2 = t0 <u a3\n  2974: a2 = a2 ^ 0x1\n  2977: a2 = a1 if a5 != 0\n  2980: a2 = a4 if a0 != 0\n  2983: jump @119 if a2 != 0\n      : @118 (gas: 5)\n  2986: a1 = 0x20010\n  2991: i32 a1 = a1 + 0\n  2993: a0 = 0x1\n  2996: ecalli 4 // 'seal_return'\n  2998: fallthrough\n      : @119 (gas: 6)\n  2999: a1 = 0x20010\n  3004: i32 a1 = a1 + 0\n  3006: a0 = 0\n  3008: a2 = 0\n  3010: ecalli 4 // 'seal_return'\n  3012: jump @98\n      : @120 (gas: 8)\n  3015: a0 = u64 [sp + 0x10]\n  3018: a1 = u64 [sp + 0x18]\n  3021: a2 = u64 [sp + 0x8]\n  3024: a3 = u64 [sp]\n  3026: a1 = a1 | a2\n  3029: a0 = a0 | a3\n  3032: a0 = a0 | a1\n  3035: jump @122 if a0 == 0\n      : @121 (gas: 6)\n  3038: a1 = 0x20010\n  3043: i32 a1 = a1 + 0\n  3045: a0 = 0x1\n  3048: a2 = 0\n  3050: ecalli 4 // 'seal_return'\n  3052: jump @124\n      : @122 (gas: 2)\n  3054: a0 = i32 [0x20000]\n  3059: jump @124 if a0 >u 35\n      : @123 (gas: 6)\n  3063: a1 = 0x20010\n  3068: i32 a1 = a1 + 0\n  3070: a0 = 0x1\n  3073: a2 = 0\n  3075: ecalli 4 // 'seal_return'\n  3077: fallthrough\n      : @124 (gas: 6)\n  3078: a1 = 0x20010\n  3083: i32 a1 = a1 + 0\n  3085: a0 = 0\n  3087: a2 = 0\n  3089: ecalli 4 // 'seal_return'\n  3091: jump @124\n      : @125 [export #0: 'call'] (gas: 2)\n  3093: a0 = 0\n  3095: ra = 58, jump @14\n      : @126 [@dyn 29] [export #1: 'deploy'] (gas: 2)\n  3100: a0 = 0x1\n  3103: ra = 60, jump @14\n      : @127 [@dyn 30] (gas: 8)\n  3108: a0 = a0 | a2\n  3111: a2 = s1 | a1\n  3114: a2 = a2 | a0\n  3117: a2 = a2 >> 0x20\n  3120: a0 = a0 | a1\n  3123: a0 = a0 << 0x20\n  3126: a0 = a0 | a2\n  3129: jump [t0]\n",
        "bytecode": {
          "linkReferences": {},
          "object": "50564d0000c20e000000000000010700c13000c0008004808f08000000000e0000001c0000002a0000003500000040000000520000005d00000063616c6c5f646174615f636f707963616c6c5f646174615f6c6f616463616c6c5f646174615f73697a656765745f73746f726167657365616c5f72657475726e7365745f696d6d757461626c655f646174617365745f73746f7261676576616c75655f7472616e736665727265640511028c150463616c6c8c1c066465706c6f79068e031e028c3b2b0073017a037f03ab03ff033e047604a304af04e80403059705be05d3059506bc06d106540766077707c7071f083208470854095e09850a1c0c240c390808000251089304330730000383770a052886049511f07b10087b1564896475330820649750100205037c78017c797c7a027c7b03978808d4980897aa1097bb18d4ba0ad4a8087c79057c7a047c7b067c7c07979908d4a90997bb1097cc18d4cb0bd4b909979920d489027c79097c7a087c7b0a7c7c0b979908d4a90997bb1097cc18d4cb0bd4b9097c7a0d7c7b0c7c7c0e7c780f97aa08d4ba0a97cc10978818d4c808d4a808978820d498037c78117c7a107c7b127c7c13978808d4a80897bb1097cc18d4cb0bd4b8087c7a157c7b147c7c167c791797aa08d4ba0a97cc10979918d4c909d4a909979920d4890a7c78197c79187c7b1a7c7c1b978808d4980897bb1097cc18d4cb0bd4b8087c791d7c7b1c7c7c1e7c771f979908d4b90997cc10977718d4c707d49707977720d487076f776fa86f396f2a7b5a187b59107b58087b57821008821595111032009511d87b10207b15187b161082897b19088289087b19828510828618330820501004bd016f686f59821a6faa821b086fbb787b18787a10787908787898bc38787c1f98bc30787c1e98bc28787c1d98bc20787c1c98bc18787c1b98bc10787c1a98bb08787b1998ab38787b1798ab30787b1698ab28787b1598ab20787b1498ab18787b1398ab10787b1298aa08787a11989a38787a0f989a30787a0e989a28787a0d989a20787a0c989a18787a0b989a10787a0a98990878790998893878790798893078790698892878790598892078790498891878790398891078790298880878780182102082151882161095112832009511a07b10587b15507b16489515608411e06476828718828910828a0882886f776f996faa6f887b18187b1a107b19087b17491138491130491128491120481140208318831a20831b403309ff33070a03821738821830821928821a206f776f886f996faa7b6a187b69107b68087b679551a082105882155082164895116032009511a07b10587b15509515608411e08272827a08827b108277188283828908828c108288186f746fbb6faa6f276f826fcc6f996f387b17187b1a107b1b087b147b18387b19307b1c287b12208318831a203309ff330b2033070a069551a082105882155095116032008b7910520931c8780883881f8488e05638000001253309040002390a040002ae8a093d080400020133081000028377c887073200009511f07b10087b158475010a02013d070000025105075010060950100835019511e0fe7b1018017b151001951520018411e0491138491130491120800033074095182049112850100aa9fd4911584911504911484911408317400a0701821750821858821948821a40d49808d4a707d487075107173308100002838833070133093300140a0428c900491178491170491168491160641795186050100c47fe801704977720821808821910821a18957701492198004921900049218800492180007b1ab8007b19b0007b18a8007b17a000951780009518a00050100e89fe4921d8004921d0004921c8004921c000014921f8004921f0004921e8001407000064a7b3b6e00d7b17e0009517c0009518e00050101051fe390804000256187f0c2003040002800001330710000283778000330833090a286bfb3307800033085010128dfe8378330733093300140a0401951120fc951700037b70d8007b75d0007b76c8009515e0038411e04921d8014921d0014921c00180003307409518c0014921c8015010166cfc33060000023907000002531704c9048317e00133083300180a01018117fc0151476e6840999c025147cb92f1c2b80251473ba458c9e7005147de88caea84025147e0553e14d501524733b78c226c02951700024927f8004927f0004927e8004927e0008317e0020a0701951b000282b7f00082b8f80082b9e80082bae000d49808d4a707d487075207dd028167541703e802951800034918184918104918084908019517e0009518000350101aaffc8217f8007b17188217f0007b17108217e8007b17088217e0007b179517c00033084050101c5cfa8217d8008218d0008219c8008216c00050121e56065207780282177b17a0008217087b17a8008217107b17b0009518a0008217187b17b80064673300342854fb95170003491778491770491768491760831760030a0701951b000382b77082b87882b96882ba60d49808d4a707d487075207400281675417234b02831780033308040a0101951b000382b7980082b888008019840382ba9000d48707977820d49808d4a707987720d4870797aa20d4a70752072102951800034928b8004928b0004928a8004928a000019517a0019518a003501020b1fb8217b8017b17188217b0017b17108217a8017b17088217a0017b17951780013308405010225ef982179801821890018219880182168001501224580552077a0182177b1760018217087b1768018217107b177001951860018217187b17780164673300342856fa95170002491758491750491748491740831740020a0701951b000282b75082b85882b94882ba40d49808d4a707d487075207750181675417038001951700024917784917704917684917609517800095186002501026f2fa821780007b1718951760330840501028b4f882177882187082196882166050122ab2045207d4008217189777209877204911584911504911489518407b1740646733003428b7f95247329ede27280133002c9511c07b10387b15309515408411e0491118491110491108490183170a0728030495170003491738491730491728491720831720030a0701951b000382b73082b83882b92882ba20d49808d4a707d48707520717018167541703220195170003491758491750491748491740951740019518400350102e27fa821740017b171895172001330840501030e8f782173801821830018219280182162001501232e2035107e900003308100002838833070133090a04287b013308100002838833070133090a04286a013308100002838833070133090a042859013308100002838833070133090a042848013308100002838833070133090a042837013308100002838833070133090a042826013308100002838833070133090a042815015247bc23130ba600951700024917184917104917084907831700020a0701951b000282b71082b81882b90882bad49808d4a707d487075107dc003308100002838833070133090a0428ca003308100002838833070133090a0428b9003308100002838833070133090a0428a800821718977720987720492118014921100149210801951800017b170001646750103400f83308206467501036d2f983780133092033070a04015247adfdf219529517000249279800492790004927880049278000831780020a0701951b000282b7900082b8980082b9880082ba8000d49808d4a707d4870751073a3308100002838833070133090a04281c3308100002838833070133090a04280c838833070133090a0401816756172318330810000228eb816756172348330810000228de831720023308040a0101951b000282b73882b8288019240282ba30d48707977820d49808d4a707987720d4870797aa20d4a707510740330810000228a18317a0023308040a0101951a000282a7b80082a8b00082a9a8007b17187b1810d487077b190888980194785208573308100002286cff491138491128051407000010632d5ec76b7b172033078000951820491130501038cff6390804000256289f00182003040002a00033071000028378800028c2fe33071000028378800028b6fe8219a00280679598237b19d89809821b08c89b0ad8ba0bda990b821910c89b0bd89b09821c18c8c909d4b909d8780794a7949751073282188388048317c0020a010195170002827ad8008279d0008278c800d4a907888b01947b520b13330810000228bbfe330810000228b3fe821bc0028062989c3b97aa05d4ca03988c3b979905d4c90998bc3b978805d4c80897bb058217c87b0bd87b0c821708c87808c8c808d37806d87807da6c07821a10c8a909c89707d8970cd8a909821a18c83a0ac8a909c8c90995ba24d8ba0bc8b80cd88c08dabb08c87808d87807c89707888901887b01da790bd4870788c801d8a209859901dbc809db7b09520910330810000283883307010a040133081000028388330733090a042811fe821710821818821908821ad49808d4a707d487075107133308100002838833070133090a04281a3907000002561723133308100002838833070133090a040133081000028388330733090a0428f3330750103a49f733070150103c41f7d49707d48609d47909989920d48707977720d497073202214225a952484992244992244992244992244992244992244992244992244992244992244992542529a524292949a84a494a922449922449922449922449922449922449922449929224294955494a92284925495592922425494a5292aaaa242549492a494a920421240ca5496948848888242149489234499224945292a48424492222222222424484880820224288c0103551a8d2888888440489082184288d8080808080808888884644449228449244844824124542444488229188444924493492244914228d8888244992888808112112894491101111a2482422511249128d2449128548928810494292844892242909489224499548926824499228449244844824444484184a25944a2895502aa15442a984520988244523494922944a2895502a492222a2904253031111118d88882409a50aa52ab50815a1482389244992241469444492a484240248242184408884489492244992a452a2111149090989922449929224499224499224499224499284d25095242549285588506aa8aa909024490200",
          "opcodes": ""
        },
        "methodIdentifiers": {
          "activeEra()": "c2f192cb",
          "bond(uint256)": "9940686e",
          "bondExtra(uint256)": "eaca88de",
          "era()": "143e55e0",
          "erasTotalStake(uint32)": "0b1323bc",
          "erasValidatorReward(uint32)": "c958a43b",
          "nominate(address[])": "19f2fdad",
          "reward()": "228cb733",
          "unbond(uint256)": "27de9e32"
        }
      },
      "hash": "7d80de411836a16416c0e5baa381b712ec0d30d0f757898ef8a379d6446d9385",
      "factoryDependencies": {}
    }
  }
}