{
  "contracts/Mocks.sol": {
    "MockXCM": {
      "abi": [
        {
          "anonymous": false,
          "inputs": [
            {
              "indexed": false,
              "internalType": "uint32",
              "name": "paraId",
              "type": "uint32"
            },
            {
              "indexed": false,
              "internalType": "address",
              "name": "recipient",
              "type": "address"
            },
            {
              "indexed": false,
              "internalType": "uint256",
              "name": "amount",
              "type": "uint256"
            }
          ],
          "name": "MockTransfer",
          "type": "event"
        },
        {
          "inputs": [
            {
              "internalType": "uint32",
              "name": "paraId",
              "type": "uint32"
            },
            {
              "internalType": "address",
              "name": "recipient",
              "type": "address"
            },
            {
              "internalType": "uint256",
              "name": "amount",
              "type": "uint256"
            }
          ],
          "name": "transferAssetsToParachain",
          "outputs": [],
          "stateMutability": "nonpayable",
          "type": "function"
        }
      ],
      "evm": {
        "assembly": "// RO data = 0/0 bytes\n// RW data = 32/65616 bytes\n// Stack size = 32768 bytes\n\n// Instructions = 383\n// Code size = 1198 bytes\n\n      : @0 (gas: 2)\n     0: a1 = i32 [0x20028]\n     5: jump @22 if a1 == 0\n      : @1 (gas: 4)\n     9: a0 = 0x30050\n    14: i32 a0 = a0 + 0\n    16: ecalli 5 // 'set_immutable_data'\n    18: jump @22\n      : @2 (gas: 12)\n    21: sp = sp + 0xffffffffffffffd8\n    24: u64 [sp + 0x20] = ra\n    27: u64 [sp + 0x18] = s0\n    30: u64 [sp + 0x10] = s1\n    33: a2 = u64 [a1]\n    35: u64 [sp + 0x8] = a2\n    38: a2 = u64 [a1 + 0x8]\n    41: u64 [sp] = a2\n    43: s0 = u64 [a1 + 0x10]\n    46: s1 = u64 [a1 + 0x18]\n    49: a1 = 0x20\n    52: ra = 2, jump @5\n      : @3 [@dyn 1] (gas: 71)\n    57: a1 = reverse s1\n    59: a2 = reverse s0\n    61: a3 = u64 [sp]\n    63: a3 = reverse a3\n    65: a4 = u64 [sp + 0x8]\n    68: a4 = reverse a4\n    70: u8 [a0 + 0x18] = a4\n    73: u8 [a0 + 0x10] = a3\n    76: u8 [a0 + 0x8] = a2\n    79: u8 [a0] = a1\n    81: a5 = a4 >> 0x38\n    84: u8 [a0 + 0x1f] = a5\n    87: a5 = a4 >> 0x30\n    90: u8 [a0 + 0x1e] = a5\n    93: a5 = a4 >> 0x28\n    96: u8 [a0 + 0x1d] = a5\n    99: a5 = a4 >> 0x20\n   102: u8 [a0 + 0x1c] = a5\n   105: a5 = a4 >> 0x18\n   108: u8 [a0 + 0x1b] = a5\n   111: a5 = a4 >> 0x10\n   114: u8 [a0 + 0x1a] = a5\n   117: a4 = a4 >> 0x8\n   120: u8 [a0 + 0x19] = a4\n   123: a4 = a3 >> 0x38\n   126: u8 [a0 + 0x17] = a4\n   129: a4 = a3 >> 0x30\n   132: u8 [a0 + 0x16] = a4\n   135: a4 = a3 >> 0x28\n   138: u8 [a0 + 0x15] = a4\n   141: a4 = a3 >> 0x20\n   144: u8 [a0 + 0x14] = a4\n   147: a4 = a3 >> 0x18\n   150: u8 [a0 + 0x13] = a4\n   153: a4 = a3 >> 0x10\n   156: u8 [a0 + 0x12] = a4\n   159: a3 = a3 >> 0x8\n   162: u8 [a0 + 0x11] = a3\n   165: a3 = a2 >> 0x38\n   168: u8 [a0 + 0xf] = a3\n   171: a3 = a2 >> 0x30\n   174: u8 [a0 + 0xe] = a3\n   177: a3 = a2 >> 0x28\n   180: u8 [a0 + 0xd] = a3\n   183: a3 = a2 >> 0x20\n   186: u8 [a0 + 0xc] = a3\n   189: a3 = a2 >> 0x18\n   192: u8 [a0 + 0xb] = a3\n   195: a3 = a2 >> 0x10\n   198: u8 [a0 + 0xa] = a3\n   201: a2 = a2 >> 0x8\n   204: u8 [a0 + 0x9] = a2\n   207: a2 = a1 >> 0x38\n   210: u8 [a0 + 0x7] = a2\n   213: a2 = a1 >> 0x30\n   216: u8 [a0 + 0x6] = a2\n   219: a2 = a1 >> 0x28\n   222: u8 [a0 + 0x5] = a2\n   225: a2 = a1 >> 0x20\n   228: u8 [a0 + 0x4] = a2\n   231: a2 = a1 >> 0x18\n   234: u8 [a0 + 0x3] = a2\n   237: a2 = a1 >> 0x10\n   240: u8 [a0 + 0x2] = a2\n   243: a1 = a1 >> 0x8\n   246: u8 [a0 + 0x1] = a1\n   249: ra = u64 [sp + 0x20]\n   252: s0 = u64 [sp + 0x18]\n   255: s1 = u64 [sp + 0x10]\n   258: sp = sp + 0x28\n   261: ret\n      : @4 [@dyn 2] (gas: 23)\n   263: a1 = u64 [sp]\n   265: a1 = reverse a1\n   267: a2 = u64 [sp + 0x8]\n   270: a2 = reverse a2\n   272: a3 = u64 [sp + 0x10]\n   275: a3 = reverse a3\n   277: a4 = u64 [sp + 0x18]\n   280: a4 = reverse a4\n   282: u64 [sp + 0x38] = a4\n   285: u64 [sp + 0x30] = a3\n   288: u64 [sp + 0x28] = a2\n   291: u64 [sp + 0x20] = a1\n   294: i32 a2 = a0 + 0\n   296: i32 a3 = s1 + 0\n   298: i32 a0 = sp + 0x20\n   301: a1 = 0x1\n   304: ecalli 3 // 'deposit_event'\n   306: sp = s0 + 0xffffffffffffffa0\n   309: ra = u64 [sp + 0x58]\n   312: s0 = u64 [sp + 0x50]\n   315: s1 = u64 [sp + 0x48]\n   318: sp = sp + 0x60\n   321: ret\n      : @5 (gas: 2)\n   323: i32 a2 = a0 >> 0x10\n   326: jump @10 if a2 != 0\n      : @6 (gas: 4)\n   329: a1 = a1 + a0\n   332: i32 a1 = a1 + 0x1f\n   335: a1 = a1 & 0xffffffffffffffe0\n   338: jump @10 if a1 >u 65536\n      : @7 (gas: 3)\n   344: a2 = 0x20024\n   349: a3 = i32 [0x20024]\n   354: jump @9 if a3 >=u a1\n      : @8 (gas: 2)\n   357: u32 [0x20024] = a1\n   362: fallthrough\n      : @9 (gas: 4)\n   363: a1 = 0x20030\n   368: i32 a0 = a0 + 0\n   370: a0 = a0 + a1\n   373: ret\n      : @10 (gas: 1)\n   375: trap\n      : @11 (gas: 6)\n   376: sp = sp + 0xfffffffffffffff0\n   379: u64 [sp + 0x8] = ra\n   382: u64 [sp] = s0\n   384: s0 = a0 & 0x1\n   387: ecalli 2 // 'call_data_size'\n   389: fallthrough\n      : @12 (gas: 2)\n   390: u32 [0x20020] = a0\n   395: jump @14 if s0 == 0\n      : @13 (gas: 1)\n   398: ra = 6, jump @15\n      : @14 [@dyn 3] (gas: 1)\n   402: ra = 8, jump @24\n      : @15 [@dyn 4] (gas: 12)\n   407: sp = sp + 0xffffffffffffffa0\n   410: u64 [sp + 0x58] = ra\n   413: u64 [sp + 0x50] = s0\n   416: s0 = sp + 0x60\n   419: sp = sp & 0xffffffffffffffe0\n   422: u64 [sp + 24] = 0\n   425: u64 [sp + 16] = 0\n   428: u64 [sp + 0] = 0x80\n   432: a0 = 0x40\n   435: a1 = sp\n   437: u64 [sp + 8] = 0\n   440: ra = 10, jump @2\n      : @16 [@dyn 5] (gas: 7)\n   445: u64 [sp + 56] = 0\n   448: u64 [sp + 48] = 0\n   451: u64 [sp + 40] = 0\n   454: u64 [sp + 32] = 0\n   457: i32 a0 = sp + 0x20\n   460: ecalli 6 // 'value_transferred'\n   462: fallthrough\n      : @17 (gas: 8)\n   463: a0 = u64 [sp + 0x30]\n   466: a1 = u64 [sp + 0x38]\n   469: a2 = u64 [sp + 0x28]\n   472: a3 = u64 [sp + 0x20]\n   475: a1 = a1 | a2\n   478: a0 = a0 | a3\n   481: a0 = a0 | a1\n   484: jump @19 if a0 == 0\n      : @18 (gas: 7)\n   487: a1 = 0x20030\n   492: i32 a1 = a1 + 0\n   494: a0 = 0x1\n   497: a2 = 0\n   499: ra = 0xe\n   502: ecalli 4 // 'seal_return'\n   504: jump @24\n      : @19 (gas: 2)\n   506: a1 = i32 [0x20024]\n   511: jump @21 if a1 >u 127\n      : @20 (gas: 2)\n   515: u32 [0x20024] = 0x80\n   522: fallthrough\n      : @21 (gas: 6)\n   523: a0 = 0x20030\n   528: i32 a0 = a0 + 0x80\n   532: a1 = 0\n   534: a2 = 0\n   536: ecalli 0 // 'call_data_copy'\n   537: jump @0\n      : @22 (gas: 3)\n   540: a0 = 0x80\n   544: a1 = 0\n   546: ra = 12, jump @5\n      : @23 [@dyn 6] (gas: 6)\n   551: i32 a1 = a0 + 0\n   553: a0 = 0\n   555: a2 = 0\n   557: ra = 0xe\n   560: ecalli 4 // 'seal_return'\n   562: fallthrough\n      : @24 [@dyn 7] (gas: 13)\n   563: sp = sp + 0xfffffffffffffe60\n   567: u64 [sp + 0x198] = ra\n   571: u64 [sp + 0x190] = s0\n   575: u64 [sp + 0x188] = s1\n   579: s0 = sp + 0x1a0\n   583: sp = sp & 0xffffffffffffffe0\n   586: u64 [sp + 216] = 0\n   590: u64 [sp + 208] = 0\n   594: u64 [sp + 192] = 0x80\n   600: a0 = 0x40\n   603: a1 = sp + 0xc0\n   607: u64 [sp + 200] = 0\n   611: ra = 16, jump @2\n      : @25 [@dyn 8] (gas: 3)\n   616: s1 = 0x20020\n   621: a0 = i32 [0x20020]\n   626: jump @31 if a0 <u 4\n      : @26 (gas: 4)\n   630: i32 a0 = sp + 0xe0\n   634: a1 = 0\n   636: ecalli 1 // 'call_data_load'\n   638: fallthrough\n      : @27 (gas: 4)\n   639: a0 = u32 [sp + 0xfc]\n   643: a0 = a0 << 0x20\n   646: a1 = 0x677e65e800000000\n   656: jump @31 if a0 != a1\n      : @28 (gas: 7)\n   659: u64 [sp + 280] = 0\n   663: u64 [sp + 272] = 0\n   667: u64 [sp + 264] = 0\n   671: u64 [sp + 256] = 0\n   675: i32 a0 = sp + 0x100\n   679: ecalli 6 // 'value_transferred'\n   681: fallthrough\n      : @29 (gas: 8)\n   682: a0 = u64 [sp + 0x110]\n   686: a1 = u64 [sp + 0x118]\n   690: a2 = u64 [sp + 0x108]\n   694: a3 = u64 [sp + 0x100]\n   698: a1 = a1 | a2\n   701: a0 = a0 | a3\n   704: a0 = a0 | a1\n   707: jump @33 if a0 == 0\n      : @30 (gas: 6)\n   710: a1 = 0x20030\n   715: i32 a1 = a1 + 0\n   717: a0 = 0x1\n   720: a2 = 0\n   722: ecalli 4 // 'seal_return'\n   724: jump @33\n      : @31 (gas: 6)\n   726: a1 = 0x20030\n   731: i32 a1 = a1 + 0\n   733: a0 = 0x1\n   736: a2 = 0\n   738: ecalli 4 // 'seal_return'\n   740: jump @33\n      : @32 (gas: 5)\n   742: i32 a1 = a1 + 0\n   744: a0 = 0x1\n   747: a2 = 0\n   749: ecalli 4 // 'seal_return'\n   751: fallthrough\n      : @33 (gas: 2)\n   752: a0 = i32 [s1]\n   754: jump @35 if a0 >u 99\n      : @34 (gas: 2)\n   758: a1 = 0x20030\n   763: jump @32\n      : @35 (gas: 4)\n   765: i32 a0 = sp + 0x120\n   769: a1 = 0x4\n   772: ecalli 1 // 'call_data_load'\n   774: fallthrough\n      : @36 (gas: 12)\n   775: a2 = u64 [sp + 0x138]\n   779: s1 = u64 [sp + 0x130]\n   783: a3 = u64 [sp + 0x128]\n   787: a4 = u64 [sp + 0x120]\n   791: a0 = a3 | a2\n   794: a1 = a4 | s1\n   797: a1 = a1 | a0\n   800: a1 = a1 >> 0x20\n   803: a0 = a0 | s1\n   806: a0 = a0 << 0x20\n   809: a0 = a0 | a1\n   812: jump @38 if a0 == 0\n      : @37 (gas: 2)\n   815: a1 = 0x20030\n   820: jump @32\n      : @38 (gas: 7)\n   822: u64 [sp + 0x28] = a4\n   825: u64 [sp + 0x30] = a3\n   828: u64 [sp + 0x38] = a2\n   831: i32 a0 = sp + 0x140\n   835: a1 = 0x24\n   838: ecalli 1 // 'call_data_load'\n   840: fallthrough\n      : @39 (gas: 10)\n   841: a2 = u64 [sp + 0x150]\n   845: a3 = u64 [sp + 0x158]\n   849: a0 = 0x100000000\n   859: a0 = a0 ^ a2\n   862: a0 = a0 | a3\n   865: a1 = a2 >> 0x20\n   868: a1 = a1 <u 0x1\n   871: a1 = 0 if a3 != 0\n   873: a1 = 0 if a0 == 0\n   875: jump @41 if a1 != 0\n      : @40 (gas: 2)\n   878: a1 = 0x20030\n   883: jump @32\n      : @41 (gas: 16)\n   886: a0 = u64 [sp + 0x148]\n   890: u64 [sp + 0x18] = a0\n   893: a0 = u64 [sp + 0x140]\n   897: u64 [sp + 0x20] = a0\n   900: a0 = u64 [sp + 0x28]\n   903: u64 [sp + 0xa0] = a0\n   907: a0 = u64 [sp + 0x30]\n   910: u64 [sp + 0xa8] = a0\n   914: u64 [sp + 0xb0] = s1\n   918: a0 = 0x80\n   922: a1 = sp + 0xa0\n   926: u64 [sp + 0x30] = a2\n   929: a2 = u64 [sp + 0x38]\n   932: u64 [sp + 0xb8] = a2\n   936: s1 = a3\n   938: ra = 18, jump @2\n      : @42 [@dyn 9] (gas: 10)\n   943: u64 [sp + 0x98] = s1\n   947: a0 = u64 [sp + 0x30]\n   950: u64 [sp + 0x90] = a0\n   954: a0 = u64 [sp + 0x18]\n   957: u64 [sp + 0x88] = a0\n   961: a0 = 0xa0\n   965: a1 = sp + 0x80\n   969: a2 = u64 [sp + 0x20]\n   972: u64 [sp + 0x80] = a2\n   976: ra = 20, jump @2\n      : @43 [@dyn 10] (gas: 14)\n   981: i32 a0 = sp + 0x160\n   985: a1 = 0x44\n   988: ecalli 1 // 'call_data_load'\n   990: a2 = u64 [sp + 0x160]\n   994: a0 = u64 [sp + 0x168]\n   998: a1 = u64 [sp + 0x170]\n  1002: a3 = u64 [sp + 0x178]\n  1006: u64 [sp + 0x78] = a3\n  1009: u64 [sp + 0x70] = a1\n  1012: u64 [sp + 0x68] = a0\n  1015: a0 = 0xc0\n  1019: a1 = sp + 0x60\n  1022: u64 [sp + 0x60] = a2\n  1025: ra = 22, jump @2\n      : @44 [@dyn 11] (gas: 29)\n  1030: a0 = u64 [0x20000]\n  1035: a1 = u64 [0x20008]\n  1040: a2 = u64 [0x20010]\n  1045: u64 [sp + 0x58] = a0\n  1048: u64 [sp + 0x50] = a1\n  1051: u64 [sp + 0x48] = a2\n  1054: a3 = u64 [0x20018]\n  1059: a0 = 0x80\n  1063: a1 = 0x60\n  1066: a2 = sp + 0x40\n  1069: u64 [sp + 0x40] = a3\n  1072: ra = 0x18\n  1075: sp = sp + 0xffffffffffffffa0\n  1078: u64 [sp + 0x58] = ra\n  1081: u64 [sp + 0x50] = s0\n  1084: u64 [sp + 0x48] = s1\n  1087: s0 = sp + a1\n  1090: sp = sp & 0xffffffffffffffe0\n  1093: a3 = u64 [a2]\n  1095: u64 [sp + 0x18] = a3\n  1098: a3 = u64 [a2 + 0x8]\n  1101: u64 [sp + 0x10] = a3\n  1104: a3 = u64 [a2 + 0x10]\n  1107: u64 [sp + 0x8] = a3\n  1110: a2 = u64 [a2 + 0x18]\n  1113: u64 [sp] = a2\n  1115: s1 = a1\n  1117: ra = 0x4\n  1120: jump @5\n      : @45 [@dyn 12] (gas: 6)\n  1123: a1 = 0x20030\n  1128: i32 a1 = a1 + 0\n  1130: a0 = 0\n  1132: a2 = 0\n  1134: ecalli 4 // 'seal_return'\n  1136: jump @33\n      : @46 [export #0: 'call'] (gas: 2)\n  1139: a0 = 0\n  1141: ra = 26, jump @11\n      : @47 [@dyn 13] [export #1: 'deploy'] (gas: 2)\n  1146: a0 = 0x1\n  1149: ra = 28, jump @11\n      : @48 [@dyn 14] (gas: 16)\n  1154: a4 = u64 [a3]\n  1156: u64 [sp + 0x18] = a4\n  1159: a4 = u64 [a3 + 0x8]\n  1162: u64 [sp + 0x20] = a4\n  1165: a4 = u64 [a3 + 0x10]\n  1168: u64 [sp + 0x28] = a4\n  1171: a3 = u64 [a3 + 0x18]\n  1174: u64 [sp + 0x30] = a3\n  1177: s1 = u64 [a2]\n  1179: a3 = u64 [a2 + 0x8]\n  1182: u64 [sp] = a3\n  1184: a3 = u64 [a2 + 0x10]\n  1187: u64 [sp + 0x8] = a3\n  1190: a2 = u64 [a2 + 0x18]\n  1193: u64 [sp + 0x10] = a2\n  1196: jump [t0]\n",
        "bytecode": {
          "linkReferences": {},
          "object": "50564d00003806000000000000010700c15000c000800320ca90b9eb3d6c460e9ec961422aa5f7d99faf281aceadd43a91192c25445a2b5604808207000000000e0000001c0000002a00000037000000420000005400000063616c6c5f646174615f636f707963616c6c5f646174615f6c6f616463616c6c5f646174615f73697a656465706f7369745f6576656e747365616c5f72657475726e7365745f696d6d757461626c655f6461746176616c75655f7472616e7366657272656405110284730463616c6c847a066465706c6f790685640e0284ae3900070192019701bd01270233026802af03d503060463047a048204390828000251081702330750000383770a05280a029511d87b10207b15187b161082897b19088289087b198285108286183308205010020f016f686f59821a6faa821b086fbb787b18787a10787908787898bc38787c1f98bc30787c1e98bc28787c1d98bc20787c1c98bc18787c1b98bc10787c1a98bb08787b1998ab38787b1798ab30787b1698ab28787b1598ab20787b1498ab18787b1398ab10787b1298aa08787a11989a38787a0f989a30787a0e989a28787a0d989a20787a0c989a18787a0b989a10787a0a989908787909988938787907988930787906988928787905988920787904988918787903988910787902988808787801821020821518821610951128320082186f888219086f99821a106faa821b186fbb7b1b387b1a307b19287b18208379836a8317203308010a039551a082105882155082164895116032008b7910520931c8780883881f8488e05638000001253309240002390a240002ae8a093d082400020133083000028377c887073200009511f07b10087b158475010a02013d0720000251050750100609501008a1009511a07b10587b15509515608411e049111849111049018000330740641849110850100a5dfe4911384911304911284911208317200a0601821730821838821928821a20d49808d4a707d4870751071633083000028388330701330933000e0a04283b390824000256187f0c2003240002800001330730000283778000330833090a28e7fd33078000330850100c21ff83783307330933000e0a0401951160fe7b1098017b1590017b1688019515a0018411e04921d8004921d0004921c00080003307409518c0004921c800501010b2fd33062000023907200002531704648317e00033080a01018017fc00977720140800000000e8657e67ab874649211801492110014921080149210001831700010a0601821710018218180182190801821a0001d49808d4a707d4870751072d3308300002838833070133090a04281c3308300002838833070133090a04280c838833070133090a040181675617630b330830000228eb831720013308040a01018219380182163001821a2801821b2001d49a07d46b08d47808988820d46707977720d4870751070a330830000228b27b1b287b1a307b1938831740013308240a010182195001821a580114070000000001000000d39707d4a70798982088880194a8937852080b33083000022873ff821748017b1718821740017b17208217287b17a0008217307b17a8007b16b000330780009518a0007b19308219387b19b80064a65010126bfc7b1698008217307b1790008217187b1788003307a000951880008219207b19800050101445fc831760013308440a01821960018217680182187001821a78017b1a787b18707b17683307c0009518607b196050101614fc3a070000023a080800023a091000027b17587b18507b19483a0a180002330780003308609519407b1a403300189511a07b10587b15507b1648c881058411e0829a7b1a18829a087b1a10829a107b1a088299187b19648633000428e3fc33083000028388330733090a042880fe330750101a03fd33070150101cfbfc82ab7b1b1882ab087b1b2082ab107b1b2882aa187b1a308296829a087b1a829a107b1a088299187b19103202214225494a4a12aa529292244992244992244992244992244992244992244992a44a2925492525494a920421240ca549694884244912292149d2244992504a85080c5113852a8d8888440489082144d448008988884644244928552855a94528d28888244992509248230248924a4824924844441285482422122152444492484208214988244992a424492a095529249424494a491200",
          "opcodes": ""
        },
        "methodIdentifiers": {
          "transferAssetsToParachain(uint32,address,uint256)": "677e65e8"
        }
      },
      "hash": "d8867f09c1e88cee79646c3a6ba1e64eda70fb069fb619e7991a0dccc1949960",
      "factoryDependencies": {}
    }
  }
}